:100000000C94BE000C94DD000C94DD000C94DD001B
:100010000C94DD000C94DD000C94DD000C94DD00EC
:100020000C94DD000C94DD000C94ED070C94DD00C5
:100030000C94DD000C9421080C94DD000C94C2118A
:100040000C94DD000C94DD000C94DD000C94DD00BC
:100050000C94DD000C94DD000C94DD000C94DD00AC
:100060000C94DD000C940D110C94DD000C94DD005B
:100070000C94DD000C9468120C94DD000C94DD00EF
:100080000C94B0190C94C6190C94DD000C9423192F
:100090000C94DD000C94DD000C94DD000C94DD006C
:1000A0000C94DD000C94DD000C94F7180C940D19E1
:1000B0000C94DD000C9460180C94DD000C94DD00B1
:1000C0000C94DD000C94DD000C94DD000C94DD003C
:1000D0000C94DD000C94DD000C94DD000C94DD002C
:1000E0000C94DD009A0A7E0A4C0A0F0BD90A020B07
:1000F000230A070ADA09C209630963096309630964
:1001000063096309B609AB096309630963096309F4
:10011000630963096309630963096309630963097F
:10012000DA094C0A9F099A0963096309630963099B
:10013000630963096309630963096309630963095F
:10014000D90A230A630963099A0A020BC30A084AF7
:10015000D73B3BCE016E84BCBFFDC12F3D6C7431DB
:100160009ABD56833DDA3D00C77F11BED9E4BB4C32
:100170003E916BAAAABE000000803F0011241FBE62
:10018000CFEFD1E2DEBFCDBF00E00CBF13E0A0E0B7
:10019000B2E0E4E0FBE502C005900D92A232B107A7
:1001A000D9F715E0A2E2B3E001C01D92AC37B10768
:1001B000E1F70E94DF000C94812D0C940000CF9297
:1001C000DF92EF92FF920F931F93CF93DF930E94E2
:1001D00063110E9431200E94DC190E9438127B01B9
:1001E0008C01CC24CFEFD0E0DD24DA940E943E11C4
:1001F00080933F050E94EF1E0E9448260E943812FD
:100200006E197F09800B910B6E312BE4720720E091
:10021000820720E0920708F080C00E9451090E94E6
:10022000FC0380913F0560E00E94DC1080913F0557
:10023000823009F481C0833008F049C0882309F076
:1002400080C00E94781580913F05882309F060C026
:1002500080E0C81659F20E94ED1B0E94F41B8091A9
:100260000B01816080930B0180910B018260809370
:100270000B0180910B01846080930B01A39A809104
:100280000B01806180930B0180910B018062809350
:100290000B0180910B01806480930B0180910B0115
:1002A000806880930B01D0920C02D0920D02D09204
:1002B0000E028FEF0E94341C80910D020E94481C98
:1002C00080910E020E945C1CC0903F058FCF84304D
:1002D00009F43FC0843070F1853009F0B6CF8091C9
:1002E0000C020E94341C80910D020E94481C8091D7
:1002F0000E020E945C1C0E94E91B89E10E94EC171F
:1003000089E10E94261880913F05882309F4A0CF37
:100310000E94A51680913F059CCF0E9441128091BA
:100320003F058450823008F447C00E9438127B0198
:100330008C0173CF0E94E91B0E94F01B80913F0546
:1003400084CF813009F081CF0E94E91B80913F0565
:100350007CCF80910B018E7F80930B0180910B01EC
:100360008D7F80930B0180910B018B7F80930B011C
:10037000A39880910B018F7E80930B0180910B01DC
:100380008F7D80930B0180910B018F7B80930B01FC
:1003900080910B018F7780930B0180910C020E945A
:1003A000341C80910D020E94481C80910E020E9414
:1003B0005C1C80913F0549CF0E94F82ABE010E9433
:1003C000602A80930C020E94F82ABE010E94602AD3
:1003D00080930D020E94F82ABE010E94602A809339
:1003E0000E02A3CF81E090E021E00DB407FC0AC02B
:1003F000019637E280319307C0F320930C040DB4CB
:1004000007FEF6CF089584B1807F84B984B18760F8
:1004100084B980E58CBD8DB581608DBD08951CBC0F
:100420001DBC0895442309F1A62FB72FE82FF92FFB
:1004300091E021912EBD21E030E00DB407FC0BC00E
:100440002F5F3F4F57E220313507B8F390930C04EC
:100450000DB407FEF5CF20910C04222331F42EB504
:100460002D932E2F281B241720F308956623E9F0DF
:10047000E82FF92F91E021912EBD21E030E00DB45D
:1004800007FC0BC02F5F3F4F47E220313407B8F322
:1004900090930C040DB407FEF5CF20910C04222399
:1004A00021F42E2F281B261730F308958EBD81E0EE
:1004B00090E021E00DB407FC0AC0019637E28031DC
:1004C0009307C0F320930C040DB407FEF6CF8EB54E
:1004D00008950F931F93DF93CF9300D0CDB7DEB76E
:1004E000289880E20E9456028DE00E945602289AC7
:1004F000289883E20E94560281E00E945602289AC0
:100500008091090490910A0499838A831B82289818
:1005100080E30E9456028E010F5F1F4FC80163E007
:100520000E943602289A28988AE20E945602C80140
:1005300063E00E943602289A289881E20E945602BF
:1005400081E00E945602289A289882E20E94560270
:1005500081E00E945602289A289884E20E9456025E
:1005600082E10E945602289A289885E20E9456024B
:1005700088E20E945602289A289881E30E94560237
:100580008DE00E945602289A289880E50E94560223
:1005900083E70E945602289A28988CE30E9456020C
:1005A00081E00E945602289A28988DE30E94560204
:1005B00086E00E945602289A289880E20E945602FD
:1005C0008FE00E945602289A0F900F900F90CF91C3
:1005D000DF911F910F9108952C9A289A0E94690229
:1005E0000895CF93DF93EC012C9828988AE20E941B
:1005F0005602CE0165E00E943602289A2C9ADF91BD
:10060000CF910895CF93DF93EC01289880E30E9467
:100610005602CE0165E00E943602289ADF91CF9102
:10062000089580914E05882311F080E00895289860
:100630008FEF0E945602289A80740895DF93CF931B
:100640000F92CDB7DEB71982289887E10E94560233
:10065000BE016F5F7F4FCB0141E00E941202289ADA
:10066000898181700F90CF91DF910895289882EE53
:100670000E945602289A0895CF93DF93EC012898A0
:1006800081E60E945602CE01BE014DE00E94120298
:10069000289A289887E20E94560280E40E94560217
:1006A000289ADF91CF910895DF93CF930F92CDB722
:1006B000DEB728988F71806269830E945602698133
:1006C000862F0E945602289A0F90CF91DF910895AD
:1006D0000F931F93DF93CF930F92CDB7DEB78B01AC
:1006E00028988F7149830E945602C801B801498138
:1006F0000E941202289A0F90CF91DF911F910F91C3
:1007000008950F931F93DF93CF930F92CDB7DEB76A
:100710008B0128988F71806249830E945602C8011C
:100720004981642F0E943602289A0F90CF91DF9161
:100730001F910F9108950F931F93DF93CF930F9203
:10074000CDB7DEB78C0180914E058823E1F72C9858
:1007500081E080934E05289880E269830E945602CA
:100760008AE40E945602289A289881EE0E94560236
:10077000289A289880EA0E945602C80169810E943E
:100780003602289A2C9A0F90CF91DF911F910F91EA
:100790000895EF92FF920F931F93DF93CF930F92E1
:1007A000CDB7DEB7182F062F289881EE99830E94C7
:1007B0005602289A289888EA0E94560299810023B6
:1007C00061F0612F792F7B01F70181917F010E94F8
:1007D00056028E2D811B8017B8F3289A0F90CF9167
:1007E000DF911F910F91FF90EF900895289881EE6F
:1007F0000E945602289A08951F93CF93DF93809109
:100800004E05882321F0DF91CF911F9108952898FC
:100810008FEF0E945602289A86FFF5CF80910B0435
:10082000826080930B04289887E20E94560280E73A
:100830000E945602289A289881E60E9456028CE669
:1008400095E0BC014DE00E941202289A289887E2A8
:100850000E94560280E40E945602289A289882EE4E
:100860000E945602289A60916C05662309F495C18E
:100870005091700540917105E0916D0570916E0584
:10088000252F30E02F773070309308042093070431
:10089000842F90E08F7790709093060480930504E6
:1008A00057FD7FC2220F331F220F331F3095219532
:1008B0003F4F3093F6032093F50347FD7CC2880F2A
:1008C000991F880F991F909581959F4F9093F803DA
:1008D0008093F70342E02130340744F040E052E0D7
:1008E0005093F6034093F50320E032E042E081307C
:1008F000940734F080E092E09093F8038093F7033C
:100900004EEF2030340734F440E05EEF5093F603AE
:100910004093F5032EEF8030920734F480E09EEF91
:100920009093F8038093F703262F30E0309365050A
:1009300020936405F0E0F0936705E0936605C72F08
:10094000D0E0D0936905C0936805922F8827821B59
:10095000930B24E630E0B9010E944C2A162F109523
:1009600010930C025E2F44274E1B5F0BCA01B90186
:100970000E944C2A609560930E025C2F44274C1B0A
:100980005D0BCA01B9010E944C2A609560930D026B
:10099000812F0E94341C80910D020E94481C80917E
:1009A0000E020E945C1C80916F0580FF02C144987A
:1009B00081FF02C14598982F82FF02C121E0209358
:1009C000110284FD01C186FF06C181E080934705C5
:1009D00097FD05C1109248058091720580FF06C100
:1009E00080910B018E7F80930B018091720581FFB6
:1009F00006C180910B018D7F80930B018091720560
:100A000082FF06C180910B018B7F80930B01809147
:100A1000720583FF06C1A3988091720584FF06C109
:100A200080910B018F7E80930B018091720585FF71
:100A300006C180910B018F7D80930B01809172051F
:100A400086FF06C180910B018F7B80930B01809103
:100A5000720587FD06C180910B01806880930B01B0
:100A600080910B0280935405853009F406C18630CD
:100A700008F05FC1833009F40EC2843009F03FC032
:100A80009091650380916603909355058093560578
:100A900090916D0380916E03909357058093580554
:100AA00090916F03809170039093590580935A053C
:100AB000909171038091720390935B0580935C0524
:100AC000909173038091740390935D0580935E050C
:100AD0009091190580911A0590935F0580936005A8
:100AE00090911B0580911C05909361058093620590
:100AF000809114058093630585E080930B0228980C
:100B000081EE0E945602289A289888EA0E9456028E
:100B1000809154050E945602809155050E9456020C
:100B2000809156050E945602809157050E945602F8
:100B3000809158050E945602809159050E945602E4
:100B400080915A050E94560280915B050E945602D0
:100B500080915C050E94560280915D050E945602BC
:100B600080915E050E94560280915F050E945602A8
:100B7000809160050E945602809161050E94560294
:100B8000809162050E945602809163050E94560280
:100B9000289ADF91CF911F910895E0916D05EE2382
:100BA00009F412C1509170054091710570916E0564
:100BB00067CE449A81FDFECE459A982F82FDFECEE7
:100BC0001092110284FFFFCE0E94312090916F0598
:100BD000892F86FDFACE1092470597FFFBCE81E064
:100BE000809348058091720580FDFACE80910B01BB
:100BF000816080930B018091720581FDFACE809116
:100C00000B01826080930B018091720582FDFACE08
:100C100080910B01846080930B018091720583FDAC
:100C2000FACEA39A8091720584FDFACE80910B01D1
:100C3000806180930B018091720585FDFACE8091D1
:100C40000B01806280930B018091720586FDFACEC4
:100C500080910B01806480930B018091720587FF66
:100C6000FACE80910B018F7780930B0180910B025C
:100C700080935405853009F0FACE80912D03909130
:100C80002E038093550580912D0390912E03909310
:100C900056058091310390913203809357058091DE
:100CA00031039091320390935805809135039091D0
:100CB00036038093590580913503909136039093C4
:100CC0005A058091390390913A0380935B05809196
:100CD000390390913A0390935C0580914103909180
:100CE000420380935D05809141039091420390936C
:100CF0005E05809145039091460380935F05809146
:100D0000450390914603909360058091490390912B
:100D10004A03809361058091490390914A0390931F
:100D2000620580913F058093630586E080930B0206
:100D3000E6CE863009F45DC0873009F0E0CE309110
:100D4000D9032091DA039091DB038091DC03309387
:100D5000550520935605909357058093580530917B
:100D6000D5032091D6039091D7038091D803309377
:100D7000590520935A0590935B0580935C0510926A
:100D80005D0510925E0510925F051092600510924D
:100D90006105109262051092630583E080930B0257
:100DA000AECE220F331F220F331F3093F603209352
:100DB000F50347FF84CD880F991F880F991F9093E3
:100DC000F8038093F70386CD70916E05772361F465
:100DD00080916F05883041F450917005552309F4D6
:100DE000C0C0409171054CCD509170054091710586
:100DF00047CD80913D0390913E03809355058091AE
:100E00003D0390913E039093560580914D03909140
:100E10004E038093570580914D0390914E0390931C
:100E20005805809151039091520380935905809108
:100E300051039091520390935A05809155039091DC
:100E4000560380935B0580915503909156039093D0
:100E50005C058091590390915A0380935D058091C0
:100E6000590390915A0390935E0590911D058091CE
:100E70001E0590935F05809360059091C10380915A
:100E8000C20390936105809362051092630587E029
:100E900080930B0234CE90915D0380915E0390931A
:100EA00055058093560590915F0380916003909360
:100EB0005705809358059091610380916203909348
:100EC000590580935A059091630380916403909330
:100ED0005B0580935C059091670380916803909314
:100EE0005D0580935E059091690380916A039093FC
:100EF0005F058093600590916B0380916C039093E4
:100F00006105809362053091030180910301209176
:100F1000030190E0807290709595879595958795DF
:100F2000959587959595879595958795880F991FA0
:100F3000221F2227221F220F220F282B832F90E00F
:100F400080719070959587959595879595958795DE
:100F500095958795282B2093630584E080930B0259
:100F6000CECD40917105442379F01092080410927F
:100F70000704842F90E08F779070909306048093FD
:100F8000050420E030E08ECC8CE30E94CC1150911F
:100F900070054091710560916C05E0916D0570914F
:100FA0006E056ECCCF93DF93C8E6D0E01882ACE636
:100FB000B0E01C92E0EBF0E010821092B1001092D1
:100FC00070008881826088838C9180688C93808196
:100FD00082608083DF91CF9108951F920F920FB6A8
:100FE0000F9211248F9380911102882321F1809117
:100FF000030186FD20C0809168008D7F809368008A
:1010000080916C008F7780936C0081E08093120256
:101010008DE08093B3008091B10086608093B10031
:10102000809170008260809370001092240310926F
:101030002503109226038F910F900FBE0F901F90E3
:1010400018951F920F920FB60F9211242F933F9372
:101050004F935F938F939F938091B100887F80938C
:10106000B100809112028823A9F08091030186FFCC
:1010700065C08091680082608093680080916C00F8
:10108000806880936C008FEF9FEF909302028093B3
:10109000010249C080910102909102022FEF8F3F1F
:1010A000920709F463C08130910509F498C09C014E
:1010B000225030402530310508F467C09C0127508C
:1010C00030402630310508F0BDC026E32093B30040
:1010D0002091B10026602093B10020917000226021
:1010E000209370002091030130E0207430700024C0
:1010F000220F331F001C220F331F001C232F302D03
:101100004CE050E0481B590B02C0220F331F4A9598
:10111000E2F740912403420F4093240301969093F9
:101120000202809301029F918F915F914F913F91B5
:101130002F910F900FBE0F901F90189510921202D2
:1011400083E38093B3008091B10086608093B10007
:101150008091700082608093700080910102909174
:1011600002022FEF8F3F9207C9F6DDCF20910301D6
:1011700026FF52C0209168002260209368002091D1
:101180006C00206820936C00CECF26E32093B30040
:101190002091B10026602093B10020917000226060
:1011A000209370002091030130E0207430700024FF
:1011B000220F331F001C220F331F001C232F302D42
:1011C00046E050E0481B590B02C0220F331F4A95DE
:1011D000E2F740912503420F409325039FCF2091D2
:1011E000030130E020743070022E232F000C221FE8
:1011F000330B000C221F331F2093260326E320937A
:10120000B3002091B10026602093B10020917000BE
:1012100022602093700082CF8CE18093B300809194
:10122000B10086608093B1008091700082608093ED
:10123000700010922403109225031092260381E07F
:1012400090E06DCF8D30910509F068CF109270005D
:101250008091680082608093680080916C00806853
:1012600080936C008FEF9FEF9093020280930102B6
:1012700080912603809300028091250380932203AE
:10128000809124038093230381E0809315054BCF45
:101290008091000208958091220308958091230394
:1012A0000895809111028823B1F18091150588235A
:1012B00091F1E0912303E093140510921505F0E0FD
:1012C000E533F10548F12091F5033091F603809163
:1012D000F7039091F80337FD27C03595279535958D
:1012E0002795309308042093070497FD09C095952E
:1012F00087959595879590930604809305040895A6
:10130000909581959F4F9595879595958795909305
:101310000604809305040895EE58FF4FEE0FFF1F5B
:101320000590F491E02D1994309521953F4FD5CF3C
:101330008093470510924805C6CF1092470581E07B
:10134000809348052091F5033091F6038091F703CF
:101350009091F803C0CF109247052091F50330918A
:10136000F6038091F7039091F803B5CF81E0809365
:1013700047052091F5033091F6038091F703909192
:10138000F803A9CF8091F7039091F8034E979093BB
:10139000F8038093F7032EEF803092079CF580E0EE
:1013A0009EEF9093F8038093F7032091F50330911B
:1013B000F60391CF2091F5033091F6038091F3036A
:1013C0009091F4032817390724F02091F703309106
:1013D000F8032E5130403093F6032093F503C901F2
:1013E0003093F8032093F7034EEF2030340734F4A2
:1013F00040E05EEF5093F6034093F5034EEF20304C
:1014000034076CF22091F5033091F60364CF2091FC
:10141000F5033091F6032E5130403093F6032093BC
:10142000F5034EEF203034070CF017C180E09EEF3B
:101430009093F6038093F5038091F7039091F8035E
:1014400020E830E04ECF2091F5033091F6032E5185
:1014500030403093F6032093F5038091F703909189
:10146000F8034E969093F8038093F7034EEF2030E5
:10147000340734F420E03EEF3093F6032093F50375
:1014800042E0813094070CF426CF80E092E0909304
:10149000F8038093F7031FCF2091F5033091F603F3
:1014A0008091F7039091F803821793070CF4DAC048
:1014B0009C01225E3F4F3093F6032093F5034E9636
:1014C0009093F8038093F70342E02130340734F01F
:1014D00020E032E03093F6032093F50322E08130E0
:1014E00092070CF48FCF80E092E09093F803809302
:1014F000F7032091F5033091F603EDCE2091F5032B
:101500003091F603225E3F4F3093F6032093F503AC
:1015100042E0213034070CF4A0C080E092E09093C8
:10152000F6038093F5038091F7039091F80320E888
:1015300030E0D7CE8091160590E0019665E070E02E
:101540000E94602A80931605882309F08DC0449A72
:10155000459A10920E028FEF80930D0280930C0239
:101560000E94341C80910D020E94481C80910E0242
:101570000E945C1C2091F5033091F6038091F703E3
:101580009091F803A8CE8091170590E001968370A2
:10159000907080931705823009F4CFCE833009F420
:1015A00053C0813009F4C4CE10924705109248050B
:1015B0008ACE2091F5033091F603225E3F4F30939F
:1015C000F6032093F5038091F7039091F8034E976B
:1015D0009093F8038093F70342E02130340734F00E
:1015E00020E032E03093F6032093F5034EEF803095
:1015F00094070CF070CE80E09EEF9093F8038093F8
:10160000F70369CE1092F6031092F5031092F803D7
:101610001092F70380E090E020E030E05ECE809111
:10162000F7039091F8034E969093F8038093F70395
:1016300022E0813092070CF4E5CE80E092E09093B6
:10164000F8038093F703DECE81E080934705809313
:1016500048052091F5033091F6038091F7039091AE
:10166000F80339CEC90125CF813061F0823091F085
:101670008330D9F08FEF80930E0280930D02809318
:101680000C026ECF8FEF80930E0210920D028093AA
:101690000C0266CF449845988FEF80930E0280939A
:1016A0000D0210920C0280E05BCF10920E0210929D
:1016B0000D0210920C0280E053CF08950F931F93F8
:1016C000CF93DF93FC0180819181009709F4B7C02B
:1016D00020912F053091300541E02E3034070CF475
:1016E00088C0181619060CF013C188E691E0821B19
:1016F000930B959587959595879529E130E0281B63
:10170000390B30930402209303024091500550910D
:10171000510550936B0540936A052081318137FD57
:10172000D2C08091ED039091EE03B901681B790B53
:10173000CB0170935105609350052091FD033091CA
:10174000FE03280F391F3093FE032093FD0376E03C
:10175000213437070CF484C020E436E03093FE03D4
:101760002093FD0360EC72E19C01220F331FDC012A
:10177000AA0FBB1FAA0FBB1FAA0FBB1F2A0F3B1F1D
:1017800000811181C0910302D09104020C9FD0010D
:101790000D9FB00D1C9FB00D11242A0F3B1F481B3D
:1017A000590B440F551F240F351F260F371F309339
:1017B000FC032093FB0337FD69C0121613060CF0DF
:1017C0006FC08081918197FD89C07DE5213C3707FD
:1017D0000CF466C080EC9DE59093FC038093FB03C2
:1017E00080E092E091838083DF91CF911F910F91F0
:1017F0000895243B310594F42A3531057CF41816FC
:1018000019060CF093C03595279535952795275ED9
:101810003F4F309304022093030277CF1816190626
:1018200094F584EB90E0821B930B959587959595A5
:1018300087954996909304028093030266CF109295
:10184000FE031092FD031092510510925005109264
:101850006B0510926A05DF91CF911F910F9108954A
:1018600069EF203C36074CF420EC39EF3093FE034F
:101870002093FD0360E47DEE77CFB901660F771FFB
:10188000620F731F71CF84EB90E031CF8081918123
:1018900097FD06C01092FC031092FB0320E030E09D
:1018A00082EA2034380704F580E492EA9093FC033E
:1018B0008093FB0380E09EEF91838083DF91CF9143
:1018C0001F910F9108958091ED039091EE03820F87
:1018D000931F90935105809350052FCF1092FC03D6
:1018E0001092FB0320E030E035952795359527953C
:1018F00035952795359527953183208342E0213012
:1019000034070CF06DCF6EEF203036079CF26CCFB1
:1019100088E691E0821B930B959587959595879521
:1019200049969093040280930302EFCE3595279554
:101930003595279589E190E0821B930B90930402E3
:1019400080930302E2CE0F931F93CF93DF93FC01AA
:1019500080819181009709F4B7C020912F053091C3
:10196000300541E02E3034070CF488C018161906F3
:101970000CF013C188E691E0821B930B9595879537
:101980009595879529E130E0281B390B30930602A5
:10199000209305024091790550917A0550935305A3
:1019A000409352052081318137FDD2C08091EF03F1
:1019B0009091F003B901681B790BCB0170937A0504
:1019C000609379052091FF0330910004280F391F9F
:1019D000309300042093FF0376E0213437070CF4A2
:1019E00084C020E436E0309300042093FF0360ECD1
:1019F00072E19C01220F331FDC01AA0FBB1FAA0F4B
:101A0000BB1FAA0FBB1F2A0F3B1F00811181C09172
:101A10000502D09106020C9FD0010D9FB00D1C9FB6
:101A2000B00D11242A0F3B1F481B590B440F551FA3
:101A3000240F351F260F371F3093FA032093F90325
:101A400037FD69C0121613060CF06FC080819181BA
:101A500097FD89C07DE5213C37070CF466C080EC1A
:101A60009DE59093FA038093F90380E092E09183DF
:101A70008083DF91CF911F910F910895243B310511
:101A800094F42A3531057CF4181619060CF093C02D
:101A90003595279535952795275E3F4F309306025C
:101AA0002093050277CF1816190694F584EB90E081
:101AB000821B930B9595879595958795499690935D
:101AC00006028093050266CF109200041092FF0375
:101AD00010927A05109279051092530510925205D2
:101AE000DF91CF911F910F91089569EF203C360748
:101AF0004CF420EC39EF309300042093FF0360E4B2
:101B00007DEE77CFB901660F771F620F731F71CF1C
:101B100084EB90E031CF8081918197FD06C01092D7
:101B2000FA031092F90320E030E082EA203438070B
:101B300004F580E492EA9093FA038093F90380E03D
:101B40009EEF91838083DF91CF911F910F91089534
:101B50008091EF039091F003820F931F90937A0589
:101B6000809379052FCF1092FA031092F90320E0A9
:101B700030E03595279535952795359527953595F9
:101B800027953183208342E0213034070CF06DCF5C
:101B90006EEF203036079CF26CCF88E691E0821B16
:101BA000930B959587959595879549969093060201
:101BB00080930502EFCE359527953595279589E1D8
:101BC00090E0821B930B9093060280930502E2CE75
:101BD000FC0180819181009709F47BC0A091790577
:101BE000B0917A05B0935305A093520520813181BD
:101BF00037FD89C08091EF039091F003A901481B44
:101C0000590BCA0150937A05409379052091FF033F
:101C100030910004280F391F309300042093FF03F4
:101C200056E0213435070CF461C020E436E03093EF
:101C300000042093FF0360E87CE09C01220F331F27
:101C4000280F391F220F331F220F331F220F331F7C
:101C5000280F391F40815181440F551F440F551FD4
:101C6000440F551F240F351FAD01481B590BCA01E6
:101C7000880F991F840F951F280F391F260F371FB4
:101C80003093FA032093F90337FD4CC01216130664
:101C90000CF052C08081918197FD67C05DE5213CC9
:101CA00035070CF449C080EC9DE59093FA038093CE
:101CB000F9032CED35E0225E3F4F3183208342E073
:101CC000213034070CF448C080E092E09183808397
:101CD0000895109200041092FF0310927A0510925A
:101CE00079051092530510925205089549EF203C52
:101CF0003407A4F420EC39EF309300042093FF0361
:101D000060E873EF9ACF8091EF039091F003820F18
:101D1000931F90937A058093790578CFB901660F68
:101D2000771F8BCF8081918197FD06C01092FA03B7
:101D30001092F90320E030E082EA20343807DCF426
:101D400080E492EA9093FA038093F90324E23AEF55
:101D50002E513040318320835EEF2030350724F44C
:101D600080E09EEF9183808308951092FA03109291
:101D7000F90320E030E03595279535952795359581
:101D800027953595279531832083121613060CF479
:101D900092CF21153105E1F60895FC0180819181F2
:101DA000009709F47BC0A0915005B0915105B09304
:101DB0006B05A0936A052081318137FD89C0809130
:101DC000ED039091EE03A901481B590BCA015093F2
:101DD0005105409350052091FD033091FE03280FDB
:101DE000391F3093FE032093FD0356E0213435075D
:101DF0000CF461C020E436E03093FE032093FD0331
:101E000060E87CE09C01220F331F280F391F220F4E
:101E1000331F220F331F220F331F280F391F40811A
:101E20005181440F551F440F551F440F551F240F58
:101E3000351FAD01481B590BCA01880F991F840F2C
:101E4000951F280F391F260F371F3093FC0320934F
:101E5000FB0337FD4CC0121613060CF052C08081F4
:101E6000918197FD67C05DE5213C35070CF449C0C1
:101E700080EC9DE59093FC038093FB032CED35E013
:101E8000225E3F4F3183208342E0213034070CF43F
:101E900048C080E092E09183808308951092FE0311
:101EA0001092FD03109251051092500510926B058F
:101EB00010926A05089549EF203C3407A4F420EC01
:101EC00039EF3093FE032093FD0360E873EF9ACF60
:101ED0008091ED039091EE03820F931F9093510533
:101EE0008093500578CFB901660F771F8BCF808123
:101EF000918197FD06C01092FC031092FB0320E035
:101F000030E082EA20343807DCF480E492EA9093EF
:101F1000FC038093FB0324E23AEF2E5130403183DF
:101F200020835EEF2030350724F480E09EEF91831C
:101F3000808308951092FC031092FB0320E030E0B0
:101F40003595279535952795359527953595279579
:101F500031832083121613060CF492CF211531051C
:101F6000E1F6089585B7806185BF8FEF81B912B81A
:101F700097EF94B990EE95B990EF97B990EB98B927
:101F80009CEF9AB993E09BB98DB91EB810BA83BB88
:101F9000809142058823E1F08130D1F0823051F107
:101FA0009FEF90930101109202019FE09093040132
:101FB0008823A9F490910501109205011092070160
:101FC0009FEF90930A01882329F410920B01089542
:101FD00014BAE6CF8130C9F3823041F008958130E0
:101FE00011F0823059F790930501E8CF87EF809385
:101FF0000B01089598E094BBD3CF1092B8001092D3
:10200000BC000895589A599A1092B90081E08093C3
:10201000B800089594EA9093BC009091BC0097FF9B
:10202000FCCF9091B900987F983021F0903111F059
:1020300081E008958093BB0084E88093BC00809188
:10204000BC0087FFFCCF9091B900987F983121F0B8
:1020500081E0903419F0089580E0089580E00895BB
:1020600024EA34E844E92093BC009091BC0097FF37
:10207000FCCF9091B900987F983011F0903199F78A
:102080008093BB003093BC009091BC0097FFFCCFC5
:102090009091B900987F903219F0983509F0089521
:1020A0004093BC009091BC0094FDFCCFDCCF94EA3F
:1020B0009093BC009091BC0097FFFCCF9091B90029
:1020C000987F983021F0903111F081E0089580934D
:1020D000BB0084E88093BC008091BC0087FFFCCFEC
:1020E0009091B900987F983121F081E0903419F0F7
:1020F000089580E0089580E0089584E98093BC000D
:102100008091BC0084FDFCCF08958093BB0084E8DF
:102110008093BC008091BC0087FFFCCF9091B900F8
:10212000987F81E0983209F0089580E0089584EC6A
:102130008093BC008091BC0087FFFCCF8091BB00E6
:10214000089584E88093BC008091BC0087FFFCCF99
:102150008091BB0008951092C50080E18093C40077
:10216000E0ECF0E0808182608083E1ECF0E080814F
:1021700088698083E2ECF0E0808186608083089546
:102180001092CD0080E18093CC00E8ECF0E08081FB
:1021900082608083E9ECF0E0808188618083EAECF2
:1021A000F0E080818660808308951092C0001092D4
:1021B000C1001092C20008959091C00095FFFCCF1D
:1021C0008093C600662321F08091C00086FFFCCF7B
:1021D00008959091C80095FFFCCF8093CE006623B0
:1021E00021F08091C80086FFFCCF08958091C00047
:1021F0008095881F8827881F089587E990E020919F
:10220000C00027FD07C00197D1F781E080930F043C
:1022100080E008958091C60008951F920F920FB636
:102220000F920BB60F9211242F938F939F93EF93DE
:10223000FF938091100490911104019690931104E2
:102240008093100421E08130920760F480911205A0
:102250009091C600E82FF0E0EE5EFB4F90838F5F19
:1022600080931205FF91EF919F918F912F910F9085
:102270000BBE0F900FBE0F901F90189586B166B1E0
:1022800026B146B130E028703070359527953595E8
:10229000279535952795220F331F70E06470707075
:1022A0007595679575956795260F371F220F331F14
:1022B00050E04270507055954795240F351F220FFE
:1022C0008170820F0895F89414BC15BC10926E00B2
:1022D00010922001109221018EEF9FE00E94B92CF4
:1022E00090930A04809309048DEF9FE00E94B12C23
:1022F00080934F05982F91509E3FD8F580936600AC
:102300008091090490910A049C0121583C4023309B
:102310003105F8F4109242050E94B20F0E94451256
:102320000E941A150E94F71B0E9403020E94EC02F1
:1023300080910C04882329F480910B0481608093A0
:102340000B040E94AB100E943F1D0E94D20778949C
:1023500008952CE08038920721F481E080934205B3
:10236000DBCF2CE084389207B8F282E080934205FC
:10237000D3CF6091660060934F058DEF9FE00E9480
:10238000BF2CBECF1F920F920FB60F9211240F9049
:102390000FBE0F901F901895CF93DF939EE1899FFA
:1023A000E0011124809168008D7F80936800809106
:1023B0006C008F7780936C00D99A10927A0080918C
:1023C0007A00806180937A001092900010929100C0
:1023D0001092710088B3876088BB1092A0001092A1
:1023E000A1001092720089B3876089BB10928000AF
:1023F000109281000E94D5100E940F020E94FD0FD2
:102400000E94B20F83B78F6083BF81E0809370001A
:102410008091B0008D7F8093B0008091B100876083
:102420008093B100209719F088952197E9F713BEA2
:102430008091B100887F8093B100109270008091EC
:10244000B00082608093B0008FEF80930C02809385
:102450000D0280930E021092F2031092F10310927B
:10246000F4031092F3030E946311DF91CF9108955A
:1024700060913B0570913C0580913D0590913E0532
:10248000089581E08093C3030895CF93DF93EAE733
:10249000F0E01082ABE7B0E01C92CCE7D0E018820D
:1024A0008081866080838881806488838081806267
:1024B00080838C91887F8C938081886080838081E9
:1024C00080688083808180648083DF91CF910895CC
:1024D0001F920F920FB60F920BB60F9211242F93EB
:1024E0003F934F935F936F938F939F93AF93BF935C
:1024F000EF93FF9380913B0590913C05A0913D05A2
:10250000B0913E050196A11DB11D80933B059093AE
:102510003C05A0933D05B0933E052091780030E046
:1025200040917900942F80E0282B392B8091BD03B6
:10253000823009F4ACC1833008F445C0833009F41B
:10254000C9C1843009F468C18091BE03823009F4A6
:102550004FC1833008F0CDC0882309F024C1809199
:1025600028038695809327038091BF03882309F071
:10257000E1C181E08093BD0381E08093BE0390912F
:102580002703983008F0EDC090917B00977F9093DF
:102590007B0090912703905C90937C00823009F43B
:1025A000EDC0FF91EF91BF91AF919F918F916F918E
:1025B0005F914F913F912F910F900BBE0F900FBEE7
:1025C0000F901F901895882309F0FEC06091280392
:1025D0006E3009F4D0C1462F50E0FA01EE0FFF1F14
:1025E000E35DFC4F3183208340FF77C0FA01EE0F9B
:1025F000FF1FE55DFC4F80819181FA01EE0FFF1F07
:10260000E35DFC4F40815181262F269530E0841BED
:10261000950B220F331FF901EB58FC4F408151817C
:10262000841B950BF901E35AFC4F9183808397FD3E
:10263000BDC144E08130940724F080E094E09183B0
:102640008083603148F48C3391050CF0B4C12B5376
:102650003C4FF9019183808380914805882309F4D8
:1026600075C180916D0390916E03F1E0843A9F07EC
:10267000CCF080916F039091700321E0843A92072F
:102680008CF0809171039091720341E0843A940739
:102690004CF08091730390917403E1E0843A9E07BB
:1026A0000CF054C181E0809349051092F40310921C
:1026B000F3031092A9001092A8001092AB001092A0
:1026C000AA001092F2031092F10310929900109256
:1026D000980010929B0010929A006F5F60932803FD
:1026E000683108F431CF1092280381E08093C4034D
:1026F0002BCF833009F4B7C0843009F040CF9091DC
:102700002A039093270390912B039093BF039091FA
:10271000C003992309F008C183E08093BD031092A0
:10272000BE03609128036E3009F41FC1862F90E02C
:1027300060FFF1C0603108F40CC1209142052223F2
:1027400009F0D5C040979595879521E030E002C00B
:10275000220F331F8A95E2F7209305018091BE0373
:102760000ECF90917B00986090937B00909127030F
:10277000985C90937C00823009F013CF2091420541
:10278000222351F0213019F0223009F00ACF8FEFC7
:102790008093050112B805CF80910501807F809359
:1027A000050112B8FECE813009F0E9CE80912903EF
:1027B0008093270380912C038093C0031092BD0364
:1027C00082E08093BE03DBCE813009F0BDCE8091E4
:1027D000DF039091E003820F931F96958795909366
:1027E000E0038093DF038091BE03823009F0B1CE15
:1027F00080912A038093270380912B038093BF034A
:102800008091C003882309F09BC083E08093BD03BF
:1028100083E08093BE03B3CE80910A02882309F43B
:1028200093CE9091000193FD8FCE9091000194FD85
:102830008BCE482F4F5F40930A02453008F484CE78
:102840008091E9039091EA03820F931F9093EA032A
:102850008093E903483009F077CE10920A0281E0B4
:102860008093070271CE8091290380932703809182
:102870002C038093C0038091BF03882309F04EC0CE
:1028800081E08093BD0384E08093BE0378CE809185
:102890000902882309F458CE639956CE649954CE20
:1028A000482F4F5F40930902453008F44DCE809188
:1028B000EB039091EC03820F931F9093EC038093B2
:1028C000EB03483009F040CE1092090281E080937A
:1028D00008023ACE8091DD039091DE03820F931FB0
:1028E000969587959093DE038093DD032DCE21305E
:1028F00011F0223081F4409105014097959587951C
:1029000021E030E002C0220F331F8A95E2F72095C4
:102910002423209305018091BE0331CE8130D1F173
:1029200085E08093BD03AFCF913009F085E08093BF
:10293000BD03F5CE8130B1F185E08093BD031CCE9F
:10294000813061F185E08093BD0362CF109249052B
:10295000C4CE669581E090E002C0880F991F6A9509
:10296000E2F782B98091BE030ACE8091C303813021
:10297000A1F180E004CE8091C303823009F02BCE18
:102980003093C2032093C1031092C30346984EE0D4
:1029900050E02ACE82E08093BD0375CF84E080931F
:1029A000BD0336CF82E08093BD03E6CD1182108255
:1029B00080E090E046CEAC01445C5F4F5595479572
:1029C000483751057CF42B533C4FCC979595879510
:1029D000CC96F901918380833FCE82E08093C3033C
:1029E000469AA4CEAC01445D5E4F559547955595EA
:1029F0004795443B510574F42B533C4F845B904006
:102A0000959587959595879588589F4FF90191835E
:102A1000808322CE2B533C4F845A914095958795C5
:102A200095958795959587958C549F4FF90191833E
:102A3000808312CE0F931F93CF93DF93E0E9F0E0F2
:102A4000108241E950E0DA011C9221E730E0E9010F
:102A50001882A0EAB0E01C9281EA90E0EC011882B2
:102A600002E710E0E801188260816368608360819A
:102A700063606083EA0168816B6068834091F10361
:102A80005091F203509399004093980010929B004C
:102A900010929A00E90148814160488320812F7596
:102AA00020832EB1277E2EB92C9123682C93FC0114
:102AB00020812B6020838091F3039091F403909305
:102AC000A9008093A8001092AB001092AA00E80120
:102AD0008881816088838C918F758C93E2E0F1E02E
:102AE0008081877E8083DF91CF911F910F91089520
:102AF00080910702882309F041C06091F70370912B
:102B0000F80380910802882309F073C0E091F5036F
:102B1000F091F603F0930204E0930104962F872FBF
:102B2000609303047093040420914705222309F065
:102B3000A3C09093E7038093E803F093E603E09348
:102B4000E5039093F3038093F403F093F203E0938F
:102B5000F1031E161F060CF09EC0F0939900E0933F
:102B600098008091F3039091F403181619060CF065
:102B700077C09093A9008093A80008952091E9035D
:102B80003091EA0336952795369527953093EE03D5
:102B90002093ED03109207021092EA031092E903CA
:102BA0006091F7037091F80377FDA0C035952795E4
:102BB0003595279535952795442737FD4095542F12
:102BC0008091D9039091DA03A091DB03B091DC03EB
:102BD000820F931FA41FB51F8093D9039093DA032C
:102BE000A093DB03B093DC0380910802882309F4EF
:102BF0008DCF2091EB033091EC03369527953695D8
:102C000027953093F0032093EF031092080210925F
:102C1000EC031092EB03E091F503F091F603F7FD5E
:102C200046C03595279535952795359527954427A1
:102C300037FD4095542F8091D5039091D603A091F4
:102C4000D703B091D803820F931FA41FB51F8093A1
:102C5000D5039093D603A093D703B093D8035ACF4C
:102C6000009709F06AC01092A9001092A800109273
:102C7000AB001092AA00089583E094E061E074E054
:102C80000E94E3199091030480910404E0910104EF
:102C9000F09102044ECF309709F047C0109299008E
:102CA0001092980010929B0010929A005ACF35957E
:102CB00027953595279535952795442737FD4095D8
:102CC000542F8091D5039091D603A091D703B09152
:102CD000D803821B930BA40BB50B8093D503909361
:102CE000D603A093D703B093D80314CF3595279577
:102CF0003595279535952795442737FD4095542FD1
:102D00008091D9039091DA03A091DB03B091DC03A9
:102D1000821B930BA40BB50B8093D9039093DA031A
:102D2000A093DB03B093DC03ECCEF095E195FF4F6D
:102D3000F0939B00E0939A0014CF909581959F4F5C
:102D40009093AB008093AA0008958091F70390912F
:102D5000F80390930404809303042091F5033091C9
:102D6000F603309302042093010440914705442365
:102D700009F0B8C09093E8038093E7033093E6032B
:102D80002093E50320910702222309F44BC02091F0
:102D9000E9033091EA0336952795369527953093C8
:102DA000EE032093ED03109207021092EA031092B3
:102DB000E90397FDCEC0359527953595279535952F
:102DC0002795442737FD4095542F8091D903909142
:102DD000DA03A091DB03B091DC03820F931FA41FE1
:102DE000B51F8093D9039093DA03A093DB03B093CC
:102DF000DC0380911502813009F4CEC083E094E0B9
:102E00000E945E0B80910304909104049093F4035C
:102E10008093F303181619060CF0C3C09093A90011
:102E20008093A80080910802882309F45AC0209159
:102E3000EB033091EC033695279536952795309323
:102E4000F0032093EF03109208021092EC0310920B
:102E5000EB038091E5039091E60397FD52C0359511
:102E600027953595279535952795442737FD409526
:102E7000542F8091D5039091D603A091D703B091A0
:102E8000D803820F931FA41FB51F8093D50390937F
:102E9000D603A093D703B093D80380911502813055
:102EA00009F452C081E094E00E94A30C80910104D7
:102EB000909102049093F2038093F103181619067F
:102EC0002CF490939900809398000895009709F04E
:102ED00073C0109299001092980010929B0010926B
:102EE0009A00089583E094E061E074E00E94E319A1
:102EF0008091030490910404209101043091020414
:102F000039CF3595279535952795359527954427BC
:102F100037FD4095542F8091D5039091D603A09111
:102F2000D703B091D803821B930BA40BB50B8093EE
:102F3000D5039093D603A093D703B093D803809181
:102F40001502813009F0AECF81E094E00E94E80DD7
:102F5000ADCF3595279535952795359527954427F8
:102F600037FD4095542F8091D9039091DA03A091B9
:102F7000DB03B091DC03821B930BA40BB50B809396
:102F8000D9039093DA03A093DB03B093DC03809121
:102F90001502813009F032CF83E094E00E94CD0E1B
:102FA00031CF009789F41092A9001092A8001092D6
:102FB000AB001092AA0036CF909581959F4F9093C9
:102FC0009B0080939A000895909581959F4F9093D0
:102FD000AB008093AA0026CF282F332727FD3095FA
:102FE00037FD30C0309306042093050487FD1EC0D2
:102FF000220F331F220F331F3093F8032093F70360
:1030000082E0213038073CF080E092E09093F803B2
:103010008093F70308958EEF2030380734F480E072
:103020009EEF9093F8038093F7030895220F331FC8
:10303000220F331F309521953F4F3093F803209393
:10304000F703DECF309521953F4FCCCF282F332784
:1030500027FD309537FD30C03093080420930704D6
:1030600087FD1EC0220F331F220F331F3093F6033C
:103070002093F50382E0213038073CF080E092E0B5
:103080009093F6038093F50308958EEF2030380770
:1030900034F480E09EEF9093F6038093F503089557
:1030A000220F331F220F331F309521953F4F30934E
:1030B000F6032093F503DECF309521953F4FCCCF1B
:1030C0001F920F920FB60F9211248F939F938091AE
:1030D0004905882361F01092F4031092F3031092D3
:1030E000A9001092A8001092AB001092AA001092B2
:1030F000DE031092DD038091F3039091F4030097B7
:1031000041F58091E7039091E80397FD69C081E064
:1031100080932C038EE08093290381E080930A0240
:103120008091A0008F758093A00080910201877E1E
:103130008093020180917200897F8093720089B32D
:10314000866089BB9F918F910F900FBE0F901F904B
:103150001895181619062CF510922C038FE0809301
:1031600029038091A0008F7D8093A0008091720040
:103170008B7F80937200809102018F7E8093020189
:103180008091A00080688093A0008091720082608E
:10319000809372009F918F910F900FBE0F901F90A0
:1031A000189510922C038EE0809329038091A00043
:1031B0008F778093A000809172008D7F8093720042
:1031C00080910201877F809302018091A00080623C
:1031D0008093A00080917200846080937200B2CFCF
:1031E00081E080932C038FE08093290396CF1F9278
:1031F0000F920FB60F9211248F939F9381E08093CB
:103200002C039EE09093290380930A029F918F9153
:103210000F900FBE0F901F9018951F920F920FB630
:103220000F9211248F939F9381E080932C039FE052
:103230009093290380930A029F918F910F900FBE64
:103240000F901F9018951F920F920FB60F92112496
:103250008F939F9380914905882361F01092F20328
:103260001092F103109299001092980010929B0016
:1032700010929A001092E0031092DF038091F10304
:103280009091F203009731F58091E5039091E60368
:1032900097FD5FC081E080932B038CE080932A032D
:1032A00081E080930902809190008F758093900057
:1032B0008EB1877E8EB980917100897F8093710075
:1032C00088B3866088BB9F918F910F900FBE0F903F
:1032D0001F901895181619060CF510922B038DE007
:1032E00080932A03809190008F7D8093900080913D
:1032F00071008B7F8093710074988091900080683A
:1033000080939000809171008260809371009F9102
:103310008F910F900FBE0F901F90189510922B0356
:103320008CE080932A03809190008F7780939000A7
:10333000809171008D7F80937100739880919000CF
:10334000806280939000809171008460809371000E
:10335000BACF81E080932B038DE080932A03A0CF26
:103360001F920F920FB60F9211248F939F9381E0BB
:1033700080932B039CE090932A03809309029F91F2
:103380008F910F900FBE0F901F9018951F920F9264
:103390000FB60F9211248F939F9381E080932B039C
:1033A0009DE090932A03809309029F918F910F9043
:1033B0000FBE0F901F9018958091940090919500EA
:1033C0000E94FD2A08952F923F924F925F926F9232
:1033D0007F928F929F92AF92BF92CF92DF92EF92A5
:1033E000FF920F931F93DF93CF93CDB7DEB728974C
:1033F0000FB6F894DEBF0FBECDBF2C017A83698370
:10340000FC010190F081E02DFC83EB83FB01019036
:10341000F081E02DFE83ED836091C5037091C603BA
:103420006530710534F41092C6031092C50360E054
:1034300070E04091C7035091C8034530510534F402
:103440001092C8031092C70340E050E08091C90376
:103450009091CA038530910524F41092CA0310920A
:10346000C9030091CB031091CC030530110534F44E
:103470001092CC031092CB0300E010E06090CD03DB
:103480007090CE03F5E06F16710434F41092CE0301
:103490001092CD03662477242091CF033091D0037E
:1034A0002530310534F41092D0031092CF0320E080
:1034B00030E08091D1039091D2038530910524F4BE
:1034C0001092D2031092D1038091D3039091D40330
:1034D0008530910534F41092D4031092D30380E028
:1034E00090E0EE24FF24E61AF70A5A01B594A79457
:1034F000159507956901D594C7944C0195948794C7
:103500000E94F82A93012E5130402E0D3F1D200FAE
:10351000311F2C0D3D1D2A193B09281939094CE38F
:10352000242E312CB1010E94602A280F391F3887C0
:103530002F83E090C703F090C803F594E7940091BF
:10354000C9031091CA031595079515950795C09065
:10355000CB03D090CC03D594C7948090CF039090A8
:10356000D003959487946090D1037090D2037594A2
:10357000679475946794A090D303B090D403B594E6
:10358000A7940E94F82A9701200F311F2E51304036
:103590002C0D3D1D2A193B0928193909261937090F
:1035A000B1010E94602A280F391F4B815C8157FDB1
:1035B00097C05A01CC24B7FCC094DC2C8F8198852D
:1035C0003C01882477FC8094982C79010027F7FC33
:1035D0000095102FC401B3016E197F09800B910B68
:1035E000A60195010E942D2AF7E09595879577957C
:1035F0006795FA95D1F76A0D7B1D8C1D9D1DF20113
:10360000718360832D813E8137FD99C05901CC249F
:10361000B7FCC094DC2CC801B701660D771D881D6E
:10362000991DA60195010E942D2A37E09595879551
:10363000779567953A95D1F76A0D7B1D8C1D9D1D79
:103640009B01E981FA8171836083F2E021303F07B9
:1036500044F080E092E0E981FA819183808320E068
:1036600032E0F20180819181F2E081309F074CF0DD
:1036700080E092E0F20191838083E981FA812081E8
:103680003181FEEF20303F074CF480E09EEFE9816E
:10369000FA8191838083F20180819181FEEF8030F5
:1036A0009F072CF480E09EEFF2019183808328969F
:1036B0000FB6F894DEBF0FBECDBFCF91DF911F9143
:1036C0000F91FF90EF90DF90CF90BF90AF909F90C1
:1036D0008F907F906F905F904F903F902F900895C4
:1036E0004D815E815A01CC24B7FCC094DC2C8F81C3
:1036F00098853C01882477FC8094982C79010027D8
:10370000F7FC0095102FC801B701660D771D881DC5
:10371000991DA60195010E942D2AE7E095958795B0
:1037200077956795EA95D1F7261B370B480B590B10
:10373000F201318320832D813E8137FF67CF2B81BA
:103740003C815901CC24B7FCC094DC2CC401B301EA
:103750006E197F09800B910BA60195010E942D2AFD
:1037600027E095958795779567952A95D1F7A61ABD
:10377000B70AC80AD90A9501E981FA81B182A08203
:1037800064CF80916D0390916E0321E0843A92079B
:10379000D4F080916F039091700321E0843A9207F6
:1037A00094F0809171039091720321E0843A920722
:1037B00074F081E0209173033091740391E0243A16
:1037C00039071CF4089581E0089580E0089581E0B0
:1037D000089581E080934705089510924705089564
:1037E00081E0809348050895109248050895A0E867
:1037F000B0E01C92E1E8F0E010828C91896A8C9331
:1038000080818960808380910C0290E09093890090
:103810008093880080910D0290E090938B008093BC
:103820008A0080910E0290E090938D0080938C002E
:10383000089581E090910D04891B80930D048823E5
:1038400039F480918000877F809380002F980895BD
:10385000809180008860809380008FEF90E090934B
:103860008D0080938C000895882359F090918000FA
:1038700090689093800090E09093890080938800F6
:103880000895809180008F77809380002D9808950F
:10389000882359F09091800090629093800090E08E
:1038A00090938B0080938A000895809180008F7D93
:1038B000809380002E980895882359F0909180007D
:1038C00098609093800090E090938D0080938C009E
:1038D000089580918000877F809380002F980895BD
:1038E000833009F45AC0843080F0853009F441C037
:1038F0008530D0F4662309F468C080910B018F7E77
:1039000080930B0180910B0108958130E1F18230A9
:1039100080F0662309F446C080910B018B7F809371
:103920000B0180910B0108958630C9F0873061F05A
:103930000895662309F451C080910B018E7F809316
:103940000B0180910B010895662309F05EC0809100
:103950000B01806880930B0180910B010895662311
:1039600049F180910B018F7B80930B0180910B01BA
:1039700008956623D1F180910B018F7D80930B0117
:1039800080910B0108956623C1F180910B018D7F19
:1039900080930B0180910B010895662399F0A39801
:1039A00084B3089580910B01846080930B01809112
:1039B0000B01089580910B01806480930B0180912D
:1039C0000B010895A39A84B3089580910B0180613F
:1039D00080930B0180910B01089580910B01816010
:1039E00080930B0180910B01089580910B018062FF
:1039F00080930B0180910B01089580910B018260EF
:103A000080930B0180910B01089580910B018F77BA
:103A100080930B0180910B010895EBE0F1E0808130
:103A200081608083808182608083808184608083E4
:103A3000A39A80818061808380818062808380817D
:103A4000806480838081806880830895EBE0F1E06A
:103A500080818E7F808380818D7F808380818B7F3A
:103A60008083A39880818F7E808380818F7D8083F7
:103A700080818F7B808380818F77808308950E94EF
:103A80000210809113020E940A10882349F486E1F3
:103A90000E94851085E40E9485100E947D10089583
:103AA0000E947D1086EA90E09093140280931302A6
:103AB00086EA0E940A10882341F58DE20E94851053
:103AC00088E00E9485100E947D10809113020E9460
:103AD0000A108823D1F481E30E94851080E00E94BF
:103AE00085100E947D10809113020E940A10882385
:103AF00061F48CE20E94851089E00E9485100E948A
:103B00007D1081E08093180508950E947D1082E069
:103B1000809318050895809113020E940A1088234B
:103B200051F486E10E94851085E40E9485100E9470
:103B30007D1080E008950E947D1081E008958091BD
:103B400013020E940A10882331F58DE20E9485102D
:103B500088E00E9485100E947D10809113020E94CF
:103B60000A108823C1F481E30E94851080E00E943E
:103B700085100E947D10809113020E940A108823F4
:103B800051F48CE20E94851089E00E9485100E9409
:103B90007D1080E008950E947D1081E00895FF92DD
:103BA0000F931F93DF93CF930F92CDB7DEB7809122
:103BB0001805882391F0813009F488C010921A0505
:103BC0001092190510921C0510921B050F90CF91B1
:103BD000DF911F910F91FF900895809113020E9431
:103BE0000A1080E00E948510809113028F5F0E946E
:103BF00057100E949710082F0E949710F82E0E94CD
:103C00009710182F0E94A11089830E947D10909117
:103C10007B058981992339F14F2D552747FD509513
:103C2000542F4427602F772767FD7095462B572B1D
:103C300050931A0540931905282F332727FD3095F7
:103C4000322F2227812F992787FD9095282B392BFA
:103C500030931C0520931B050F90CF91DF911F918E
:103C60000F91FF9008954F2D552747FD5095542FE4
:103C70004427602F772767FD7095462B572B60915F
:103C80001F0570912005461B570B50931A05409352
:103C90001905282F332727FD3095322F2227812F12
:103CA000992787FD9095282B392B8091210590919C
:103CB0002205281B390B30931C0520931B050F9000
:103CC000CF91DF911F910F91FF9008958091130282
:103CD0000E940A1082E30E948510809113028F5F78
:103CE0000E9457100E949710082F0E949710F82EDC
:103CF0000E949710182F0E94A11089830E947D10A6
:103D000090917B058981992379F14F2D552747FDA6
:103D100050950024569547950794569547950794D6
:103D2000542F402D06950695602F70E0462B572B9B
:103D300050931A0540931905282F332727FD3095F6
:103D40000024369527950794369527950794322FAA
:103D5000202D16951695812F90E0282B392B309326
:103D60001C0520931B0532CF4F2D552747FD50953D
:103D70000024569547950794569547950794542FD8
:103D8000402D06950695602F70E0462B572B6091CD
:103D90001F0570912005461B570B50931A05409341
:103DA0001905282F332727FD3095002436952795B0
:103DB0000794369527950794322F202D1695169542
:103DC000812F90E0282B392B80912105909122059D
:103DD000281B390B30931C0520931B05F7CEDF936E
:103DE000CF9300D000D0CDB7DEB7809118058823DF
:103DF000C1F0813009F493C010921A051092190590
:103E000010921C0510921B0510921E0510921D05A4
:103E100026960FB6F894DEBF0FBECDBFCF91DF91CF
:103E20000895809113020E940A1080E00E9485107C
:103E3000809113028F5F0E9457100E949710898310
:103E40000E9497108A830E9497108B830E9497107C
:103E50008C830E9497108D830E94A1108E830E94F4
:103E60007D1080917B058823E9F58A81992787FD5C
:103E70009095982F88272981332727FD3095822B0D
:103E8000932B20911F0530912005821B930B90935B
:103E90001A05809319058C81992787FD9095982F95
:103EA00088272B81332727FD3095822B932B209158
:103EB000210530912205821B930B90931C05809362
:103EC0001B058E81992787FD9095982F88272D8136
:103ED000332727FD3095822B932B90931E058093DB
:103EE0001D0596CF8A81992787FD9095982F882761
:103EF0002981332727FD3095822B932B90931A0528
:103F0000809319058C81992787FD9095982F882794
:103F10002B81332727FD3095822B932BCECF809199
:103F200013020E940A1082E30E94851080911302FE
:103F30008F5F0E9457100E94971089830E949710EC
:103F40008A830E9497108B830E9497108C830E9413
:103F500097108D830E94A1108E830E947D10809106
:103F60007B05882309F052C089818695869590E06B
:103F70002A81332727FD309500243695279507940D
:103F8000369527950794322F202D822B932B209145
:103F90001F0530912005821B930B90931A05809387
:103FA00019058B818695869590E02C81332727FD16
:103FB00030950024369527950794369527950794D4
:103FC000322F202D822B932B209121053091220519
:103FD000821B930B90931C0580931B058D81869506
:103FE000869590E02E81332727FD30950024369565
:103FF00027950794369527950794322F202D822BED
:10400000932B90931E0580931D0502CF8981869581
:10401000869590E02A81332727FD30950024369538
:1040200027950794369527950794322F202D822BBC
:10403000932B90931A05809319058B81869586950D
:1040400090E02C81332727FD309500243695279565
:104050000794369527950794322F202D822B932B8A
:10406000B9CF1F93CF93DF9310920C0210920D02E1
:1040700010920E0280E00E94341C80910D020E947A
:10408000481C80910E020E945C1C10924105109207
:10409000400581E080937B050E94381260934305C0
:1040A00070934405809345059093460502C00E9495
:1040B000EF1E0E9438122091430530914405409133
:1040C000450550914605621B730B840B950B613CB3
:1040D00023E0720720E0820720E0920740F321E00E
:1040E0003CEF30932805209327058FEF93E09093C2
:1040F0002A058093290530932C0520932B05909356
:104100002E0580932D051092240510922305109200
:1041100026051092250580911D0590911E0597FD9D
:1041200049C48F3091050CF4A4C310920C028FEF98
:1041300080930D0280930E0280E00E94341C8091D7
:104140000D020E94481C80910E020E945C1C80E0BF
:104150000E94EC1780E00E94261822C0809123055F
:10416000909124054091190550911A05840F951FCF
:104170009093240580932305809125059091260531
:1041800040911B0550911C05840F951F90932605A7
:10419000809325052F5F3F4F3093410520934005C5
:1041A0000E94EF1E0E947815209140053091410534
:1041B000203131059CF2809123059091240595953D
:1041C00087959595879595958795959587959093DE
:1041D000200580931F0580912505909126059595D2
:1041E00087959595879595958795959587959093BE
:1041F00022058093210581E080937B051092410583
:10420000109240051FEFC1E0D0E00AC08091C403C6
:10421000882309F027C180917B05882309F40DC10B
:104220008091400590914105813191057CF3109278
:104230000C0210920D0210930E0280E00E94341CBA
:1042400080910D020E94481C80910E020E945C1C0D
:1042500080918D0390918E03A0918F03B091900374
:1042600064E0B695A795979587956A95D1F7909351
:104270007603809375038091910390919203A091AE
:104280009303B091940354E0B695A79597958795BD
:104290005A95D1F790937803809377038091950393
:1042A00090919603A0919703B091980344E0B6953E
:1042B000A795979587954A95D1F790937A03809320
:1042C00079038091990390919A03A0919B03B091F7
:1042D0009C0334E0B695A795979587953A95D1F7C5
:1042E00090937C0380937B0380919D0390919E0328
:1042F000A0919F03B091A00324E0B695A795979550
:1043000087952A95D1F790937E0380937D038091C2
:10431000A1039091A203A091A303B091A403F4E0A0
:10432000B695A79597958795FA95D1F790938003C1
:1043300080937F038091A5039091A603A091A7038A
:10434000B091A803E4E0B695A79597958795EA956F
:10435000D1F790938203809381038091A903909178
:10436000AA03A091AB03B091AC0374E0B695A795F6
:10437000979587957A95D1F79093840380938303DB
:104380002091B1033091B2034091B3035091B40333
:1043900064E056954795379527956A95D1F78091B2
:1043A000B5039091B603A091B703B091B80344E070
:1043B000B695A795979587954A95D1F7AC018091C9
:1043C000B9039091BA03A091BB03B091BC03F4E090
:1043D000B695A79597958795FA95D1F7BC018091E9
:1043E000AD039091AE03A091AF03B091B003E4E0B0
:1043F000B695A79597958795EA95D1F78050924005
:104400009093860380938503205032403093880335
:10441000209387034050524050938A03409389036E
:104420006050724070938C0360938B0310927B05F5
:1044300080917B05882309F0F3CE8FEF80930C02E7
:1044400080930D0280930E020E94341C80910D0215
:104450000E94481C80910E020E945C1CDF91CF914B
:104460001F91089510930C0210930D0210920E02EA
:104470008FEF0E94341C80910D020E94481C809195
:104480000E020E945C1C1092C403209140053091E2
:1044900041052115310509F457C180915D039091C3
:1044A0005E03AA2797FDA095BA2F40918D035091E6
:1044B0008E0360918F0370919003840F951FA61F48
:1044C000B71F80938D0390938E03A0938F03B093B7
:1044D000900380915F0390916003AA2797FDA095B8
:1044E000BA2F409191035091920360919303709180
:1044F0009403840F951FA61FB71F80939103909379
:104500009203A0939303B0939403809161039091DD
:104510006203AA2797FDA095BA2F40919503509169
:1045200096036091970370919803840F951FA61FBF
:10453000B71F8093950390939603A0939703B0932E
:1045400098038091630390916403AA2797FDA09537
:10455000BA2F4091990350919A0360919B037091F7
:104560009C03840F951FA61FB71F809399039093F8
:104570009A03A0939B03B0939C0380916503909151
:104580006603AA2797FDA095BA2F40919D035091ED
:104590009E0360919F037091A003840F951FA61F37
:1045A000B71F80939D0390939E03A0939F03B093A6
:1045B000A0038091670390916803AA2797FDA095B7
:1045C000BA2F4091A1035091A2036091A30370916F
:1045D000A403840F951FA61FB71F8093A103909378
:1045E000A203A093A303B093A403809169039091C5
:1045F0006A03AA2797FDA095BA2F4091A503509171
:10460000A6036091A7037091A803840F951FA61FAE
:10461000B71F8093A5039093A603A093A703B0931D
:10462000A80380916B0390916C03AA2797FDA09536
:10463000BA2F4091A9035091AA036091AB037091E6
:10464000AC03840F951FA61FB71F8093A9039093F7
:10465000AA03A093AB03B093AC0380916D03909138
:104660006E03AA2797FDA095BA2F4091AD035091F4
:10467000AE036091AF037091B003840F951FA61F26
:10468000B71F8093AD039093AE03A093AF03B09395
:10469000B00380916F0390917003AA2797FDA095B6
:1046A000BA2F4091B1035091B2036091B30370915E
:1046B000B403840F951FA61FB71F8093B103909377
:1046C000B203A093B303B093B403809171039091AC
:1046D0007203AA2797FDA095BA2F4091B503509178
:1046E000B6036091B7037091B803840F951FA61F9E
:1046F000B71F8093B5039093B603A093B703B0930D
:10470000B8038091730390917403AA2797FDA09535
:10471000BA2F4091B9035091BA036091BB037091D5
:10472000BC03840F951FA61FB71F8093B9039093F6
:10473000BA03A093BB03B093BC032F5F3F4F3093EA
:1047400041052093400567CD10928D0310928E0392
:1047500010928F03109290031092760310927503BB
:10476000109291031092920310929303109294036B
:10477000109278031092770310929503109296038B
:10478000109297031092980310927A031092790373
:104790001092990310929A0310929B0310929C031B
:1047A00010927C0310927B0310929D0310929E0343
:1047B00010929F031092A00310927E0310927D032B
:1047C0001092A1031092A2031092A3031092A403CB
:1047D0001092800310927F031092A5031092A603FB
:1047E0001092A7031092A8031092820310928103E3
:1047F0001092A9031092AA031092AB031092AC037B
:1048000010928403109283031092AD031092AE03B2
:104810001092AF031092B00310928603109285039A
:104820001092B1031092B2031092B3031092B4032A
:1048300010928803109287031092B5031092B6036A
:104840001092B7031092B80310928A031092890352
:104850001092B9031092BA031092BB031092BC03DA
:1048600010928C0310928B03D0934105C0934005A6
:10487000D2CC8FEF80930C0210920D0280930E0227
:104880000E94341C80910D020E94481C80910E02EF
:104890000E945C1C86EF0E94EC178AE00E9426189A
:1048A0000E94381260934305709344058093450538
:1048B000909346053DC08091190590911A0520916D
:1048C0002705309128052817390724F490932805E7
:1048D000809327052091290530912A058217930797
:1048E00024F490932A058093290580911B059091CB
:1048F0001C0520912B0530912C052817390724F42D
:1049000090932C0580932B0520912D0530912E0539
:104910008217930724F490932E0580932D058091A0
:104920004005909141050196909341058093400583
:104930000E94EF1E0E94A5160E9438122091430586
:10494000309144054091450550914605621B730B1B
:10495000840B950B6E3326E9720720E0820720E076
:10496000920708F4A8CF8091290590912A052091FB
:10497000270530912805820F931F95958795909371
:10498000200580931F0580912D0590912E05209183
:104990002B0530912C05820F931F95958795909349
:1049A00022058093210580E00E94EC1780E00E94A0
:1049B000261821CC909581959F4FB3CB80911805F7
:1049C000882379F0813011F110921A05109219059F
:1049D00010921C0510921B0510921E0510921D05C9
:1049E0000895809113020E940A1080E00E948510B1
:1049F000809113028F5F0E9457100E94971080933E
:104A000033050E9497108093340508958091130216
:104A10000E940A1082E30E948510809113028F5F2A
:104A20000E9457100E949710809333050E949710A0
:104A3000809334050E9497108093350508958091E6
:104A40001805882309F05AC00E94971080933505F5
:104A50000E949710809336050E9497108093370527
:104A60000E94A110809338050E947D1080917B05E3
:104A7000882309F052C080913405992787FD9095CD
:104A8000982F882720913305332727FD3095822BD7
:104A9000932B20911F0530912005821B930B90933F
:104AA0001A058093190580913605992787FD909501
:104AB000982F882720913505332727FD3095822BA5
:104AC000932B2091210530912205821B930B90930B
:104AD0001C0580931B0580913805992787FD9095CB
:104AE000982F882720913705332727FD3095822B73
:104AF000932B90931E0580931D050895813071F1CD
:104B000010921A051092190510921C0510921B059F
:104B100010921E0510921D05089580913405992765
:104B200087FD9095982F882720913305332727FDFF
:104B30003095822B932B90931A05809319058091C1
:104B40003605992787FD9095982F88272091350560
:104B5000332727FD3095822B932BB9CF0E949710D6
:104B6000809336050E949710809337050E94A1100C
:104B7000809338050E947D1080917B05882309F47D
:104B80004CC0809133058695869590E02091340540
:104B9000332727FD309500243695279507943695C1
:104BA00027950794322F202D822B932B90931A0553
:104BB00080931905809135058695869590E0209122
:104BC0003605332727FD3095002436952795079421
:104BD000369527950794322F202D822B932B909377
:104BE0001C0580931B05809137058695869590E07E
:104BF00020913805332727FD3095002436952795D9
:104C00000794369527950794322F202D822B932BCE
:104C100090931E0580931D05089580913305869518
:104C2000869590E020913405332727FD30950024A8
:104C3000369527950794369527950794322F202D82
:104C4000822B932B20911F0530912005821B930B03
:104C500090931A0580931905809135058695869560
:104C600090E020913605332727FD309500243695B6
:104C700027950794369527950794322F202D822B60
:104C8000932B2091210530912205821B930BA7CFF6
:104C9000EF92FF920F931F9380911D0590911E0537
:104CA00097FD6CC08F3091050CF454C081E0809367
:104CB000140221E080911502821709F453C08091FB
:104CC000310590913205019690933205809331051C
:104CD0008530910508F04BC06091190570911A0557
:104CE000882777FD8095982F0E94DF277B018C0114
:104CF00060911B0570911C05882777FD8095982F82
:104D00000E94DF279B01AC01C801B7010E94172B4D
:104D100060934A0570934B0580934C0590934D0525
:104D200021EE3EE245E652E40E94E0260E943D2844
:104D30009B017093300560932F0577FF06C02859BB
:104D40003E4F3093300520932F051F910F91FF9018
:104D5000EF9008951092140220E0809115028217BE
:104D600009F0ADCF1092320510923105B5CF1092F7
:104D700032051092310520931502AECF90958195A2
:104D80009F4F90CF80911805882329F010923A0503
:104D9000109239050895809113020E940A108BE049
:104DA0000E948510809113028F5F0E9457100E940D
:104DB000A1108093390510923A050E947D10089544
:104DC000A0E2B0E0E6EEF6E20C94752A69837A83FD
:104DD0008B839C832D833E834F83588799E0E92EF4
:104DE000F12CEC0EFD1EB701CE0101960E94BD29EB
:104DF0008E010F5E1F4FB801CE0105960E94BD299E
:104E00009985923088F089898230C0F0943019F405
:104E1000823029F009C0843029F4923079F466E1B7
:104E200072E0C6C0923041F420E09A858A899813D6
:104E300021E02A87B701BCC0823041F420E09A8586
:104E40008A89981321E02A8BB801B2C0CD84DE8410
:104E5000EF84F8880D891E892F89388D882499243C
:104E6000540140E050E060E070E0442455243201F9
:104E7000E0E0F0E0C60181709070892BD9F0800EDF
:104E8000911EA21EB31EDB01CA01840D951DA61D35
:104E9000B71D40E050E060E070E080169106A20689
:104EA000B30620F441E050E060E070E0480F591F85
:104EB0006A1F7B1F440C551C661C771C37FF08C0FB
:104EC00081E090E0A0E0B0E0482A592A6A2A7B2AD3
:104ED0003196E032F10549F0000F111F221F331FF8
:104EE000F694E794D794C794C5CF8B899C892B857A
:104EF0003C85820F931F02969C8F8B8F1A8E9A850A
:104F00008A89981711F081E08A8F2B8D3C8D17C00C
:104F1000CA0181709070892B61F0B694A794979420
:104F2000879480E090E0A0E0B0E8882A992AAA2A35
:104F3000BB2A76956795579547952F5F3F4F77FD2D
:104F4000E7CFC9010BC0440F551F661F771FB7FC81
:104F50004160880C991CAA1CBB1C01974030A0E042
:104F60005A07A0E06A07A0E47A0768F39C8F8B8F4A
:104F7000DB01CA018F779070A070B070803491050A
:104F8000A105B10561F447FD0AC081149104A10493
:104F9000B10429F0405C5F4F6F4F7F4F40784D8FD9
:104FA0005E8F6F8F78A383E0898FBE01675E7F4F2E
:104FB000CB010E94DD28E0E1A0960C94912AA8E0A4
:104FC000B0E0E5EEF7E20C947C2A9B01AC0183E0B3
:104FD0008983DA01C9018827B7FD83959927AA2714
:104FE000BB27B82E211531054105510519F482E082
:104FF00089833AC08823A9F0203080E0380780E018
:10500000480780E8580729F460E070E080E09FECF2
:1050100030C0EE24FF248701E21AF30A040B150BBB
:1050200002C079018A018EE1C82ED12CDC82CB82AC
:10503000ED82FE820F831887C801B7010E94902875
:1050400001971816190684F4082E04C0EE0CFF1CF4
:10505000001F111F0A94D2F7ED82FE820F8318877A
:10506000C81AD90ADC82CB82BA82CE0101960E948C
:10507000DD28E9E028960C94982AACE0B0E0E3E45F
:10508000F8E20C94832A69837A838B839C83BE0124
:105090006B5F7F4FCE0101960E94BD298D818230CA
:1050A000A9F1823098F1843021F48E81882359F45B
:1050B0000FC02F81388537FD29C06E812F31310512
:1050C00064F0662329F020E030E040E050E822C0A0
:1050D0002FEF3FEF4FEF5FE71DC08EE190E0821BA7
:1050E000930B29853A854B855C8504C05695479579
:1050F000379527958A95D2F7662361F050954095AC
:10510000309521953F4F4F4F5F4F04C020E030E076
:1051100040E050E0CA01B901E2E02C960C949F2ACD
:10512000EF92FF920F931F939B01AC01203080E020
:10513000380781E0480780E0580780F42F3F3105A9
:105140004105510509F020F4EE24FF24870119C020
:1051500068E0E62EF12C012D112D13C0203080E0E7
:10516000380780E0480781E0580730F490E1E92EE5
:10517000F12C012D112D05C088E1E82EF12C012D17
:10518000112D80E290E0A0E0B0E08E199F09A00B05
:10519000B10B04C05695479537952795EA94D2F7F9
:1051A000F901E25EFD4F2081821B9109A109B1093D
:1051B0001F910F91FF90EF9008959F92AF92BF9231
:1051C000CF92DF92EF92FF920F931F93EE24FF2472
:1051D0008701FC012481358146815781918080813E
:1051E000823010F44061A2C0843009F49BC0823048
:1051F00029F420E030E040E050E005C02115310501
:105200004105510519F4E0E0F0E092C082819381FC
:105210006FEF823896070CF05AC062E87FEF681B88
:10522000790B6A3171052CF020E030E040E050E06D
:105230002AC0AA24BB24650181E090E0A0E0B0E090
:10524000062E04C0880F991FAA1FBB1F0A94D2F70D
:105250000197A109B10982239323A423B5230097C1
:10526000A105B10529F071E0A72EB12CC12CD12CDC
:1052700004C056954795379527956A95D2F72A2900
:105280003B294C295D29DA01C9018F779070A07004
:10529000B07080349105A105B10539F427FF09C02C
:1052A000205C3F4F4F4F5F4F04C0215C3F4F4F4F3B
:1052B0005F4F80E090E0203060E0360760E0460716
:1052C00060E4560710F081E090E0FC0123C08038D4
:1052D000910544F5FC01E158FF4FDA01C9018F77D0
:1052E0009070A070B07080349105A105B10539F4BB
:1052F00027FF09C0205C3F4F4F4F5F4F04C0215C28
:105300003F4F4F4F5F4F57FF05C056954795379515
:105310002795319687E056954795379527958A9535
:10532000D1F706C020E030E040E050E0EFEFF0E0E1
:10533000E22EF32E942F9F77802F8078892B9E2F3B
:105340009795992797958F77082F092B9E2F9695DC
:10535000812F8078892B9794992497948F77182F91
:105360001929C801B7011F910F91FF90EF90DF90AD
:10537000CF90BF90AF909F900895CF93DF93FC01A3
:10538000DB01208131819281492F4F7750E0991FB5
:105390009927991F8381E82FEE0FE92B6E2F70E07C
:1053A000881F8827881FED018983EE2371F5211559
:1053B00031054105510511F482E02FC06E57704050
:1053C000FD017383628367E0220F331F441F551F63
:1053D0006A95D1F783E08C930AC0220F331F441FD4
:1053E000551FED018A819B8101979B838A83203021
:1053F000E0E03E07E0E04E07E0E45E0770F3ED0119
:105400002C833D834E835F8325C0EF3F79F42115C4
:1054100031054105510519F484E08C931BC044FF0C
:1054200003C081E08C9311C01C920FC06F57704075
:10543000ED017B836A8383E08C9387E0220F331F27
:10544000441F551F8A95D1F75064FD01248335838D
:1054500046835783DF91CF910895629FD001739F58
:10546000F001829FE00DF11D649FE00DF11D929F00
:10547000F00D839FF00D749FF00D659FF00D99273F
:10548000729FB00DE11DF91F639FB00DE11DF91F63
:10549000BD01CF0111240895AA1BBB1B51E107C018
:1054A000AA1FBB1FA617B70710F0A61BB70B881FB4
:1054B000991F5A95A9F780959095BC01CD01089543
:1054C00097FB092E07260AD077FD04D0E5DF06D02A
:1054D00000201AF4709561957F4F0895F6F7909526
:1054E00081959F4F08952F923F924F925F926F92B6
:1054F0007F928F929F92AF92BF92CF92DF92EF9264
:10550000FF920F931F93CF93DF93CDB7DEB7CA1BE4
:10551000DB0B0FB6F894DEBF0FBECDBF19942A88FF
:10552000398848885F846E847D848C849B84AA84B7
:10553000B984C884DF80EE80FD800C811B81AA8144
:10554000B981CE0FD11D0FB6F894DEBF0FBECDBF0F
:10555000ED010895AF92BF92CF92DF92EF92FF924A
:105560000F931F93CF93DF93EC01688179818A8138
:105570009B81611571058105910521F464E279ED46
:105580008BE597E02DE133EF41E050E00E94442DA0
:1055900079018A0127EA31E440E050E00E942D2A97
:1055A0005B016C01C801B7012CEE34EF4FEF5FEFE8
:1055B0000E942D2A6A0D7B1D8C1D9D1D97FF04C026
:1055C0006150704080409048688379838A839B83D0
:1055D0007F77CB01DF91CF911F910F91FF90EF90DB
:1055E000DF90CF90BF90AF9008950E94AA2A0895AF
:1055F0008EE193E00E94AA2A0895A0E0B0E0809393
:105600001E0390931F03A0932003B09321030895DA
:10561000F5D058F080E891E009F49EEFF6D028F03C
:1056200040E851E059F45EEF09C0C0C028C1E92F3D
:10563000E07803D168F3092E052AC1F3261737074E
:105640004807590738F00E2E07F8E02569F0E025E5
:10565000E0640AC0EF6307F8009407FADB01B901C0
:105660009D01DC01CA01AD01EF9341D0D5D00AD034
:105670005F91552331F02BED3FE049E450FD49ECBB
:105680008DC10895DF93DD27B92FBF7740E85FE331
:105690001616170648075B0710F4D92FF7D09F930B
:1056A0008F937F936F935AD1EEE4F1E082D0B4D020
:1056B0002F913F914F915F91FAD0DD2349F090589F
:1056C000A2EA2AED3FE049EC5FE3D0785D2777D18D
:1056D000DF91A2C09AD040F091D030F021F45F3F2A
:1056E00019F05EC05111CCC061C0A7D098F39923C6
:1056F000C9F35523B1F3951B550BBB27AA27621796
:105700007307840738F09F5F5F4F220F331F441FDA
:10571000AA1FA9F333D00E2E3AF0E0E830D0915012
:105720005040E695001CCAF729D0FE2F27D0660FFF
:10573000771F881FBB1F261737074807AB07B0E83E
:1057400009F0BB0B802DBF01FF2793585F4F2AF054
:105750009E3F510568F024C093C05F3FECF3983E34
:10576000DCF3869577956795B795F7959F5FC9F7B1
:10577000880F911D9695879597F90895E1E0660F3A
:10578000771F881FBB1F621773078407BA0720F0B3
:10579000621B730B840BBA0BEE1F88F7E09508951C
:1057A00097F99F6780E870E060E008959FEF80ECD4
:1057B0000895DF93CF931F930F93FF92EF92DF92A1
:1057C0007B018C01689405C0DA2EEF0170D0FE01D8
:1057D000E894A5912591359145915591AEF3EF014E
:1057E000EED0FE019701A801DA9479F7DF90EF90EF
:1057F000FF900F911F91CF91DF91089500240A949B
:105800001616170618060906089500240A9412169B
:105810001306140605060895092E0394000C11F4CE
:10582000882352F0BB0F40F4BF2B11F460FF04C07B
:105830006F5F7F4F8F4F9F4F089557FD9058440FD4
:10584000551F59F05F3F71F04795880F97FB991FDF
:1058500061F09F3F79F0879508951216130614069C
:10586000551FF2CF4695F1DF08C016161706180629
:10587000991FF1CF86957105610508940895E89404
:10588000BB2766277727CB0197F908959B01AC01C9
:1058900060E070E080E89FE3E5C0B0DF28F0B5DFAE
:1058A00018F0952309F07CCF81CF1124E9CFC5DF13
:1058B000A0F3959FD1F3950F50E0551F629FF00123
:1058C000729FBB27F00DB11D639FAA27F00DB11D7C
:1058D000AA1F649F6627B00DA11D661F829F222705
:1058E000B00DA11D621F739FB00DA11D621F839F8C
:1058F000A00D611D221F749F3327A00D611D231F62
:10590000849F600D211D822F762F6A2F11249F57AF
:1059100050408AF0E1F088234AF0EE0FFF1FBB1FD2
:10592000661F771F881F91505040A9F79E3F510571
:1059300070F036CFA5CF5F3FECF3983EDCF3869551
:1059400077956795B795F795E7959F5FC1F7FE2B1C
:10595000880F911D9695879597F908959B01AC0145
:105960002FCAF999FECF92BD81BDF89A992780B5CB
:105970000895A8E1B0E042E050E00C94362D262FC7
:10598000F999FECF1FBA92BD81BD20BD0FB6F89424
:10599000FA9AF99A0FBE019608955058BB27AA2784
:1059A0000ED03ACF2BDF30F030DF20F031F49F3FC4
:1059B00011F41EF4FBCE0EF4E095E7FBF1CEE92FD7
:1059C0003CDF80F3BA17620773078407950718F066
:1059D00071F49EF554CF0EF4E0950B2EBA2FA02D46
:1059E0000B01B90190010C01CA01A0011124FF278C
:1059F000591B99F0593F50F4503E68F11A16F04087
:105A0000A22F232F342F4427585FF3CF4695379585
:105A10002795A795F0405395C9F77EF41F16BA0B4A
:105A2000620B730B840BBAF09150A1F0FF0FBB1FF8
:105A3000661F771F881FC2F70EC0BA0F621F731F41
:105A4000841F48F4879577956795B795F7959E3F9E
:105A500008F0B3CF9395880F08F09927EE0F97952C
:105A60008795089542DED8CEDC01CB01FC01F9997F
:105A7000FECF06C0F2BDE1BDF89A319600B40D929A
:105A800041505040B8F7089597FB092E05260ED0D7
:105A900057FD04D014D00AD0001C38F4509540951E
:105AA000309521953F4F4F4F5F4F0895F6F79095F2
:105AB0008095709561957F4F8F4F9F4F0895A1E21C
:105AC0001A2EAA1BBB1BFD010DC0AA1FBB1FEE1F78
:105AD000FF1FA217B307E407F50720F0A21BB30BC3
