:100000000C94BE000C94DD000C94DD000C94DD001B
:100010000C94DD000C94DD000C94DD000C94DD00EC
:100020000C94DD000C94DD000C94ED070C94DD00C5
:100030000C94DD000C9421080C94DD000C94C2118A
:100040000C94DD000C94DD000C94DD000C94DD00BC
:100050000C94DD000C94DD000C94DD000C94DD00AC
:100060000C94DD000C940D110C94DD000C94DD005B
:100070000C94DD000C9468120C94DD000C94DD00EF
:100080000C94B0190C94C6190C94DD000C9423192F
:100090000C94DD000C94DD000C94DD000C94DD006C
:1000A0000C94DD000C94DD000C94F7180C940D19E1
:1000B0000C94DD000C9460180C94DD000C94DD00B1
:1000C0000C94DD000C94DD000C94DD000C94DD003C
:1000D0000C94DD000C94DD000C94DD000C94DD002C
:1000E0000C94DD009A0A7E0A4C0A0F0BD90A020B07
:1000F000230A070ADA09C209630963096309630964
:1001000063096309B609AB096309630963096309F4
:10011000630963096309630963096309630963097F
:10012000DA094C0A9F099A0963096309630963099B
:10013000630963096309630963096309630963095F
:10014000D90A230A630963099A0A020BC30A084AF7
:10015000D73B3BCE016E84BCBFFDC12F3D6C7431DB
:100160009ABD56833DDA3D00C77F11BED9E4BB4C32
:100170003E916BAAAABE000000803F0011241FBE62
:10018000CFEFD1E2DEBFCDBF00E00CBF13E0A0E0B7
:10019000B2E0E6E6F5E502C005900D92A432B107A3
:1001A000D9F715E0A4E2B3E001C01D92AF36B10764
:1001B000E1F70E94DF000C94B22A0C940000CF9269
:1001C000DF92EF92FF920F931F93CF93DF930E94E2
:1001D00063110E942C1F0E94DC190E9438127B01BF
:1001E0008C01CC24CFEFD0E0DD24DA940E943E11C4
:1001F00080933A050E946C1E0E94A8230E94381228
:100200006E197F09800B910B6E312BE4720720E091
:10021000820720E0920708F080C00E9451090E94E6
:10022000FC0380913A0560E00E94DC1080913A0561
:10023000823009F481C0833008F049C0882309F076
:1002400080C00E94781580913A05882309F060C02B
:1002500080E0C81659F20E94ED1B0E94F41B8091A9
:100260000B01816080930B0180910B018260809370
:100270000B0180910B01846080930B01A39A809104
:100280000B01806180930B0180910B018062809350
:100290000B0180910B01806480930B0180910B0115
:1002A000806880930B01D0920C02D0920D02D09204
:1002B0000E028FEF0E94341C80910D020E94481C98
:1002C00080910E020E945C1CC0903A058FCF843052
:1002D00009F43FC0843070F1853009F0B6CF8091C9
:1002E0000C020E94341C80910D020E94481C8091D7
:1002F0000E020E945C1C0E94E91B89E10E94EC171F
:1003000089E10E94261880913A05882309F4A0CF3C
:100310000E94A51680913A059CCF0E9441128091BF
:100320003A058450823008F447C00E9438127B019D
:100330008C0173CF0E94E91B0E94F01B80913A054B
:1003400084CF813009F081CF0E94E91B80913A056A
:100350007CCF80910B018E7F80930B0180910B01EC
:100360008D7F80930B0180910B018B7F80930B011C
:10037000A39880910B018F7E80930B0180910B01DC
:100380008F7D80930B0180910B018F7B80930B01FC
:1003900080910B018F7780930B0180910C020E945A
:1003A000341C80910D020E94481C80910E020E9414
:1003B0005C1C80913A0549CF0E942928BE010E9409
:1003C000912780930C020E942928BE010E94912748
:1003D00080930D020E942928BE010E9491278093DC
:1003E0000E02A3CF81E090E021E00DB407FC0AC02B
:1003F000019637E280319307C0F320930E040DB4C9
:1004000007FEF6CF089584B1807F84B984B18760F8
:1004100084B980E58CBD8DB581608DBD08951CBC0F
:100420001DBC0895442309F1A62FB72FE82FF92FFB
:1004300091E021912EBD21E030E00DB407FC0BC00E
:100440002F5F3F4F57E220313507B8F390930E04EA
:100450000DB407FEF5CF20910E04222331F42EB502
:100460002D932E2F281B241720F308956623E9F0DF
:10047000E82FF92F91E021912EBD21E030E00DB45D
:1004800007FC0BC02F5F3F4F47E220313407B8F322
:1004900090930E040DB407FEF5CF20910E04222395
:1004A00021F42E2F281B261730F308958EBD81E0EE
:1004B00090E021E00DB407FC0AC0019637E28031DC
:1004C0009307C0F320930E040DB407FEF6CF8EB54C
:1004D00008950F931F93DF93CF9300D0CDB7DEB76E
:1004E000289880E20E9456028DE00E945602289AC7
:1004F000289883E20E94560281E00E945602289AC0
:1005000080910B0490910C0499838A831B82289814
:1005100080E30E9456028E010F5F1F4FC80163E007
:100520000E943602289A28988AE20E945602C80140
:1005300063E00E943602289A289881E20E945602BF
:1005400081E00E945602289A289882E20E94560270
:1005500081E00E945602289A289884E20E9456025E
:1005600082E10E945602289A289885E20E9456024B
:1005700088E20E945602289A289881E30E94560237
:100580008DE00E945602289A289880E50E94560223
:1005900083E70E945602289A28988CE30E9456020C
:1005A00081E00E945602289A28988DE30E94560204
:1005B00086E00E945602289A289880E20E945602FD
:1005C0008FE00E945602289A0F900F900F90CF91C3
:1005D000DF911F910F9108952C9A289A0E94690229
:1005E0000895CF93DF93EC012C9828988AE20E941B
:1005F0005602CE0165E00E943602289A2C9ADF91BD
:10060000CF910895CF93DF93EC01289880E30E9467
:100610005602CE0165E00E943602289ADF91CF9102
:10062000089580914105882311F080E0089528986D
:100630008FEF0E945602289A80740895DF93CF931B
:100640000F92CDB7DEB71982289887E10E94560233
:10065000BE016F5F7F4FCB0141E00E941202289ADA
:10066000898181700F90CF91DF910895289882EE53
:100670000E945602289A0895CF93DF93EC012898A0
:1006800081E60E945602CE01BE014DE00E94120298
:10069000289A289887E20E94560280E40E94560217
:1006A000289ADF91CF910895DF93CF930F92CDB722
:1006B000DEB728988F71806269830E945602698133
:1006C000862F0E945602289A0F90CF91DF910895AD
:1006D0000F931F93DF93CF930F92CDB7DEB78B01AC
:1006E00028988F7149830E945602C801B801498138
:1006F0000E941202289A0F90CF91DF911F910F91C3
:1007000008950F931F93DF93CF930F92CDB7DEB76A
:100710008B0128988F71806249830E945602C8011C
:100720004981642F0E943602289A0F90CF91DF9161
:100730001F910F9108950F931F93DF93CF930F9203
:10074000CDB7DEB78C01809141058823E1F72C9865
:1007500081E080934105289880E269830E945602D7
:100760008AE40E945602289A289881EE0E94560236
:10077000289A289880EA0E945602C80169810E943E
:100780003602289A2C9A0F90CF91DF911F910F91EA
:100790000895EF92FF920F931F93DF93CF930F92E1
:1007A000CDB7DEB7182F062F289881EE99830E94C7
:1007B0005602289A289888EA0E94560299810023B6
:1007C00061F0612F792F7B01F70181917F010E94F8
:1007D00056028E2D811B8017B8F3289A0F90CF9167
:1007E000DF911F910F91FF90EF900895289881EE6F
:1007F0000E945602289A08951F93CF93DF93809109
:100800004105882321F0DF91CF911F910895289809
:100810008FEF0E945602289A86FFF5CF80910D0433
:10082000826080930D04289887E20E94560280E738
:100830000E945602289A289881E60E9456028FE567
:1008400095E0BC014DE00E941202289A289887E2A8
:100850000E94560280E40E945602289A289882EE4E
:100860000E945602289A60915F05662309F495C19B
:100870005091630540916405E091600570916105B8
:10088000252F30E02F77307030930A04209309042D
:10089000842F90E08F7790709093080480930704E2
:1008A00057FD7FC2220F331F220F331F3095219532
:1008B0003F4F3093F8032093F70347FD7CC2880F26
:1008C000991F880F991F909581959F4F9093FA03D8
:1008D0008093F90342E02130340744F040E052E0D5
:1008E0005093F8034093F70320E032E042E0813078
:1008F000940734F080E092E09093FA038093F90338
:100900004EEF2030340734F440E05EEF5093F803AC
:100910004093F7032EEF8030920734F480E09EEF8F
:100920009093FA038093F903262F30E03093580513
:1009300020935705F0E0F0935A05E0935905C72F2F
:10094000D0E0D0935C05C0935B05922F8827821B73
:10095000930B24E630E0B9010E947D27162F1095F5
:1009600010930C025E2F44274E1B5F0BCA01B90186
:100970000E947D27609560930E025C2F44274C1BDC
:100980005D0BCA01B9010E947D27609560930D023D
:10099000812F0E94341C80910D020E94481C80917E
:1009A0000E020E945C1C8091620580FF02C1449887
:1009B00081FF02C14598982F82FF02C121E0209358
:1009C000110284FD01C186FF06C181E080933E05CE
:1009D00097FD05C110923F058091650580FF06C116
:1009E00080910B018E7F80930B018091650581FFC3
:1009F00006C180910B018D7F80930B01809165056D
:100A000082FF06C180910B018B7F80930B01809147
:100A1000650583FF06C1A3988091650584FF06C123
:100A200080910B018F7E80930B018091650585FF7E
:100A300006C180910B018F7D80930B01809165052C
:100A400086FF06C180910B018F7B80930B01809103
:100A5000650587FD06C180910B01806880930B01BD
:100A600080910B0280934705853009F406C18630DA
:100A700008F05FC1833009F40EC2843009F03FC032
:100A8000909167038091680390934805809349058E
:100A900090916F038091700390934A0580934B056A
:100AA000909171038091720390934C0580934D0552
:100AB000909173038091740390934E0580934F053A
:100AC0009091750380917603909350058093510522
:100AD00090911B0580911C059093520580935305BE
:100AE00090911D0580911E059093540580935505A6
:100AF000809116058093560585E080930B02289817
:100B000081EE0E945602289A289888EA0E9456028E
:100B1000809147050E945602809148050E94560226
:100B2000809149050E94560280914A050E94560212
:100B300080914B050E94560280914C050E945602FE
:100B400080914D050E94560280914E050E945602EA
:100B500080914F050E945602809150050E945602D6
:100B6000809151050E945602809152050E945602C2
:100B7000809153050E945602809154050E945602AE
:100B8000809155050E945602809156050E9456029A
:100B9000289ADF91CF911F910895E0916005EE238F
:100BA00009F412C15091630540916405709161058B
:100BB00067CE449A81FDFECE459A982F82FDFECEE7
:100BC0001092110284FFFFCE0E942C1F90916205AB
:100BD000892F86FDFACE10923E0597FFFBCE81E06D
:100BE00080933F058091650580FDFACE80910B01D1
:100BF000816080930B018091650581FDFACE809123
:100C00000B01826080930B018091650582FDFACE15
:100C100080910B01846080930B018091650583FDB9
:100C2000FACEA39A8091650584FDFACE80910B01DE
:100C3000806180930B018091650585FDFACE8091DE
:100C40000B01806280930B018091650586FDFACED1
:100C500080910B01806480930B018091650587FF73
:100C6000FACE80910B018F7780930B0180910B025C
:100C700080934705853009F0FACE80912F0390913B
:100C800030038093480580912F0390913003909317
:100C90004905809133039091340380934A058091F4
:100CA00033039091340390934B05809137039091D7
:100CB000380380934C0580913703909138039093CB
:100CC0004D0580913B0390913C0380934E058091AC
:100CD0003B0390913C0390934F0580914303909187
:100CE0004403809350058091430390914403909373
:100CF000510580914703909148038093520580915C
:100D00004703909148039093530580914B03909132
:100D10004C038093540580914B0390914C03909326
:100D2000550580913A058093560586E080930B0225
:100D3000E6CE863009F45DC0873009F0E0CE309110
:100D4000DB032091DC039091DD038091DE0330937F
:100D500048052093490590934A0580934B053091AF
:100D6000D7032091D8039091D9038091DA0330936F
:100D70004C0520934D0590934E0580934F0510929E
:100D80005005109251051092520510925305109281
:100D90005405109255051092560583E080930B027E
:100DA000AECE220F331F220F331F3093F803209350
:100DB000F70347FF84CD880F991F880F991F9093E1
:100DC000FA038093F90386CD70916105772361F46E
:100DD00080916205883041F450916305552309F4F0
:100DE000C0C0409164054CCD5091630540916405AD
:100DF00047CD80913F0390914003809348058091B7
:100E00003F03909140039093490580914F03909147
:100E1000500380934A0580914F0390915003909323
:100E20004B05809153039091540380934C0580911E
:100E300053039091540390934D05809157039091E3
:100E4000580380934E0580915703909158039093D7
:100E50004F0580915B0390915C03809350058091D6
:100E60005B0390915C039093510590911F058091D5
:100E7000200590935205809353059091C303809170
:100E8000C40390935405809355051092560587E04E
:100E900080930B0234CE90915F0380916003909316
:100EA0004805809349059091610380916203909376
:100EB0004A0580934B05909163038091640390935E
:100EC0004C0580934D059091650380916603909346
:100ED0004E0580934F059091690380916A0390932A
:100EE00050058093510590916B0380916C03909312
:100EF00052058093530590916D0380916E039093FA
:100F00005405809355053091030180910301209190
:100F1000030190E0807290709595879595958795DF
:100F2000959587959595879595958795880F991FA0
:100F3000221F2227221F220F220F282B832F90E00F
:100F400080719070959587959595879595958795DE
:100F500095958795282B2093560584E080930B0266
:100F6000CECD40916405442379F010920A0410928A
:100F70000904842F90E08F779070909308048093F9
:100F8000070420E030E08ECC8CE30E94CC1150911D
:100F900063054091640560915F05E0916005709183
:100FA00061056ECCCF93DF93C8E6D0E01882ACE643
:100FB000B0E01C92E0EBF0E010821092B1001092D1
:100FC00070008881826088838C9180688C93808196
:100FD00082608083DF91CF9108951F920F920FB6A8
:100FE0000F9211248F9380911102882321F1809117
:100FF000030186FD20C0809168008D7F809368008A
:1010000080916C008F7780936C0081E08093120256
:101010008DE08093B3008091B10086608093B10031
:10102000809170008260809370001092260310926D
:101030002703109228038F910F900FBE0F901F90DF
:1010400018951F920F920FB60F9211242F933F9372
:101050004F935F938F939F938091B100887F80938C
:10106000B100809112028823A9F08091030186FFCC
:1010700065C08091680082608093680080916C00F8
:10108000806880936C008FEF9FEF909302028093B3
:10109000010249C080910102909102022FEF8F3F1F
:1010A000920709F463C08130910509F498C09C014E
:1010B000225030402530310508F467C09C0127508C
:1010C00030402630310508F0BDC026E32093B30040
:1010D0002091B10026602093B10020917000226021
:1010E000209370002091030130E0207430700024C0
:1010F000220F331F001C220F331F001C232F302D03
:101100004CE050E0481B590B02C0220F331F4A9598
:10111000E2F740912603420F4093260301969093F5
:101120000202809301029F918F915F914F913F91B5
:101130002F910F900FBE0F901F90189510921202D2
:1011400083E38093B3008091B10086608093B10007
:101150008091700082608093700080910102909174
:1011600002022FEF8F3F9207C9F6DDCF20910301D6
:1011700026FF52C0209168002260209368002091D1
:101180006C00206820936C00CECF26E32093B30040
:101190002091B10026602093B10020917000226060
:1011A000209370002091030130E0207430700024FF
:1011B000220F331F001C220F331F001C232F302D42
:1011C00046E050E0481B590B02C0220F331F4A95DE
:1011D000E2F740912703420F409327039FCF2091CE
:1011E000030130E020743070022E232F000C221FE8
:1011F000330B000C221F331F2093280326E3209378
:10120000B3002091B10026602093B10020917000BE
:1012100022602093700082CF8CE18093B300809194
:10122000B10086608093B1008091700082608093ED
:10123000700010922603109227031092280381E079
:1012400090E06DCF8D30910509F068CF109270005D
:101250008091680082608093680080916C00806853
:1012600080936C008FEF9FEF9093020280930102B6
:1012700080912803809300028091270380932403A8
:10128000809126038093250381E0809317054BCF3F
:101290008091000208958091240308958091250390
:1012A0000895809111028823B1F180911705882358
:1012B00091F1E0912503E093160510921705F0E0F7
:1012C000E533F10548F12091F7033091F80380915F
:1012D000F9039091FA0337FD27C035952795359589
:1012E000279530930A042093090497FD09C095952A
:1012F00087959595879590930804809307040895A2
:10130000909581959F4F9595879595958795909305
:101310000804809307040895EE58FF4FEE0FFF1F57
:101320000590F491E02D1994309521953F4FD5CF3C
:1013300080933E0510923F05C6CF10923E0581E096
:1013400080933F052091F7033091F8038091F903D2
:101350009091FA03C0CF10923E052091F70330918F
:10136000F8038091F9039091FA03B5CF81E080935F
:101370003E052091F7033091F8038091F903909195
:10138000FA03A9CF8091F9039091FA034E979093B5
:10139000FA038093F9032EEF803092079CF580E0EA
:1013A0009EEF9093FA038093F9032091F703309115
:1013B000F80391CF2091F7033091F8038091F50362
:1013C0009091F6032817390724F02091F903309102
:1013D000FA032E5130403093F8032093F703C901EC
:1013E0003093FA032093F9034EEF2030340734F49E
:1013F00040E05EEF5093F8034093F7034EEF203048
:1014000034076CF22091F7033091F80364CF2091F8
:10141000F7033091F8032E5130403093F8032093B6
:10142000F7034EEF203034070CF017C180E09EEF39
:101430009093F8038093F7038091F9039091FA0356
:1014400020E830E04ECF2091F7033091F8032E5181
:1014500030403093F8032093F7038091F903909183
:10146000FA034E969093FA038093F9034EEF2030DF
:10147000340734F420E03EEF3093F8032093F70371
:1014800042E0813094070CF426CF80E092E0909304
:10149000FA038093F9031FCF2091F7033091F803EB
:1014A0008091F9039091FA03821793070CF4DAC044
:1014B0009C01225E3F4F3093F8032093F7034E9632
:1014C0009093FA038093F90342E02130340734F01B
:1014D00020E032E03093F8032093F70322E08130DC
:1014E00092070CF48FCF80E092E09093FA03809300
:1014F000F9032091F7033091F803EDCE2091F70323
:101500003091F803225E3F4F3093F8032093F703A6
:1015100042E0213034070CF4A0C080E092E09093C8
:10152000F8038093F7038091F9039091FA0320E880
:1015300030E0D7CE8091180590E0019665E070E02C
:101540000E94912780931805882309F08DC0449A42
:10155000459A10920E028FEF80930D0280930C0239
:101560000E94341C80910D020E94481C80910E0242
:101570000E945C1C2091F7033091F8038091F903DD
:101580009091FA03A8CE8091190590E0019683709E
:10159000907080931905823009F4CFCE833009F41E
:1015A00053C0813009F4C4CE10923E0510923F051D
:1015B0008ACE2091F7033091F803225E3F4F30939B
:1015C000F8032093F7038091F9039091FA034E9763
:1015D0009093FA038093F90342E02130340734F00A
:1015E00020E032E03093F8032093F7034EEF803091
:1015F00094070CF070CE80E09EEF9093FA038093F6
:10160000F90369CE1092F8031092F7031092FA03CF
:101610001092F90380E090E020E030E05ECE80910F
:10162000F9039091FA034E969093FA038093F9038D
:1016300022E0813092070CF4E5CE80E092E09093B6
:10164000FA038093F903DECE81E080933E05809318
:101650003F052091F7033091F8038091F9039091B1
:10166000FA0339CEC90125CF813061F0823091F083
:101670008330D9F08FEF80930E0280930D02809318
:101680000C026ECF8FEF80930E0210920D028093AA
:101690000C0266CF449845988FEF80930E0280939A
:1016A0000D0210920C0280E05BCF10920E0210929D
:1016B0000D0210920C0280E053CF08950F931F93F8
:1016C000CF93DF93FC0180819181009709F4B7C02B
:1016D00020912D0530912E0541E02E3034070CF479
:1016E00088C0181619060CF013C188E691E0821B19
:1016F000930B959587959595879529E130E0281B63
:10170000390B30930402209303024091430550911A
:10171000440550935E0540935D052081318137FD7E
:10172000D2C08091EF039091F003B901681B790B4F
:10173000CB0170934405609343052091FF033091E2
:101740000004280F391F309300042093FF0376E034
:10175000213437070CF484C020E436E030930004D1
:101760002093FF0360EC72E19C01220F331FDC0128
:10177000AA0FBB1FAA0FBB1FAA0FBB1F2A0F3B1F1D
:1017800000811181C0910302D09104020C9FD0010D
:101790000D9FB00D1C9FB00D11242A0F3B1F481B3D
:1017A000590B440F551F240F351F260F371F309339
:1017B000FE032093FD0337FD69C0121613060CF0DB
:1017C0006FC08081918197FD89C07DE5213C3707FD
:1017D0000CF466C080EC9DE59093FE038093FD03BE
:1017E00080E092E091838083DF91CF911F910F91F0
:1017F0000895243B310594F42A3531057CF41816FC
:1018000019060CF093C03595279535952795275ED9
:101810003F4F309304022093030277CF1816190626
:1018200094F584EB90E0821B930B959587959595A5
:1018300087954996909304028093030266CF109295
:1018400000041092FF031092440510924305109279
:101850005E0510925D05DF91CF911F910F91089564
:1018600069EF203C36074CF420EC39EF309300044C
:101870002093FF0360E47DEE77CFB901660F771FF9
:10188000620F731F71CF84EB90E031CF8081918123
:1018900097FD06C01092FE031092FD0320E030E099
:1018A00082EA2034380704F580E492EA9093FE033C
:1018B0008093FD0380E09EEF91838083DF91CF9141
:1018C0001F910F9108958091EF039091F003820F83
:1018D000931F90934405809343052FCF1092FE03EE
:1018E0001092FD0320E030E035952795359527953A
:1018F00035952795359527953183208342E0213012
:1019000034070CF06DCF6EEF203036079CF26CCFB1
:1019100088E691E0821B930B959587959595879521
:1019200049969093040280930302EFCE3595279554
:101930003595279589E190E0821B930B90930402E3
:1019400080930302E2CE0F931F93CF93DF93FC01AA
:1019500080819181009709F4B7C020912D053091C5
:101960002E0541E02E3034070CF488C018161906F5
:101970000CF013C188E691E0821B930B9595879537
:101980009595879529E130E0281B390B30930602A5
:101990002093050240916C0550916D0550934605CA
:1019A000409345052081318137FDD2C08091F103FC
:1019B0009091F203B901681B790BCB0170936D050F
:1019C00060936C052091010430910204280F391FA7
:1019D000309302042093010476E0213437070CF49D
:1019E00084C020E436E0309302042093010460ECCC
:1019F00072E19C01220F331FDC01AA0FBB1FAA0F4B
:101A0000BB1FAA0FBB1F2A0F3B1F00811181C09172
:101A10000502D09106020C9FD0010D9FB00D1C9FB6
:101A2000B00D11242A0F3B1F481B590B440F551FA3
:101A3000240F351F260F371F3093FC032093FB0321
:101A400037FD69C0121613060CF06FC080819181BA
:101A500097FD89C07DE5213C37070CF466C080EC1A
:101A60009DE59093FC038093FB0380E092E09183DB
:101A70008083DF91CF911F910F910895243B310511
:101A800094F42A3531057CF4181619060CF093C02D
:101A90003595279535952795275E3F4F309306025C
:101AA0002093050277CF1816190694F584EB90E081
:101AB000821B930B9595879595958795499690935D
:101AC00006028093050266CF109202041092010470
:101AD00010926D0510926C05109246051092450506
:101AE000DF91CF911F910F91089569EF203C360748
:101AF0004CF420EC39EF309302042093010460E4AD
:101B00007DEE77CFB901660F771F620F731F71CF1C
:101B100084EB90E031CF8081918197FD06C01092D7
:101B2000FC031092FB0320E030E082EA2034380707
:101B300004F580E492EA9093FC038093FB0380E039
:101B40009EEF91838083DF91CF911F910F91089534
:101B50008091F1039091F203820F931F90936D0592
:101B600080936C052FCF1092FC031092FB0320E0B2
:101B700030E03595279535952795359527953595F9
:101B800027953183208342E0213034070CF06DCF5C
:101B90006EEF203036079CF26CCF88E691E0821B16
:101BA000930B959587959595879549969093060201
:101BB00080930502EFCE359527953595279589E1D8
:101BC00090E0821B930B9093060280930502E2CE75
:101BD000FC0180819181009709F47BC0A0916C0584
:101BE000B0916D05B0934605A093450520813181E4
:101BF00037FD89C08091F1039091F203A901481B40
:101C0000590BCA0150936D0540936C052091010456
:101C100030910204280F391F3093020420930104ED
:101C200056E0213435070CF461C020E436E03093EF
:101C300002042093010460E87CE09C01220F331F22
:101C4000280F391F220F331F220F331F220F331F7C
:101C5000280F391F40815181440F551F440F551FD4
:101C6000440F551F240F351FAD01481B590BCA01E6
:101C7000880F991F840F951F280F391F260F371FB4
:101C80003093FC032093FB0337FD4CC01216130660
:101C90000CF052C08081918197FD67C05DE5213CC9
:101CA00035070CF449C080EC9DE59093FC038093CC
:101CB000FB032CED35E0225E3F4F3183208342E071
:101CC000213034070CF448C080E092E09183808397
:101CD0000895109202041092010410926D05109262
:101CE0006C051092460510924505089549EF203C79
:101CF0003407A4F420EC39EF30930204209301045C
:101D000060E873EF9ACF8091F1039091F203820F14
:101D1000931F90936D0580936C0578CFB901660F82
:101D2000771F8BCF8081918197FD06C01092FC03B5
:101D30001092FB0320E030E082EA20343807DCF424
:101D400080E492EA9093FC038093FB0324E23AEF51
:101D50002E513040318320835EEF2030350724F44C
:101D600080E09EEF9183808308951092FC0310928F
:101D7000FB0320E030E0359527953595279535957F
:101D800027953595279531832083121613060CF479
:101D900092CF21153105E1F60895FC0180819181F2
:101DA000009709F47BC0A0914305B0914405B0931E
:101DB0005E05A0935D052081318137FD89C080914A
:101DC000EF039091F003A901481B590BCA015093EE
:101DD0004405409343052091FF0330910004280FF0
:101DE000391F309300042093FF0356E02134350758
:101DF0000CF461C020E436E0309300042093FF032C
:101E000060E87CE09C01220F331F280F391F220F4E
:101E1000331F220F331F220F331F280F391F40811A
:101E20005181440F551F440F551F440F551F240F58
:101E3000351FAD01481B590BCA01880F991F840F2C
:101E4000951F280F391F260F371F3093FE0320934D
:101E5000FD0337FD4CC0121613060CF052C08081F2
:101E6000918197FD67C05DE5213C35070CF449C0C1
:101E700080EC9DE59093FE038093FD032CED35E00F
:101E8000225E3F4F3183208342E0213034070CF43F
:101E900048C080E092E0918380830895109200040E
:101EA0001092FF03109244051092430510925E05B4
:101EB00010925D05089549EF203C3407A4F420EC0E
:101EC00039EF309300042093FF0360E873EF9ACF5B
:101ED0008091EF039091F003820F931F909344053C
:101EE0008093430578CFB901660F771F8BCF808130
:101EF000918197FD06C01092FE031092FD0320E031
:101F000030E082EA20343807DCF480E492EA9093EF
:101F1000FE038093FD0324E23AEF2E5130403183DB
:101F200020835EEF2030350724F480E09EEF91831C
:101F3000808308951092FE031092FD0320E030E0AC
:101F40003595279535952795359527953595279579
:101F500031832083121613060CF492CF211531051C
:101F6000E1F6089585B7806185BF8FEF81B912B81A
:101F700097EF94B990EE95B990EF97B990EB98B927
:101F80009CEF9AB993E09BB98DB91EB810BA83BB88
:101F900080913D058823E1F08130D1F0823051F10C
:101FA0009FEF90930101109202019FE09093040132
:101FB0008823A9F490910501109205011092070160
:101FC0009FEF90930A01882329F410920B01089542
:101FD00014BAE6CF8130C9F3823041F008958130E0
:101FE00011F0823059F790930501E8CF87EF809385
:101FF0000B01089598E094BBD3CF1092B8001092D3
:10200000BC000895589A599A1092B90081E08093C3
:10201000B800089594EA9093BC009091BC0097FF9B
:10202000FCCF9091B900987F983021F0903111F059
:1020300081E008958093BB0084E88093BC00809188
:10204000BC0087FFFCCF9091B900987F983121F0B8
:1020500081E0903419F0089580E0089580E00895BB
:1020600024EA34E844E92093BC009091BC0097FF37
:10207000FCCF9091B900987F983011F0903199F78A
:102080008093BB003093BC009091BC0097FFFCCFC5
:102090009091B900987F903219F0983509F0089521
:1020A0004093BC009091BC0094FDFCCFDCCF94EA3F
:1020B0009093BC009091BC0097FFFCCF9091B90029
:1020C000987F983021F0903111F081E0089580934D
:1020D000BB0084E88093BC008091BC0087FFFCCFEC
:1020E0009091B900987F983121F081E0903419F0F7
:1020F000089580E0089580E0089584E98093BC000D
:102100008091BC0084FDFCCF08958093BB0084E8DF
:102110008093BC008091BC0087FFFCCF9091B900F8
:10212000987F81E0983209F0089580E0089584EC6A
:102130008093BC008091BC0087FFFCCF8091BB00E6
:10214000089584E88093BC008091BC0087FFFCCF99
:102150008091BB0008951092C50080E18093C40077
:10216000E0ECF0E0808182608083E1ECF0E080814F
:1021700088698083E2ECF0E0808186608083089546
:102180001092CD0080E18093CC00E8ECF0E08081FB
:1021900082608083E9ECF0E0808188618083EAECF2
:1021A000F0E080818660808308951092C0001092D4
:1021B000C1001092C20008959091C00095FFFCCF1D
:1021C0008093C600662321F08091C00086FFFCCF7B
:1021D00008959091C80095FFFCCF8093CE006623B0
:1021E00021F08091C80086FFFCCF08958091C00047
:1021F0008095881F8827881F089587E990E020919F
:10220000C00027FD07C00197D1F781E0809311043A
:1022100080E008958091C60008951F920F920FB636
:102220000F920BB60F9211242F938F939F93EF93DE
:10223000FF938091120490911304019690931304DC
:102240008093120421E08130920760F4809114059C
:102250009091C600E82FF0E0EC5EFB4F90838F5F1B
:1022600080931405FF91EF919F918F912F910F9083
:102270000BBE0F900FBE0F901F90189586B166B1E0
:1022800026B146B130E028703070359527953595E8
:10229000279535952795220F331F70E06470707075
:1022A0007595679575956795260F371F220F331F14
:1022B00050E04270507055954795240F351F220FFE
:1022C0008170820F0895F89414BC15BC10926E00B2
:1022D00010922001109221018EEF9FE00E94EA29C6
:1022E00090930C0480930B048DEF9FE00E94E229F1
:1022F00080934205982F91509E3FD8F580936600B9
:1023000080910B0490910C049C0121583C40233097
:102310003105F8F410923D050E94B20F0E9445125B
:102320000E941A150E94F71B0E9403020E94EC02F1
:1023300080910E04882329F480910D04816080939C
:102340000D040E94AB100E943F1D0E94D20778949A
:1023500008952CE08038920721F481E080933D05B8
:10236000DBCF2CE084389207B8F282E080933D0501
:10237000D3CF60916600609342058DEF9FE00E948D
:10238000F029BECF1F920F920FB60F9211240F901B
:102390000FBE0F901F901895CF93DF939EE1899FFA
:1023A000E0011124809168008D7F80936800809106
:1023B0006C008F7780936C00D99A10927A0080918C
:1023C0007A00806180937A001092900010929100C0
:1023D0001092710088B3876088BB1092A0001092A1
:1023E000A1001092720089B3876089BB10928000AF
:1023F000109281000E94D5100E940F020E94FD0FD2
:102400000E94B20F83B78F6083BF81E0809370001A
:102410008091B0008D7F8093B0008091B100876083
:102420008093B100209719F088952197E9F713BEA2
:102430008091B100887F8093B100109270008091EC
:10244000B00082608093B0008FEF80930C02809385
:102450000D0280930E021092F4031092F303109277
:10246000F6031092F5030E946311DF91CF91089556
:102470006091360570913705809138059091390546
:10248000089581E08093C5030895CF93DF93EAE731
:10249000F0E01082ABE7B0E01C92CCE7D0E018820D
:1024A0008081866080838881806488838081806267
:1024B00080838C91887F8C938081886080838081E9
:1024C00080688083808180648083DF91CF910895CC
:1024D0001F920F920FB60F920BB60F9211242F93EB
:1024E0003F934F935F936F938F939F93AF93BF935C
:1024F000EF93FF938091360590913705A0913805B1
:10250000B09139050196A11DB11D809336059093B8
:102510003705A0933805B09339052091780030E055
:1025200040917900942F80E0282B392B8091BF03B4
:10253000823009F4ACC1833008F445C0833009F41B
:10254000C9C1843009F468C18091C003823009F4A4
:102550004FC1833008F0CDC0882309F024C1809199
:102560002A038695809329038091C103882309F06B
:10257000E1C181E08093BF0381E08093C00390912B
:102580002903983008F0EDC090917B00977F9093DD
:102590007B0090912903905C90937C00823009F439
:1025A000EDC0FF91EF91BF91AF919F918F916F918E
:1025B0005F914F913F912F910F900BBE0F900FBEE7
:1025C0000F901F901895882309F0FEC060912A0390
:1025D0006E3009F4D0C1462F50E0FA01EE0FFF1F14
:1025E000E15DFC4F3183208340FF77C0FA01EE0F9D
:1025F000FF1FE35DFC4F80819181FA01EE0FFF1F09
:10260000E15DFC4F40815181262F269530E0841BEF
:10261000950B220F331FF901E958FC4F408151817E
:10262000841B950BF901E15AFC4F9183808397FD40
:10263000BDC144E08130940724F080E094E09183B0
:102640008083603148F48C3391050CF0B4C1295378
:102650003C4FF9019183808380913F05882309F4E1
:1026600075C180916F0390917003F1E0843A9F07E8
:10267000CCF0809171039091720321E0843A92072B
:102680008CF0809173039091740341E0843A940735
:102690004CF08091750390917603E1E0843A9E07B7
:1026A0000CF054C181E0809340051092F603109223
:1026B000F5031092A9001092A8001092AB0010929E
:1026C000AA001092F4031092F30310929900109252
:1026D000980010929B0010929A006F5F60932A03FB
:1026E000683108F431CF10922A0381E08093C60349
:1026F0002BCF833009F4B7C0843009F040CF9091DC
:102700002C039093290390912D039093C1039091F2
:10271000C203992309F008C183E08093BF0310929C
:10272000C00360912A036E3009F41FC1862F90E028
:1027300060FFF1C0603108F40CC120913D052223F7
:1027400009F0D5C040979595879521E030E002C00B
:10275000220F331F8A95E2F7209305018091C00371
:102760000ECF90917B00986090937B00909129030D
:10277000985C90937C00823009F013CF20913D0546
:10278000222351F0213019F0223009F00ACF8FEFC7
:102790008093050112B805CF80910501807F809359
:1027A000050112B8FECE813009F0E9CE80912B03ED
:1027B0008093290380912E038093C2031092BF035C
:1027C00082E08093C003DBCE813009F0BDCE8091E2
:1027D000E1039091E203820F931F96958795909362
:1027E000E2038093E1038091C003823009F0B1CE0F
:1027F00080912C038093290380912D038093C10342
:102800008091C203882309F09BC083E08093BF03BB
:1028100083E08093C003B3CE80910A02882309F439
:1028200093CE9091000193FD8FCE9091000194FD85
:102830008BCE482F4F5F40930A02453008F484CE78
:102840008091EB039091EC03820F931F9093EC0324
:102850008093EB03483009F077CE10920A0281E0B2
:102860008093070271CE80912B038093290380917E
:102870002E038093C2038091C103882309F04EC0C8
:1028800081E08093BF0384E08093C00378CE809181
:102890000902882309F458CE639956CE649954CE20
:1028A000482F4F5F40930902453008F44DCE809188
:1028B000ED039091EE03820F931F9093EE038093AC
:1028C000ED03483009F040CE1092090281E0809378
:1028D00008023ACE8091DF039091E003820F931FAC
:1028E000969587959093E0038093DF032DCE21305A
:1028F00011F0223081F4409105014097959587951C
:1029000021E030E002C0220F331F8A95E2F72095C4
:102910002423209305018091C00331CE8130D1F171
:1029200085E08093BF03AFCF913009F085E08093BD
:10293000BF03F5CE8130B1F185E08093BF031CCE9B
:10294000813061F185E08093BF0362CF1092400532
:10295000C4CE669581E090E002C0880F991F6A9509
:10296000E2F782B98091C0030ACE8091C50381301D
:10297000A1F180E004CE8091C503823009F02BCE16
:102980003093C4032093C3031092C50346984EE0CE
:1029900050E02ACE82E08093BF0375CF84E080931D
:1029A000BF0336CF82E08093BF03E6CD1182108251
:1029B00080E090E046CEAC01445C5F4F5595479572
:1029C000483751057CF429533C4FCC979595879512
:1029D000CC96F901918380833FCE82E08093C5033A
:1029E000469AA4CEAC01445D5E4F559547955595EA
:1029F0004795443B510574F429533C4F845B904008
:102A0000959587959595879588589F4FF90191835E
:102A1000808322CE29533C4F845A914095958795C7
:102A200095958795959587958C549F4FF90191833E
:102A3000808312CE0F931F93CF93DF93E0E9F0E0F2
:102A4000108241E950E0DA011C9221E730E0E9010F
:102A50001882A0EAB0E01C9281EA90E0EC011882B2
:102A600002E710E0E801188260816368608360819A
:102A700063606083EA0168816B6068834091F3035F
:102A80005091F403509399004093980010929B004A
:102A900010929A00E90148814160488320812F7596
:102AA00020832EB1277E2EB92C9123682C93FC0114
:102AB00020812B6020838091F5039091F603909301
:102AC000A9008093A8001092AB001092AA00E80120
:102AD0008881816088838C918F758C93E2E0F1E02E
:102AE0008081877E8083DF91CF911F910F91089520
:102AF00080910702882309F041C06091F903709129
:102B0000FA0380910802882309F073C0E091F7036B
:102B1000F091F803F0930404E0930304962F872FB9
:102B2000609305047093060420913E05222309F06A
:102B3000A3C09093E9038093EA03F093E803E09342
:102B4000E7039093F5038093F603F093F403E09387
:102B5000F3031E161F060CF09EC0F0939900E0933D
:102B600098008091F5039091F603181619060CF061
:102B700077C09093A9008093A80008952091EB035B
:102B80003091EC0336952795369527953093F003D1
:102B90002093EF03109207021092EC031092EB03C4
:102BA0006091F9037091FA0377FDA0C035952795E0
:102BB0003595279535952795442737FD4095542F12
:102BC0008091DB039091DC03A091DD03B091DE03E3
:102BD000820F931FA41FB51F8093DB039093DC0328
:102BE000A093DD03B093DE0380910802882309F4EB
:102BF0008DCF2091ED033091EE03369527953695D4
:102C000027953093F2032093F1031092080210925B
:102C1000EE031092ED03E091F703F091F803F7FD56
:102C200046C03595279535952795359527954427A1
:102C300037FD4095542F8091D7039091D803A091F0
:102C4000D903B091DA03820F931FA41FB51F80939D
:102C5000D7039093D803A093D903B093DA035ACF44
:102C6000009709F06AC01092A9001092A800109273
:102C7000AB001092AA00089585E094E063E074E050
:102C80000E94E3199091050480910604E0910304E9
:102C9000F09104044ECF309709F047C0109299008C
:102CA0001092980010929B0010929A005ACF35957E
:102CB00027953595279535952795442737FD4095D8
:102CC000542F8091D7039091D803A091D903B0914C
:102CD000DA03821B930BA40BB50B8093D70390935D
:102CE000D803A093D903B093DA0314CF3595279571
:102CF0003595279535952795442737FD4095542FD1
:102D00008091DB039091DC03A091DD03B091DE03A1
:102D1000821B930BA40BB50B8093DB039093DC0316
:102D2000A093DD03B093DE03ECCEF095E195FF4F69
:102D3000F0939B00E0939A0014CF909581959F4F5C
:102D40009093AB008093AA0008958091F90390912D
:102D5000FA0390930604809305042091F7033091C1
:102D6000F803309304042093030440913E05442368
:102D700009F0B8C09093EA038093E9033093E80325
:102D80002093E70320910702222309F44BC02091EE
:102D9000EB033091EC0336952795369527953093C4
:102DA000F0032093EF03109207021092EC031092AD
:102DB000EB0397FDCEC0359527953595279535952D
:102DC0002795442737FD4095542F8091DB03909140
:102DD000DC03A091DD03B091DE03820F931FA41FDB
:102DE000B51F8093DB039093DC03A093DD03B093C6
:102DF000DE0380911602813009F4CEC085E094E0B4
:102E00000E945E0B80910504909106049093F60356
:102E10008093F503181619060CF0C3C09093A9000F
:102E20008093A80080910802882309F45AC0209159
:102E3000ED033091EE03369527953695279530931F
:102E4000F2032093F103109208021092EE03109205
:102E5000ED038091E7039091E80397FD52C035950B
:102E600027953595279535952795442737FD409526
:102E7000542F8091D7039091D803A091D903B0919A
:102E8000DA03820F931FA41FB51F8093D70390937B
:102E9000D803A093D903B093DA038091160281304E
:102EA00009F452C083E094E00E94A30C80910304D3
:102EB000909104049093F4038093F3031816190679
:102EC0002CF490939900809398000895009709F04E
:102ED00073C0109299001092980010929B0010926B
:102EE0009A00089585E094E063E074E00E94E3199D
:102EF000809105049091060420910304309104040C
:102F000039CF3595279535952795359527954427BC
:102F100037FD4095542F8091D7039091D803A0910D
:102F2000D903B091DA03821B930BA40BB50B8093EA
:102F3000D7039093D803A093D903B093DA03809179
:102F40001602813009F0AECF83E094E00E94E80DD4
:102F5000ADCF3595279535952795359527954427F8
:102F600037FD4095542F8091DB039091DC03A091B5
:102F7000DD03B091DE03821B930BA40BB50B809392
:102F8000DB039093DC03A093DD03B093DE03809119
:102F90001602813009F032CF85E094E00E94CD0E18
:102FA00031CF009789F41092A9001092A8001092D6
:102FB000AB001092AA0036CF909581959F4F9093C9
:102FC0009B0080939A000895909581959F4F9093D0
:102FD000AB008093AA0026CF282F332727FD3095FA
:102FE00037FD30C0309308042093070487FD1EC0CE
:102FF000220F331F220F331F3093FA032093F9035C
:1030000082E0213038073CF080E092E09093FA03B0
:103010008093F90308958EEF2030380734F480E070
:103020009EEF9093FA038093F9030895220F331FC4
:10303000220F331F309521953F4F3093FA03209391
:10304000F903DECF309521953F4FCCCF282F332782
:1030500027FD309537FD30C030930A0420930904D2
:1030600087FD1EC0220F331F220F331F3093F8033A
:103070002093F70382E0213038073CF080E092E0B3
:103080009093F8038093F70308958EEF203038076C
:1030900034F480E09EEF9093F8038093F703089553
:1030A000220F331F220F331F309521953F4F30934E
:1030B000F8032093F703DECF309521953F4FCCCF17
:1030C0001F920F920FB60F9211248F939F938091AE
:1030D0004005882361F01092F6031092F5031092D8
:1030E000A9001092A8001092AB001092AA001092B2
:1030F000E0031092DF038091F5039091F6030097AF
:1031000041F58091E9039091EA0397FD69C081E060
:1031100080932E038EE080932B0381E080930A023C
:103120008091A0008F758093A00080910201877E1E
:103130008093020180917200897F8093720089B32D
:10314000866089BB9F918F910F900FBE0F901F904B
:103150001895181619062CF510922E038FE08093FF
:103160002B038091A0008F7D8093A000809172003E
:103170008B7F80937200809102018F7E8093020189
:103180008091A00080688093A0008091720082608E
:10319000809372009F918F910F900FBE0F901F90A0
:1031A000189510922E038EE080932B038091A0003F
:1031B0008F778093A000809172008D7F8093720042
:1031C00080910201877F809302018091A00080623C
:1031D0008093A00080917200846080937200B2CFCF
:1031E00081E080932E038FE080932B0396CF1F9274
:1031F0000F920FB60F9211248F939F9381E08093CB
:103200002E039EE090932B0380930A029F918F914F
:103210000F900FBE0F901F9018951F920F920FB630
:103220000F9211248F939F9381E080932E039FE050
:1032300090932B0380930A029F918F910F900FBE62
:103240000F901F9018951F920F920FB60F92112496
:103250008F939F9380914005882361F01092F4032F
:103260001092F303109299001092980010929B0014
:1032700010929A001092E2031092E1038091F303FE
:103280009091F403009731F58091E7039091E80362
:1032900097FD5FC081E080932D038CE080932C0329
:1032A00081E080930902809190008F758093900057
:1032B0008EB1877E8EB980917100897F8093710075
:1032C00088B3866088BB9F918F910F900FBE0F903F
:1032D0001F901895181619060CF510922D038DE005
:1032E00080932C03809190008F7D8093900080913B
:1032F00071008B7F8093710074988091900080683A
:1033000080939000809171008260809371009F9102
:103310008F910F900FBE0F901F90189510922D0354
:103320008CE080932C03809190008F7780939000A5
:10333000809171008D7F80937100739880919000CF
:10334000806280939000809171008460809371000E
:10335000BACF81E080932D038DE080932C03A0CF22
:103360001F920F920FB60F9211248F939F9381E0BB
:1033700080932D039CE090932C03809309029F91EE
:103380008F910F900FBE0F901F9018951F920F9264
:103390000FB60F9211248F939F9381E080932D039A
:1033A0009DE090932C03809309029F918F910F9041
:1033B0000FBE0F901F9018958091940090919500EA
:1033C0000E942E2808952F923F924F925F926F9203
:1033D0007F928F929F92AF92BF92CF92DF92EF92A5
:1033E000FF920F931F93DF93CF93CDB7DEB728974C
:1033F0000FB6F894DEBF0FBECDBF2C017A83698370
:10340000FC010190F081E02DFC83EB83FB01019036
:10341000F081E02DFE83ED836091C7037091C803B6
:103420006530710534F41092C8031092C70360E050
:1034300070E04091C9035091CA034530510534F4FE
:103440001092CA031092C90340E050E08091CB0370
:103450009091CC038530910524F41092CC03109206
:10346000CB030091CD031091CE030530110534F448
:103470001092CE031092CD0300E010E06090CF03D5
:103480007090D003F5E06F16710434F41092D003FD
:103490001092CF03662477242091D1033091D20378
:1034A0002530310534F41092D2031092D10320E07C
:1034B00030E08091D3039091D4038530910524F4BA
:1034C0001092D4031092D3038091D5039091D60328
:1034D0008530910534F41092D6031092D50380E024
:1034E00090E0EE24FF24E61AF70A5A01B594A79457
:1034F000159507956901D594C7944C0195948794C7
:103500000E94292893012E5130402E0D3F1D200F7F
:10351000311F2C0D3D1D2A193B09281939094CE38F
:10352000242E312CB1010E949127280F391F388792
:103530002F83E090C903F090CA03F594E7940091BB
:10354000CB031091CC031595079515950795C09061
:10355000CD03D090CE03D594C7948090D1039090A2
:10356000D203959487946090D3037090D40375949C
:10357000679475946794A090D503B090D603B594E2
:10358000A7940E9429289701200F311F2E51304007
:103590002C0D3D1D2A193B0928193909261937090F
:1035A000B1010E949127280F391F4B815C8157FD83
:1035B00097C05A01CC24B7FCC094DC2C8F8198852D
:1035C0003C01882477FC8094982C79010027F7FC33
:1035D0000095102FC401B3016E197F09800B910B68
:1035E000A60195010E945E27F7E09595879577954E
:1035F0006795FA95D1F76A0D7B1D8C1D9D1DF20113
:10360000718360832D813E8137FD99C05901CC249F
:10361000B7FCC094DC2CC801B701660D771D881D6E
:10362000991DA60195010E945E2737E09595879523
:10363000779567953A95D1F76A0D7B1D8C1D9D1D79
:103640009B01E981FA8171836083F2E021303F07B9
:1036500044F080E092E0E981FA819183808320E068
:1036600032E0F20180819181F2E081309F074CF0DD
:1036700080E092E0F20191838083E981FA812081E8
:103680003181FEEF20303F074CF480E09EEFE9816E
:10369000FA8191838083F20180819181FEEF8030F5
:1036A0009F072CF480E09EEFF2019183808328969F
:1036B0000FB6F894DEBF0FBECDBFCF91DF911F9143
:1036C0000F91FF90EF90DF90CF90BF90AF909F90C1
:1036D0008F907F906F905F904F903F902F900895C4
:1036E0004D815E815A01CC24B7FCC094DC2C8F81C3
:1036F00098853C01882477FC8094982C79010027D8
:10370000F7FC0095102FC801B701660D771D881DC5
:10371000991DA60195010E945E27E7E09595879582
:1037200077956795EA95D1F7261B370B480B590B10
:10373000F201318320832D813E8137FF67CF2B81BA
:103740003C815901CC24B7FCC094DC2CC401B301EA
:103750006E197F09800B910BA60195010E945E27CF
:1037600027E095958795779567952A95D1F7A61ABD
:10377000B70AC80AD90A9501E981FA81B182A08203
:1037800064CF80916F039091700321E0843A920797
:10379000D4F0809171039091720321E0843A9207F2
:1037A00094F0809173039091740321E0843A92071E
:1037B00074F081E0209175033091760391E0243A12
:1037C00039071CF4089581E0089580E0089581E0B0
:1037D000089581E080933E05089510923E05089576
:1037E00081E080933F05089510923F050895A0E879
:1037F000B0E01C92E1E8F0E010828C91896A8C9331
:1038000080818960808380910C0290E09093890090
:103810008093880080910D0290E090938B008093BC
:103820008A0080910E0290E090938D0080938C002E
:10383000089581E090910F04891B80930F048823E1
:1038400039F480918000877F809380002F980895BD
:10385000809180008860809380008FEF90E090934B
:103860008D0080938C000895882359F090918000FA
:1038700090689093800090E09093890080938800F6
:103880000895809180008F77809380002D9808950F
:10389000882359F09091800090629093800090E08E
:1038A00090938B0080938A000895809180008F7D93
:1038B000809380002E980895882359F0909180007D
:1038C00098609093800090E090938D0080938C009E
:1038D000089580918000877F809380002F980895BD
:1038E000833009F45AC0843080F0853009F441C037
:1038F0008530D0F4662309F468C080910B018F7E77
:1039000080930B0180910B0108958130E1F18230A9
:1039100080F0662309F446C080910B018B7F809371
:103920000B0180910B0108958630C9F0873061F05A
:103930000895662309F451C080910B018E7F809316
:103940000B0180910B010895662309F05EC0809100
:103950000B01806880930B0180910B010895662311
:1039600049F180910B018F7B80930B0180910B01BA
:1039700008956623D1F180910B018F7D80930B0117
:1039800080910B0108956623C1F180910B018D7F19
:1039900080930B0180910B010895662399F0A39801
:1039A00084B3089580910B01846080930B01809112
:1039B0000B01089580910B01806480930B0180912D
:1039C0000B010895A39A84B3089580910B0180613F
:1039D00080930B0180910B01089580910B01816010
:1039E00080930B0180910B01089580910B018062FF
:1039F00080930B0180910B01089580910B018260EF
:103A000080930B0180910B01089580910B018F77BA
:103A100080930B0180910B010895EBE0F1E0808130
:103A200081608083808182608083808184608083E4
:103A3000A39A80818061808380818062808380817D
:103A4000806480838081806880830895EBE0F1E06A
:103A500080818E7F808380818D7F808380818B7F3A
:103A60008083A39880818F7E808380818F7D8083F7
:103A700080818F7B808380818F77808308950E94EF
:103A80000210809113020E940A10882349F486E1F3
:103A90000E94851085E40E9485100E947D10089583
:103AA0000E947D1086EA90E09093140280931302A6
:103AB00086EA0E940A10882341F58DE20E94851053
:103AC00088E00E9485100E947D10809113020E9460
:103AD0000A108823D1F481E30E94851080E00E94BF
:103AE00085100E947D10809113020E940A10882385
:103AF00061F48CE20E94851089E00E9485100E948A
:103B00007D1081E080931A0508950E947D1082E067
:103B100080931A050895809113020E940A10882349
:103B200051F486E10E94851085E40E9485100E9470
:103B30007D1080E008950E947D1081E008958091BD
:103B400013020E940A10882331F58DE20E9485102D
:103B500088E00E9485100E947D10809113020E94CF
:103B60000A108823C1F481E30E94851080E00E943E
:103B700085100E947D10809113020E940A108823F4
:103B800051F48CE20E94851089E00E9485100E9409
:103B90007D1080E008950E947D1081E00895FF92DD
:103BA0000F931F93DF93CF930F92CDB7DEB7809122
:103BB0001A05882391F0813009F488C010921C0501
:103BC00010921B0510921E0510921D050F90CF91AB
:103BD000DF911F910F91FF900895809113020E9431
:103BE0000A1080E00E948510809113028F5F0E946E
:103BF00057100E949710082F0E949710F82E0E94CD
:103C00009710182F0E94A11089830E947D10909117
:103C10006E058981992339F14F2D552747FD509520
:103C2000542F4427602F772767FD7095462B572B1D
:103C300050931C0540931B05282F332727FD3095F3
:103C4000322F2227812F992787FD9095282B392BFA
:103C500030931E0520931D050F90CF91DF911F918A
:103C60000F91FF9008954F2D552747FD5095542FE4
:103C70004427602F772767FD7095462B572B60915F
:103C8000210570912205461B570B50931C0540934C
:103C90001B05282F332727FD3095322F2227812F10
:103CA000992787FD9095282B392B8091230590919A
:103CB0002405281B390B30931E0520931D050F90FA
:103CC000CF91DF911F910F91FF9008958091130282
:103CD0000E940A1082E386CFDF93CF9300D000D0FA
:103CE000CDB7DEB780911A058823C1F0813009F481
:103CF000ADC010921C0510921B0510921E0510926B
:103D00001D051092200510921F0526960FB6F894F7
:103D1000DEBF0FBECDBFCF91DF910895809113021A
:103D20000E940A1080E00E948510809113028F5F2C
:103D30000E9457100E94971089830E9497108A83CF
:103D40000E9497108B830E9497108C830E9497107B
:103D50008D830E94A1108E830E947D1080916E053C
:103D6000882389F18A81992787FD9095982F882744
:103D70002981332727FD3095822B932B90931C05A7
:103D800080931B058C81992787FD9095982F882714
:103D90002B81332727FD3095822B932B90931E0583
:103DA00080931D058E81992787FD9095982F8827F0
:103DB0002D81332727FD3095822B932B909320055F
:103DC00080931F05A2CF8A81992787FD9095982F10
:103DD00088272981332727FD3095822B932B20912B
:103DE000210530912205821B930B90931C05809333
:103DF0001B058C81992787FD9095982F88272B810B
:103E0000332727FD3095822B932B2091230530916A
:103E10002405821B930B90931E0580931D058E81B4
:103E2000992787FD9095982F88272D81332727FD87
:103E30003095822B932B2091250530912605821BEE
:103E4000930B9093200580931F055FCF8091130201
:103E50000E940A1082E367CFCF93DF9310920C0287
:103E600010920D0210920E0280E00E94341C80918C
:103E70000D020E94481C80910E020E945C1C109250
:103E80003C0510923B0581E080936E05C1E0D0E0D7
:103E90000E946C1E20913B0530913C05213131057B
:103EA0000CF435C180918F0390919003A091910300
:103EB000B091920354E0B695A795979587955A953A
:103EC000D1F7909378038093770380919303909137
:103ED0009403A0919503B091960344E0B695A795FD
:103EE000979587954A95D1F790937A0380937903B4
:103EF0008091970390919803A0919903B0919A03B0
:103F000034E0B695A795979587953A95D1F7909314
:103F10007C0380937B0380919B0390919C03A091F1
:103F20009D03B0919E0324E0B695A795979587953C
:103F30002A95D1F790937E0380937D0380919F0310
:103F40009091A003A091A103B091A203F4E0B695D3
:103F5000A79597958795FA95D1F7909380038093CD
:103F60007F038091A3039091A403A091A503B09136
:103F7000A603E4E0B695A79597958795EA95D1F7BE
:103F800090938203809381038091A7039091A8036B
:103F9000A091A903B091AA0374E0B695A79597954F
:103FA00087957A95D1F790938403809383038091CA
:103FB000AB039091AC03A091AD03B091AE0364E06C
:103FC000B695A795979587956A95D1F790938603AF
:103FD000809385038091B3039091B403A091B503BE
:103FE000B091B60354E0B695A795979587955A95E5
:103FF000D1F79C018091B7039091B803A091B903C8
:10400000B091BA0344E0B695A795979587954A95E0
:10401000D1F7BC018091BB039091BC03A091BD037B
:10402000B091BE03F4E0B695A79597958795FA955C
:10403000D1F7AC018091AF039091B003A091B1038F
:10404000B091B203E4E0B695A79597958795EA9568
:10405000D1F780509240909388038093870320503B
:10406000324030938A0320938903605072407093EA
:104070008C0360938B034050524050938E034093C7
:104080008D038091270590912805959587959595A5
:10409000879595958795959587959093220580931B
:1040A00021058091290590912A05959587959595EB
:1040B00087959595879595958795909324058093F9
:1040C000230580912B0590912C05959587959595C5
:1040D00087959595879595958795909326058093D7
:1040E000250510926E058FEF80930C0280930D02D0
:1040F00080930E020E94341C80910D020E94481C85
:1041000080910E020E945C1CDF91CF9108958091F6
:10411000C603882309F486C11092C6032115310510
:1041200009F486C180915F0390916003AA2797FDEF
:10413000A095BA2F40918F03509190036091910305
:1041400070919203840F951FA61FB71F80938F0352
:1041500090939003A0939103B09392038091610395
:1041600090916203AA2797FDA095BA2F40919303DF
:10417000509194036091950370919603840F951F5D
:10418000A61FB71F8093930390939403A093950366
:10419000B09396038091630390916403AA2797FDDF
:1041A000A095BA2F4091970350919803609199037D
:1041B00070919A03840F951FA61FB71F80939703D2
:1041C00090939803A0939903B0939A038091650309
:1041D00090916603AA2797FDA095BA2F40919B0363
:1041E00050919C0360919D0370919E03840F951FD5
:1041F000A61FB71F80939B0390939C03A0939D03DE
:10420000B0939E038091670390916803AA2797FD5E
:10421000A095BA2F40919F035091A0036091A103F4
:104220007091A203840F951FA61FB71F80939F0351
:104230009093A003A093A103B093A203809169037C
:1042400090916A03AA2797FDA095BA2F4091A303E6
:104250005091A4036091A5037091A603840F951F4C
:10426000A61FB71F8093A3039093A403A093A50355
:10427000B093A60380916B0390916C03AA2797FDDE
:10428000A095BA2F4091A7035091A8036091A9036C
:104290007091AA03840F951FA61FB71F8093A703D1
:1042A0009093A803A093A903B093AA0380916D03F0
:1042B00090916E03AA2797FDA095BA2F4091AB036A
:1042C0005091AC036091AD037091AE03840F951FC4
:1042D000A61FB71F8093AB039093AC03A093AD03CD
:1042E000B093AE0380916F0390917003AA2797FD5E
:1042F000A095BA2F4091AF035091B0036091B103E4
:104300007091B203840F951FA61FB71F8093AF0350
:104310009093B003A093B103B093B2038091710363
:1043200090917203AA2797FDA095BA2F4091B303ED
:104330005091B4036091B5037091B603840F951F3B
:10434000A61FB71F8093B3039093B403A093B50344
:10435000B093B6038091730390917403AA2797FDDD
:10436000A095BA2F4091B7035091B8036091B9035B
:104370007091BA03840F951FA61FB71F8093B703D0
:104380009093B803A093B903B093BA0380917503D7
:1043900090917603AA2797FDA095BA2F4091BB0371
:1043A0005091BC036091BD037091BE03840F951FB3
:1043B000A61FB71F8093BB039093BC03A093BD03BC
:1043C000B093BE03809127059091280540911B056D
:1043D00050911C05840F951F909328058093270505
:1043E0008091290590912A0540911D0550911E0547
:1043F000840F951F90932A058093290580912B05A2
:1044000090912C0540911F0550912005840F951F18
:1044100090932C0580932B052F5F3F4F30933C05E5
:1044200020933B0580916E05882309F031CD5BCE4A
:1044300010928F03109290031092910310929203A6
:1044400010927803109277031092930310929403C2
:10445000109295031092960310927A0310927903AA
:1044600010929703109298031092990310929A0356
:1044700010927C0310927B0310929B0310929C037A
:1044800010929D0310929E0310927E0310927D0362
:1044900010929F031092A0031092A1031092A20306
:1044A0001092800310927F031092A3031092A40332
:1044B0001092A5031092A60310928203109281031A
:1044C0001092A7031092A8031092A9031092AA03B6
:1044D00010928403109283031092AB031092AC03EA
:1044E0001092AD031092AE031092860310928503D2
:1044F0001092AF031092B0031092B1031092B20366
:1045000010928803109287031092B3031092B403A1
:104510001092B5031092B60310928A031092890389
:104520001092B7031092B8031092B9031092BA0315
:1045300010928C0310928B031092BB031092BC0359
:104540001092BD031092BE0310928E0310928D0341
:10455000109228051092270510922A05109229051D
:1045600010922C0510922B05D0933C05C0933B056F
:1045700080916E0559CF80911A05882379F081309A
:1045800011F110921C0510921B0510921E0510923D
:104590001D051092200510921F05089580911302A9
:1045A0000E940A1080E00E948510809113028F5FA4
:1045B0000E9457100E949710809330050E94971018
:1045C000809331050895809113020E940A1082E3BE
:1045D0000E948510809113028F5F0E9457100E94E5
:1045E0009710809330050E949710809331050E94A8
:1045F000971080933205089580911A05882309F059
:104600004EC00E949710809332050E9497108093AD
:1046100033050E949710809334050E94A110809367
:1046200035050E947D1080916E05882309F447C0EE
:1046300080913105992787FD9095982F88272091A3
:104640003005332727FD3095822B932B90931C0543
:1046500080931B0580913305992787FD9095982FAE
:10466000882720913205332727FD3095822B932B05
:1046700090931E0580931D0580913505992787FD30
:104680009095982F882720913405332727FD309562
:10469000822B932B9093200580931F0508958130E2
:1046A00009F4B3CF10921C0510921B0510921E0541
:1046B00010921D051092200510921F0508958091FB
:1046C0003105992787FD9095982F882720913005EF
:1046D000332727FD3095822B932B20912105309194
:1046E0002205821B930B90931C0580931B058091E0
:1046F0003305992787FD9095982F882720913205BB
:10470000332727FD3095822B932B20912305309161
:104710002405821B930B90931E0580931D058091A9
:104720003505992787FD9095982F88272091340586
:10473000332727FD3095822B932B2091250530912F
:104740002605821B930B9093200580931F050895E7
:10475000EF92FF920F931F9380911F059091200578
:1047600097FD5BC08031910508F042C081E08093E5
:10477000150290911402981709F442C010922F0567
:104780008093140260911B0570911C05882777FDAA
:104790008095982F0E9410257B018C0160911D054A
:1047A00070911E05882777FD8095982F0E9410250F
:1047B0009B01AC01C801B7010E94482821EE3EE2EE
:1047C00045E652E40E9411240E946E259B017093DD
:1047D0002E0560932D0577FF06C028593E4F309374
:1047E0002E0520932D051F910F91FF90EF900895B6
:1047F0001092150280E090911402981709F0BECF34
:1048000090912F059F5F90932F05953008F4B8CFB6
:1048100010922F0580931602B3CF909581959F4FEC
:10482000A1CFA0E2B0E0E7E1F4E20C94A62769830F
:104830007A838B839C832D833E834F83588799E0B3
:10484000E92EF12CEC0EFD1EB701CE0101960E945F
:10485000EE268E010F5E1F4FB801CE0105960E9415
:10486000EE269985923088F089898230C0F09430A4
:1048700019F4823029F009C0843029F4923079F497
:1048800067E172E0C6C0923041F420E09A858A89DF
:10489000981321E02A87B701BCC0823041F420E0A0
:1048A0009A858A89981321E02A8BB801B2C0CD84F9
:1048B000DE84EF84F8880D891E892F89388D88243D
:1048C0009924540140E050E060E070E04424552415
:1048D0003201E0E0F0E0C60181709070892BD9F0E0
:1048E000800E911EA21EB31EDB01CA01840D951D10
:1048F000A61DB71D40E050E060E070E08016910614
:10490000A206B30620F441E050E060E070E0480FFA
:10491000591F6A1F7B1F440C551C661C771C37FFF0
:1049200008C081E090E0A0E0B0E0482A592A6A2A55
:104930007B2A3196E032F10549F0000F111F221F4A
:10494000331FF694E794D794C794C5CF8B899C897D
:104950002B853C85820F931F02969C8F8B8F1A8E1E
:104960009A858A89981711F081E08A8F2B8D3C8D6A
:1049700017C0CA0181709070892B61F0B694A7941A
:104980009794879480E090E0A0E0B0E8882A992A84
:10499000AA2ABB2A76956795579547952F5F3F4F73
:1049A00077FDE7CFC9010BC0440F551F661F771F66
:1049B000B7FC4160880C991CAA1CBB1C01974030B5
:1049C000A0E05A07A0E06A07A0E47A0768F39C8F8A
:1049D0008B8FDB01CA018F779070A070B07080342C
:1049E0009105A105B10561F447FD0AC08114910448
:1049F000A104B10429F0405C5F4F6F4F7F4F4078B6
:104A00004D8F5E8F6F8F78A383E0898FBE01675EC5
:104A10007F4FCB010E940E26E0E1A0960C94C227A6
:104A2000A8E0B0E0E6E1F5E20C94AD279B01AC0113
:104A300083E08983DA01C9018827B7FD8395992727
:104A4000AA27BB27B82E211531054105510519F4B8
:104A500082E089833AC08823A9F0203080E03807BB
:104A600080E0480780E8580729F460E070E080E0C3
:104A70009FEC30C0EE24FF248701E21AF30A040BF6
:104A8000150B02C079018A018EE1C82ED12CDC827F
:104A9000CB82ED82FE820F831887C801B7010E9486
:104AA000C12501971816190684F4082E04C0EE0CCF
:104AB000FF1C001F111F0A94D2F7ED82FE820F83A4
:104AC0001887C81AD90ADC82CB82BA82CE01019635
:104AD0000E940E26E9E028960C94C927ACE0B0E0CD
:104AE000E4E7F5E20C94B42769837A838B839C8393
:104AF000BE016B5F7F4FCE0101960E94EE268D8135
:104B00008230A9F1823098F1843021F48E8188239B
:104B100059F40FC02F81388537FD29C06E812F31A0
:104B2000310564F0662329F020E030E040E050E8F1
:104B300022C02FEF3FEF4FEF5FE71DC08EE190E007
:104B4000821B930B29853A854B855C8504C056955D
:104B50004795379527958A95D2F7662361F050954A
:104B60004095309521953F4F4F4F5F4F04C020E057
:104B700030E040E050E0CA01B901E2E02C960C942C
:104B8000D027EF92FF920F931F939B01AC0120302F
:104B900080E0380781E0480780E0580780F42F3F25
:104BA00031054105510509F020F4EE24FF24870169
:104BB00019C068E0E62EF12C012D112D13C0203014
:104BC00080E0380780E0480781E0580730F490E142
:104BD000E92EF12C012D112D05C088E1E82EF12CD4
:104BE000012D112D80E290E0A0E0B0E08E199F0928
:104BF000A00BB10B04C05695479537952795EA94BD
:104C0000D2F7F901E15EFD4F2081821B9109A109D4
:104C1000B1091F910F91FF90EF9008959F92AF926D
:104C2000BF92CF92DF92EF92FF920F931F93EE24E9
:104C3000FF248701FC0124813581468157819180C1
:104C40008081823010F44061A2C0843009F49BC09E
:104C5000823029F420E030E040E050E005C021152A
:104C600031054105510519F4E0E0F0E092C0828180
:104C700093816FEF823896070CF05AC062E87FEF9D
:104C8000681B790B6A3171052CF020E030E040E0C0
:104C900050E02AC0AA24BB24650181E090E0A0E096
:104CA000B0E0062E04C0880F991FAA1FBB1F0A94EC
:104CB000D2F70197A109B10982239323A423B52335
:104CC0000097A105B10529F071E0A72EB12CC12CE8
:104CD000D12C04C056954795379527956A95D2F7FC
:104CE0002A293B294C295D29DA01C9018F77907067
:104CF000A070B07080349105A105B10539F427FF8B
:104D000009C0205C3F4F4F4F5F4F04C0215C3F4FB5
:104D10004F4F5F4F80E090E0203060E0360760E06A
:104D2000460760E4560710F081E090E0FC0123C0E4
:104D30008038910544F5FC01E158FF4FDA01C901C3
:104D40008F779070A070B07080349105A105B10587
:104D500039F427FF09C0205C3F4F4F4F5F4F04C01D
:104D6000215C3F4F4F4F5F4F57FF05C0569547950A
:104D700037952795319687E056954795379527952E
:104D80008A95D1F706C020E030E040E050E0EFEF38
:104D9000F0E0E22EF32E942F9F77802F8078892BDE
:104DA0009E2F9795992797958F77082F092B9E2FE0
:104DB0009695812F8078892B9794992497948F7753
:104DC000182F1929C801B7011F910F91FF90EF907B
:104DD000DF90CF90BF90AF909F900895CF93DF93D7
:104DE000FC01DB01208131819281492F4F7750E016
:104DF000991F9927991F8381E82FEE0FE92B6E2FBA
:104E000070E0881F8827881FED018983EE2371F5E4
:104E1000211531054105510511F482E02FC06E576F
:104E20007040FD017383628367E0220F331F441FCC
:104E3000551F6A95D1F783E08C930AC0220F331F68
:104E4000441F551FED018A819B8101979B838A83B3
:104E50002030E0E03E07E0E04E07E0E45E0770F35C
:104E6000ED012C833D834E835F8325C0EF3F79F4B2
:104E7000211531054105510519F484E08C931BC0BF
:104E800044FF03C081E08C9311C01C920FC06F5788
:104E90007040ED017B836A8383E08C9387E0220F6F
:104EA000331F441F551F8A95D1F75064FD01248399
:104EB000358346835783DF91CF910895629FD00158
:104EC000739FF001829FE00DF11D649FE00DF11DC5
:104ED000929FF00D839FF00D749FF00D659FF00D74
:104EE0009927729FB00DE11DF91F639FB00DE11D61
:104EF000F91FBD01CF0111240895AA1BBB1B51E16D
:104F000007C0AA1FBB1FA617B70710F0A61BB70B39
:104F1000881F991F5A95A9F780959095BC01CD01DE
:104F2000089597FB092E07260AD077FD04D0E5DF08
:104F300006D000201AF4709561957F4F0895F6F71A
:104F4000909581959F4F08952F923F924F925F9237
:104F50006F927F928F929F92AF92BF92CF92DF9289
:104F6000EF92FF920F931F93CF93DF93CDB7DEB7EE
:104F7000CA1BDB0B0FB6F894DEBF0FBECDBF199472
:104F80002A88398848885F846E847D848C849B84D9
:104F9000AA84B984C884DF80EE80FD800C811B81E7
:104FA000AA81B981CE0FD11D0FB6F894DEBF0FBE16
:104FB000CDBFED010895AF92BF92CF92DF92EF92F5
:104FC000FF920F931F93CF93DF93EC016881798158
:104FD0008A819B81611571058105910521F464E247
:104FE00079ED8BE597E02DE133EF41E050E00E9451
:104FF000752A79018A0127EA31E440E050E00E94F5
:105000005E275B016C01C801B7012CEE34EF4FEF56
:105010005FEF0E945E276A0D7B1D8C1D9D1D97FF13
:1050200004C06150704080409048688379838A83CF
:105030009B837F77CB01DF91CF911F910F91FF90E1
:10504000EF90DF90CF90BF90AF9008950E94DB2744
:1050500008958FE193E00E94DB270895A0E0B0E07F
:1050600080931F0390932003A0932103B093220306
:105070000895F5D058F080E891E009F49EEFF6D05D
:1050800028F040E851E059F45EEF09C0C0C028C1E3
:10509000E92FE07803D168F3092E052AC1F326171A
:1050A00037074807590738F00E2E07F8E02569F052
:1050B000E025E0640AC0EF6307F8009407FADB011B
:1050C000B9019D01DC01CA01AD01EF9341D0D5D0FA
:1050D0000AD05F91552331F02BED3FE049E450FDBC
:1050E00049EC8DC10895DF93DD27B92FBF7740E8E4
:1050F0005FE31616170648075B0710F4D92FF7D0A1
:105100009F938F937F936F935AD1EEE4F1E082D017
:10511000B4D02F913F914F915F91FAD0DD2349F0A8
:105120009058A2EA2AED3FE049EC5FE3D0785D2792
:1051300077D1DF91A2C09AD040F091D030F021F425
:105140005F3F19F05EC05111CCC061C0A7D098F389
:105150009923C9F35523B1F3951B550BBB27AA27F8
:1051600062177307840738F09F5F5F4F220F331F6A
:10517000441FAA1FA9F333D00E2E3AF0E0E830D036
:1051800091505040E695001CCAF729D0FE2F27D039
:10519000660F771F881FBB1F261737074807AB0707
:1051A000B0E809F0BB0B802DBF01FF2793585F4F7C
:1051B0002AF09E3F510568F024C093C05F3FECF396
:1051C000983EDCF3869577956795B795F7959F5F41
:1051D000C9F7880F911D9695879597F90895E1E095
:1051E000660F771F881FBB1F621773078407BA07F4
:1051F00020F0621B730B840BBA0BEE1F88F7E0954F
:10520000089597F99F6780E870E060E008959FEF48
:1052100080EC0895DF93CF931F930F93FF92EF924B
:10522000DF927B018C01689405C0DA2EEF0170D00B
:10523000FE01E894A5912591359145915591AEF3E4
:10524000EF01EED0FE019701A801DA9479F7DF9023
:10525000EF90FF900F911F91CF91DF91089500245F
:105260000A941616170618060906089500240A94CB
:1052700012161306140605060895092E0394000C51
:1052800011F4882352F0BB0F40F4BF2B11F460FFE0
:1052900004C06F5F7F4F8F4F9F4F089557FD905809
:1052A000440F551F59F05F3F71F04795880F97FBEA
:1052B000991F61F09F3F79F08795089512161306A4
:1052C0001406551FF2CF4695F1DF08C016161706D3
:1052D0001806991FF1CF8695710561050894089508
:1052E000E894BB2766277727CB0197F908959B01A0
:1052F000AC0160E070E080E89FE3E5C0B0DF28F03B
:10530000B5DF18F0952309F07CCF81CF1124E9CFC8
:10531000C5DFA0F3959FD1F3950F50E0551F629F15
:10532000F001729FBB27F00DB11D639FAA27F00DFE
:10533000B11DAA1F649F6627B00DA11D661F829F25
:105340002227B00DA11D621F739FB00DA11D621F0A
:10535000839FA00D611D221F749F3327A00D611D27
:10536000231F849F600D211D822F762F6A2F112409
:105370009F5750408AF0E1F088234AF0EE0FFF1F5C
:10538000BB1F661F771F881F91505040A9F79E3F93
:10539000510570F036CFA5CF5F3FECF3983EDCF3BC
:1053A000869577956795B795F795E7959F5FC1F7D0
:1053B000FE2B880F911D9695879597F908959B016F
:1053C000AC012FCAF999FECF92BD81BDF89A9927F9
:1053D00080B50895A8E1B0E042E050E00C94672A5F
:1053E000262FF999FECF1FBA92BD81BD20BD0FB601
:1053F000F894FA9AF99A0FBE019608955058BB276F
:10540000AA270ED03ACF2BDF30F030DF20F031F476
:105410009F3F11F41EF4FBCE0EF4E095E7FBF1CEB6
:10542000E92F3CDF80F3BA176207730784079507FB
:1054300018F071F49EF554CF0EF4E0950B2EBA2FB0
:10544000A02D0B01B90190010C01CA01A00111248A
:10545000FF27591B99F0593F50F4503E68F11A1636
:10546000F040A22F232F342F4427585FF3CF4695C7
:1054700037952795A795F0405395C9F77EF41F16E9
:10548000BA0B620B730B840BBAF09150A1F0FF0FB3
:10549000BB1F661F771F881FC2F70EC0BA0F621F9F
:1054A000731F841F48F4879577956795B795F7958F
:1054B0009E3F08F0B3CF9395880F08F09927EE0F21
:1054C00097958795089542DED8CEDC01CB01FC018B
:1054D000F999FECF06C0F2BDE1BDF89A319600B44D
:1054E0000D9241505040B8F7089597FB092E0526BC
:1054F0000ED057FD04D014D00AD0001C38F45095BB
:105500004095309521953F4F4F4F5F4F0895F6F7E7
:1055100090958095709561957F4F8F4F9F4F08951F
:10552000A1E21A2EAA1BBB1BFD010DC0AA1FBB1FA7
:10553000EE1FFF1FA217B307E407F50720F0A21B19
:10554000B30BE40BF50B661F771F881F991F1A9486
:1055500069F760957095809590959B01AC01BD01B0
:06556000CF010895FFCF0A
:1055660002FFFF190019000101010103FFFFFF05FA
:105576000101013A010101000000000000000000E5
:1055860001020203030303040404040404040405DF
:1055960005050505050505050505050505050506B4
:1055A6000606060606060606060606060606060695
:1055B6000606060606060606060606060606060784
:1055C6000707070707070707070707070707070765
:1055D6000707070707070707070707070707070755
:1055E6000707070707070707070707070707070745
:1055F6000707070707070707070707070707070834
:105606000808080808080808080808080808080814
:105616000808080808080808080808080808080804
:1056260008080808080808080808080808080808F4
:1056360008080808080808080808080808080808E4
:1056460008080808080808080808080808080808D4
:1056560008080808080808080808080808080808C4
:1056660008080808080808080808080808080808B4
:1056760008080808080808080808080808080801AB
:045686000000000020
:00000001FF
