:100000000C94BE000C94DD000C94DD000C94DD001B
:100010000C94DD000C94DD000C94DD000C94DD00EC
:100020000C94DD000C94DD000C94120F0C94DD0098
:100030000C94DD000C94460F0C94DD000C94C21758
:100040000C94DD000C94DD000C94DD000C94DD00BC
:100050000C94DD000C94DD000C94DD000C94DD00AC
:100060000C94DD000C94C1150C94DD000C94DD00A3
:100070000C94DD000C94BC1A0C94DD000C94DD0093
:100080000C94EA1D0C94001E0C94DD000C946D1D64
:100090000C94DD000C94DD000C94DD000C94DD006C
:1000A0000C94DD000C94DD000C94411D0C94571D44
:1000B0000C94DD000C94BA1C0C94DD000C94DD0053
:1000C0000C94DD000C94DD000C94DD000C94DD003C
:1000D0000C94DD000C94DD000C94DD000C94DD002C
:1000E0000C94DD00830B670B330B110BE40A260B1A
:1000F000BB0A9F0A720A580AC506C506C506C50688
:10010000C506C5064D0A420AC506C506C506C5068A
:10011000C506C506C506C506C506C506C506C50687
:10012000720A330B320A2D0AC506C506C506C50676
:10013000C506C506C506C506C506C506C506C50667
:10014000E40ABB0AC506C506830B260BAD0B084A9D
:10015000D73B3BCE016E84BCBFFDC12F3D6C7431DB
:100160009ABD56833DDA3D00C77F11BED9E4BB4C32
:100170003E916BAAAABE000000803F0011241FBE62
:10018000CFEFD1E2DEBFCDBF00E00CBF13E0A0E0B7
:10019000B2E0EEE9FBE402C005900D92AA32B1078D
:1001A000D9F714E0AAE2B3E001C01D92AE35B10761
:1001B000E1F70E94DF000C94CE250C9400002F92F2
:1001C0003F924F925F926F927F928F929F92AF92E7
:1001D000BF92CF92DF92EF92FF920F931F93DF9324
:1001E000CF93CDB7DEB7A4970FB6F894DEBF0FBE9E
:1001F000CDBF11E0109318020E94AD1710932D048B
:1002000010922F0410922E0405E00E94881780930C
:100210002C040E9477190E94371A80919E0388232C
:1002200009F083C240912D0420912A0430912B04BF
:100230005EE42032350710F010939B03442309F449
:10024000DCC160912E0470912F04603171050CF0B7
:10025000D8C18091CF038823C1F21092CF036115DA
:10026000710511F40C94DD0980912204909123040E
:100270009CA38BA32090240430902504A0912604F5
:10028000B0912704BA83A98320919F033091A003E2
:100290004091A1035091A203C090A303D090A40366
:1002A000E090A503F090A6038090A7039090A80388
:1002B000A090A903B090AA034090AB035090AC0368
:1002C0006090AD037090AE038091AF039091B00346
:1002D000A091B103B091B2038B839C83AD83BE83A5
:1002E0008091B3039091B403A091B503B091B6038C
:1002F0008F839887A987BA878091B7039091B803B5
:10030000A091B903B091BA038B879C87AD87BE8754
:100310008091BB039091BC03A091BD03B091BE033B
:100320008F87988BA98BBA8B8091BF039091C00364
:10033000A091C103B091C2038B8B9C8BAD8BBE8B04
:100340008091C3039091C403A091C503B091C603EB
:100350008F8B988FA98FBA8F8091C7039091C80314
:10036000A091C903B091CA038B8F9C8FAD8FBE8FB4
:100370008091CB039091CC03A091CD03B091CE039B
:100380008F8F98A3A9A3BAA3809165039091660368
:10039000AA2797FDA095BA2F820F931FA41FB51F00
:1003A00080939F039093A003A093A103B093A20313
:1003B0008091670390916803AA2797FDA095BA2FB3
:1003C0008C0D9D1DAE1DBF1D8093A3039093A403B0
:1003D000A093A503B093A6038091690390916A034B
:1003E000AA2797FDA095BA2F880D991DAA1DBB1DA0
:1003F0008093A7039093A803A093A903B093AA03A3
:1004000080916B0390916C03AA2797FDA095BA2F5A
:10041000840D951DA61DB71D8093AB039093AC036F
:10042000A093AD03B093AE0380916D0390916E03E2
:10043000AA2797FDA095BA2F2B813C814D815E8123
:10044000820F931FA41FB51F8093AF039093B00337
:10045000A093B103B093B20380916F0390917003A6
:10046000AA2797FDA095BA2F2F81388549855A85EF
:10047000820F931FA41FB51F8093B3039093B403FF
:10048000A093B503B093B60380917103909172036A
:10049000AA2797FDA095BA2F2B853C854D855E85B3
:1004A000820F931FA41FB51F8093B7039093B803C7
:1004B000A093B903B093BA0380917303909174032E
:1004C000AA2797FDA095BA2F2F85388949895A897F
:1004D000820F931FA41FB51F8093BB039093BC038F
:1004E000A093BD03B093BE038091750390917603F2
:1004F000AA2797FDA095BA2F2B893C894D895E8943
:10050000820F931FA41FB51F8093BF039093C00356
:10051000A093C103B093C2038091770390917803B5
:10052000AA2797FDA095BA2F2F89388D498D5A8D0E
:10053000820F931FA41FB51F8093C3039093C4031E
:10054000A093C503B093C6038091790390917A0379
:10055000AA2797FDA095BA2F2B8D3C8D4D8D5E8DD2
:10056000820F931FA41FB51F8093C7039093C803E6
:10057000A093C903B093CA0380917B0390917C033D
:10058000AA2797FDA095BA2F2F8D38A149A15AA16E
:10059000820F931FA41FB51F8093CB039093CC03AE
:1005A000A093CD03B093CE0380910E0490910F04DD
:1005B0004BA15CA1840F951F909323048093220488
:1005C0008091100490911104820D931D9093250445
:1005D000809324048091120490911304A981BA811C
:1005E0008A0F9B1F90932704809326046F5F7F4F91
:1005F00070932F0460932E0408CE60912E047091A6
:100600002F046031710509F4E1C380911902882338
:1006100009F0AAC39EE42032390720F010922B047F
:1006200010922A040E94170E882309F061C22091BB
:100630002C04222309F043C180910F028823A1F0EA
:100640008091DC039091DD0396958795969587952B
:100650009093E1038093E0031093FC0310920F0248
:100660001092DD031092DC03809110028823A1F028
:100670008091DE039091DF039695879596958795F7
:100680009093E3038093E2031093FD031092100212
:100690001092DF031092DE038091EC039091ED0342
:1006A0009093FF038093FE032091EE033091EF03BC
:1006B00030930104209300043093DB032093DA038A
:1006C0009093D9038093D80380913004882309F054
:1006D000D1C480913504882309F0C9C41092020462
:1006E00080910004909101049093E7038093E603C6
:1006F0008091FE039091FF039093E5038093E403C0
:10070000181619060CF004C5909399008093980070
:100710008091E6039091E703181619060CF0ECC4DB
:100720009093A9008093A80070CD10929E034091F1
:100730002D04442309F4CFC08091350390913603F2
:100740002091370330913803821B930B90936603FB
:100750008093650397FDFFC58091390390913A031B
:1007600020913B0330913C03821B930B90936803D1
:100770008093670397FDB8C580913D0390913E0338
:1007800020913F0330914003821B930B90936A03A7
:100790008093690397FDA3C5809141039091420323
:1007A0002091430330914403821B930B90936C037D
:1007B00080936B0397FDE8C58091450390914603B4
:1007C0002091470330914803821B930B90936E0353
:1007D00080936D0397FDD3C58091490390914A039F
:1007E00020914B0330914C03821B930B9093700329
:1007F00080936F0397FDBEC580914D0390914E038A
:1008000020914F0330915003821B930B90937203FE
:100810008093710397FDA9C5809151039091520374
:100820002091530330915403821B930B90937403D4
:100830008093730397FDBCC5809155039091560337
:100840002091570330915803821B930B90937603AA
:100850008093750397FDA7C58091590390915A0322
:1008600020915B0330915C03821B930B9093780380
:100870008093770397FD92C580915D0390915E030D
:1008800020915F0330916003821B930B90937A0356
:100890008093790397FD7DC58091610390916203F8
:1008A0002091630330916403821B930B90937C032C
:1008B00080937B0397FD17C11093CF03B5CC2130F4
:1008C00009F4DBC3223009F487C480910204882331
:1008D00009F49BCC03CF809135039091360320918E
:1008E000370330913803821B930B20917D033091A5
:1008F0007E03821B930B909366038093650397FDA1
:1009000025C58091390390913A0320913B033091A2
:100910003C03821B930B20917F0330918003821B49
:10092000930B909368038093670397FD0AC58091AA
:100930003D0390913E0320913F0330914003821B81
:10094000930B2091810330918203821B930B909330
:100950006A038093690397FDEFC4809141039091EE
:1009600042032091430330914403821B930B209157
:10097000830330918403821B930B90936C038093C9
:100980006B0397FDD4C48091450390914603209159
:10099000470330914803821B930B209185033091CC
:1009A0008603821B930B90936E0380936D0397FDD8
:1009B000B9C48091490390914A0320914B0330912F
:1009C0004C03821B930B2091870330918803821B79
:1009D000930B9093700380936F0397FD9EC4809157
:1009E0004D0390914E0320914F0330915003821B91
:1009F000930B2091890330918A03821B930B909370
:100A000072038093710397FD83C480915103909189
:100A100052032091530330915403821B930B209176
:100A20008B0330918C03821B930B90937403809300
:100A3000730397FD68C480915503909156032091EC
:100A4000570330915803821B930B20918D033091F3
:100A50008E03821B930B909376038093750397FD0F
:100A60004DC48091590390915A0320915B033091BA
:100A70005C03821B930B20918F0330919003821BA8
:100A8000930B909378038093770397FD32C4809102
:100A90005D0390915E0320915F0330916003821BA0
:100AA000930B2091910330919203821B930B9093AF
:100AB0007A038093790397FD53C4809161039091E9
:100AC00062032091630330916403821B930B209196
:100AD000930330919403821B930B90937C03809338
:100AE0007B0397FFE9CE10927C0310927B03E4CE48
:100AF00087E060E70E945A0E86E594E00E94420E6D
:100B00000E943C0E40915604442369F4809157049E
:100B1000882349F480915804882329F4809159044A
:100B2000883009F440C760915A0450915B04262F25
:100B300030E02F7730703093060420930504852F22
:100B400090E08F779070909304048093030467FD86
:100B500071C4220F331F220F331F309521953F4F51
:100B60003093ED032093EC0357FD5BC4880F991F6E
:100B7000880F991F909581959F4F9093EF038093D5
:100B8000EE03A2E021303A0744F0E0E0F2E0F09317
:100B9000ED03E093EC0320E032E0F2E081309F07C8
:100BA00034F080E092E09093EF038093EE03AEEF99
:100BB00020303A0734F4E0E0FEEFF093ED03E093E9
:100BC000EC03FEEF80309F0734F420E03EEF3093DB
:100BD000EF032093EE0350E050934F0440934E04F4
:100BE0002091570430E03093510420935004E09159
:100BF0005804F0E0F0935304E0935204942F8827B4
:100C0000841B950B64E670E00E946023C62EC0949E
:100C1000C0921402522F4427421B530BCA0164E6B0
:100C200070E00E9460236095609316023E2F222799
:100C30002E1B3F0BC90164E670E00E9460236095A3
:100C4000609315028C2D0E94D71F809115020E947F
:100C5000EB1F809116020E94FF1F8091590480FFB4
:100C600004C2449881FFFFC14598982F82FFDCC1E0
:100C70001093190294FDDCC196FFD3C11093300488
:100C8000880F880B81238093350480911302809311
:100C90003E04843009F4D3C5853008F045C2833062
:100CA00009F05CC0909165038091660390933F04C6
:100CB000809340049091670380916803909341046E
:100CC000809342049091690380916A039093430456
:100CD0008093440490916B0380916C03909345043E
:100CE0008093460490916F03809170039093470422
:100CF000809348049091710380917203909349040A
:100D000080934A04909173038091740390934B04F1
:100D100080934C04209103018091030190E0807244
:100D200090709595879595958795959587959595C7
:100D3000879595958795880F991F30E020713070C1
:100D4000359527953595279535952795359527958B
:100D5000822B80934D0434E0309313028EE394E0B1
:100D600060E10E94CF0E63CC0E947310809309044F
:100D700090910A04992309F44FC110920A04E82FB4
:100D8000F0E0E533F10508F45EC32091EC03309107
:100D9000ED038091EE039091EF0337FD6FC335951E
:100DA000279535952795309306042093050497FDE4
:100DB00028C1959587959595879590930404809380
:100DC000030420912A0430912B0424CC80919F03AA
:100DD0009091A003A091A103B091A20364E0B69505
:100DE000A795979587956A95D1F790937E03809301
:100DF0007D038091A3039091A403A091A503B091DA
:100E0000A60354E0B695A795979587955A95D1F77F
:100E10009093800380937F038091A7039091A80310
:100E2000A091A903B091AA0344E0B695A795979520
:100E300087954A95D1F7909382038093810380919F
:100E4000AB039091AC03A091AD03B091AE03F4E07D
:100E5000B695A79597958795FA95D1F790938403C2
:100E6000809383038091AF039091B003A091B1036D
:100E7000B091B203E4E0B695A79597958795EA956A
:100E8000D1F790938603809385038091B30390916B
:100E9000B403A091B503B091B60374E0B695A795DD
:100EA000979587957A95D1F79093880380938703D8
:100EB0008091B7039091B803A091B903B091BA03A0
:100EC00064E0B695A795979587956A95D1F7909325
:100ED0008A03809389038091BB039091BC03A09106
:100EE000BD03B091BE0354E0B695A795979587953D
:100EF0005A95D1F790938C0380938B038091BF0315
:100F00009091C003A091C103B091C20344E0B69593
:100F1000A795979587954A95D1F790938E038093DF
:100F20008D038091C3039091C403A091C503B09138
:100F3000C603F4E0B695A79597958795FA95D1F7EE
:100F40009093900380938F038091C7039091C8037F
:100F5000A091C903B091CA03E4E0B695A79597950F
:100F60008795EA95D1F790939203809391038091AE
:100F7000CB039091CC03A091CD03B091CE0374E04C
:100F8000B695A795979587957A95D1F79093940301
:100F900080939303809122049091230495958795E3
:100FA00095958795959587959595879590931B042D
:100FB00080931A0480912404909125049595879537
:100FC00095958795959587959595879590931D040B
:100FD00080931C0480912604909127049595879511
:100FE00095958795959587959595879590931F04E9
:100FF00080931E0410922D0410922F0410922E0440
:1010000004CB909581959F4F95958795959587955C
:10101000909304048093030420912A0430912B04BC
:10102000F9CA109230042CCE1092190294FF24CEEB
:1010300010932D0410922F0410922E04109214027B
:10104000109215021092160280E00E94D71F809124
:1010500015020E94EB1F809116020E94FF1F8091D3
:101060005904982F09CE459A00CE449AFBCD0E9490
:10107000221F34CB0E94161E2CCB80910F02882396
:1010800009F01CC480911002882309F41ECC8091C1
:10109000DE039091DF0396958795969587959093BB
:1010A000E3038093E2031093FD0310921002109269
:1010B000DF031092DE038091EC039091ED03909397
:1010C000FF038093FE039093D9038093D8038EEFA0
:1010D00093E00E9401138091FE039091FF0390938F
:1010E000E5038093E403181619060CF0ECC0909306
:1010F000990080939800E9CB009709F013C41092EF
:10110000A9001092A8001092AB001092AA007DC80E
:10111000009709F010C41092990010929800109254
:101120009B0010929A00F4CA853009F42CC38630D3
:1011300009F014CE809145039091460380933F04BB
:10114000809145039091460390934004809155030C
:1011500090915603809341048091550390915603DA
:10116000909342048091590390915A0380934304D1
:101170008091590390915A039093440480915D03A8
:1011800090915E038093450480915D0390915E038E
:101190009093460480916103909162038093470489
:1011A000809161039091620390934804909112049E
:1011B000809113049093490480934A049091990379
:1011C00080919A0390934B0480934C0410924D04A9
:1011D00053E050931302C2CD80910F028823C9F1CE
:1011E0008091DC039091DD03969587959695879580
:1011F0009093E1038093E0031093FC0310920F029D
:101200001092DD031092DC038091EE039091EF03C6
:1012100090930104809300049093DB038093DA039E
:1012200080911E02813009F494C380E094E00E9412
:10123000771080910004909101049093E7038093CC
:10124000E603181619060CF089C39093A900809341
:10125000A80080911002882309F437CB8091DE0327
:101260009091DF0396958795969587959093E303E4
:101270008093E2031093FD03109210021092DF039B
:101280001092DE038091EC039091ED039093FF03A5
:101290008093FE039093D9038093D80380911E021C
:1012A000813009F451C38EEF93E00E94BC1180910C
:1012B000FE039091FF039093E5038093E4031816D7
:1012C00019060CF414CF009709F074C3109299001A
:1012D0001092980010929B0010929A00F6CA1092F9
:1012E0006A031092690358CA109268031092670348
:1012F00043CA1092780310927703C9CB10927603F9
:1013000010927503AECB109274031092730393CBBB
:10131000109272031092710378CB109270031092A6
:101320006F035DCB10926E0310926D0342CB10924F
:101330006C0310926B0327CB10926A03109269031F
:101340000CCB1092680310926703F1CA10926603E7
:1013500010926503D6CA1092660310926503FCC909
:1013600010927A0310927903A8CB10927203109214
:10137000710352CA1092700310926F033DCA10920B
:101380006E0310926D0328CA10926C0310926B03C7
:1013900013CA10927A03109279037ECA10927803CE
:1013A0001092770369CA109276031092750354CA9B
:1013B00010927403109273033FCA1F8E18A219A2D1
:1013C0001AA21B8E1C8E1D8E1E8E1F8A188E198EC1
:1013D0001A8E1B8A1C8A1D8A1E8A1F86188A198AE1
:1013E0001A8A1B861C861D861E861F8218861986F1
:1013F0001A861B821C821D821E82442455243201BF
:10140000882499245401CC24DD24760120E030E0A6
:10141000A9011A821982222433241CA21BA20C9433
:10142000C401880F991F880F991F9093EF03809331
:10143000EE03A7CB220F331F220F331F3093ED0390
:101440002093EC0391CBEE58FF4FEE0FFF1F05905A
:10145000F491E02D1994809330041092350495CCCA
:1014600010923004109335042091EC033091ED0379
:101470008091EE039091EF0337FF91CC3095219549
:101480003F4F8DCC109230042091EC033091ED034E
:101490008091EE039091EF0380CC10933004209163
:1014A000EC033091ED038091EE039091EF0375CC46
:1014B0008091EE039091EF034E979093EF0380930A
:1014C000EE03BCEF80309B07ACF5E0E0FCEFF0935F
:1014D000EF03E093EE032091EC033091ED0380E005
:1014E0009CEF5BCC2091EC033091ED038091E603FF
:1014F0009091E7032817390724F02091EE033091EB
:10150000EF032E5130403093ED032093EC03C901DB
:101510003093EF032093EE034CEF2030340734F484
:10152000A0E0BCEFB093ED03A093EC03BCEF203040
:101530003B075CF22091EC033091ED032ECC20911F
:10154000EC033091ED032E5130403093ED032093A6
:10155000EC03FCEF20303F070CF014C220E03CEF1E
:101560003093ED032093EC038091EE039091EF0311
:1015700020E031E018CC2091EC033091ED032E51A6
:1015800030403093ED032093EC038091EE03909173
:10159000EF034E969093EF038093EE03FCEF203021
:1015A0003F0734F420E03CEF3093ED032093EC034D
:1015B00044E0813094070CF4F0CB80E094E0909309
:1015C000EF038093EE03E9CB2091EC033091ED0320
:1015D000225E3F4F3093ED032093EC038091EE03A6
:1015E0009091EF034E979093EF038093EE03A4E066
:1015F00021303A0744F0E0E0F4E0F093ED03E093AB
:10160000EC0320E034E0FCEF80309F070CF0C5CB0A
:1016100040E05CEF5093EF034093EE0380E09CEFDB
:10162000BCCB8091EE039091EF034E969093EF0325
:101630008093EE0354E0813095070CF47BCF80E07B
:1016400094E09093EF038093EE0374CF1092ED0338
:101650001092EC031092EF031092EE0380E090E002
:1016600020E030E09CCB2091EC033091ED038091A1
:10167000EE039091EF03821793070CF4B7C19C011E
:10168000225E3F4F3093ED032093EC034E969093F0
:10169000EF038093EE03B4E021303B0734F0E0E049
:1016A000F4E0F093ED03E093EC03F4E081309F0766
:1016B0000CF440CF20E034E03093EF032093EE03AE
:1016C0002091EC033091ED0380E094E066CB209113
:1016D000EC033091ED03225E3F4F3093ED032093F6
:1016E000EC0394E0213039070CF44CC1A0E0B4E0E5
:1016F000B093ED03A093EC038091EE039091EF0380
:1017000020E031E050CB80910B0490E0019665E041
:1017100070E00E94742380930B04882309F068C151
:10172000449A459A109216023FEF30931502309377
:1017300014028FEF0E94D71F809115020E94EB1FA9
:10174000809116020E94FF1F2091EC033091ED035F
:101750008091EE039091EF0320CB80910C0490E0F8
:1017600001968370907080930C04823009F478CED7
:10177000833009F4FFC0813009F46DCE109230043B
:101780001092350402CB80913503909136038093FB
:101790003F048091350390913603909340048091EB
:1017A000390390913A0380934104809139039091D9
:1017B0003A039093420480913D0390913E038093BD
:1017C000430480913D0390913E03909344048091A3
:1017D000410390914203809345048091410390918D
:1017E0004203909346048091490390914A03809369
:1017F00047048091490390914A0390934804809153
:101800004D0390914E038093490480914D03909134
:101810004E0390934A048091510390915203809318
:101820004B04809151039091520390934C0480910A
:101830002C0480934D0446E0409313028FCA90918C
:101840006D0380916E0390933F04809340049091C8
:1018500075038091760390934104809342049091A4
:10186000770380917803909343048093440490918C
:10187000790380917A039093450480934604909174
:101880007B0380917C03909347048093480490915C
:101890000E0480910F049093490480934A04909120
:1018A00010048091110490934B0480934C04809118
:1018B000090480934D040093130250CA8091DC0305
:1018C0009091DD0396958795969587959093E10382
:1018D0008093E0032093FC0310920F021092DD032B
:1018E0001092DC038091EE039091EF03909301043A
:1018F000809300049093DB038093DA0380E094E00C
:101900000E94E61380910004909101049093E703F4
:101910008093E60318161906D4F59093A9008093D6
:10192000A800B0CB909581959F4F9093AB0080938A
:10193000AA000C940501909581959F4F90939B0070
:1019400080939A000C9488038EEF93E00E94011319
:10195000AECC80E094E00E94E6136BCC009709F0D7
:1019600055C01092A9001092A8001092AB001092DE
:10197000AA006FCC10933004109335042091EC032F
:101980003091ED038091EE039091EF0306CA00972A
:1019900009F044C01092A9001092A8001092AB0068
:1019A0001092AA006FCB60915A04662361F05091A7
:1019B0005B04BDC8909581959F4F90939B00809349
:1019C0009A000C94650450915B04552379F11092B0
:1019D000060410920504852F90E08F779070909305
:1019E00004048093030420E030E0B3C8C90148CE6A
:1019F000813089F1823021F18330B1F18FEF809312
:101A00001602809315028093140294CE90958195CE
:101A10009F4F9093AB008093AA001BCC909581952B
:101A20009F4F9093AB008093AA002CCB8CE30E9435
:101A3000CC1760915A0450915B044091560477C8CA
:101A4000449845985FEF50931602509315021092F8
:101A5000140280E06FCE4FEF4093160210921502F1
:101A6000409314028FEF66CE109216021092150268
:101A70001092140280E05ECE84B1807F84B984B17C
:101A8000876084B980E58CBD8DB581608DBD08957A
:101A90001CBC1DBC0895442379F0A82FB92FE62F54
:101AA000F72F80E09D919EBD0DB407FEFDCF9EB542
:101AB00091938F5F8417B0F30895662359F0E82F50
:101AC000F92F80E091919EBD0DB407FEFDCF8F5F91
:101AD0008617C0F308958EBD0DB407FEFDCF8EB5F9
:101AE00008950F931F93DF93CF9300D0CDB7DEB748
:101AF000289880E20E946B0D8DE00E946B0D289A61
:101B0000289883E20E946B0D81E00E946B0D289A59
:101B10008CE0898384E88A831B82289880E30E9472
:101B20006B0D8E010F5F1F4FC80163E00E945D0DBA
:101B3000289A28988AE20E946B0DC80163E00E94EF
:101B40005D0D289A289881E20E946B0D81E00E9429
:101B50006B0D289A289882E20E946B0D81E00E940A
:101B60006B0D289A289884E20E946B0D82E10E94F6
:101B70006B0D289A289885E20E946B0D88E20E94DE
:101B80006B0D289A289881E30E946B0D86E00E94D5
:101B90006B0D289A289880E50E946B0D83E70E94C0
:101BA0006B0D289A28988CE30E946B0D81E00E94AF
:101BB0006B0D289A28988DE30E946B0D86E00E9499
:101BC0006B0D289A289880E20E946B0D8FE00E948E
:101BD0006B0D289A0F900F900F90CF91DF911F916E
:101BE0000F9108952C9A289A0E94710D0895CF9311
:101BF000DF93EC012C9828988AE20E946B0DCE01AD
:101C000065E00E945D0D289A2C9ADF91CF9108958E
:101C1000CF93DF93EC01289880E30E946B0DCE01F7
:101C200065E00E945D0D289ADF91CF910895809123
:101C30003904882311F080E0089528988FEF0E94DE
:101C40006B0D289A80740895DF93CF930F92CDB7D0
:101C5000DEB71982289887E10E946B0DBE016F5F85
:101C60007F4FCB0141E00E944B0D289A8981817002
:101C70000F90CF91DF910895289882EE0E946B0D0E
:101C8000289A0895CF93DF93EC01289881E60E946B
:101C90006B0DCE01BE0146E00E944B0D289A28989C
:101CA00087E20E946B0D80E40E946B0D289ADF9101
:101CB000CF910895DF93CF930F92CDB7DEB72898D9
:101CC0008F71806269830E946B0D6981862F0E94EB
:101CD0006B0D289A0F90CF91DF9108950F931F936A
:101CE000DF93CF930F92CDB7DEB78B0128988F711A
:101CF00049830E946B0DC801B80149810E944B0DB8
:101D0000289A0F90CF91DF911F910F9108950F9313
:101D10001F93DF93CF930F92CDB7DEB78B01289837
:101D20008F71806249830E946B0DC8014981642FC5
:101D30000E945D0D289A0F90CF91DF911F910F9116
:101D400008950F931F93DF93CF930F92CDB7DEB714
:101D50008C01809139048823E1F72C9881E08093ED
:101D60003904289880E269830E946B0D8AE40E94FE
:101D70006B0D289A289881EE0E946B0D289A28985E
:101D800080EA0E946B0DC80169810E945D0D289A4E
:101D90002C9A0F90CF91DF911F910F910895EF92A0
:101DA000FF920F931F93DF93CF930F92CDB7DEB7C0
:101DB000182F062F289881EE99830E946B0D289A80
:101DC000289888EA0E946B0D9981002361F0612FA9
:101DD000792F7B01F70181917F010E946B0D8E2D80
:101DE000811B8017B8F3289A0F90CF91DF911F9134
:101DF0000F91FF90EF900895289881EE0E946B0D4F
:101E0000289A0895E8E6F0E0808182608083ECE61D
:101E1000F0E0808180688083E0EBF0E08081826088
:101E2000808308951F920F920FB60F9211248F9303
:101E300080911902882321F18091030186FD20C041
:101E4000809168008D7F8093680080916C008F770F
:101E500080936C0081E080931A028DE08093B30040
:101E60008091B10086608093B100809170008260A3
:101E70008093700010922C0310922D0310922E0369
:101E80008F910F900FBE0F901F9018951F920F9279
:101E90000FB60F9211242F933F934F935F938F931D
:101EA0009F938091B100887F8093B10080911A0246
:101EB0008823A9F08091030186FF65C080916800A6
:101EC00082608093680080916C00806880936C00D1
:101ED0008FEF9FEF909302028093010249C080919F
:101EE0000102909102022FEF8F3F920709F463C025
:101EF0008130910509F498C09C0122503040253072
:101F0000310508F467C09C01275030402630310568
:101F100008F0BDC026E32093B3002091B1002660F5
:101F20002093B100209170002260209370002091D6
:101F3000030130E0207430700024220F331F001C96
:101F4000220F331F001C232F302D4CE050E0481B84
:101F5000590B02C0220F331F4A95E2F740912C0320
:101F6000420F40932C03019690930202809301024A
:101F70009F918F915F914F913F912F910F900FBE45
:101F80000F901F90189510921A0283E38093B3006C
:101F90008091B10086608093B10080917000826072
:101FA0008093700080910102909102022FEF8F3F89
:101FB0009207C9F6DDCF2091030126FF52C0209180
:101FC000680022602093680020916C0020682093B4
:101FD0006C00CECF26E32093B3002091B1002660A1
:101FE0002093B10020917000226020937000209116
:101FF000030130E0207430700024220F331F001CD6
:10200000220F331F001C232F302D46E050E0481BC9
:10201000590B02C0220F331F4A95E2F740912D035E
:10202000420F40932D039FCF2091030130E0207495
:102030003070022E232F000C221F330B000C221FA6
:10204000331F20932E0326E32093B3002091B10089
:1020500026602093B10020917000226020937000D0
:1020600082CF8CE18093B3008091B1008660809331
:10207000B1008091700082608093700010922C03F8
:1020800010922D0310922E0381E090E06DCF8D30E1
:10209000910509F068CF109270008091680082600D
:1020A0008093680080916C00806880936C008FEF53
:1020B0009FEF909302028093010280912E03809300
:1020C000000280912D0380932A0380912C0380933A
:1020D0002B0381E080930A044BCF80910002089586
:1020E00080912A03089580912B03089508950F93FA
:1020F0001F93CF93DF93FC0180819181009709F4B6
:10210000B7C0209120043091210441E02E303407E3
:102110000CF488C0181619060CF013C188E691E07B
:10212000821B930B959587959595879529E130E0CE
:10213000281B390B30930C0220930B0240913A0478
:1021400050913B04509355044093540420813181B5
:1021500037FDD2C08091E0039091E103B901681B83
:10216000790BCB0170933B0460933A042091F80300
:102170003091F903280F391F3093F9032093F803A6
:1021800076E0213437070CF484C020E436E0309345
:10219000F9032093F80360EC72E19C01220F331FD6
:1021A000DC01AA0FBB1FAA0FBB1FAA0FBB1F2A0F60
:1021B0003B1F00811181C0910B02D0910C020C9F3A
:1021C000D0010D9FB00D1C9FB00D11242A0F3B1F95
:1021D000481B590B440F551F240F351F260F371F5F
:1021E0003093F3032093F20337FD69C012161306F0
:1021F0000CF06FC08081918197FD89C07DE5213C05
:1022000037070CF466C080EC9DE59093F303809350
:10221000F20380E092E091838083DF91CF911F9160
:102220000F910895243B310594F42A3531057CF44F
:10223000181619060CF093C03595279535952795F6
:10224000275E3F4F30930C0220930B0277CF181676
:10225000190694F584EB90E0821B930B9595879576
:1022600095958795499690930C0280930B0266CFC3
:102270001092F9031092F80310923B0410923A0462
:102280001092550410925404DF91CF911F910F9139
:10229000089569EF203C36074CF420EC39EF309379
:1022A000F9032093F80360E47DEE77CFB901660F60
:1022B000771F620F731F71CF84EB90E031CF808165
:1022C000918197FD06C01092F3031092F20320E073
:1022D00030E082EA2034380704F580E492EA9093F3
:1022E000F3038093F20380E09EEF91838083DF917C
:1022F000CF911F910F9108958091E0039091E10398
:10230000820F931F90933B0480933A042FCF109237
:10231000F3031092F20320E030E0359527953595D0
:10232000279535952795359527953183208342E06C
:10233000213034070CF06DCF6EEF203036079CF261
:102340006CCF88E691E0821B930B959587959595C8
:102350008795499690930C0280930B02EFCE3595AA
:1023600027953595279589E190E0821B930B9093F3
:102370000C0280930B02E2CE0F931F93CF93DF9357
:10238000FC0180819181009709F4B7C0209120045D
:102390003091210441E02E3034070CF488C0181627
:1023A00019060CF013C188E691E0821B930B9595FA
:1023B00087959595879529E130E0281B390B309357
:1023C0000E0220930D0240915C0450915D045093E5
:1023D0003D0440933C042081318137FDD2C080917F
:1023E000E2039091E303B901681B790BCB01709371
:1023F0005D0460935C042091FA033091FB03280F85
:10240000391F3093FB032093FA0376E0213437071A
:102410000CF484C020E436E03093FB032093FA03ED
:1024200060EC72E19C01220F331FDC01AA0FBB1F7D
:10243000AA0FBB1FAA0FBB1F2A0F3B1F00811181D0
:10244000C0910D02D0910E020C9FD0010D9FB00DD6
:102450001C9FB00D11242A0F3B1F481B590B440F22
:10246000551F240F351F260F371F3093F10320937C
:10247000F00337FD69C0121613060CF06FC080819F
:10248000918197FD89C07DE5213C37070CF466C03A
:1024900080EC9DE59093F1038093F00380E092E05F
:1024A00091838083DF91CF911F910F910895243BF9
:1024B000310594F42A3531057CF4181619060CF010
:1024C00093C03595279535952795275E3F4F3093D7
:1024D0000E0220930D0277CF1816190694F584EB9F
:1024E00090E0821B930B95958795959587954996D6
:1024F00090930E0280930D0266CF1092FB03109210
:10250000FA0310925D0410925C0410923D04109244
:102510003C04DF91CF911F910F91089569EF203C0A
:1025200036074CF420EC39EF3093FB032093FA0389
:1025300060E47DEE77CFB901660F771F620F731FDE
:1025400071CF84EB90E031CF8081918197FD06C0FF
:102550001092F1031092F00320E030E082EA203480
:10256000380704F580E492EA9093F1038093F00336
:1025700080E09EEF91838083DF91CF911F910F9137
:1025800008958091E2039091E303820F931F90934B
:102590005D0480935C042FCF1092F1031092F0033E
:1025A00020E030E035952795359527953595279589
:1025B000359527953183208342E0213034070CF094
:1025C0006DCF6EEF203036079CF26CCF88E691E03D
:1025D000821B930B95958795959587954996909332
:1025E0000E0280930D02EFCE3595279535952795F0
:1025F00089E190E0821B930B90930E0280930D0271
:10260000E2CEFC0180819181009709F47BC0A0910A
:102610005C04B0915D04B0933D04A0933C04208120
:10262000318137FD89C08091E2039091E303A901D4
:10263000481B590BCA0150935D0440935C042091E0
:10264000FA033091FB03280F391F3093FB032093CB
:10265000FA0356E0213435070CF461C020E436E07B
:102660003093FB032093FA0360E87CE09C01220F87
:10267000331F280F391F220F331F220F331F220F42
:10268000331F280F391F40815181440F551F440FBC
:10269000551F440F551F240F351FAD01481B590B03
:1026A000CA01880F991F840F951F280F391F260F05
:1026B000371F3093F1032093F00337FD4CC01216FF
:1026C00013060CF052C08081918197FD67C05DE5D3
:1026D000213C35070CF449C080EC9DE59093F10353
:1026E0008093F0032CED35E0225E3F4F3183208351
:1026F00042E0213034070CF448C080E092E091833E
:10270000808308951092FB031092FA0310925D04E7
:1027100010925C0410923D0410923C04089549EF1D
:10272000203C3407A4F420EC39EF3093FB032093D2
:10273000FA0360E873EF9ACF8091E2039091E3038C
:10274000820F931F90935D0480935C0478CFB9014E
:10275000660F771F8BCF8081918197FD06C0109205
:10276000F1031092F00320E030E082EA20343807D1
:10277000DCF480E492EA9093F1038093F00324E286
:102780003AEF2E513040318320835EEF2030350701
:1027900024F480E09EEF9183808308951092F103EA
:1027A0001092F00320E030E0359527953595279578
:1027B0003595279535952795318320831216130675
:1027C0000CF492CF21153105E1F60895FC018081CA
:1027D0009181009709F47BC0A0913A04B0913B0429
:1027E000B0935504A09354042081318137FD89C0F2
:1027F0008091E0039091E103A901481B590BCA01A4
:1028000050933B0440933A042091F8033091F9032C
:10281000280F391F3093F9032093F80356E0213431
:1028200035070CF461C020E436E03093F9032093BF
:10283000F80360E87CE09C01220F331F280F391F4A
:10284000220F331F220F331F220F331F280F391F70
:1028500040815181440F551F440F551F440F551F90
:10286000240F351FAD01481B590BCA01880F991F52
:10287000840F951F280F391F260F371F3093F3033E
:102880002093F20337FD4CC0121613060CF052C011
:102890008081918197FD67C05DE5213C35070CF48F
:1028A00049C080EC9DE59093F3038093F2032CEDF7
:1028B00035E0225E3F4F3183208342E021303407F0
:1028C0000CF448C080E092E09183808308951092D8
:1028D000F9031092F80310923B0410923A041092FC
:1028E000550410925404089549EF203C3407A4F491
:1028F00020EC39EF3093F9032093F80360E873EF8D
:102900009ACF8091E0039091E103820F931F9093FF
:102910003B0480933A0478CFB901660F771F8BCFC1
:102920008081918197FD06C01092F3031092F2030B
:1029300020E030E082EA20343807DCF480E492EAD8
:102940009093F3038093F20324E23AEF2E51304048
:10295000318320835EEF2030350724F480E09EEF42
:102960009183808308951092F3031092F20320E084
:1029700030E03595279535952795359527953595EB
:10298000279531832083121613060CF492CF21155C
:102990003105E1F608958FEF81B912B897EF94B938
:1029A00020EE25B920EF27B920EB28B92CEF2AB962
:1029B00023E02BB98DB91EB810BA83BB28E024BB25
:1029C00080930101109202012FE0209304012093D3
:1029D00005011092070180930A0190930B0108955D
:1029E0001092B8001092BC000895589A599A10920B
:1029F000B90080E28093B800089594EA9093BC00F7
:102A00009091BC0097FFFCCF9091B900987F9830CF
:102A100021F0903111F081E008958093BB0084E8AB
:102A20008093BC008091BC0087FFFCCF9091B900DF
:102A3000987F983121F081E0903419F0089580E07A
:102A4000089580E0089524EA34E844E92093BC0026
:102A50009091BC0097FFFCCF9091B900987F98307F
:102A600011F0903199F78093BB003093BC009091A6
:102A7000BC0097FFFCCF9091B900987F903219F07D
:102A8000983509F008954093BC009091BC0094FDE6
:102A9000FCCFDCCF94EA9093BC009091BC0097FFF0
:102AA000FCCF9091B900987F983021F0903111F0CF
:102AB00081E008958093BB0084E88093BC008091FE
:102AC000BC0087FFFCCF9091B900987F983121F02E
:102AD00081E0903419F0089580E0089580E0089531
:102AE00084E98093BC008091BC0084FDFCCF0895F4
:102AF0008093BB0084E88093BC008091BC0087FF7A
:102B0000FCCF9091B900987F81E0983209F0089548
:102B100080E0089584EC8093BC008091BC0087FF26
:102B2000FCCF8091BB00089584E88093BC00809125
:102B3000BC0087FFFCCF8091BB0008951092C500B8
:102B400080E18093C400E0ECF0E0808182608083CB
:102B5000E1ECF0E0808188698083E2ECF0E0808144
:102B60008660808308951092C0001092C100109278
:102B7000C20008959091C00095FFFCCF8093C600DD
:102B800008951F920F920FB60F9211242F938F93D7
:102B90009F938091C600909118029923B9F08233D7
:102BA00009F45BC0833380F5803309F47EC0813340
:102BB00029F481E080931702109218029F918F915F
:102BC0002F910F900FBE0F901F90189590911702A4
:102BD000923009F448C0933040F1943009F48CC02D
:102BE000943008F473C0953049F7833739F7109261
:102BF000080481E0809318029F918F912F910F908C
:102C00000FBE0F901F901895843309F459C0843378
:102C100008F450C0853391F685E080931702109236
:102C2000180281E080930804C9CF992391F58D3271
:102C300009F4D5C08B32E9F68091140290E00A972E
:102C400097FD3FC180931402882309F43CC190E0B2
:102C50009093890080938800B1CF82E0809317021F
:102C600010921802ABCF8D3209F4E8C08B3209F60E
:102C70008091160290E00A9797FD35C18093160265
:102C8000882309F432C190E090938D0080938C00EA
:102C900095CF913009F092CF8D3209F489C08B32F3
:102CA00009F43FC09093180289CF10921702109236
:102CB000180284CF83E080931702109218027ECF0F
:102CC00084E0809317021092180278CF8B3209F4B7
:102CD000CCC08D3209F451C0833709F08ACF1092ED
:102CE000E5031092E403109299001092980010925C
:102CF0009B0010929A0062CF8B3209F487C08D320C
:102D000009F1833709F075CF1092E7031092E603BB
:102D10001092A9001092A8001092AB001092AA0085
:102D20004DCF8091150290E00A9797FDD3C0809314
:102D30001502882309F4D0C090E090938B00809313
:102D40008A003CCF8091E6039091E7034E979093E1
:102D5000E7038093E6032CEF803092070CF0CCC0A1
:102D600080E09CEF9093E7038093E60380E094E09B
:102D70009093AB008093AA0021CF8091E4039091BF
:102D8000E5034E979093E5038093E4032CEF8030A6
:102D900092070CF0B7C080E09CEF9093E50380931E
:102DA000E40380E094E090939B0080939A0006CF28
:102DB000809180008062809380008091150290E075
:102DC0000A968F3F910519F014F08FEF90E08093F1
:102DD000150290E090938B0080938A00EFCE809153
:102DE00080008068809380008091140290E00A96B1
:102DF0008F3F910519F014F08FEF90E0809314024B
:102E000090E09093890080938800D8CE8091E6036B
:102E10009091E7034E969093E7038093E60324E0B6
:102E200081309207D4F180E094E09093E70380939F
:102E3000E6039093A9008093A800C0CE8091800003
:102E40008860809380008091160290E00A968F3F00
:102E5000910519F014F08FEF90E08093160290E046
:102E600090938D0080938C00A9CE8091E403909183
:102E7000E5034E969093E5038093E40324E08130CC
:102E80009207ACF080E094E09093E5038093E40334
:102E9000909399008093980091CE97FFCACF909518
:102EA00081959F4F9093AB008093AA0087CE97FFA8
:102EB000EFCF909581959F4F90939B0080939A00C0
:102EC0007DCE10921402809180008F7780938000D5
:102ED0002D9874CE10921502809180008F7D809382
:102EE00080002E986BCE1092160280918000877F12
:102EF000809380002F9862CE97FF9BCF909581950D
:102F00009F4F36CF97FFC4CF909581959F4F4BCF62
:102F100086B166B126B146B130E028703070359583
:102F200027953595279535952795220F331F70E006
:102F3000647070707595679575956795260F371F46
:102F4000220F331F50E04270507055954795240F63
:102F5000351F220F8170820F0895F8940E94CB14C0
:102F60000E94A01A0E94721C0E949C1F0E943C0D8D
:102F70000E94F20D0E949E150E944A180E94020FA4
:102F8000789408951F920F920FB60F9211240F900C
:102F90000FBE0F901F901895CF93DF939EE1899FEE
:102FA000E0011124809168008D7F809368008091FA
:102FB0006C008F7780936C00D99A10927A00809180
:102FC0007A00806180937A001092900010929100B4
:102FD0001092710088B3876088BB1092A000109295
:102FE000A1001092720089B3876089BB10928000A3
:102FF000109281000E94B3150E94480D0E94F014A7
:103000000E94CB1483B78F6083BF81E080937000F0
:103010008091B0008D7F8093B0008091B100876077
:103020008093B100209719F088952197E9F713BE96
:103030008091B100887F8093B100109270008091E0
:10304000B00082608093B0008FEF80931402809371
:103050001502809316021092E5031092E403109279
:10306000E7031092E603F8940E94CB140E94A01A82
:103070000E94721C0E949C1F0E943C0D0E94F20D37
:103080000E949E150E944A180E94020F7894DF91B8
:10309000CF9108950E94F51480911B020E94FD14A7
:1030A000882349F486E10E94781585E40E9478150A
:1030B0000E94701508950E94701586EA90E0909322
:1030C0001C0280931B0286EA0E94FD14882341F5AE
:1030D0008DE20E94781588E00E9478150E94701594
:1030E00080911B020E94FD148823D1F481E30E9489
:1030F000781580E00E9478150E94701580911B025F
:103100000E94FD14882361F48CE20E94781589E006
:103110000E9478150E94701581E080930D04089537
:103120000E94701582E080930D04089580911B0227
:103130000E94FD14882351F486E10E94781585E4ED
:103140000E9478150E94701580E008950E94701505
:1031500081E0089580911B020E94FD14882331F5BF
:103160008DE20E94781588E00E9478150E94701503
:1031700080911B020E94FD148823C1F481E30E9408
:10318000781580E00E9478150E94701580911B02CE
:103190000E94FD14882351F48CE20E94781589E086
:1031A0000E9478150E94701580E008950E947015A5
:1031B00081E00895FF920F931F93DF93CF930F92B7
:1031C000CDB7DEB780910D04882391F0813009F4EA
:1031D00088C010920F0410920E04109211041092E5
:1031E00010040F90CF91DF911F910F91FF900895E0
:1031F00080911B020E94FD1480E00E94781580914E
:103200001B028F5F0E944A150E948A15082F0E9498
:103210008A15F82E0E948A15182F0E94941589830A
:103220000E94701590912D048981992339F14F2DB9
:10323000552747FD5095542F4427602F772767FD6A
:103240007095462B572B50930F0440930E04282F54
:10325000332727FD3095322F2227812F992787FD8D
:103260009095282B392B30931104209310040F9044
:10327000CF91DF911F910F91FF9008954F2D55270A
:1032800047FD5095542F4427602F772767FD709591
:10329000462B572B60911A0470911B04461B570B49
:1032A00050930F0440930E04282F332727FD3095A9
:1032B000322F2227812F992787FD9095282B392B94
:1032C00080911C0490911D04281B390B309311042C
:1032D000209310040F90CF91DF911F910F91FF90D9
:1032E000089580911B020E94FD1482E386CFDF9334
:1032F000CF9300D000D0CDB7DEB780910D048823E6
:10330000C1F0813009F4ADC010920F0410920E0488
:1033100010921104109210041092130410921204CF
:1033200026960FB6F894DEBF0FBECDBFCF91DF91CA
:10333000089580911B020E94FD1480E00E94781580
:1033400080911B028F5F0E944A150E948A15898313
:103350000E948A158A830E948A158B830E948A158F
:103360008C830E948A158D830E9494158E830E94FF
:10337000701580912D04882389F18A81992787FD12
:103380009095982F88272981332727FD3095822B08
:10339000932B90930F0480930E048C81992787FDC3
:1033A0009095982F88272B81332727FD3095822BE6
:1033B000932B90931104809310048E81992787FD9D
:1033C0009095982F88272D81332727FD3095822BC4
:1033D000932B9093130480931204A2CF8A81992790
:1033E00087FD9095982F88272981332727FD3095D1
:1033F000822B932B20911A0430911B04821B930B78
:1034000090930F0480930E048C81992787FD9095EB
:10341000982F88272B81332727FD3095822B932BDC
:1034200020911C0430911D04821B930B9093110476
:10343000809310048E81992787FD9095982F882777
:103440002D81332727FD3095822B932B20911E044D
:1034500030911F04821B930B9093130480931204EA
:103460005FCF80911B020E94FD1482E367CFEF9231
:10347000FF920F931F93809112049091130497FD74
:103480005BC08031910508F042C081E080931D024D
:1034900090911C02981709F442C01092280480935E
:1034A0001C0260910E0470910F04882777FD8095AF
:1034B000982F0E9412217B018C0160911004709161
:1034C0001104882777FD8095982F0E9412219B0177
:1034D000AC01C801B7010E94CD2321EE3EE245E6D2
:1034E00052E40E9413200E9470219B0170932104DA
:1034F0006093200477FF06C028593E4F3093210483
:10350000209320041F910F91FF90EF900895109247
:103510001D0280E090911C02981709F0BECF909197
:1035200028049F5F90932804953008F4B8CF109238
:10353000280480931E02B3CF909581959F4FA1CF11
:10354000EAE7F0E0808186608083ACE7B0E08C91B0
:1035500080648C93808180628083ABE7B0E08C9143
:10356000887F8C938081886080838081806880835D
:1035700080818064808308951F920F920FB60F920E
:103580000BB60F9211242F933F934F938F939F93DA
:10359000EF93FF9380912A0490912B0401969093CE
:1035A0002B0480932A042091780030E04091790028
:1035B000942F80E0282B392B80919503823009F4D9
:1035C0001FC1833008F444C0833009F40CC1843037
:1035D00009F4CEC080919603823009F4B5C08330DF
:1035E00008F052C0882309F08AC080913003869584
:1035F00080932F0380919703882309F043C181E0D2
:103600008093950381E08093960390912F039830E7
:1036100008F06AC090917B00977F90937B00909117
:103620002F03905C90937C00823021F48FEF809385
:10363000050112B8FF91EF919F918F914F913F91AA
:103640002F910F900BBE0F900FBE0F901F901895EB
:10365000882309F065C0809130038E3009F424C1BD
:10366000E82FF0E0EE0FFF1FEB5CFC4F318320836F
:103670008F5F80933003883108F4ACCF1092300311
:1036800081E080939E03A6CF833009F498C08430F4
:1036900009F0BBCF9091320390932F0390913303A5
:1036A0009093970390919803992309F0E5C083E0E4
:1036B0008093950310929603209130032E3009F4E5
:1036C000EDC0822F90E020FFCEC0203108F0BBC0BB
:1036D000269581E090E002C0880F991F2A95E2F7B5
:1036E00082B98091960391CF90917B0098609093DE
:1036F0007B0090912F03985C90937C0095CF813054
:1037000009F083CF8091310380932F03809134039C
:10371000809398031092950382E08093960375CF6F
:10372000813009F057CF8091D2039091D303820F5B
:10373000931F969587959093D3038093D20380919E
:103740009603823009F04BCF8091320380932F0390
:10375000809133038093970380919803882309F025
:1037600097C083E08093950383E0809396034DCFC9
:1037700080911202882309F42DCF9091000193FDCE
:1037800029CF9091000194FD25CF482F4F5F4093A2
:103790001202453008F41ECF8091DC039091DD03C6
:1037A000820F931F9093DD038093DC03483009F070
:1037B00011CF1092120281E080930F020BCF809103
:1037C000310380932F038091340380939803809179
:1037D0009703882309F04AC081E08093950384E031
:1037E0008093960312CF8091D0039091D103820FE2
:1037F000931F969587959093D1038093D003EACE3B
:1038000080911102882309F4E5CE6399E3CE64998F
:10381000E1CE482F4F5F40931102453008F4DACED5
:103820008091DE039091DF03820F931F9093DF035B
:103830008093DE03483009F0CDCE1092110281E072
:1038400080931002C7CE40910501409795958795CA
:1038500021E030E002C0220F331F8A95E2F7209565
:1038600024232093050180919603CFCE813069F106
:1038700085E080939503B3CF913009F085E0809384
:10388000950318CF8130E9F085E080939503BACE97
:103890008130F9F085E08093950366CF80919B039A
:1038A0008130D9F080E0B1CE90919B03923009F045
:1038B000D7CE30939A032093990310929B03469896
:1038C000D7CE82E0809395039DCE82E080939503CE
:1038D00086CF84E08093950347CF82E080939B035B
:1038E000469AEFCEE0E9F0E08081836880838081B2
:1038F00083608083A1E9B0E08C918B608C93809190
:10390000E4039091E50390939900809398001092BE
:103910009B0010929A00A1E7B0E08C9181608C939B
:1039200080818F7580838EB1877E8EB9E0EAF0E06A
:10393000808183688083A1EAB0E08C918B608C9356
:103940008091E6039091E7039093A9008093A800EB
:103950001092AB001092AA00A2E7B0E08C918160B7
:103960008C9380818F758083E2E0F1E08081877E97
:10397000808308951F920F920FB60F9211248F9398
:103980009F931092D1031092D0038091E6039091FF
:10399000E703009741F58091DA039091DB0397FDEF
:1039A00069C081E0809334038EE08093310381E02D
:1039B000809312028091A0008F758093A000809167
:1039C0000201877E8093020180917200897F80933B
:1039D000720089B3866089BB9F918F910F900FBE53
:1039E0000F901F901895181619062CF51092340395
:1039F0008FE0809331038091A0008F7D8093A000A1
:103A0000809172008B7F80937200809102018F7E83
:103A1000809302018091A00080688093A000809133
:103A200072008260809372009F918F910F900FBE01
:103A30000F901F901895109234038EE080933103FD
:103A40008091A0008F778093A000809172008D7F7D
:103A50008093720080910201877F809302018091A0
:103A6000A00080628093A0008091720084608093A7
:103A70007200B2CF81E0809334038FE080933103F2
:103A800096CF1F920F920FB60F9211248F939F9390
:103A900081E0809334039EE090933103809312027F
:103AA0009F918F910F900FBE0F901F9018951F92AE
:103AB0000F920FB60F9211248F939F9381E0809302
:103AC00034039FE090933103809312029F918F9172
:103AD0000F900FBE0F901F9018951F920F920FB668
:103AE0000F9211248F939F931092D3031092D203BD
:103AF0008091E4039091E503009731F58091D8031C
:103B00009091D90397FD5FC081E0809333038CE0EF
:103B10008093320381E080931102809190008F7531
:103B2000809390008EB1877E8EB980917100897FDD
:103B30008093710088B3866088BB9F918F910F90AE
:103B40000FBE0F901F901895181619060CF51092BD
:103B500033038DE080933203809190008F7D8093BA
:103B60009000809171008B7F809371007498809198
:103B700090008068809390008091710082608093B3
:103B800071009F918F910F900FBE0F901F9018950D
:103B9000109233038CE080933203809190008F77F2
:103BA00080939000809171008D7F80937100739855
:103BB0008091900080628093900080917100846079
:103BC00080937100BACF81E0809333038DE08093BE
:103BD0003203A0CF1F920F920FB60F9211248F9332
:103BE0009F9381E0809333039CE090933203809312
:103BF00011029F918F910F900FBE0F901F901895FB
:103C00001F920F920FB60F9211248F939F9381E012
:103C1000809333039DE090933203809311029F9130
:103C20008F910F900FBE0F901F901895CF92DF923B
:103C3000EF92FF920F931F93CF93DF938091EC034A
:103C40009091ED0397FDC9C0609105047091060441
:103C50008091EE039091EF0397FDD0C04091030453
:103C600050910404E0906703F090680390916B0317
:103C700080916C03A92FB82FB7FDCFC0B595A7953C
:103C800000916F03109170039091730380917403FE
:103C9000E92FF82FF7FDCCC0F595E795F095E19564
:103CA000FF4FEA01C60FD71FD7FDB9C0D595C795FD
:103CB0008E2D9F2D97FDBAC0959587959D01281B48
:103CC000390B80916D0390916E03280F391FC80145
:103CD00017FDB6C095958795820F931F8E0F9F1F76
:103CE0002091650330916603821B930B969587950F
:103CF000969587958C0F9D1F641B750B77FD9DC056
:103D000075956795EA0FFB1F2091690330916A034F
:103D1000E20FF31F2E2D3F2D37FD8CC035952795D3
:103D20002E0F3F1F402F512F57FD74C055954795BB
:103D3000241B350B4091710350917203241B350BEA
:103D40003695279536952795260F371FA901480FD9
:103D5000591F821B930B880F991F880F991F9093EF
:103D60000104809300049A01220F331F220F331F96
:103D70003093FF032093FE0342E02130340734F0F8
:103D800020E032E03093FF032093FE0342E08130D5
:103D9000940734F080E092E0909301048093000453
:103DA0004EEF2030340734F420E03EEF3093FF0331
:103DB0002093FE032EEF8030920734F480E09EEFD4
:103DC0009093010480930004DF91CF911F910F9194
:103DD000FF90EF90DF90CF9008956091050470916F
:103DE0000604709561957F4F7093060460930504F7
:103DF0008091EE039091EF0397FF30CF4091030441
:103E000050910404509541955F4F509304044093A2
:103E1000030428CF4F5F5F4F89CF11962FCF219694
:103E2000D595C7958E2D9F2D97FF46CF019644CFF0
:103E3000319632CF2F5F3F4F71CF6F5F7F4F60CF93
:103E4000019648CF809155039091560320915703D6
:103E500030915803821B930B6091590370915A0360
:103E600020915B0330915C03621B730B40915D03F7
:103E700050915E0320915F0330916003421B530B0E
:103E800057FD4EC02091610330916203E0916303BE
:103E9000F09164032E1B3F0B37FD4BC097FD46C0CE
:103EA0009093370480933604E3E0F0E0F09320022F
:103EB000E0931F0277FD37C06817790758F47093B5
:103EC00037046093360482E090E090932002809360
:103ED0001F02CB014817590758F4509337044093F9
:103EE000360481E090E09093200280931F02CA0183
:103EF0002817390748F4309337042093360410927A
:103F0000200210921F02C9018437910540F41092DB
:103F1000FF031092FE031092010410920004089512
:103F200040E050E0AFCF60E070E0C6CF80E090E0CE
:103F3000B7CF20E030E0B2CFE0E8F0E08081896ADE
:103F40008083E1E8F0E080818960808380911402C1
:103F500090E090938900809388008091150290E012
:103F600090938B0080938A008091160290E090934A
:103F70008D0080938C00089581E090910704891B47
:103F800080930704882339F480918000877F809391
:103F900080002F9808958091800088608093800031
:103FA0008FEF90E090938D0080938C00089588238C
:103FB00059F09091800090689093800090E09093E9
:103FC0008900809388000895809180008F77809386
:103FD00080002D980895882359F090918000906278
:103FE0009093800090E090938B0080938A000895D6
:103FF000809180008F7D809380002E980895882383
:1040000059F09091800098609093800090E0909398
:104010008D0080938C00089580918000877F80932D
:1040200080002F980895A0E2B0E0E9E1F0E20C945E
:10403000892369837A838B839C832D833E834F837B
:10404000588799E0E92EF12CEC0EFD1EB701CE0148
:1040500001960E94F0228E010F5E1F4FB801CE0123
:1040600005960E94F0229985923088F089898230E5
:10407000C0F0943019F4823029F009C0843029F45A
:10408000923079F461E272E0C6C0923041F420E0EF
:104090009A858A89981321E02A87B701BCC08230AB
:1040A00041F420E09A858A89981321E02A8BB8018F
:1040B000B2C0CD84DE84EF84F8880D891E892F89F3
:1040C000388D88249924540140E050E060E070E08D
:1040D000442455243201E0E0F0E0C6018170907084
:1040E000892BD9F0800E911EA21EB31EDB01CA01DE
:1040F000840D951DA61DB71D40E050E060E070E006
:1041000080169106A206B30620F441E050E060E07C
:1041100070E0480F591F6A1F7B1F440C551C661C1A
:10412000771C37FF08C081E090E0A0E0B0E0482AAB
:10413000592A6A2A7B2A3196E032F10549F0000FAC
:10414000111F221F331FF694E794D794C794C5CF4D
:104150008B899C892B853C85820F931F02969C8FAF
:104160008B8F1A8E9A858A89981711F081E08A8F31
:104170002B8D3C8D17C0CA0181709070892B61F026
:10418000B694A7949794879480E090E0A0E0B0E87C
:10419000882A992AAA2ABB2A769567955795479522
:1041A0002F5F3F4F77FDE7CFC9010BC0440F551F6D
:1041B000661F771FB7FC4160880C991CAA1CBB1CAA
:1041C00001974030A0E05A07A0E06A07A0E47A0710
:1041D00068F39C8F8B8FDB01CA018F779070A07082
:1041E000B07080349105A105B10561F447FD0AC0A6
:1041F00081149104A104B10429F0405C5F4F6F4F1A
:104200007F4F40784D8F5E8F6F8F78A383E0898FCB
:10421000BE01675E7F4FCB010E941022E0E1A096B5
:104220000C94A523A8E0B0E0E8E1F1E20C9490231F
:104230009B01AC0183E08983DA01C9018827B7FDBE
:1042400083959927AA27BB27B82E2115310541054B
:10425000510519F482E089833AC08823A9F02030FF
:1042600080E0380780E0480780E8580729F460E0DC
:1042700070E080E09FEC30C0EE24FF248701E21A5A
:10428000F30A040B150B02C079018A018EE1C82ED6
:10429000D12CDC82CB82ED82FE820F831887C8018D
:1042A000B7010E94C32101971816190684F4082E3D
:1042B00004C0EE0CFF1C001F111F0A94D2F7ED8200
:1042C000FE820F831887C81AD90ADC82CB82BA8291
:1042D000CE0101960E941022E9E028960C94AC23AE
:1042E000ACE0B0E0E6E7F1E20C94972369837A83CF
:1042F0008B839C83BE016B5F7F4FCE0101960E9432
:10430000F0228D818230A9F1823098F1843021F43D
:104310008E81882359F40FC02F81388537FD29C03D
:104320006E812F31310564F0662329F020E030E002
:1043300040E050E822C02FEF3FEF4FEF5FE71DC096
:104340008EE190E0821B930B29853A854B855C8535
:1043500004C056954795379527958A95D2F76623D9
:1043600061F050954095309521953F4F4F4F5F4FED
:1043700004C020E030E040E050E0CA01B901E2E0D2
:104380002C960C94B323EF92FF920F931F939B01F3
:10439000AC01203080E0380781E0480780E0580712
:1043A00080F42F3F31054105510509F020F4EE243A
:1043B000FF24870119C068E0E62EF12C012D112D94
:1043C00013C0203080E0380780E0480781E05807BC
:1043D00030F490E1E92EF12C012D112D05C088E17A
:1043E000E82EF12C012D112D80E290E0A0E0B0E04C
:1043F0008E199F09A00BB10B04C0569547953795B0
:104400002795EA94D2F7F901E75DFD4F2081821BE1
:104410009109A109B1091F910F91FF90EF900895A3
:104420009F92AF92BF92CF92DF92EF92FF920F9343
:104430001F93EE24FF248701FC01248135814681EE
:10444000578191808081823010F44061A2C0843015
:1044500009F49BC0823029F420E030E040E050E0D5
:1044600005C0211531054105510519F4E0E0F0E0E2
:1044700092C0828193816FEF823896070CF05AC008
:1044800062E87FEF681B790B6A3171052CF020E040
:1044900030E040E050E02AC0AA24BB24650181E05E
:1044A00090E0A0E0B0E0062E04C0880F991FAA1F7C
:1044B000BB1F0A94D2F70197A109B1098223932364
:1044C000A423B5230097A105B10529F071E0A72E1B
:1044D000B12CC12CD12C04C0569547953795279502
:1044E0006A95D2F72A293B294C295D29DA01C901AD
:1044F0008F779070A070B07080349105A105B105E0
:1045000039F427FF09C0205C3F4F4F4F5F4F04C075
:10451000215C3F4F4F4F5F4F80E090E0203060E0E4
:10452000360760E0460760E4560710F081E090E04F
:10453000FC0123C08038910544F5FC01E158FF4F90
:10454000DA01C9018F779070A070B0708034910546
:10455000A105B10539F427FF09C0205C3F4F4F4F3B
:104560005F4F04C0215C3F4F4F4F5F4F57FF05C067
:104570005695479537952795319687E056954795F7
:10458000379527958A95D1F706C020E030E040E0C6
:1045900050E0EFEFF0E0E22EF32E942F9F77802F84
:1045A0008078892B9E2F9795992797958F77082F3D
:1045B000092B9E2F9695812F8078892B979499248B
:1045C00097948F77182F1929C801B7011F910F9160
:1045D000FF90EF90DF90CF90BF90AF909F900895A5
:1045E000CF93DF93FC01DB01208131819281492F40
:1045F0004F7750E0991F9927991F8381E82FEE0F7D
:10460000E92B6E2F70E0881F8827881FED018983B2
:10461000EE2371F5211531054105510511F482E0B4
:104620002FC06E577040FD017383628367E0220FD5
:10463000331F441F551F6A95D1F783E08C930AC03E
:10464000220F331F441F551FED018A819B81019763
:104650009B838A832030E0E03E07E0E04E07E0E401
:104660005E0770F3ED012C833D834E835F8325C08D
:10467000EF3F79F4211531054105510519F484E026
:104680008C931BC044FF03C081E08C9311C01C922B
:104690000FC06F577040ED017B836A8383E08C937A
:1046A00087E0220F331F441F551F8A95D1F75064AE
:1046B000FD012483358346835783DF91CF9108958D
:1046C000AA1BBB1B51E107C0AA1FBB1FA617B70738
:1046D00010F0A61BB70B881F991F5A95A9F7809554
:1046E0009095BC01CD01089597FB092E07260AD0AD
:1046F00077FD04D0E5DF06D000201AF470956195AF
:104700007F4F0895F6F7909581959F4F08952F92CA
:104710003F924F925F926F927F928F929F92AF9251
:10472000BF92CF92DF92EF92FF920F931F93CF939E
:10473000DF93CDB7DEB7CA1BDB0B0FB6F894DEBF35
:104740000FBECDBF19942A88398848885F846E844B
:104750007D848C849B84AA84B984C884DF80EE80A5
:10476000FD800C811B81AA81B981CE0FD11D0FB6AE
:10477000F894DEBF0FBECDBFED010895F5D058F01F
:1047800080E891E009F49EEFF6D028F040E851E08F
:1047900059F45EEF09C0C0C028C1E92FE07803D109
:1047A00068F3092E052AC1F326173707480759076A
:1047B00038F00E2E07F8E02569F0E025E0640AC025
:1047C000EF6307F8009407FADB01B9019D01DC01F2
:1047D000CA01AD01EF9341D0D5D00AD05F915523E6
:1047E00031F02BED3FE049E450FD49EC71C10895F3
:1047F000DF93DD27B92FBF7740E85FE31616170672
:1048000048075B0710F4D92FF7D09F938F937F93BE
:104810006F935AD1EEE4F1E082D0B4D02F913F9162
:104820004F915F91FAD0DD2349F09058A2EA2AED2A
:104830003FE049EC5FE3D0785D275BD1DF91A2C018
:104840009AD040F091D030F021F45F3F19F05EC073
:104850005111CCC061C0A7D098F39923C9F3552357
:10486000B1F3951B550BBB27AA2762177307840763
:1048700038F09F5F5F4F220F331F441FAA1FA9F319
:1048800033D00E2E3AF0E0E830D091505040E6950B
:10489000001CCAF729D0FE2F27D0660F771F881F6C
:1048A000BB1F261737074807AB07B0E809F0BB0B5B
:1048B000802DBF01FF2793585F4F2AF09E3F51057F
:1048C00068F024C093C05F3FECF3983EDCF386951C
:1048D00077956795B795F7959F5FC9F7880F911DF5
:1048E0009695879597F90895E1E0660F771F881FE1
:1048F000BB1F621773078407BA0720F0621B730B94
:10490000840BBA0BEE1F88F7E095089597F99F671F
:1049100080E870E060E008959FEF80EC0895DF93F9
:10492000CF931F930F93FF92EF92DF927B018C0145
:10493000689405C0DA2EEF0170D0FE01E894A591CD
:104940002591359145915591AEF3EF01D2D0FE01FD
:104950009701A801DA9479F7DF90EF90FF900F911B
:104960001F91CF91DF91089500240A94161617061F
:1049700018060906089500240A9412161306140650
:1049800005060895092E0394000C11F4882352F0B3
:10499000BB0F40F4BF2B11F460FF04C06F5F7F4F6B
:1049A0008F4F9F4F089557FD9058440F551F59F052
:1049B0005F3F71F04795880F97FB991F61F09F3F0C
:1049C00079F087950895121613061406551FF2CF35
:1049D0004695F1DF08C0161617061806991FF1CF85
:1049E00086957105610508940895E894BB276627AC
:1049F0007727CB0197F908959B01AC0160E070E047
:104A000080E89FE3C9C0B0DF28F0B5DF18F0952338
:104A100009F07CCF81CF1124E9CFC5DFA0F3959FAA
:104A2000D1F3950F50E0551F629FF001729FBB2795
:104A3000F00DB11D639FAA27F00DB11DAA1F649F41
:104A40006627B00DA11D661F829F2227B00DA11DF4
:104A5000621F739FB00DA11D621F839FA00D611D7A
:104A6000221F749F3327A00D611D231F849F600D9B
:104A7000211D822F762F6A2F11249F5750408AF0D4
:104A8000E1F088234AF0EE0FFF1FBB1F661F771F60
:104A9000881F91505040A9F79E3F510570F036CFC6
:104AA000A5CF5F3FECF3983EDCF38695779567954D
:104AB000B795F795E7959F5FC1F7FE2B880F911D7E
:104AC0009695879597F908959B01AC01ACCA50580B
:104AD000BB27AA270ED056CF47DF30F04CDF20F09F
:104AE00031F49F3F11F41EF417CF0EF4E095E7FB6D
:104AF0000DCFE92F58DF80F3BA17620773078407D9
:104B0000950718F071F49EF570CF0EF4E0950B2E1A
:104B1000BA2FA02D0B01B90190010C01CA01A0010F
:104B20001124FF27591B99F0593F50F4503E68F16A
:104B30001A16F040A22F232F342F4427585FF3CFAB
:104B4000469537952795A795F0405395C9F77EF47C
:104B50001F16BA0B620B730B840BBAF09150A1F0C5
:104B6000FF0FBB1F661F771F881FC2F70EC0BA0F4B
:104B7000621F731F841F48F4879577956795B795D3
:104B8000F7959E3F08F0B3CF9395880F08F09927CB
:0E4B9000EE0F9795879508955EDEF4CEFFCF69
:104B9E0002FFFF00040000000400001900190001CC
:104BAE0001010103FFFFFF050101013A01010103AC
:104BBE0000000000000000000000010202030303D9
:104BCE000304040404040404040505050505050591
:104BDE000505050505050505050606060606060670
:104BEE000606060606060606060606060606060657
:104BFE000606060606060606060707070707070740
:104C0E000707070707070707070707070707070726
:104C1E000707070707070707070707070707070716
:104C2E000707070707070707070707070707070706
:104C3E0007070707070707070708080808080808EF
:104C4E0008080808080808080808080808080808D6
:104C5E0008080808080808080808080808080808C6
:104C6E0008080808080808080808080808080808B6
:104C7E0008080808080808080808080808080808A6
:104C8E000808080808080808080808080808080896
:104C9E000808080808080808080808080808080886
:104CAE000808080808080808080808080808080876
:0A4CBE0008080808080808080800A4
:00000001FF
