:100000000C9489000C94A8000C94A8000C94A800EF
:100010000C94A8000C94A8000C94A8000C94A800C0
:100020000C94A8000C94A8000C94AE110C94A80099
:100030000C94A8000C9488100C94A8000C94A800B0
:100040000C94A8000C94A8000C94A8000C94A80090
:100050000C94A8000C94A8000C94A8000C94A80080
:100060000C94A8000C94D1150C94A8000C94A80032
:100070000C94A8000C94CA000C94A8000C94A8003E
:100080000C94BA030C94CC030C94A8000C94230396
:100090000C94A8000C94A8000C94A8000C94A80040
:1000A0000C94A8000C94A8000C94FF020C9411036B
:1000B0000C94A8000C9460020C94A8000C94A80066
:1000C0000C94A8000C94A8000C94A8000C94A80010
:1000D0000C94A8000C94A8000C94A8000C94A80000
:1000E0000C94A800084AD73B3BCE016E84BCBFFDF0
:1000F000C12F3D6C74319ABD56833DDA3D00C77FF8
:1001000011BED9E4BB4C3E916BAAAABE0000008090
:100110003F0011241FBECFEFD1E2DEBFCDBF00E014
:100120000CBF13E0A0E0B2E0E8EBF1E402C0059000
:100130000D92A032B107D9F714E0A0E2B3E001C0FC
:100140001D92AA30B107E1F70E94C1060C94DB2092
:100150000C94000081E08093D8030895EAE7F0E072
:10016000808186608083ACE7B0E08C9180648C9362
:10017000808180628083ABE7B0E08C91887F8C9334
:1001800080818860808380818068808380818064B2
:10019000808308951F920F920FB60F920BB60F92A5
:1001A00011242F933F934F938F939F93EF93FF933C
:1001B0002091780030E040917900942F80E0282B46
:1001C000392B80915F03823009F402C18330F0F152
:1001D000833009F4F0C0843009F4C6C08091600314
:1001E000823009F452C0833008F072C0882309F0CD
:1001F0009AC080912A038695809329038091610398
:10020000882309F0F9C081E080935F0381E0809347
:10021000600380912903883008F44FC080917B00EF
:10022000886080937B0080912903885C80937C00A8
:10023000FF91EF919F918F914F913F912F910F904F
:100240000BBE0F900FBE0F901F901895882309F0DA
:100250007BC080912A03E82FF0E0EE0FFF1FE15DE5
:10026000FC4F318320838F5F80932A03883110F005
:1002700010922A0312B880910501807F80930501B6
:1002800080916003823009F0AECF80912C0380937F
:10029000290380912D038093610380916203882359
:1002A00009F0B5C083E080935F0383E0809360032F
:1002B00080912903883008F0B1CF80917B00877F3F
:1002C00080937B0080912903805C80937C00B0CF79
:1002D000833009F45DC0843009F09BCF90912C03EA
:1002E0009093290390912D03909361039091620361
:1002F000992309F089C083E080935F031092600323
:1003000020912A03822F90E020FF83CF203108F034
:1003100082C0269581E090E002C0880F991F2A953F
:10032000E2F782B976CF813009F073CF80912B0349
:100330008093290380912E038093620310925F03C0
:1003400082E08093600365CF813009F047CF8091D0
:10035000650390916603820F931F969587959093FE
:100360006603809365033ACF809173039091740381
:10037000820F931F909374038093730380916B0398
:1003800090916C03019690936C0380936B0326CF3E
:1003900080912B038093290380912E038093620325
:1003A00080916103882361F581E080935F0384E09D
:1003B000809360032ECF8091630390916403820F3A
:1003C000931F96958795909364038093630306CF5C
:1003D0008091770390917803820F931F9093780315
:1003E0008093770380916F039091700301969093AF
:1003F000700380936F03F2CE82E080935F0306CF99
:1004000082E080935F03D3CF80935F0377CF84E054
:1004100080935F034ACF40979595879521E030E020
:1004200002C0220F331F8A95E2F720930501F1CE17
:10043000E0E9F0E08081836880838081836080834D
:10044000A1E9B0E08C918B608C9380917F039091B7
:100450008003909399008093980010929B001092D3
:100460009A00A1E7B0E08C9181608C9380818F75B8
:1004700080838EB1877E8EB9E0EAF0E08081836868
:100480008083A1EAB0E08C918B608C938091830390
:10049000909184039093A9008093A8001092AB00E0
:1004A0001092AA00A2E7B0E08C9181608C938081C9
:1004B0008F758083E2E0F1E08081877E80830895FC
:1004C0001F920F920FB60F9211248F939F93AF93A9
:1004D000BF9310922E0380916303909164039093D5
:1004E00068038093670380916B0390916C039093F2
:1004F0006E0380936D0380917303909174039093C6
:100500007603809375031092640310926303109234
:100510006C0310926B03109274031092730381E0CA
:100520008093AF038093B103809183039091840300
:10053000A0918503B09186030097A105B10551F103
:10054000181619061A061B06ECF58FE080932B038C
:100550008091A0008F7D8093A000809172008B7F9E
:1005600080937200809102018F7E809302018091BE
:10057000A00080688093A0008091720082608093C8
:100580007200BF91AF919F918F910F900FBE0F900E
:100590001F9018958FE080932B038091A0008F759A
:1005A0008093A00080910201877E80930201809158
:1005B0007200897F809372008091720082608093C4
:1005C0007200DFCF8EE080932B038091A0008F77A5
:1005D0008093A000809172008D7F80937200809143
:1005E0000201877F809302018091A0008062809346
:1005F000A00080917200846080937200C2CF1F922D
:100600000F920FB60F9211248F9381E080932E03E7
:100610008EE080932B038F910F900FBE0F901F9051
:1006200018951F920F920FB60F9211248F9381E0AD
:1006300080932E038FE080932B038F910F900FBE3A
:100640000F901F9018951F920F920FB60F921124C2
:100650002F938F939F93AF93BF9310922D0321E01D
:100660002093C003809165039091660390936A0381
:1006700080936903809177039091780390937A0334
:100680008093790380916F0390917003909372032C
:1006900080937103109266031092650310927803A1
:1006A000109277031092700310926F032093B0039F
:1006B00080917F0390918003A0918103B091820388
:1006C0000097A105B10539F1181619061A061B067F
:1006D000C4F58DE080932C03809190008F7D8093F2
:1006E0009000809171008B7F80937100749880914D
:1006F0009000806880939000809171008260809368
:100700007100BF91AF919F918F912F910F900FBE6C
:100710000F901F9018958DE080932C03809190008E
:100720008F75809390008EB1877E8EB98091710015
:10073000897F809371008091710082608093710045
:10074000E0CF8CE080932C03809190008F77809392
:100750009000809171008D7F8093710073988091DB
:1007600090008062809390008091710084608093FB
:100770007100C7CF1F920F920FB60F9211248F9363
:1007800081E080932D038CE080932C038F910F9058
:100790000FBE0F901F9018951F920F920FB60F92D9
:1007A00011248F9381E080932D038DE080932C039F
:1007B0008F910F900FBE0F901F901895DF93CF93DE
:1007C00000D000D0CDB7DEB7809110020E94141582
:1007D00082E30E948F15809110028F5F0E94611545
:1007E0000E94A11589830E94A1158A830E94A115E8
:1007F0008B830E94A1158C830E94A1158D830E947A
:10080000AB158E830E9487153A8120E0898190E0A4
:10081000822B932B9093C5038093C4033C8120E0EB
:100820008B8190E0822B932B9093C7038093C60318
:100830003E8120E08D8190E0822B932B9093C90321
:100840008093C80326960FB6F894DEBF0FBECDBFC7
:10085000CF91DF910895FF920F931F93DF93CF9372
:100860000F92CDB7DEB7809110020E94141582E37B
:100870000E948F15809110028F5F0E9461150E9467
:10088000A115082F0E94A115F82E0E94A115182F5E
:100890000E94AB1589830E9487155F2D40E0202FB1
:1008A00030E0242B352B3093C5032093C40389817A
:1008B000382F20E0812F90E0822B932B9093C70359
:1008C0008093C6030F90CF91DF911F910F91FF90FE
:1008D00008950E940C15809110020E94141588231F
:1008E000D9F00E9487152D98809110020E9414154E
:1008F000882301F10E9487152D98809110020E9493
:100900001415882329F58CE20E948F1589E00E9436
:100910008F150E94871508958DE20E948F1588E03B
:100920000E948F150E948715809110020E94141555
:10093000882301F781E30E948F1588E00E948F15BC
:100940000E948715809110020E9414158823D9F205
:100950000E9487152D9808954F925F927F928F92F3
:100960009F92AF92BF92CF92DF92EF92FF920F933E
:100970001F93DF93CF930F92CDB7DEB71092D103C1
:100980001092D0031092D3031092D2031092D50389
:100990001092D40322E3422E512C809110020E9427
:1009A000141582E30E948F15809110028F5F0E94C0
:1009B00061150E94A115882E0E94A115782E0E9413
:1009C000A115A82E0E94A115982E0E94A115B82E3F
:1009D0000E94AB1589830E948715D72CCC24E82D63
:1009E000F0E0EC29FD29F093C503E093C403F92C52
:1009F000EE242A2D30E02E293F293093C70320937F
:100A0000C6038981182F00E04B2D50E0402B512B5D
:100A10005093C9034093C8036091D0037091D103F0
:100A20006E0F7F1F7093D1036093D003E091D203C8
:100A3000F091D303E20FF31FF093D303E093D203BB
:100A40002091D4033091D503240F351F3093D50363
:100A50002093D4030894410851084114510409F02B
:100A60009CCF02E310E0CB01B8010E94021D7093FD
:100A7000D1036093D003CF01B8010E94021D70938F
:100A8000D3036093D203C901B8010E94021D709381
:100A9000D5036093D4030F90CF91DF911F910F91F5
:100AA000FF90EF90DF90CF90BF90AF909F908F908E
:100AB0007F905F904F900895CF92DF92EF92FF92D8
:100AC0000F931F93DF93CF930F92CDB7DEB7809133
:100AD00010020E94141582E30E948F15809110026B
:100AE0008F5F0E9461150E94A115182F0E94A11509
:100AF000082F0E94A115E82E0E94AB1589830E9441
:100B00008715302F20E0612F70E0622B732B20912E
:100B1000D0033091D103621B730B7093C5036093B4
:100B2000C4038981382F20E0CE2CDD24C22AD32AA9
:100B30008091D2039091D303C81AD90AD092C703E7
:100B4000C092C603882777FD8095982F0E94951A3A
:100B50007B018C01B601882777FD8095982F0E9434
:100B6000951A9B01AC01C801B7010E94DF1E21EE5E
:100B70003EE245E652E40E9496190E94F31A9B0158
:100B80007093D7036093D60377FF06C028593E4F72
:100B90003093D7032093D6030F90CF91DF911F910D
:100BA0000F91FF90EF90DF90CF900895F8940E94FE
:100BB000E814EAE7F0E0808186608083ACE7B0E08B
:100BC0008C9180648C93808180628083ABE7B0E0FD
:100BD0008C91887F8C9380818860808380818068FD
:100BE0008083808180648083E0E9F0E08081836895
:100BF0008083808183608083A1E9B0E08C918B60E9
:100C00008C9380917F0390918003909399008093BF
:100C1000980010929B0010929A00A1E7B0E08C918E
:100C200081608C9380818F7580838EB1877E8EB931
:100C3000E0EAF0E0808183688083A1EAB0E08C91F3
:100C40008B608C9380918303909184039093A9008F
:100C50008093A8001092AB001092AA00A2E7B0E027
:100C60008C9181608C9380818F758083E2E0F1E0CC
:100C70008081877E80830E94CA0D0E947D0E0E9423
:100C8000B5150E9469047894089581E09091BF039E
:100C9000891B8093BF03882339F480918000877F6C
:100CA000809380002F9808958091800088608093C1
:100CB00080008FEF90E090938D0080938C000895DA
:100CC000882359F09091800090689093800090E084
:100CD00090938900809388000895809180008F7799
:100CE000809380002D980895882359F0909180007A
:100CF00090629093800090E090938B0080938A00A4
:100D00000895809180008F7D809380002E980895B3
:100D1000882359F09091800098609093800090E033
:100D200090938D0080938C00089580918000877F40
:100D3000809380002F98089586B166B126B146B1A0
:100D400030E0287030703595279535952795359585
:100D50002795220F331F70E064707070759567954A
:100D600075956795260F371F220F331F50E042708D
:100D7000507055954795240F351F220F8170820FB3
:100D800008952F923F924F925F926F927F928F922F
:100D90009F92AF92BF92CF92DF92EF92FF920F930A
:100DA0001F93DF93CF93CDB7DEB72C970FB6F89490
:100DB000DEBF0FBECDBF81E080930F020E94D6053B
:100DC0002D980E94AC042D9A0E948D0F8AEA90E023
:100DD00060E27EE40E94A60F0E94A31124E6A22EE8
:100DE000B12C9DEC692E9EEF792E9FEF892E9FEFFF
:100DF000992E83E3282E81E0382E412C512C11E0CE
:100E00000E94F4118093C1039091C203992309F4C5
:100E10004BC01092C203843009F40BC1853008F036
:100E200060C4813009F451C6813008F03DC580911D
:100E3000C30390E0019665E070E00E94161D809368
:100E4000C303882309F06DC610920D029FEF9093A3
:100E50000C0290930B028091800080688093800048
:100E60002FEF30E0309389002093880080910C02AE
:100E7000882309F46BC69091800090629093800063
:100E800090E090938B0080938A0080910D028823DC
:100E900009F455C69091800098609093800090E08E
:100EA00090938D0080938C008091D803882309F063
:100EB000CCC20E94A20E882309F05FC166B146B180
:100EC00086B126B190E0887090709595879595953C
:100ED000879595958795880F991F50E044705070BD
:100EE0005595479555954795840F951F880F991FE0
:100EF00030E02270307035952795820F931F880F50
:100F00006170860F09F0D2C08091B103882309F483
:100F1000F3C08091870390918803A0918903B091D9
:100F20008A038093B4039093B503A093B603B09360
:100F3000B70380918B0390918C03A0918D03B091A6
:100F40008E038093B8039093B903A093BA03B09330
:100F5000BB031092B1031093BC0321E08091AF0357
:100F6000882391F0809175039091760360916D03D1
:100F700070916E030E94021D70937C0360937B034B
:100F80001093B2031092AF038091B003882391F0C5
:100F90008091790390917A0360917103709172034B
:100FA0000E94021D70937E0360937D031093B30330
:100FB0001092B003222309F423CF1092BC03209196
:100FC000B8033091B9034091BA035091BB03209309
:100FD0008303309384034093850350938603809169
:100FE000B4039091B503A091B603B091B703809379
:100FF0007F0390938003A0938103B0938203B7FD96
:10100000E3C3909399008093980057FDD5C3309324
:10101000A9002093A8000E94F4118093C10390912D
:10102000C203992309F440CF1092C203843009F01F
:10103000F5CE209187033091880340918903509128
:101040008A03225E3F4F4F4F5F4F209387033093B9
:1010500088034093890350938A0380918B03909176
:101060008C03A0918D03B0918E034E97A109B10915
:1010700080938B0390938C03A0938D03B0938E0386
:101080002736E2E03E07E0E04E07E0E05E070CF4C2
:10109000CCC426E632E040E050E020938703309352
:1010A00088034093890350938A03BFC466B146B155
:1010B00086B126B190E0887090709595879595954A
:1010C000879595958795880F991F50E044705070CB
:1010D0005595479555954795840F951F880F991FEE
:1010E00030E02270307035952795820F931F880F5E
:1010F0006170860F823019F02091BC032FCF809150
:10110000B1038823C9F38091B2038823A9F38091A6
:10111000B303882389F38091870390918803A0917A
:101120008903B0918A038093B4039093B503A0938D
:10113000B603B093B70380918B0390918C03A09179
:101140008D03B0918E038093B8039093B903A0935D
:10115000BA03B093BB031092B1031092B203109282
:10116000B3032D9888EB93E064EB73E00E94F911D0
:101170002D9A1093BC0321E0F1CE87E060E70E9436
:10118000E50E80EF93E00E94CD0E0E94C70E3091D5
:10119000F403232F2F772093BE039091F503892F1B
:1011A0008F778093BD0337FD3EC330E0220F331F9E
:1011B000220F331F309521953F4F442737FD40952F
:1011C000542F2093870330938803409389035093CF
:1011D0008A0397FD16C390E0880F991F880F991F07
:1011E000909581959F4FAA2797FDA095BA2F809340
:1011F0008B0390938C03A0938D03B0938E032433C1
:1012000061E0360760E0460760E0560764F0209230
:101210008703309288034092890350928A0323E324
:1012200031E040E050E08433E1E09E07E0E0AE07CB
:10123000E0E0BE0764F020928B0330928C03409272
:101240008D0350928E0383E391E0A0E0B0E02D3C4B
:10125000FEEF3F07FFEF4F07FFEF5F0744F4609299
:101260008703709288038092890390928A038D3C51
:101270002EEF92072FEFA2072FEFB20744F46092F0
:101280008B0370928C0380928D0390928E03209139
:10129000F00330E03093EB032093EA03E091F10395
:1012A000F0E0F093ED03E093EC038091F203E82E7D
:1012B000FF24F092EF03E092EE03922F8827821B27
:1012C000930BB5010E94021D262F209520930B023F
:1012D0009E2F88278E1B9F0BB5010E94021D6095D3
:1012E00060930D029E2D88278E199F09B5010E94DB
:1012F000021D609560930C02222309F47BC2809149
:10130000800080688093800030E0309389002093D3
:10131000880080910C02882309F465C290918000B6
:1013200090629093800090E090938B0080938A006D
:1013300080910D02882309F44FC29091800098603B
:101340009093800090E090938D0080938C0080912A
:101350003103909132039695879596958795809362
:10136000DA0380913503909136039695879596958B
:1013700087958093DB038091390390913A0396958A
:101380008795969587958093DC0380913D03909196
:101390003E0396958795969587958093DD0380917A
:1013A00041039091420396958795969587958093F2
:1013B000DE03809145039091460396958795969517
:1013C00087958093DF038091490390914A03969516
:1013D0008795969587958093E00380914D03909132
:1013E0004E0396958795969587958093E103809116
:1013F0005103909152039695879596958795809382
:10140000E2038091550390915603969587959695A2
:1014100087958093E3038091590390915A039695A1
:101420008795969587958093E40380915D039091CD
:101430005E0396958795969587958093E5038AED4B
:1014400093E060E10E945A0F39CD1092C0031092D0
:10145000D8038AEA0E94CA158AEA0E94CA15EE24B5
:10146000FF246701CC0CDD1C4FE253E0C40ED51EF7
:10147000D6018D919C910E94CA15F60180819181BF
:10148000892F0E94CA150894E11CF11CF8E1EF169F
:10149000F10439F7809169030E94CA1580916A03AB
:1014A0000E94CA15809167030E94CA158091680343
:1014B0000E94CA158091710390917203009709F4FC
:1014C00074C18091790390917A0360917103709156
:1014D00072030E94021D862F0E94CA158091790313
:1014E00090917A0360917103709172030E94021DC2
:1014F000872F0E94CA1580916D0390916E0300970B
:1015000009F44CC1809175039091760360916D034D
:1015100070916E030E94021D862F0E94CA15809151
:1015200075039091760360916D0370916E030E9434
:10153000021D872F0E94CA15809110020E94141567
:1015400082E30E948F15809110028F5F0E946115C7
:101550000E94A115D82E0E94A1158B870E94A1156B
:10156000F82E0E94A115E82E0E94A115082F0E94B6
:10157000AB15C82E0E9487159B859A8319822D2D45
:1015800030E049815A81242B352B3093C5032093B9
:10159000C403EC821B824F2D50E08B819C81482B31
:1015A000592B5093C7034093C603CE821D82802FD0
:1015B00090E0AD81BE818A2B9B2B9093C9038093D1
:1015C000C803822F0E94CA158091C5030E94CA15C4
:1015D0008091C6030E94CA158091C7030E94CA1554
:1015E0008091C8030E94CA158091C9030E94CA1540
:1015F0002E98809110020E94141582E30E948F158C
:10160000809110028F5F0E9461150E94A115F82E33
:101610000E94A115D82E0E94A115082F0E94AB157B
:10162000E82E0E948715D8861F826F2D70E0EF810B
:10163000F8856E2B7F2B2091D0033091D103621B54
:10164000730B7093C5036093C403EA861986202F39
:1016500030E049855A85242B352B8091D203909117
:10166000D303281B390B3093C7032093C603882765
:1016700077FD8095982F2B873C870E94951A6B01E8
:101680007C012B853C85B901882777FD8095982FB3
:101690000E94951A9B01AC01C701B6010E94DF1E92
:1016A00021EE3EE245E652E40E9496190E94F31AAA
:1016B0009B01AC01CB013093D7032093D60377FF76
:1016C00006C088599E4F9093D7038093D6032E9AD5
:1016D0008091D6030E94CA158091D7030E94CA1533
:1016E000E8CB873009F4C8C1883008F0AEC0853037
:1016F00009F4B1C1863009F0D7CB2091870330912E
:1017000088034091890350918A032E513040404014
:10171000504020938703309388034093890350936C
:101720008A0380918B0390918C03A0918D03B091DB
:101730008E034E96A11DB11D80938B0390938C0355
:10174000A0938D03B0938E032A39EDEF3E07EFEFA0
:101750004E07EFEF5E0764F42AE93DEF4FEF5FEFCE
:1017600020938703309388034093890350938A031F
:10177000873632E0930730E0A30730E0B3070CF47C
:1017800093CB86E692E0A0E0B0E080938B03909349
:101790008C03A0938D03B0938E0386CB8FEF0E94B2
:1017A000CA1583E00E94CA15C7CE8FEF0E94CA15E2
:1017B00083E00E94CA159FCE309521953F4F30930C
:1017C000AB002093AA001CCB909581959F4F9093DE
:1017D0009B0080939A0019CC80918000877F809332
:1017E00080002F98B4CD809180008F7D8093800001
:1017F0002E989ECD809180008F77809380002D98C9
:1018000088CD90E0880F991F880F991FAA2797FD10
:10181000A095BA2F80938B0390938C03A0938D0394
:10182000B0938E03ECCC30E0220F331F220F331F16
:10183000442737FD4095542F209387033093880326
:101840004093890350938A03C4CC883009F4A7C01D
:10185000893009F029CB80918B0390918C03A09162
:101860008D03B0918E034E97A109B10980938B032C
:1018700090938C03A0938D03B0938E038A39EDEF80
:101880009E07EFEFAE07EFEFBE070CF00DCB2AE996
:101890003DEF4FEF5FEF20938B0330938C0340932A
:1018A0008D0350938E0300CB823061F1833009F0B9
:1018B000FBCA80918B0390918C03A0918D03B09112
:1018C0008E034E96A11DB11D80938B0390938C03C4
:1018D000A0938D03B0938E038736E2E09E07E0E08D
:1018E000AE07E0E0BE070CF4DFCA26E632E040E0D7
:1018F00050E020938B0330938C0340938D035093DF
:101900008E03D2CA8091870390918803A0918903A6
:10191000B0918A0320918B0330918C0340918D0309
:1019200050918E03281739074A075B070CF4F6C05D
:10193000DA01C9010EE1C02ED12CE12CF12CC80E28
:10194000D91EEA1EFB1EC0928703D0928803E09244
:101950008903F0928A03DA01C9014E96A11DB11DD7
:1019600080938B0390938C03A0938D03B0938E038D
:1019700027E6C21622E0D20620E0E20620E0F206C8
:101980000CF4F6CE26E632E040E050E020938703E8
:10199000309388034093890350938A03E9CE2091C2
:1019A0008703309188034091890350918A03809185
:1019B000830390918403A0918503B0918603281737
:1019C00039074A075B0744F020918B0330918C0361
:1019D00040918D0350918E03DA01C9014E97A10900
:1019E000B1098093870390938803A0938903B093F0
:1019F0008A0380938B0390938C03A0938D03B09301
:101A00008E038A39EDEF9E07EFEFAE07EFEFBE07CB
:101A100064F42AE93DEF4FEF5FEF209387033093A3
:101A200088034093890350938A038A393DEF9307D3
:101A30003FEFA3073FEFB3070CF036CA8AE99DEFEB
:101A4000AFEFBFEF80938B0390938C03A0938D0334
:101A5000B0938E0329CA10928703109288031092C4
:101A6000890310928A0310928B0310928C031092B8
:101A70008D0310928E0318CA80918703909188037A
:101A8000A0918903B0918A034E97A109B10980936F
:101A9000870390938803A0938903B0938A038A39BC
:101AA0003DEF93073FEFA3073FEFB3070CF0FCC9EF
:101AB0008AE99DEFAFEFBFEF809387039093880390
:101AC000A0938903B0938A03EFC980918703909113
:101AD0008803A0918903B0918A034E96A11DB11D80
:101AE0008093870390938803A0938903B0938A031C
:101AF000873632E0930730E0A30730E0B3070CF4F9
:101B0000D3C986E692E0A0E0B0E08093870390938B
:101B10008803A0938903B0938A03C6C99C01AD01D1
:101B200009CF8130D1F0823001F1833061F1EFEFE4
:101B3000E0930D02E0930C02E0930B028CC98091BC
:101B40008000877F809380002F98AEC980918000AD
:101B50008F7D809380002E9898C9AFEFA0930D02DF
:101B600010920C02A0930B0276C9BFEFB0930D0246
:101B7000B0930C0210920B02809180008F778093BB
:101B800080002D9873C910920D0210920C021092D1
:101B90000B02F2CF84B1807F84B984B1876084B9AD
:101BA00080E58CBD8DB581608DBD0895442379F0AD
:101BB000A82FB92FE62FF72F80E09D919EBD0DB481
:101BC00007FEFDCF9EB591938F5F8417B0F3089504
:101BD000662359F0E82FF92F80E091919EBD0DB456
:101BE00007FEFDCF8F5F8617C0F308958EBD0DB43D
:101BF00007FEFDCF8EB508950F931F93DF93CF930C
:101C000000D0CDB7DEB7289880E20E94F60D8DE0B7
:101C10000E94F60D289A289883E20E94F60D81E032
:101C20000E94F60D289A8CE0898383E88A831B82C0
:101C3000289880E30E94F60D8E010F5F1F4FC801A8
:101C400063E00E94E80D289A28988AE20E94F60D27
:101C5000C80163E00E94E80D289A289881E20E945A
:101C6000F60D81E00E94F60D289A289882E20E94E3
:101C7000F60D81E00E94F60D289A289884E20E94D1
:101C8000F60D82E10E94F60D289A289885E20E94BE
:101C9000F60D88E20E94F60D289A289881E30E94AA
:101CA000F60D86E00E94F60D289A289880E50E949D
:101CB000F60D83E70E94F60D289A28988CE30E947F
:101CC000F60D81E00E94F60D289A28988DE30E9477
:101CD000F60D86E00E94F60D289A289880E20E9470
:101CE000F60D8FE00E94F60D289A0F900F900F903E
:101CF000CF91DF911F910F9108952C9A289A0E94FD
:101D0000FC0D0895CF93DF93EC012C9828988AE27C
:101D10000E94F60DCE0165E00E94E80D289A2C9AEB
:101D2000DF91CF910895CF93DF93EC01289880E362
:101D30000E94F60DCE0165E00E94E80D289ADF9121
:101D4000CF9108958091D903882311F080E0089500
:101D500028988FEF0E94F60D289A80740895DF93DB
:101D6000CF930F92CDB7DEB71982289887E10E94F2
:101D7000F60DBE016F5F7F4FCB0141E00E94D60D93
:101D8000289A898181700F90CF91DF9108952898CA
:101D900082EE0E94F60D289A0895CF93DF93EC010E
:101DA000289881E60E94F60DCE01BE0146E00E9411
:101DB000D60D289A289887E20E94F60D80E40E94AA
:101DC000F60D289ADF91CF910895DF93CF930F926C
:101DD000CDB7DEB728988F71806269830E94F60DB7
:101DE0006981862F0E94F60D289A0F90CF91DF917E
:101DF00008950F931F93DF93CF930F92CDB7DEB764
:101E00008B0128988F7149830E94F60DC801B80193
:101E100049810E94D60D289A0F90CF91DF911F9192
:101E20000F9108950F931F93DF93CF930F92CDB728
:101E3000DEB78B0128988F71806249830E94F60D6E
:101E4000C8014981642F0E94E80D289A0F90CF9114
:101E5000DF911F910F9108950F931F93DF93CF93FD
:101E60000F92CDB7DEB78C018091D9038823E1F7BB
:101E70002C9881E08093D903289880E269830E949E
:101E8000F60D8AE40E94F60D289A289881EE0E94A9
:101E9000F60D289A289880EA0E94F60DC8016981FB
:101EA0000E94E80D289A2C9A0F90CF91DF911F91F4
:101EB0000F910895EF92FF920F931F93DF93CF93AB
:101EC0000F92CDB7DEB7182F062F289881EE998391
:101ED0000E94F60D289A289888EA0E94F60D9981AA
:101EE000002361F0612F792F7B01F70181917F0140
:101EF0000E94F60D8E2D811B8017B8F3289A0F9043
:101F0000CF91DF911F910F91FF90EF900895289846
:101F100081EE0E94F60D289A0895E0EBF0E08081B2
:101F200082608083E1EBF0E080818260808384E6E0
:101F30008093B300E0E7F0E08081826080830895C1
:101F4000E1EBF0E080818D7F80830895EF92FF9236
:101F50000F931F93CF93DF93EC017B01009121033B
:101F6000109122030115110589F0F80185819681F0
:101F70008C179D0731F41FC0858196818C179D07B2
:101F8000D1F00780F085E02D3097B1F789E090E03F
:101F90000E949D1DFC010097B9F0F182E08213823E
:101FA000128281E08483D683C58310870783F093F0
:101FB0002203E093210381E090E0DF91CF911F9114
:101FC0000F91FF90EF90089581E090E00E94DB2058
:101FD000A0912103B09122031097A1F015962D91A5
:101FE0003C9116972817390739F41DC02581368191
:101FF0002817390759F0DF011796ED91FC911897D2
:102000003097A1F722E030E0C901089587819085DB
:1020100018969C938E931797CF010E94371E21E04C
:1020200030E0C901089517968D919C91189790936F
:10203000220380932103FD01EFCFE0912103F09172
:102040002203309731F410C00780F085E02D3097DF
:1020500059F02581368128173907B1F771836083DC
:1020600021E030E0C901089522E030E0C90108957F
:10207000E0912103F0912203309731F410C00780E2
:10208000F085E02D309759F02581368128173907E2
:10209000B1F71382128221E030E0C901089522E0F5
:1020A00030E0C9010895E0912103F09122033097B7
:1020B00031F40FC00780F085E02D309751F0258175
:1020C000368128173907B1F7148221E030E0C901C1
:1020D000089522E030E0C9010895E0912103F091D4
:1020E0002203309731F410C00780F085E02D30973F
:1020F00059F02581368128173907B1F781E08483AB
:1021000021E030E0C901089522E030E0C9010895DE
:102110001F920F920FB60F920BB60F9211242F93AE
:102120003F934F935F936F937F938F939F93AF935F
:10213000BF93CF93DF93EF93FF93C0912103D0918F
:102140002203209731F421C00F80D885C02D20971D
:10215000E1F08C818130C1F7288139812115310569
:1021600099F38A819B8101969B838A832150304019
:102170002817390748F7ED81FE8119951B821A82CD
:102180000F80D885C02D209721F7FF91EF91DF9127
:10219000CF91BF91AF919F918F917F916F915F91FF
:1021A0004F913F912F910F900BBE0F900FBE0F904C
:1021B0001F901895CF93DF93C0910102D091020236
:1021C0008FEFCF3FD80709F44FC0C130D10509F4D4
:1021D0009BC0CE0102978530910520F580910301C7
:1021E00090E0807490700024880F991F001C880F65
:1021F000991F001C892F902D26E030E02C1B3D0BF1
:1022000002C0880F991F2A95E2F720912703280F13
:10221000209327032196D0930202C0930102DF91FD
:10222000CF910895CE01079786309105B0F5809142
:10223000030190E0807490700024880F991F001CA7
:10224000880F991F001C892F902D2CE030E02C1B4B
:102250003D0B02C0880F991F2A95E2F720912603B3
:10226000280F20932603D6CF8091030186FF3DC01F
:102270008091680082608093680080916C00806823
:1022800080936C008AED90E10E94E80FD0930202E7
:10229000C0930102DF91CF910895CD30D10509F0AF
:1022A000B9CF8091680082608093680080916C0053
:1022B000806880936C008AED90E10E94E80F8FEFB8
:1022C0009FEF9093020280930102809128038093F4
:1022D000000280912703809323038091260380933B
:1022E000240381E08093C2039ACF8AED90E166E0F7
:1022F00070E00E941D101092260310922703109286
:102300002803C1E0D0E087CF8091030190E0807482
:102310009070082E892F000C881F990B000C881FC5
:10232000991F809328038AED90E162E170E00E949A
:102330001D10C0910102D09102028FEFCF3FD8074C
:1023400009F068CF6CCFE8E6F0E08081826080839E
:10235000ECE6F0E080818068808308951F920F9200
:102360000FB60F920BB60F9211242F933F934F93FA
:102370005F936F937F938F939F93AF93BF93EF93ED
:10238000FF938091030186FD16C0809168008D7FC8
:102390008093680080916C008F7780936C008AED49
:1023A00090E164E170E00E94A60F10922603109263
:1023B000270310922803FF91EF91BF91AF919F9156
:1023C0008F917F916F915F914F913F912F910F90DE
:1023D0000BBE0F900FBE0F901F90189580910002BA
:1023E000089580912303089580912403089508950A
:1023F00008952F923F924F925F926F927F928F92A9
:102400009F92AF92BF92CF92DF92EF92FF920F9383
:102410001F93DF93CF93CDB7DEB72C970FB6F89409
:10242000DEBF0FBECDBF9C878B8779876887FC0195
:102430002080318042805380FB01A080B180C28027
:10244000D380211431044104510431F4A114B104A6
:10245000C104D10409F4BDC16090FE037090FF0374
:102460008090000490900104609202047092030432
:102470008092040490920504D7FC35C280917D03BC
:1024800090917E03A0E0B0E086017501E81AF90A98
:102490000A0B1B0BE0929B03F0929C0300939D039D
:1024A00010939E03E092FE03F092FF03009300045A
:1024B000109301046091A3037091A4038091A5037C
:1024C0009091A6036E0D7F1D801F911F6093A30343
:1024D0007093A4038093A5039093A6036138FCE056
:1024E0007F07F0E08F07F0E09F070CF08BC16038AA
:1024F000E3EF7E07EFEF8E07EFEF9E070CF42CC2A1
:102500000E94951A9B01AC010E9469196D837E831C
:102510008F839A87C801B7010E94951A20E030E0A6
:1025200048EC52E40E94961969837A838B839C83DA
:10253000C801B70166197709880999090E94951A97
:1025400020E030E040E251E40E9496199B01AC018A
:1025500069817A818B819C810E946919BD81AE81DC
:10256000EF806A842B2F3A2F4E2D562D0E94691929
:102570000E94F31A7B018C016093AB037093AC0350
:102580008093AD039093AE03C601B50128E730E018
:1025900040E050E00E94E31C6E0D7F1D801F911FE4
:1025A00060938F03709390038093910390939203B1
:1025B00097FD76C116161706180619060CF07DC190
:1025C000D7FCFDC1613CEDE57E07E0E08E07E0E071
:1025D0009E070CF472C180EC9DE5A0E0B0E0809312
:1025E0008F0390939003A0939103B0939203A090D4
:1025F000F603B090F703C090F803D090F903A092CF
:10260000FA03B092FB03C092FC03D092FD0357FC87
:102610007DC180917B0390917C03A0E0B0E08201BA
:102620007101E81AF90A0A0B1B0BE0929703F0926A
:1026300098030093990310939A03E092F603F092A3
:10264000F7030093F8031093F90360919F037091CF
:10265000A0038091A1039091A2036E0D7F1D801FA6
:10266000911F60939F037093A0038093A1039093A5
:10267000A20361382CE0720720E0820720E0920775
:102680000CF4D3C080E89CE0A0E0B0E080939F030E
:102690009093A003A093A103B093A20319821D827B
:1026A00088EC8E83E5E4EF83C801B7010E94951A98
:1026B00020E030E048EC52E40E9496193B014C01C6
:1026C000C801B7016A197B098C099D090E94951AF6
:1026D00020E030E040E251E40E9496199B01AC01F9
:1026E000C401B3010E946919B981AD81EE80AF8048
:1026F0002B2F3A2F4E2D5A2D0E9469190E94F31A42
:102700007B018C016093A7037093A8038093A903B6
:102710009093AA03C201B10128E730E040E050E005
:102720000E94E31C6E0D7F1D801F911F6093930319
:1027300070939403809395039093960397FD89C0BB
:1027400016161706180619060CF090C057FC17C18C
:10275000613CEDE57E07E0E08E07E0E09E070CF4CB
:1027600085C080EC9DE5A0E0B0E08093930390935A
:102770009403A0939503B093960364EB70E080E01C
:1027800090E0EB85FC856083718382839383609105
:102790008F0370919003809191039091920326E6AC
:1027A00032E040E050E00E94E31C20E039E04DE3DD
:1027B00050E00E94291DCA01B9012CE330E040E03D
:1027C00050E00E94E31CE885F98560837183828371
:1027D00093832C960FB6F894DEBF0FBECDBFCF917A
:1027E000DF911F910F91FF90EF90DF90CF90BF90FE
:1027F000AF909F908F907F906F905F904F903F90A1
:102800002F90089580E89CE0A0E0B0E08093A303BF
:102810009093A403A093A503B093A6031D821E82E8
:1028200028EC2F8385E48A8775CE6038F3EF7F0725
:10283000FFEF8F07FFEF9F070CF47BC00E94951AF4
:102840009B01AC010E94691969837D838E839F83FC
:102850002BCF57FC0BC0109293031092940310924D
:1028600095031092960360E070E0CB016034F2EAC9
:102870007F07FFEF8F07FFEF9F070CF08BC080E40F
:1028800092EAAFEFBFEF8093930390939403A093EA
:102890009503B09396036CE47FEF8FEF9FEF71CFBA
:1028A000D7FC0BC010928F031092900310929103EB
:1028B0001092920360E070E0CB016034F2EA7F078F
:1028C000FFEF8F07FFEF9F070CF091CE80E492EAB5
:1028D000AFEFBFEF80938F0390939003A09391038A
:1028E000B093920384CEE0907D03F0907E0300E0ED
:1028F00010E0EA0CFB1C0C1D1D1DE0929B03F092E6
:102900009C0300939D0310939E03CCCDE0907B032A
:10291000F0907C0300E010E0E20CF31C041D151D98
:10292000E0929703F09298030093990310939A030F
:1029300084CE80E893EFAFEFBFEF80939F03909337
:10294000A003A093A103B093A20319821D8228ECD7
:102950002E8385EC8F83A8CE80E893EFAFEFBFEF97
:102960008093A3039093A403A093A503B093A6031D
:102970001D821E82F8ECFF8325EC2A87CBCD1092B6
:10298000930310929403109295031092960360E0C3
:1029900070E0CB0126E632E040E050E00E94E31C0C
:1029A00020E039E04DE350E00E94291DCA01B90141
:1029B0002CE330E040E050E00E94E31CE2CE1092B5
:1029C0008F031092900310929103109292030FCEF6
:1029D0008FEF81B912B897EF94B990EE95B990EF57
:1029E00097B990EB98B99CEF9AB993E09BB98DB9E0
:1029F0001EB810BA83BB14BA809301011092020171
:102A00009FE89093040110920501109207018093B2
:102A10000A0110920B010895589A599A1092B90020
:102A200080E28093B800089594EA9093BC0090915E
:102A3000BC0097FFFCCF9091B900987F983021F0AF
:102A4000903111F081E008958093BB0084E8809379
:102A5000BC008091BC0087FFFCCF9091B900987FAB
:102A6000983121F081E0903419F0089580E00895C4
:102A700080E0089524EA34E844E92093BC00909172
:102A8000BC0097FFFCCF9091B900987F983011F06F
:102A9000903199F78093BB003093BC009091BC00BB
:102AA00097FFFCCF9091B900987F903219F098353C
:102AB00009F008954093BC009091BC0094FDFCCFB8
:102AC000DCCF94EA9093BC009091BC0097FFFCCFC0
:102AD0009091B900987F983021F0903111F081E009
:102AE00008958093BB0084E88093BC008091BC0073
:102AF00087FFFCCF9091B900987F983121F081E059
:102B0000903419F0089580E0089580E0089584E9F4
:102B10008093BC008091BC0084FDFCCF089580931D
:102B2000BB0084E88093BC008091BC0087FFFCCF91
:102B30009091B900987F81E0983209F0089580E083
:102B4000089584EC8093BC008091BC0087FFFCCF8B
:102B50008091BB00089584E88093BC008091BC0004
:102B600087FFFCCF8091BB0008951092C50080E1E3
:102B70008093C400E0ECF0E0808182608083E1EC2F
:102B8000F0E0808188698083E2ECF0E080818660FB
:102B9000808308959091C00095FFFCCF8093C6007C
:102BA00008951F920F920FB60F9211242F938F93B7
:102BB0009F93AF93BF938091C60090910F0299238A
:102BC000C9F0823309F456C0833358F5803309F4D1
:102BD00079C0813329F481E080930E0210920F02B4
:102BE000BF91AF919F918F912F910F900FBE0F903A
:102BF0001F90189590910E02923009F441C09330C5
:102C000008F1943009F489C0943008F46CC0953010
:102C100039F7833729F71092C00381E080930F02C0
:102C2000DFCF843309F459C0843308F450C08533AE
:102C3000B9F685E080930E0210920F0281E0809336
:102C4000C003CECF992391F58D3209F405C18B32A3
:102C500021F780910B0290E00A9797FD9CC1809329
:102C60000B02882309F499C190E090938900809326
:102C70008800B6CF82E080930E0210920F02B0CF90
:102C80008D3209F42FC18B3241F680910D0290E014
:102C90000A9797FD92C180930D02882309F48FC192
:102CA00090E090938D0080938C009ACF913009F042
:102CB00097CF8D3209F4B9C08B3209F447C0909395
:102CC0000F028ECF10920E0210920F0289CF83E076
:102CD00080930E0210920F0283CF84E080930E0245
:102CE00010920F027DCF8B3209F413C18D3209F49B
:102CF0006DC0833709F091CF10927F03109280034B
:102D00001092810310928203109299001092980001
:102D100010929B0010929A0063CF8B3209F4B3C0DB
:102D20008D3229F1833709F078CF10928303109206
:102D3000840310928503109286031092A9001092CA
:102D4000A8001092AB001092AA004ACF80910C020A
:102D500090E00A9797FD28C180930C02882309F41C
:102D600025C190E090938B0080938A0039CF8091A9
:102D7000830390918403A0918503B09186034E97BD
:102D8000A109B1098093830390938403A0938503E1
:102D9000B09386038A392DEF92072FEFA2072FEF0A
:102DA000B2070CF013C18AE99DEFAFEFBFEF80933C
:102DB000830390938403A0938503B093860386E6F0
:102DC00092E09093AB008093AA000ACF80917F039A
:102DD00090918003A0918103B09182034E97A10945
:102DE000B10980937F0390938003A0938103B093F4
:102DF00082038A392DEF92072FEFA2072FEFB20738
:102E00000CF0EAC08AE99DEFAFEFBFEF80937F033C
:102E100090938003A0938103B093820386E692E0AF
:102E200090939B0080939A00DBCE8091800080621B
:102E30008093800080910C0290E00A968F3F91056C
:102E400019F014F08FEF90E080930C0290E09093D3
:102E50008B0080938A00C4CE80918000806880932C
:102E6000800080910B0290E00A968F3F910519F047
:102E700014F08FEF90E080930B0290E09093890024
:102E800080938800ADCE8091830390918403A091BC
:102E90008503B09186034E96A11DB11D80938303D7
:102EA00090938403A0938503B0938603873622E032
:102EB000920720E0A20720E0B2070CF458C086E693
:102EC00092E0A0E0B0E08093830390938403A0930A
:102ED0008503B093860386E692E09093A9008093E1
:102EE000A8007ECE809180008860809380008091D1
:102EF0000D0290E00A968F3F910519F014F08FEFC4
:102F000090E080930D0290E090938D0080938C0070
:102F100067CE80917F0390918003A0918103B0914F
:102F200082034E96A11DB11D80937F039093800371
:102F3000A0938103B0938203873622E0920720E0BA
:102F4000A20720E0B207ECF086E692E0A0E0B0E055
:102F500080937F0390938003A0938103B0938203B7
:102F600086E692E0909399008093980039CEB7FF5F
:102F7000B4CF909581959F4F9093AB008093AA001A
:102F80002FCEB7FFEFCF909581959F4F90939B00E9
:102F900080939A0025CE10920B02809180008F774B
:102FA000809380002D981CCE10920C02809180009E
:102FB0008F7D809380002E9813CE10920D02809109
:102FC0008000877F809380002F980ACEB7FF85CF3F
:102FD000909581959F4FF5CEB7FFC4CF9095819581
:102FE0009F4F1ECFA0E0B0E0E8EFF7E10C94681D22
:102FF0002C015B01FA01DC019C91923008F432C192
:10300000EB018881823008F42CC1943071F4843053
:1030100009F028C1F20191818981981709F422C130
:1030200011E1412E12E0512E1DC1843009F419C165
:103030008230A9F4923009F015C1CA01A20128E03A
:10304000DA010D90AD01EC010992CE012150C1F7DA
:10305000E5018981E20199818923818300C1923050
:1030600009F4FFC0E201CA80DB80EB018A819B8109
:10307000E2012C813D814E815F81EB01EC80FD807E
:103080000E811F81B601681B790BDB0177FF03C03E
:10309000709561957F4F603271050CF05DC01A1616
:1030A0001B065CF566247724430181E090E0A0E0F4
:1030B000B0E0062E04C0880F991FAA1FBB1F0A94F8
:1030C000D2F70197A109B1098E219F21A023B12335
:1030D0000097A105B10529F0B1E06B2E712C812C70
:1030E000912C04C016950795F794E7946A95D2F74A
:1030F000E628F728082919293BC0AB2BC9F1C60ED1
:10310000D71E66247724430181E090E0A0E0B0E080
:10311000062E04C0880F991FAA1FBB1F0A94D2F75E
:103120000197A109B10982239323A423B523009712
:10313000A105B10529F0A1E06A2E712C812C912CFA
:1031400004C056954795379527956A95D2F7262955
:103150003729482959290CC08C159D0534F06C017C
:1031600020E030E040E050E003C0EE24FF2487017F
:10317000E2019981E5018981981709F443C09923F7
:1031800039F0E21AF30A040B150BA801970104C0E9
:103190002E193F09400B510B57FD08C01182D382F5
:1031A000C28224833583468357831DC081E0818397
:1031B000D382C28288279927DC01821B930BA40B40
:1031C000B50B84839583A683B7830DC0220F331F6D
:1031D000441F551F248335834683578382819381FF
:1031E0000197938382832481358146815781DA0157
:1031F000C9010197A109B1098F5F9F4FAF4FBF432D
:1032000028F30BC09183D382C2822E0D3F1D401F35
:10321000511F248335834683578383E08083248131
:103220003581468157815523D4F4C901AA2797FDDA
:10323000A095BA2F81709070A070B0705695479588
:1032400037952795822B932BA42BB52B84839583BD
:10325000A683B783828193810196938382832F0112
:1032600001C02501C201E0E1CDB7DEB70C94841D99
:10327000A0E2B0E0EEE3F9E10C94721D69837A8379
:103280008B839C832D833E834F83588709E0E02EF8
:10329000F12CEC0EFD1EB701CE0101960E94731CAD
:1032A0008E010F5E1F4FB801CE0105960E94731C60
:1032B0008A8991E089278A8BAE01475E5F4FB8010A
:1032C000C7010E94F2170E94931BE6E0A0960C949F
:1032D0008E1DA0E2B0E0EFE6F9E10C94721D698367
:1032E0007A838B839C832D833E834F83588789E029
:1032F000E82EF12CEC0EFD1EB701CE0101960E94C6
:10330000731C8E010F5E1F4FB801CE0105960E94FF
:10331000731CAE01475E5F4FB801C7010E94F217F0
:103320000E94931BE6E0A0960C948E1DA0E2B0E0F4
:10333000ECE9F9E10C94681D69837A838B839C83A3
:103340002D833E834F83588799E0E92EF12CEC0EB4
:10335000FD1EB701CE0101960E94731C8E010F5E07
:103360001F4FB801CE0105960E94731C99859230BB
:1033700088F089898230C0F0943019F4823029F0C5
:1033800009C0843029F4923079F461E172E0C6C05A
:10339000923041F420E09A858A89981321E02A87A7
:1033A000B701BCC0823041F420E09A858A89981325
:1033B00021E02A8BB801B2C0CD84DE84EF84F88886
:1033C0000D891E892F89388D88249924540140E065
:1033D00050E060E070E0442455243201E0E0F0E089
:1033E000C60181709070892BD9F0800E911EA21EAB
:1033F000B31EDB01CA01840D951DA61DB71D40E05B
:1034000050E060E070E080169106A206B30620F45A
:1034100041E050E060E070E0480F591F6A1F7B1FD9
:10342000440C551C661C771C37FF08C081E090E0F7
:10343000A0E0B0E0482A592A6A2A7B2A3196E03275
:10344000F10549F0000F111F221F331FF694E79476
:10345000D794C794C5CF8B899C892B853C85820FD7
:10346000931F02969C8F8B8F1A8E9A858A89981744
:1034700011F081E08A8F2B8D3C8D17C0CA018170BD
:103480009070892B61F0B694A7949794879480E00C
:1034900090E0A0E0B0E8882A992AAA2ABB2A76956B
:1034A0006795579547952F5F3F4F77FDE7CFC90148
:1034B0000BC0440F551F661F771FB7FC4160880C77
:1034C000991CAA1CBB1C01974030A0E05A07A0E041
:1034D0006A07A0E47A0768F39C8F8B8FDB01CA012F
:1034E0008F779070A070B07080349105A105B10500
:1034F00061F447FD0AC081149104A104B10429F0CC
:10350000405C5F4F6F4F7F4F40784D8F5E8F6F8F66
:1035100078A383E0898FBE01675E7F4FCB010E9455
:10352000931BE0E1A0960C94841DA8E0B0E0EBE9C9
:10353000FAE10C946F1D9B01AC0183E08983DA01F1
:10354000C9018827B7FD83959927AA27BB27B82EDD
:10355000211531054105510519F482E089833AC0EE
:103560008823A9F0203080E0380780E0480780E811
:10357000580729F460E070E080E09FEC30C0EE2452
:10358000FF248701E21AF30A040B150B02C079012C
:103590008A018EE1C82ED12CDC82CB82ED82FE82A4
:1035A0000F831887C801B7010E94461B01971816A0
:1035B000190684F4082E04C0EE0CFF1C001F111F16
:1035C0000A94D2F7ED82FE820F831887C81AD90AAF
:1035D000DC82CB82BA82CE0101960E94931BE9E085
:1035E00028960C948B1DACE0B0E0E9EFFAE10C9466
:1035F000761D69837A838B839C83BE016B5F7F4FCB
:10360000CE0101960E94731C8D818230A9F1823017
:1036100098F1843021F48E81882359F40FC02F81D2
:10362000388537FD29C06E812F31310564F066235E
:1036300029F020E030E040E050E822C02FEF3FEFDB
:103640004FEF5FE71DC08EE190E0821B930B298551
:103650003A854B855C8504C05695479537952795E7
:103660008A95D2F7662361F0509540953095219563
:103670003F4F4F4F5F4F04C020E030E040E050E04C
:10368000CA01B901E2E02C960C94921DEF92FF92D0
:103690000F931F939B01AC01203080E0380781E03D
:1036A000480780E0580780F42F3F31054105510558
:1036B00009F020F4EE24FF24870119C068E0E62E0B
:1036C000F12C012D112D13C0203080E0380780E04F
:1036D000480781E0580730F490E1E92EF12C012DE4
:1036E000112D05C088E1E82EF12C012D112D80E26D
:1036F00090E0A0E0B0E08E199F09A00BB10B04C0D0
:103700005695479537952795EA94D2F7F901E75EE4
:10371000FD4F2081821B9109A109B1091F910F91D1
:10372000FF90EF9008959F92AF92BF92CF92DF9259
:10373000EF92FF920F931F93EE24FF248701FC0169
:10374000248135814681578191808081823010F4B7
:103750004061A2C0843009F49BC0823029F420E08B
:1037600030E040E050E005C021153105410551052C
:1037700019F4E0E0F0E092C0828193816FEF82382B
:1037800096070CF05AC062E87FEF681B790B6A312C
:1037900071052CF020E030E040E050E02AC0AA247F
:1037A000BB24650181E090E0A0E0B0E0062E04C0FB
:1037B000880F991FAA1FBB1F0A94D2F70197A1096E
:1037C000B10982239323A423B5230097A105B10552
:1037D00029F071E0A72EB12CC12CD12C04C0569534
:1037E0004795379527956A95D2F72A293B294C2981
:1037F0005D29DA01C9018F779070A070B0708034B4
:103800009105A105B10539F427FF09C0205C3F4FA0
:103810004F4F5F4F04C0215C3F4F4F4F5F4F80E0E1
:1038200090E0203060E0360760E0460760E456072D
:1038300010F081E090E0FC0123C08038910544F550
:10384000FC01E158FF4FDA01C9018F779070A07039
:10385000B07080349105A105B10539F427FF09C086
:10386000205C3F4F4F4F5F4F04C0215C3F4F4F4F95
:103870005F4F57FF05C05695479537952795319669
:1038800087E056954795379527958A95D1F706C0D5
:1038900020E030E040E050E0EFEFF0E0E22EF32EE9
:1038A000942F9F77802F8078892B9E2F979599272B
:1038B00097958F77082F092B9E2F9695812F8078CB
:1038C000892B9794992497948F77182F1929C801D9
:1038D000B7011F910F91FF90EF90DF90CF90BF90B5
:1038E000AF909F900895CF93DF93FC01DB0120817F
:1038F00031819281492F4F7750E0991F9927991F65
:103900008381E82FEE0FE92B6E2F70E0881F882748
:10391000881FED018983EE2371F5211531054105DD
:10392000510511F482E02FC06E577040FD01738382
:10393000628367E0220F331F441F551F6A95D1F73A
:1039400083E08C930AC0220F331F441F551FED01E3
:103950008A819B8101979B838A832030E0E03E0728
:10396000E0E04E07E0E45E0770F3ED012C833D8359
:103970004E835F8325C0EF3F79F421153105410562
:10398000510519F484E08C931BC044FF03C081E00F
:103990008C9311C01C920FC06F577040ED017B8358
:1039A0006A8383E08C9387E0220F331F441F551FE7
:1039B0008A95D1F75064FD0124833583468357836C
:1039C000DF91CF910895629FD001739FF001829F94
:1039D000E00DF11D649FE00DF11D929FF00D839F9E
:1039E000F00D749FF00D659FF00D9927729FB00D3B
:1039F000E11DF91F639FB00DE11DF91FBD01CF014E
:103A000011240895AA1BBB1B51E107C0AA1FBB1FAD
:103A1000A617B70710F0A61BB70B881F991F5A955A
:103A2000A9F780959095BC01CD01089597FB092ECB
:103A300007260AD077FD04D0E5DF06D000201AF46F
:103A4000709561957F4F0895F6F7909581959F4FFA
:103A5000089597FB092E05260ED057FD04D014D0EB
:103A60000AD0001C38F450954095309521953F4F71
:103A70004F4F5F4F0895F6F790958095709561953B
:103A80007F4F8F4F9F4F0895A1E21A2EAA1BBB1B99
:103A9000FD010DC0AA1FBB1FEE1FFF1FA217B3071A
:103AA000E407F50720F0A21BB30BE40BF50B661F30
:103AB000771F881F991F1A9469F7609570958095F4
:103AC00090959B01AC01BD01CF0108952F923F92CB
:103AD0004F925F926F927F928F929F92AF92BF921E
:103AE000CF92DF92EF92FF920F931F93CF93DF93CA
:103AF000CDB7DEB7CA1BDB0B0FB6F894DEBF0FBE27
:103B0000CDBF19942A88398848885F846E847D8463
:103B10008C849B84AA84B984C884DF80EE80FD8075
:103B20000C811B81AA81B981CE0FD11D0FB6F894EB
:103B3000DEBF0FBECDBFED010895CF93DF9382307E
:103B4000910510F482E090E0E0910804F0910904FE
:103B500040E050E020E030E026C0608171816817CD
:103B60007907E0F06817790781F482819381211544
:103B7000310531F0D90113969C938E9312972BC087
:103B8000909309048093080426C04115510519F04B
:103B90006417750718F4AB01E901DF019F01728119
:103BA0006381E72FF62F3097C1F64115510501F1DA
:103BB000481B590B4430510580F412968D919C910D
:103BC0001397209719F09B838A8304C0909309046C
:103BD00080930804FD01329646C0FD01E40FF51FF5
:103BE000819391934250504011965C934E933BC009
:103BF00020910604309107042115310541F42091EC
:103C00001B0330911C03309307042093060420917A
:103C10001D0330911E032115310541F42DB73EB728
:103C20004091190350911A03241B350BE0910604AF
:103C3000F0910704E217F307A0F42E1B3F0B28179F
:103C4000390778F0AC014E5F5F4F2417350748F015
:103C50004E0F5F1F50930704409306048193919386
:103C600002C0E0E0F0E0CF01DF91CF910895CF9363
:103C7000DF93009709F491C0FC01329713821282FE
:103C800060910804709109046115710581F4208127
:103C90003181280F391F8091060490910704821703
:103CA000930799F5F0930704E093060476C0DB01CF
:103CB00080E090E002C0CD01D901AE17BF0748F403
:103CC00012962D913C91139721153105A1F7CD0145
:103CD00021C0B383A283EF01499159919E01240F22
:103CE000351FA217B30779F42D913C911197240F3A
:103CF000351F2E5F3F4F3183208312962D913C91CB
:103D0000139733832283009729F4F0930904E093F7
:103D1000080443C0DC011396FC93EE9312974D9177
:103D20005D91A40FB51FEA17FB0769F4208131816B
:103D3000240F351F2E5F3F4FEC01398328832281EA
:103D400033813B832A83E0E0F0E002C0FB01BC0149
:103D5000DB0112968D919C9113970097B9F79B0107
:103D60002E5F3F4F8D919C911197820F931F409131
:103D70000604509107044817590779F4309729F43D
:103D8000109209041092080402C013821282225079
:103D900030403093070420930604DF91CF910895BB
:103DA000F5D058F080E891E009F49EEFF6D028F0C5
:103DB00040E851E059F45EEF09C0C0C028C1E92FC6
:103DC000E07803D168F3092E052AC1F326173707D7
:103DD0004807590738F00E2E07F8E02569F0E0256E
:103DE000E0640AC0EF6307F8009407FADB01B90149
:103DF0009D01DC01CA01AD01EF9341D0D5D00AD0BD
:103E00005F91552331F02BED3FE049E450FD49EC43
:103E100060CA0895DF93DD27B92FBF7740E85FE3DD
:103E20001616170648075B0710F4D92FF7D09F9393
:103E30008F937F936F935AD1E4EEF0E082D0B4D0A9
:103E40002F913F914F915F91FAD0DD2349F0905827
:103E5000A2EA2AED3FE049EC5FE3D0785D2756D136
:103E6000DF91A2C09AD040F091D030F021F45F3FB2
:103E700019F05EC05111CCC061C0A7D098F399234E
:103E8000C9F35523B1F3951B550BBB27AA2762171E
:103E90007307840738F09F5F5F4F220F331F441F63
:103EA000AA1FA9F333D00E2E3AF0E0E830D091509B
:103EB0005040E695001CCAF729D0FE2F27D0660F88
:103EC000771F881FBB1F261737074807AB07B0E8C7
:103ED00009F0BB0B802DBF01FF2793585F4F2AF0DD
:103EE0009E3F510568F024C093C05F3FECF3983EBD
:103EF000DCF3869577956795B795F7959F5FC9F73A
:103F0000880F911D9695879597F90895E1E0660FC2
:103F1000771F881FBB1F621773078407BA0720F03B
:103F2000621B730B840BBA0BEE1F88F7E0950895A4
:103F300097F99F6780E870E060E008959FEF80EC5C
:103F40000895DF93CF931F930F93FF92EF92DF9229
:103F50007B018C01689405C0DA2EEF0170D0FE0160
:103F6000E894A5912591359145915591AEF3EF01D6
:103F7000CDD0FE019701A801DA9479F7DF90EF9098
:103F8000FF900F911F91CF91DF91089500240A9423
:103F90001616170618060906089500240A94121624
:103FA0001306140605060895092E0394000C11F457
:103FB000882352F0BB0F40F4BF2B11F460FF04C004
:103FC0006F5F7F4F8F4F9F4F089557FD9058440F5D
:103FD000551F59F05F3F71F04795880F97FB991F68
:103FE00061F09F3F79F08795089512161306140625
:103FF000551FF2CF4695F1DF08C0161617061806B2
:10400000991FF1CF86957105610508940895E8948C
:10401000BB2766277727CB0197F908959B01AC0151
:1040200060E070E080E89FE3C4C0B0DF28F0B5DF57
:1040300018F0952309F07CCF81CF1124E9CFC5DF9B
:10404000A0F3959FD1F3950F50E0551F629FF001AB
:10405000729FBB27F00DB11D639FAA27F00DB11D04
:10406000AA1F649F6627B00DA11D661F829F22278D
:10407000B00DA11D621F739FB00DA11D621F839F14
:10408000A00D611D221F749F3327A00D611D231FEA
:10409000849F600D211D822F762F6A2F11249F5738
:1040A00050408AF0E1F088234AF0EE0FFF1FBB1F5B
:1040B000661F771F881F91505040A9F79E3F5105FA
:1040C00070F036CFA5CF5F3FECF3983EDCF38695DA
:1040D00077956795B795F795E7959F5FC1F7FE2BA5
:1040E000880F911D9695879597F908959B01AC01CE
:1040F0001DC94CDF30F051DF20F031F49F3F11F447
:104100001EF41CCF0EF4E095E7FB12CFE92F5DDF24
:1041100080F3BA17620773078407950718F071F4E4
:104120009EF575CF0EF4E0950B2EBA2FA02D0B0146
:10413000B90190010C01CA01A0011124FF27591BEC
:1041400099F0593F50F4503E68F11A16F040A22FF2
:10415000232F342F4427585FF3CF46953795279563
:10416000A795F0405395C9F77EF41F16BA0B620B62
:10417000730B840BBAF09150A1F0FF0FBB1F661FA9
:10418000771F881FC2F70EC0BA0F621F731F841FEC
:1041900048F4879577956795B795F7959E3F08F012
:1041A000B3CF9395880F08F09927EE0F97958795D1
:0841B000089563DEF9CEFFCF94
:1041B80002FFFF6602000066020000FFFFFF050124
:1041C800A600000000000000000001020203030333
:1041D8000304040404040404040505050505050591
:1041E8000505050505050505050606060606060670
:1041F8000606060606060606060606060606060657
:10420800060606060606060606070707070707073F
:104218000707070707070707070707070707070726
:104228000707070707070707070707070707070716
:104238000707070707070707070707070707070706
:1042480007070707070707070708080808080808EF
:1042580008080808080808080808080808080808D6
:1042680008080808080808080808080808080808C6
:1042780008080808080808080808080808080808B6
:1042880008080808080808080808080808080808A6
:104298000808080808080808080808080808080896
:1042A8000808080808080808080808080808080886
:1042B8000808080808080808080808080808080876
:1042C80008080808080808080820000A0400000070
:00000001FF
