:100000000C9489000C94A8000C94A8000C94A800EF
:100010000C94A8000C94A8000C94A8000C94A800C0
:100020000C94A8000C94A8000C94E3100C94A80065
:100030000C94A8000C94FC110C94A8000C94A8003B
:100040000C94A8000C94A8000C94A8000C94A80090
:100050000C94A8000C94A8000C94A8000C94A80080
:100060000C94A8000C94CB160C94A8000C94A80037
:100070000C94A8000C94C6000C94A8000C94A80042
:100080000C946A030C947E030C94A8000C94110346
:100090000C94A8000C94A8000C94A8000C94A80040
:1000A0000C94A8000C94A8000C94E9020C94FD0296
:1000B0000C94A8000C9492020C94A8000C94A80034
:1000C0000C94A8000C94A8000C94A8000C94A80010
:1000D0000C94A8000C94A8000C94A8000C94A80000
:1000E0000C94A800084AD73B3BCE016E84BCBFFDF0
:1000F000C12F3D6C74319ABD56833DDA3D00C77FF8
:1001000011BED9E4BB4C3E916BAAAABE0000008090
:100110003F0011241FBECFEFD1E2DEBFCDBF00E014
:100120000CBF13E0A0E0B2E0ECEAF3E402C00590FB
:100130000D92A232B107D9F714E0A2E2B3E001C0F8
:100140001D92A131B107E1F70E9479060C94D521E7
:100150000C940000EAE7F0E0808186608083ACE7E1
:10016000B0E08C9180648C93808180628083ABE767
:10017000B0E08C91887F8C938081886080838081BF
:100180008068808380818064808308951F920F92AD
:100190000FB60F920BB60F9211242F933F934F93EC
:1001A0008F939F93EF93FF932F988091DE0390910D
:1001B000DF0301969093DF038093DE0320917800A4
:1001C00030E040917900942F80E0282B392B8091EA
:1001D0006103823009F40DC1833008F43FC08330DD
:1001E00009F4FAC0843009F4D0C0809162038230EF
:1001F00009F456C0833008F076C0882309F0A4C003
:1002000080912C03869580932B0380916303882330
:1002100009F003C181E08093610381E08093620370
:1002200080912B03883008F453C080917B00886054
:1002300080937B0080912B03885C80937C002F9AB5
:10024000FF91EF919F918F914F913F912F910F903F
:100250000BBE0F900FBE0F901F901895882309F0CA
:1002600084C080912C038E3009F4FDC0E82FF0E0AB
:10027000EE0FFF1FEF5CFC4F318320838F5F809375
:100280002C03883110F010922C0312B880910501D4
:10029000807F8093050180916203823009F0AACFAC
:1002A00080912E0380932B0380912F03809363030F
:1002B00080916403882309F0BBC083E080936103CD
:1002C00083E08093620380912B03883008F0ADCFE8
:1002D00080917B00877F80937B0080912B03805CE3
:1002E00080937C00ACCF833009F463C0843009F084
:1002F00097CF90912E0390932B0390912F0390937F
:10030000630390916403992309F08FC083E0809385
:1003100061031092620320912C032E3009F499C0DE
:10032000822F90E020FF7CCF203108F085C02E3056
:1003300009F4A6C0269581E090E002C0880F991FBD
:100340002A95E2F782B96CCF813009F069CF8091AC
:100350002D0380932B0380913003809364031092CC
:10036000610382E0809362035BCF813009F03DCF6F
:1003700080916A0390916B03820F931F96958795E6
:1003800090936B0380936A0330CF809178039091B0
:100390007903820F931F9093790380937803809160
:1003A0007003909171030196909371038093700391
:1003B0001CCF80912D0380932B0380913003809379
:1003C000640380916303882361F581E08093610376
:1003D00084E08093620324CF809168039091690345
:1003E000820F931F96958795909369038093680376
:1003F000FCCE80917C0390917D03820F931F90939C
:100400007D0380937C038091740390917503019622
:100410009093750380937403E8CE82E08093610328
:10042000FCCE82E080936103D3CF8093610371CFD0
:1004300084E08093610344CF40979595879521E0B0
:1004400030E002C0220F331F8A95E2F720930501A6
:10045000E7CE80916703813009F0E2CE82E080939D
:100460006703469A5DCF90916703923009F0FECE04
:100470003093660320936503109267034698FECE7F
:1004800080916703813009F055CF82E08093670344
:10049000469AC6CEE0E9F0E080818368808380815F
:1004A00083608083A1E9B0E08C918B608C93809114
:1004B0008403909185039093990080939800109203
:1004C0009B0010929A00A1E7B0E08C9181608C9320
:1004D00080818F7580838EB1877E8EB9E0EAF0E0EF
:1004E000808183688083A1EAB0E08C918B608C93DB
:1004F00080918803909189039093A9008093A8002C
:100500001092AB001092AA00A2E7B0E08C9181603B
:100510008C9380818F758083E2E0F1E08081877E1B
:10052000808308951F920F920FB60F9211248F931C
:100530009F93AF93BF932E981092300380916803DE
:100540009091690390936D0380936C038091700385
:100550009091710390937303809372038091780359
:100560009091790390937B0380937A0310926903AF
:100570001092680310927103109270031092790325
:100580001092780381E08093B4038093B603809146
:10059000880390918903A0918A03B0918B030097FF
:1005A000A105B10529F0181619061A061B066CF4E8
:1005B0008FE080932D032E9ABF91AF919F918F91E1
:1005C0000F900FBE0F901F9018958EE080932D0313
:1005D000F2CF1F920F920FB60F9211248F932E9885
:1005E00081E0809330038EE080932D032E9A8F91CB
:1005F0000F900FBE0F901F9018951F920F920FB67D
:100600000F9211248F932E9881E0809330038FE016
:1006100080932D032E9A8F910F900FBE0F901F90F5
:1006200018951F920F920FB60F9211242F938F934C
:100630009F93AF93BF932E9810922F0321E02093A6
:10064000C50380916A0390916B0390936F0380932D
:100650006E0380917C0390917D0390937F03809340
:100660007E03809174039091750390937703809338
:10067000760310926B0310926A0310927D0310921E
:100680007C0310927503109274032093B50380913C
:10069000840390918503A0918603B091870300970E
:1006A000A105B10529F0181619061A061B0674F4DF
:1006B0008DE080932E032E9ABF91AF919F918F91E1
:1006C0002F910F900FBE0F901F9018958CE0809384
:1006D0002E03F1CF1F920F920FB60F9211248F931A
:1006E0002E9881E080932F038CE080932E032E9A26
:1006F0008F910F900FBE0F901F9018951F920F9221
:100700000FB60F9211248F932E9881E080932F03C0
:100710008DE080932E032E9A8F910F900FBE0F9035
:100720001F901895DF93CF9300D000D0CDB7DEB7E0
:10073000809112020E940E1682E30E948916809117
:1007400012028F5F0E945B160E949B1689830E9493
:100750009B168A830E949B168B830E949B168C8318
:100760000E949B168D830E94A5168E830E9481167F
:100770003A8120E0898190E0822B932B9093CA03E9
:100780008093C9033C8120E08B8190E0822B932BE6
:100790009093CC038093CB033E8120E08D8190E049
:1007A000822B932B9093CE038093CD0326960FB686
:1007B000F894DEBF0FBECDBFCF91DF910895FF92B9
:1007C0000F931F93DF93CF930F92CDB7DEB7809136
:1007D00012020E940E1682E30E9489168091120274
:1007E0008F5F0E945B160E949B16082F0E949B162B
:1007F000F82E0E949B16182F0E94A51689830E942E
:1008000081165F2D40E0202F30E0242B352B3093D4
:10081000CA032093C9038981382F20E0812F90E0FB
:10082000822B932B9093CC038093CB030F90CF918B
:10083000DF911F910F91FF9008950E9406168091FD
:1008400012020E940E168823D9F00E9481162D985C
:10085000809112020E940E16882301F10E948116D7
:100860002D98809112020E940E16882329F58CE2A1
:100870000E94891689E00E9489160E9481160895B7
:100880008DE20E94891688E00E9489160E948116D6
:10089000809112020E940E16882301F781E30E94C4
:1008A000891688E00E9489160E94811680911202A2
:1008B0000E940E168823D9F20E9481162D98089561
:1008C0004F925F927F928F929F92AF92BF92CF9200
:1008D000DF92EF92FF920F931F93DF93CF930F92CC
:1008E000CDB7DEB71092D6031092D5031092D8037D
:1008F0001092D7031092DA031092D90322E3422E0A
:10090000512C809112020E940E1682E30E948916D9
:10091000809112028F5F0E945B160E949B16882EA8
:100920000E949B16782E0E949B16A82E0E949B1652
:10093000982E0E949B16B82E0E94A51689830E94AD
:100940008116D72CCC24E82DF0E0EC29FD29F0937A
:10095000CA03E093C903F92CEE242A2D30E02E2996
:100960003F293093CC032093CB038981182F00E0DB
:100970004B2D50E0402B512B5093CE034093CD0391
:100980006091D5037091D6036E0F7F1F7093D603CD
:100990006093D503E091D703F091D803E20FF31FE2
:1009A000F093D803E093D7032091D9033091DA0371
:1009B000240F351F3093DA032093D903089441089C
:1009C00051084114510409F09CCF02E310E0CB011F
:1009D000B8010E94FC1D7093D6036093D503CF012C
:1009E000B8010E94FC1D7093D8036093D703C9011E
:1009F000B8010E94FC1D7093DA036093D9030F9035
:100A0000CF91DF911F910F91FF90EF90DF90CF90EA
:100A1000BF90AF909F908F907F905F904F90089580
:100A2000CF92DF92EF92FF920F931F93DF93CF93BA
:100A30000F92CDB7DEB7809112020E940E1682E3AC
:100A40000E948916809112028F5F0E945B160E949D
:100A50009B16182F0E949B16082F0E949B16E82EAB
:100A60000E94A51689830E948116302F20E0612FF5
:100A700070E0622B732B2091D5033091D603621B5B
:100A8000730B7093CA036093C9038981382F20E0E8
:100A9000CE2CDD24C22AD32A8091D7039091D8038B
:100AA000C81AD90AD092CC03C092CB03882777FD0D
:100AB0008095982F0E948F1B7B018C01B60188279F
:100AC00077FD8095982F0E948F1B9B01AC01C80178
:100AD000B7010E94D91F21EE3EE245E652E40E9492
:100AE000901A0E94ED1B9B017093DC036093DB0363
:100AF00077FF06C028593E4F3093DC032093DB0379
:100B00000F90CF91DF911F910F91FF90EF90DF90A9
:100B1000CF900895F8940E94E215EAE7F0E0808112
:100B200086608083ACE7B0E08C9180648C93808198
:100B300080628083ABE7B0E08C91887F8C9380816A
:100B400088608083808180688083808180648083E6
:100B5000E0E9F0E080818368808380818360808326
:100B6000A1E9B0E08C918B608C938091840390918B
:100B70008503909399008093980010929B001092A7
:100B80009A00A1E7B0E08C9181608C9380818F7591
:100B900080838EB1877E8EB9E0EAF0E08081836841
:100BA0008083A1EAB0E08C918B608C938091880364
:100BB000909189039093A9008093A8001092AB00B4
:100BC0001092AA00A2E7B0E08C9181608C938081A2
:100BD0008F758083E2E0F1E08081877E80830E94D0
:100BE000150E0E94C80E0E94AF160E941D04789434
:100BF000089581E09091C403891B8093C4038823E6
:100C000039F480918000877F809380002F98089529
:100C1000809180008860809380008FEF90E09093B7
:100C20008D0080938C000895882359F09091800066
:100C300090689093800090E0909389008093880062
:100C40000895809180008F77809380002D9808957B
:100C5000882359F09091800090629093800090E0FA
:100C600090938B0080938A000895809180008F7DFF
:100C7000809380002E980895882359F090918000E9
:100C800098609093800090E090938D0080938C000A
:100C9000089580918000877F809380002F98089529
:100CA00081E08093DD03089586B166B126B146B137
:100CB00030E0287030703595279535952795359516
:100CC0002795220F331F70E06470707075956795DB
:100CD00075956795260F371F220F331F50E042701E
:100CE000507055954795240F351F220F8170820F44
:100CF00008952F923F924F925F926F927F928F92C0
:100D00009F92AF92BF92CF92DF92EF92FF920F939A
:100D10001F93DF93CF93CDB7DEB72C970FB6F89420
:100D2000DEBF0FBECDBF81E0809311020E948A0515
:100D30002D980E9460042D9A0E94D31011E024E6A1
:100D4000A22EB12C9DEC692E9EEF792E9FEF892E5D
:100D50009FEF992E83E3282E81E0382E412C512CD1
:100D60008091DE039091DF0327E28031920710F03B
:100D7000109367030E94F9118093C6039091C703F3
:100D8000992309F44BC01092C703843009F490C62C
:100D9000853008F061C4813009F4F4C5813008F071
:100DA00076C58091C80390E0019665E070E00E94EE
:100DB000101E8093C803882309F0E3C610920F0227
:100DC0009FEF90930E0290930D02809180008068B7
:100DD000809380002FEF30E03093890020938800CB
:100DE00080910E02882309F4F1C6909180009062F0
:100DF0009093800090E090938B0080938A00809184
:100E00000F02882309F4EDC69091800098609093BA
:100E1000800090E090938D0080938C008091DE03A1
:100E20009091DF0337E28031930708F0A1C20E945E
:100E3000ED0E882309F04CC166B146B186B126B1EA
:100E400090E0887090709595879595958795959584
:100E50008795880F991F50E04470507055954795BD
:100E600055954795840F951F880F991F30E0227084
:100E7000307035952795820F931F880F6170860F0C
:100E800009F0C1C08091B603882309F4E2C08091C3
:100E90008C0390918D03A0918E03B0918F0380936A
:100EA000B9039093BA03A093BB03B093BC038091A2
:100EB000900390919103A0919203B091930380933A
:100EC000BD039093BE03A093BF03B093C0031092E1
:100ED000B6031093C10321E08091B403882391F0FD
:100EE00080917A0390917B036091720370917303F8
:100EF0000E94FC1D70938103609380031093B703DD
:100F00001092B4038091B503882391F080917E0301
:100F100090917F0360917603709177030E94FC1D8E
:100F200070938303609382031093B8031092B50308
:100F3000222309F415CF1092C1032091BD033091F3
:100F4000BE034091BF035091C003209388033093A8
:100F5000890340938A0350938B038091B903909146
:100F6000BA03A091BB03B091BC0380938403909318
:100F70008503A0938603B0938703B7FDF9C39093CD
:100F800099008093980057FDD2C33093A900209315
:100F9000A800211531054105510509F0F1C38091E3
:100FA000A0008F758093A00080910201877E8093BE
:100FB000020180917200897F80937200809172009B
:100FC0008260809372008091840390918503A09148
:100FD0008603B09187030097A105B10509F020C3EE
:100FE000809190008F75809390008EB1877E8EB92E
:100FF00080917100897F809371008091710082607F
:1010000080937100ADCE66B146B186B126B190E055
:101010008870907095958795959587959595879506
:10102000880F991F50E0447050705595479555951D
:101030004795840F951F880F991F30E022703070FC
:1010400035952795820F931F880F6170860F823028
:1010500019F02091C10340CF8091B6038823C9F3D2
:101060008091B7038823A9F38091B803882389F37B
:1010700080918C0390918D03A0918E03B0918F038A
:101080008093B9039093BA03A093BB03B093BC03BE
:101090008091900390919103A0919203B09193035A
:1010A0008093BD039093BE03A093BF03B093C0038E
:1010B0001092B6031092B7031092B8038DEB93E031
:1010C00069EB73E00E94F3121093C10321E004CF97
:1010D00087E060E70E94300F87EF93E00E94180FCF
:1010E0000E94120F3091FB03232F2F772093C3030D
:1010F0009091FC03892F8F778093C20337FD86C3BD
:1011000030E0220F331F220F331F309521953F4FC0
:10111000442737FD4095542F20938C0330938D0343
:1011200040938E0350938F0397FD5EC390E0880F2A
:10113000991F880F991F909581959F4FAA2797FD1A
:10114000A095BA2F8093900390939103A09392035C
:10115000B0939303243361E0360760E0460760E014
:10116000560764F020928C0330928D0340928E03D8
:1011700050928F0323E331E040E050E08433E1E01C
:101180009E07E0E0AE07E0E0BE0764F02092900327
:1011900030929103409292035092930383E391E043
:1011A000A0E0B0E02D3CFEEF3F07FFEF4F07FFEF61
:1011B0005F0744F460928C0370928D0380928E03DB
:1011C00090928F038D3C2EEF92072FEFA2072FEF07
:1011D000B20744F46092900370929103809292035C
:1011E000909293032091F70330E03093F203209321
:1011F000F103E091F803F0E0F093F403E093F303DC
:101200008091F903E82EFF24F092F603E092F503B3
:10121000922F8827821B930BB5010E94FC1D262F5D
:10122000209520930D029E2F88278E1B9F0BB501C2
:101230000E94FC1D609560930F029E2D88278E19D9
:101240009F09B5010E94FC1D609560930E02222348
:1012500009F4C3C28091800080688093800030E0F0
:10126000309389002093880080910E02882309F42E
:10127000ADC29091800090629093800090E0909336
:101280008B0080938A0080910F02882309F497C213
:101290009091800098609093800090E090938D00F2
:1012A00080938C0080913103909132038093E1030D
:1012B00080913103909132039093E2038091330344
:1012C000909134038093E30380913303909134032E
:1012D0009093E40380913503909136038093E50366
:1012E00080913503909136039093E6038091370304
:1012F000909138038093E7038091370390913803EE
:101300009093E80380915503909156038093E903ED
:1013100080915503909156039093EA03809157036F
:10132000909158038093EB03809157039091580359
:101330009093EC038091590390915A038093ED03AD
:101340008091590390915A039093EE0380915B032F
:1013500090915C038093EF0380915B0390915C0319
:101360009093F00381EE93E060E10E94A50F64CDBD
:101370001092DF031092DE031092C5031092DD037A
:101380008AEA0E94C4168AEA0E94C416EE24FF2448
:101390006701CC0CDD1C41E353E0C40ED51ED60121
:1013A0008D919C910E94C416F60180819181892FB4
:1013B0000E94C4160894E11CF11CF8E1EF16F10438
:1013C00039F780916E030E94C41680916F030E94CA
:1013D000C41680916C030E94C41680916D030E9414
:1013E000C4168091760390917703009709F498C111
:1013F00080917E0390917F036091760370917703D3
:101400000E94FC1D862F0E94C41680917E0390913D
:101410007F0360917603709177030E94FC1D872FF4
:101420000E94C4168091720390917303009709F48F
:1014300070C180917A0390917B03609172037091E7
:1014400073030E94FC1D862F0E94C41680917A03AC
:1014500090917B0360917203709173030E94FC1D55
:10146000872F0E94C416809112020E940E1682E3FA
:101470000E948916809112028F5F0E945B160E9463
:101480009B16D82E0E949B168B870E949B16F82EC7
:101490000E949B16E82E0E949B16082F0E94A516FC
:1014A000C82E0E9481169B859A8319822D2D30E0CB
:1014B00049815A81242B352B3093CA032093C903C9
:1014C000EC821B824F2D50E08B819C81482B592B45
:1014D0005093CC034093CB03CE821D82802F90E0AB
:1014E000AD81BE818A2B9B2B9093CE038093CD033D
:1014F000822F0E94C4168091CA030E94C416809154
:10150000CB030E94C4168091CC030E94C416809124
:10151000CD030E94C4168091CE030E94C416809110
:1015200012020E940E1682E30E9489168091120216
:101530008F5F0E945B160E949B16F82E0E949B16DE
:10154000D82E0E949B16082F0E94A516E82E0E94F6
:101550008116D8861F826F2D70E0EF81F8856E2B83
:101560007F2B2091D5033091D603621B730B7093B0
:10157000CA036093C903EA861986202F30E04985A3
:101580005A85242B352B8091D7039091D803281BA3
:10159000390B3093CC032093CB03882777FD8095BC
:1015A000982F2B873C870E948F1B6B017C012B851A
:1015B0003C85B901882777FD8095982F0E948F1B65
:1015C0009B01AC01C701B6010E94D91F21EE3EE28A
:1015D00045E652E40E94901A0E94ED1B9B01AC016B
:1015E000CB013093DC032093DB0377FF06C08859DF
:1015F0009E4F9093DC038093DB030E94C41680917E
:10160000DC030E94C416809165030E94C416809179
:1016100066030E94C4168091C6030E94C41607CCBC
:10162000181619061A061B060CF0BAC28091900013
:101630008F7D80939000809171008B7F80937100EB
:1016400074988091900080688093900080917100E0
:1016500082608093710084CB873009F466C2883041
:1016600008F0E6C0853009F412C2863009F0D6CB06
:1016700020918C0330918D0340918E0350918F0304
:101680002E5130404040504020938C0330938D03C6
:1016900040938E0350938F03809190039091910318
:1016A000A0919203B09193034E96A11DB11D80931A
:1016B000900390939103A0939203B09393032A39DC
:1016C000EDEF3E07EFEF4E07EFEF5E0764F42AE918
:1016D0003DEF4FEF5FEF20938C0330938D034093EA
:1016E0008E0350938F03873632E0930730E0A307D1
:1016F00030E0B3070CF492CB86E692E0A0E0B0E0D5
:101700008093900390939103A0939203B0939303DB
:1017100085CB8FEF0E94C41683E00E94C416A3CE2F
:101720008FEF0E94C41683E00E94C4167BCE3095D2
:1017300021953F4F3093AB002093AA008091A000E9
:101740008F778093A000809172008D7F80937200CC
:1017500080910201877F809302018091A0008062C6
:101760008093A000809172008460809372002BCCE3
:10177000909581959F4F90939B0080939A0003CC06
:101780001216130614061506CCF68091A0008F7D64
:101790008093A000809172008B7F80937200809173
:1017A00002018F7E809302018091A0008068809367
:1017B000A0008091720082608093720004CC8091BE
:1017C0008000877F809380002F986CCD809180006F
:1017D0008F7D809380002E9856CD809180008F77EA
:1017E000809380002D9840CD90E0880F991F880F3E
:1017F000991FAA2797FDA095BA2F809390039093E5
:101800009103A0939203B0939303A4CC30E0220FF2
:10181000331F220F331F442737FD4095542F209349
:101820008C0330938D0340938E0350938F037CCCB5
:10183000883009F4D0C0893009F0F0CA8091900353
:1018400090919103A0919203B09193034E97A109B7
:10185000B1098093900390939103A0939203B09366
:1018600093038A39EDEF9E07EFEFAE07EFEFBE0768
:101870000CF0D4CA2AE93DEF4FEF5FEF20939003BD
:10188000309391034093920350939303C7CA8230DD
:1018900061F1833009F0C2CA809190039091910365
:1018A000A0919203B09193034E96A11DB11D809318
:1018B000900390939103A0939203B0939303873680
:1018C000E2E09E07E0E0AE07E0E0BE070CF4A6CA47
:1018D00026E632E040E050E02093900330939103FD
:1018E000409392035093930399CA80918C039091F3
:1018F0008D03A0918E03B0918F03209190033091BE
:1019000091034091920350919303281739074A0796
:101910005B070CF433C1DA01C9010EE1C02ED12CF2
:10192000E12CF12CC80ED91EEA1EFB1EC0928C03BE
:10193000D0928D03E0928E03F0928F03DA01C901F9
:101940004E96A11DB11D8093900390939103A09397
:101950009203B093930337E6C31632E0D30630E028
:10196000E30630E0F3060CF4BECE26E632E040E0BB
:1019700050E020938C0330938D0340938E0350935B
:101980008F03B1CE80918C0390918D03A0918E0333
:10199000B0918F034E96A11DB11D80938C0390933F
:1019A0008D03A0938E03B0938F03873632E09307A5
:1019B00030E0A30730E0B3070CF430CA86E692E0CB
:1019C000A0E0B0E080938C0390938D03A0938E03EE
:1019D000B0938F0323CA20918C0330918D034091E3
:1019E0008E0350918F038091880390918903A09179
:1019F0008A03B0918B03281739074A075B0744F025
:101A00002091900330919103409192035091930360
:101A1000DA01C9014E97A109B10980938C03909313
:101A20008D03A0938E03B0938F03809390039093C4
:101A30009103A0939203B09393038A39EDEF9E072D
:101A4000EFEFAE07EFEFBE0764F42AE93DEF4FEF8B
:101A50005FEF20938C0330938D0340938E0350935C
:101A60008F038A393DEF93073FEFA3073FEFB3079B
:101A70000CF0D4C98AE99DEFAFEFBFEF80939003DC
:101A800090939103A0939203B0939303C7C91092CC
:101A90008C0310928D0310928E0310928F0310927C
:101AA0009003109291031092920310929303B6C97F
:101AB00020918C0330918D0340918E0350918F03C0
:101AC000225E3F4F4F4F5F4F20938C0330938D0327
:101AD00040938E0350938F038091900390919103D4
:101AE000A0919203B09193034E97A109B1098093FD
:101AF000900390939103A0939203B093930327369E
:101B0000E2E03E07E0E04E07E0E05E070CF4A9CF1C
:101B100026E632E040E050E020938C0330938D03C2
:101B200040938E0350938F039CCF80918C039091B0
:101B30008D03A0918E03B0918F034E97A109B10937
:101B400080938C0390938D03A0938E03B0938F03A7
:101B50008A393DEF93073FEFA3073FEFB3070CF040
:101B60005DC98AE99DEFAFEFBFEF80938C0390933F
:101B70008D03A0938E03B0938F0350C99C01AD01D8
:101B8000CCCE8130A9F18230D9F1833009F446C03E
:101B9000EFEFE0930F02E0930E02E0930D0215C900
:101BA000809190008F7780939000809171008D7F5D
:101BB0008093710073988091900080628093900070
:101BC00080917100846080937100CAC88091800008
:101BD0008F7D809380002E9880910F02882309F0DA
:101BE00013C980918000877F809380002F9816C949
:101BF000AFEFA0930F0210920E02A0930D02E5C862
:101C0000BFEFB0930F02B0930E0210920D028091BD
:101C100080008F77809380002D98E2C810920F0289
:101C200010920E0210920D02F2CF84B1807F84B91F
:101C300084B1876084B980E58CBD8DB581608DBD30
:101C40000895442379F0A82FB92FE62FF72F80E0CD
:101C50009D919EBD0DB407FEFDCF9EB591938F5F04
:101C60008417B0F30895662359F0E82FF92F80E028
:101C700091919EBD0DB407FEFDCF8F5F8617C0F317
:101C800008958EBD0DB407FEFDCF8EB508950F9358
:101C90001F93DF93CF9300D0CDB7DEB7289880E2B3
:101CA0000E94410E8DE00E94410E289A289883E2FE
:101CB0000E94410E81E00E94410E289A8CE08983A7
:101CC00083E88A831B82289880E30E94410E8E015C
:101CD0000F5F1F4FC80163E00E94330E289A2898B7
:101CE0008AE20E94410EC80163E00E94330E289AE6
:101CF000289881E20E94410E81E00E94410E289ABC
:101D0000289882E20E94410E81E00E94410E289AAA
:101D1000289884E20E94410E82E10E94410E289A96
:101D2000289885E20E94410E88E20E94410E289A7E
:101D3000289881E30E94410E86E00E94410E289A75
:101D4000289880E50E94410E83E70E94410E289A60
:101D500028988CE30E94410E81E00E94410E289A4F
:101D600028988DE30E94410E86E00E94410E289A39
:101D7000289880E20E94410E8FE00E94410E289A2E
:101D80000F900F900F90CF91DF911F910F910895B9
:101D90002C9A289A0E94470E0895CF93DF93EC0166
:101DA0002C9828988AE20E94410ECE0165E00E949C
:101DB000330E289A2C9ADF91CF910895CF93DF9319
:101DC000EC01289880E30E94410ECE0165E00E945C
:101DD000330E289ADF91CF9108958091E0038823F4
:101DE00011F080E0089528988FEF0E94410E289A04
:101DF00080740895DF93CF930F92CDB7DEB7198229
:101E0000289887E10E94410EBE016F5F7F4FCB0192
:101E100041E00E94210E289A898181700F90CF9114
:101E2000DF910895289882EE0E94410E289A089525
:101E3000CF93DF93EC01289881E60E94410ECE01FA
:101E4000BE0146E00E94210E289A289887E20E944F
:101E5000410E80E40E94410E289ADF91CF910895AF
:101E6000DF93CF930F92CDB7DEB728988F71806242
:101E700069830E94410E6981862F0E94410E289A33
:101E80000F90CF91DF9108950F931F93DF93CF931E
:101E90000F92CDB7DEB78B0128988F7149830E94CE
:101EA000410EC801B80149810E94210E289A0F9065
:101EB000CF91DF911F910F9108950F931F93DF939F
:101EC000CF930F92CDB7DEB78B0128988F718062C8
:101ED00049830E94410EC8014981642F0E94330E3C
:101EE000289A0F90CF91DF911F910F9108950F9332
:101EF0001F93DF93CF930F92CDB7DEB78C01809104
:101F0000E0038823E1F72C9881E08093E003289890
:101F100080E269830E94410E8AE40E94410E289A61
:101F2000289881EE0E94410E289A289880EA0E9403
:101F3000410EC80169810E94330E289A2C9A0F9095
:101F4000CF91DF911F910F910895EF92FF920F9320
:101F50001F93DF93CF930F92CDB7DEB7182F062FC5
:101F6000289881EE99830E94410E289A289888EA41
:101F70000E94410E9981002361F0612F792F7B012E
:101F8000F70181917F010E94410E8E2D811B8017E8
:101F9000B8F3289A0F90CF91DF911F910F91FF9086
:101FA000EF900895289881EE0E94410E289A089596
:101FB000E0EBF0E0808182608083E1EBF0E0808103
:101FC0008260808384E68093B300E0E7F0E0808164
:101FD000826080830895E1EBF0E080818D7F8083D3
:101FE0000895EF92FF920F931F93CF93DF93EC012D
:101FF0007B0100912303109124030115110589F041
:10200000F801858196818C179D0731F41FC0858169
:1020100096818C179D07D1F00780F085E02D3097D1
:10202000B1F789E090E00E94971EFC010097B9F09B
:10203000F182E0821382128281E08483D683C58399
:1020400010870783F0932403E093230381E090E05B
:10205000DF91CF911F910F91FF90EF90089581E054
:1020600090E00E94D521A0912303B0912403109702
:10207000A1F015962D913C9116972817390739F440
:102080001DC0258136812817390759F0DF011796C1
:10209000ED91FC9118973097A1F722E030E0C9014B
:1020A00008958781908518969C938E931797CF01FA
:1020B0000E94311F21E030E0C901089517968D91EB
:1020C0009C9118979093240380932303FD01EFCFF5
:1020D000E0912303F0912403309731F410C007807E
:1020E000F085E02D309759F0258136812817390782
:1020F000B1F77183608321E030E0C901089522E0E7
:1021000030E0C9010895E0912303F0912403309752
:1021100031F410C00780F085E02D309759F025810B
:10212000368128173907B1F71382128221E030E097
:10213000C901089522E030E0C9010895E091230328
:10214000F0912403309731F40FC00780F085E02D23
:10215000309751F02581368128173907B1F714825D
:1021600021E030E0C901089522E030E0C90108957E
:10217000E0912303F0912403309731F410C00780DD
:10218000F085E02D309759F02581368128173907E1
:10219000B1F781E0848321E030E0C901089522E0B5
:1021A00030E0C9010895E8E6F0E080818260808334
:1021B000ECE6F0E0808180688083E0EBF0E08081F5
:1021C0008260808308951F920F920FB60F921124A0
:1021D0008F939F938091030186FD21C085B190E28A
:1021E000892785B9809168008D7F809368008091F0
:1021F0006C008F7780936C0080E48093B3008091B3
:10220000B10086608093B1008091700082608093FD
:102210007000109228031092290310922A039F91B4
:102220008F910F900FBE0F901F9018958091030211
:10223000909104022FEF8F3F920709F46AC081301A
:10224000910509F475C09C012250304025303105BC
:1022500078F527E32093B3002091B1002660209306
:10226000B100209170002260209370002091030142
:1022700030E0207430700024220F331F001C220F26
:10228000331F001C232F302D46E050E0481B590B14
:1022900002C0220F331F4A95E2F740912903420FF3
:1022A00040932903019690930402809303020895BA
:1022B0009C01275030402630310508F070C026E3DD
:1022C0002093B3002091B10026602093B1002091AB
:1022D00070002260209370002091030130E0207490
:1022E00030700024220F331F001C220F331F001CEC
:1022F000232F302D4CE050E0481B590B02C0220F19
:10230000331F4A95E2F740912803420F4093280378
:10231000C9CF2091030126FF28C0209168002260C8
:102320002093680020916C00206820936C00089531
:102330002091030130E020743070022E232F000C16
:10234000221F330B000C221F331F20932A0325E387
:102350002093B3002091B10026602093B10020911A
:1023600070002260209370009DCF8CE18093B300B9
:102370008091B10086608093B1008091700082608E
:1023800080937000109228031092290310922A0360
:1023900081E090E0909304028093030208958D30D1
:1023A000910509F07FCF809168008260809368007A
:1023B00080916C00806880936C008FEF9FEF90930A
:1023C00004028093030280912A038093000280918B
:1023D000290380932503809128038093260381E0BD
:1023E0008093C7030895809100020895809125038A
:1023F00008958091260308951F920F920FB60F92B1
:1024000011242F933F934F935F938F939F932D9816
:102410008091B100887F8093B100809101029091FA
:1024200002022FEF8F3F920709F475C081309105AA
:1024300009F480C09C012250304025303105D0F590
:1024400027E32093B3002091B10026602093B100D0
:10245000209170002260209370002091030130E0F1
:10246000207430700024220F331F001C220F331FF2
:10247000001C232F302D46E050E0481B590B02C0B2
:10248000220F331F4A95E2F740912903420F4093F0
:102490002903019690930202809301022D9A9F9145
:1024A0008F915F914F913F912F910F900FBE0F90A1
:1024B0001F9018959C01275030402630310508F0B8
:1024C0006CC026E32093B3002091B10026602093D6
:1024D000B1002091700022602093700020910301D0
:1024E00030E0207430700024220F331F001C220FB4
:1024F000331F001C232F302D4CE050E0481B590B9C
:1025000002C0220F331F4A95E2F740912803420F81
:1025100040932803BECF2091030126FF28C02091BD
:10252000680022602093680020916C00206820934E
:102530006C00B4CF2091030130E020743070022E83
:10254000232F000C221F330B000C221F331F20935C
:102550002A0325E32093B3002091B1002660209345
:10256000B1002091700022602093700092CF8CE126
:102570008093B3008091B10086608093B100809118
:1025800070008260809370001092280310922903DB
:1025900010922A0381E090E07DCF8D30910509F003
:1025A00078CF8091680082608093680080916C0091
:1025B000806880936C008FEF9FEF9093020280936E
:1025C000010280912A038093000280912903809365
:1025D0002503809128038093260381E08093C7031D
:1025E0005DCF089508952F923F924F925F926F9220
:1025F0007F928F929F92AF92BF92CF92DF92EF9293
:10260000FF920F931F93DF93CF93CDB7DEB72C9735
:102610000FB6F894DEBF0FBECDBF9C878B8779873E
:102620006887FC012080318042805380FB01A080BC
:10263000B180C280D380211431044104510431F4AB
:10264000A114B104C104D10409F4BDC16090050412
:10265000709006048090070490900804609209042A
:1026600070920A0480920B0490920C04D7FC35C23D
:102670008091820390918303A0E0B0E08601750110
:10268000E81AF90A0A0B1B0BE092A003F092A103CF
:102690000093A2031093A303E0920504F0920604B2
:1026A00000930704109308046091A8037091A90394
:1026B0008091AA039091AB036E0D7F1D801F911F27
:1026C0006093A8037093A9038093AA039093AB032C
:1026D0006138FCE07F07F0E08F07F0E09F070CF027
:1026E0008BC16038E3EF7E07EFEF8E07EFEF9E07B9
:1026F0000CF42CC20E948F1B9B01AC010E94631A38
:102700006D837E838F839A87C801B7010E948F1BD8
:1027100020E030E048EC52E40E94901A69837A830A
:102720008B839C83C801B7016619770988099909C9
:102730000E948F1B20E030E040E251E40E94901A9A
:102740009B01AC0169817A818B819C810E94631A13
:10275000BD81AE81EF806A842B2F3A2F4E2D562DEE
:102760000E94631A0E94ED1B7B018C016093B003F1
:102770007093B1038093B2039093B303C601B50184
:1027800028E730E040E050E00E94DD1D6E0D7F1D27
:10279000801F911F60939403709395038093960319
:1027A0009093970397FD76C116161706180619061B
:1027B0000CF07DC1D7FCFDC1613CEDE57E07E0E09A
:1027C0008E07E0E09E070CF472C180EC9DE5A0E06E
:1027D000B0E08093940390939503A0939603B093F5
:1027E0009703A090FD03B090FE03C090FF03D0902C
:1027F0000004A0920104B0920204C0920304D0929B
:10280000040457FC7DC18091800390918103A0E076
:10281000B0E082017101E81AF90A0A0B1B0BE09281
:102820009C03F0929D0300939E0310939F03E092FC
:10283000FD03F092FE030093FF03109300046091E8
:10284000A4037091A5038091A6039091A7036E0D38
:102850007F1D801F911F6093A4037093A503809335
:10286000A6039093A70361382CE0720720E082074B
:1028700020E092070CF4D3C080E89CE0A0E0B0E038
:102880008093A4039093A503A093A603B093A703FA
:1028900019821D8288EC8E83E5E4EF83C801B701BD
:1028A0000E948F1B20E030E048EC52E40E94901A16
:1028B0003B014C01C801B7016A197B098C099D09CC
:1028C0000E948F1B20E030E040E251E40E94901A09
:1028D0009B01AC01C401B3010E94631AB981AD81AF
:1028E000EE80AF802B2F3A2F4E2D5A2D0E94631A67
:1028F0000E94ED1B7B018C016093AC037093AD03D0
:102900008093AE039093AF03C201B10128E730E09A
:1029100040E050E00E94DD1D6E0D7F1D801F911F65
:10292000609398037093990380939A0390939B0309
:1029300097FD89C016161706180619060CF090C0E8
:1029400057FC17C1613CEDE57E07E0E08E07E0E053
:102950009E070CF485C080EC9DE5A0E0B0E080937C
:10296000980390939903A0939A03B0939B0364EB0D
:1029700070E080E090E0EB85FC856083718382836A
:102980009383609194037091950380919603909145
:10299000970326E632E040E050E00E94DD1D20E093
:1029A00039E04DE350E00E94231ECA01B9012CE337
:1029B00030E040E050E00E94DD1DE885F98560834D
:1029C0007183828393832C960FB6F894DEBF0FBE7B
:1029D000CDBFCF91DF911F910F91FF90EF90DF90CE
:1029E000CF90BF90AF909F908F907F906F905F90AF
:1029F0004F903F902F90089580E89CE0A0E0B0E0D9
:102A00008093A8039093A903A093AA03B093AB0368
:102A10001D821E8228EC2F8385E48A8775CE60385C
:102A2000F3EF7F07FFEF8F07FFEF9F070CF47BC0EB
:102A30000E948F1B9B01AC010E94631A69837D83F6
:102A40008E839F832BCF57FC0BC01092980310925C
:102A5000990310929A0310929B0360E070E0CB01FF
:102A60006034F2EA7F07FFEF8F07FFEF9F070CF05C
:102A70008BC080E492EAAFEFBFEF8093980390930E
:102A80009903A0939A03B0939B036CE47FEF8FEFBD
:102A90009FEF71CFD7FC0BC0109294031092950357
:102AA000109296031092970360E070E0CB016034BF
:102AB000F2EA7F07FFEF8F07FFEF9F070CF091CE41
:102AC00080E492EAAFEFBFEF809394039093950375
:102AD000A0939603B093970384CEE0908203F09086
:102AE000830300E010E0EA0CFB1C0C1D1D1DE092AE
:102AF000A003F092A1030093A2031093A303CCCDF3
:102B0000E0908003F090810300E010E0E20CF31C01
:102B1000041D151DE0929C03F0929D0300939E03FB
:102B200010939F0384CE80E893EFAFEFBFEF8093C5
:102B3000A4039093A503A093A603B093A7031982BF
:102B40001D8228EC2E8385EC8F83A8CE80E893EF3E
:102B5000AFEFBFEF8093A8039093A903A093AA03BC
:102B6000B093AB031D821E82F8ECFF8325EC2A870D
:102B7000CBCD109298031092990310929A03109261
:102B80009B0360E070E0CB0126E632E040E050E0DD
:102B90000E94DD1D20E039E04DE350E00E94231E3D
:102BA000CA01B9012CE330E040E050E00E94DD1D95
:102BB000E2CE109294031092950310929603109215
:102BC00097030FCE8FEF81B912B897EF94B990EEBB
:102BD00095B990EF97B990EB98B99CEF9AB993E0BB
:102BE0009BB98DB91EB810BA83BB14BA809301018A
:102BF000109202019FE89093040110920501109237
:102C0000070180930A0110920B010895589A599A6E
:102C10001092B90080E28093B800089594EA9093EE
:102C2000BC009091BC0097FFFCCF9091B900987FB9
:102C3000983021F0903111F081E008958093BB002D
:102C400084E88093BC008091BC0087FFFCCF90910A
:102C5000B900987F983121F081E0903419F00895FF
:102C600080E0089580E0089524EA34E844E9209360
:102C7000BC009091BC0097FFFCCF9091B900987F69
:102C8000983011F0903199F78093BB003093BC00DD
:102C90009091BC0097FFFCCF9091B900987F903243
:102CA00019F0983509F008954093BC009091BC004C
:102CB00094FDFCCFDCCF94EA9093BC009091BC00D3
:102CC00097FFFCCF9091B900987F983021F0903118
:102CD00011F081E008958093BB0084E88093BC00EC
:102CE0008091BC0087FFFCCF9091B900987F98310C
:102CF00021F081E0903419F0089580E0089580E09B
:102D0000089584E98093BC008091BC0084FDFCCFD1
:102D100008958093BB0084E88093BC008091BC0040
:102D200087FFFCCF9091B900987F81E0983209F03D
:102D3000089580E0089584EC8093BC008091BC00ED
:102D400087FFFCCF8091BB00089584E88093BC008E
:102D50008091BC0087FFFCCF8091BB00089510924A
:102D6000C50080E18093C400E0ECF0E080818260E7
:102D70008083E1ECF0E0808188698083E2ECF0E020
:102D800080818660808308959091C00095FFFCCF7C
:102D90008093C60008951F920F920FB60F921124D0
:102DA0002F938F939F93AF93BF938091C600909181
:102DB00011029923C9F0823309F456C0833358F5C0
:102DC000803309F479C0813329F481E080931002C3
:102DD00010921102BF91AF919F918F912F910F90FF
:102DE0000FBE0F901F90189590911002923009F429
:102DF00041C0933008F1943009F489C0943008F44C
:102E00006CC0953039F7833729F71092C50381E0FC
:102E100080931102DFCF843309F459C0843308F45E
:102E200050C08533B9F685E08093100210921102EC
:102E300081E08093C503CECF992391F58D3209F4BB
:102E400005C18B3221F780910D0290E00A9797FD22
:102E50009CC180930D02882309F499C190E090935E
:102E6000890080938800B6CF82E080931002109290
:102E70001102B0CF8D3209F42FC18B3241F680910F
:102E80000F0290E00A9797FD92C180930F0288236A
:102E900009F48FC190E090938D0080938C009ACFBD
:102EA000913009F097CF8D3209F4B9C08B3209F413
:102EB00047C0909311028ECF10921002109211020F
:102EC00089CF83E0809310021092110283CF84E0B7
:102ED00080931002109211027DCF8B3209F413C13E
:102EE0008D3209F46DC0833709F091CF10928403BD
:102EF0001092850310928603109287031092990016
:102F00001092980010929B0010929A0063CF8B321F
:102F100009F4B3C08D3229F1833709F078CF1092CC
:102F200088031092890310928A0310928B031092E7
:102F3000A9001092A8001092AB001092AA004ACFEC
:102F400080910E0290E00A9797FD28C180930E02AF
:102F5000882309F425C190E090938B0080938A0028
:102F600039CF8091880390918903A0918A03B09111
:102F70008B034E97A109B10980938803909389032D
:102F8000A0938A03B0938B038A392DEF92072FEF1A
:102F9000A2072FEFB2070CF013C18AE99DEFAFEF44
:102FA000BFEF8093880390938903A0938A03B09323
:102FB0008B0386E692E09093AB008093AA000ACF41
:102FC0008091840390918503A0918603B09187033B
:102FD0004E97A109B1098093840390938503A09330
:102FE0008603B09387038A392DEF92072FEFA2074C
:102FF0002FEFB2070CF0EAC08AE99DEFAFEFBFEF09
:103000008093840390938503A0938603B0938703F2
:1030100086E692E090939B0080939A00DBCE8091AD
:10302000800080628093800080910E0290E00A967A
:103030008F3F910519F014F08FEF90E080930E020E
:1030400090E090938B0080938A00C4CE80918000A2
:1030500080688093800080910D0290E00A968F3FF7
:10306000910519F014F08FEF90E080930D0290E03D
:103070009093890080938800ADCE809188039091D1
:103080008903A0918A03B0918B034E96A11DB11DB7
:103090008093880390938903A0938A03B0938B0352
:1030A000873622E0920720E0A20720E0B2070CF466
:1030B00058C086E692E0A0E0B0E080938803909349
:1030C0008903A0938A03B0938B0386E692E09093E2
:1030D000A9008093A8007ECE8091800088608093B4
:1030E000800080910F0290E00A968F3F910519F0C1
:1030F00014F08FEF90E080930F0290E090938D009A
:1031000080938C0067CE8091840390918503A09179
:103110008603B09187034E96A11DB11D8093840351
:1031200090938503A0938603B0938703873622E0AC
:10313000920720E0A20720E0B207ECF086E692E0DA
:10314000A0E0B0E08093840390938503A09386036E
:10315000B093870386E692E090939900809398005D
:1031600039CEB7FFB4CF909581959F4F9093AB0028
:103170008093AA002FCEB7FFEFCF909581959F4FF8
:1031800090939B0080939A0025CE10920D0280911F
:1031900080008F77809380002D981CCE10920E02B5
:1031A000809180008F7D809380002E9813CE1092A6
:1031B0000F0280918000877F809380002F980ACE35
:1031C000B7FF85CF909581959F4FF5CEB7FFC4CFC0
:1031D000909581959F4F1ECFA0E0B0E0E2EFF8E11F
:1031E0000C94621E2C015B01FA01DC019C9192306F
:1031F00008F432C1EB018881823008F42CC194308C
:1032000071F4843009F028C1F20191818981981705
:1032100009F422C113E1412E12E0512E1DC1843068
:1032200009F419C18230A9F4923009F015C1CA011C
:10323000A20128E0DA010D90AD01EC010992CE0166
:103240002150C1F7E5018981E201998189238183B8
:1032500000C1923009F4FFC0E201CA80DB80EB01BB
:103260008A819B81E2012C813D814E815F81EB014E
:10327000EC80FD800E811F81B601681B790BDB019C
:1032800077FF03C0709561957F4F603271050CF038
:103290005DC01A161B065CF566247724430181E0A5
:1032A00090E0A0E0B0E0062E04C0880F991FAA1F8E
:1032B000BB1F0A94D2F70197A109B1098E219F2162
:1032C000A023B1230097A105B10529F0B1E06B2E31
:1032D000712C812C912C04C016950795F794E794D6
:1032E0006A95D2F7E628F728082919293BC0AB2BA5
:1032F000C9F1C60ED71E66247724430181E090E011
:10330000A0E0B0E0062E04C0880F991FAA1FBB1FC3
:103310000A94D2F70197A109B10982239323A42328
:10332000B5230097A105B10529F0A1E06A2E712C03
:10333000812C912C04C056954795379527956A9511
:10334000D2F726293729482959290CC08C159D0503
:1033500034F06C0120E030E040E050E003C0EE24A7
:10336000FF248701E2019981E5018981981709F419
:1033700043C0992339F0E21AF30A040B150BA80194
:10338000970104C02E193F09400B510B57FD08C08F
:103390001182D382C28224833583468357831DC022
:1033A00081E08183D382C28288279927DC01821B36
:1033B000930BA40BB50B84839583A683B7830DC0B1
:1033C000220F331F441F551F2483358346835783A1
:1033D0008281938101979383828324813581468101
:1033E0005781DA01C9010197A109B1098F5F9F4F88
:1033F000AF4FBF4328F30BC09183D382C2822E0DFF
:103400003F1D401F511F248335834683578383E02C
:10341000808324813581468157815523D4F4C901A5
:10342000AA2797FDA095BA2F81709070A070B070F8
:103430005695479537952795822B932BA42BB52B23
:1034400084839583A683B783828193810196938336
:1034500082832F0101C02501C201E0E1CDB7DEB7B3
:103460000C947E1EA0E2B0E0E8E3FAE10C946C1E3E
:1034700069837A838B839C832D833E834F83588714
:1034800009E0E02EF12CEC0EFD1EB701CE010196F5
:103490000E946D1D8E010F5E1F4FB801CE01059673
:1034A0000E946D1D8A8991E089278A8BAE01475E53
:1034B0005F4FB801C7010E94EC180E948D1CE6E026
:1034C000A0960C94881EA0E2B0E0E9E6FAE10C9424
:1034D0006C1E69837A838B839C832D833E834F8309
:1034E000588789E0E82EF12CEC0EFD1EB701CE01C5
:1034F00001960E946D1D8E010F5E1F4FB801CE0117
:1035000005960E946D1DAE01475E5F4FB801C70171
:103510000E94EC180E948D1CE6E0A0960C94881E78
:10352000A0E2B0E0E6E9FAE10C94621E69837A83D6
:103530008B839C832D833E834F83588799E0E92EAC
:10354000F12CEC0EFD1EB701CE0101960E946D1DFF
:103550008E010F5E1F4FB801CE0105960E946D1DB2
:103560009985923088F089898230C0F0943019F4BE
:10357000823029F009C0843029F4923079F463E173
:1035800072E0C6C0923041F420E09A858A8998138F
:1035900021E02A87B701BCC0823041F420E09A853F
:1035A0008A89981321E02A8BB801B2C0CD84DE84C9
:1035B000EF84F8880D891E892F89388D88249924F5
:1035C000540140E050E060E070E0442455243201B2
:1035D000E0E0F0E0C60181709070892BD9F0800E98
:1035E000911EA21EB31EDB01CA01840D951DA61DEE
:1035F000B71D40E050E060E070E080169106A20642
:10360000B30620F441E050E060E070E0480F591F3D
:103610006A1F7B1F440C551C661C771C37FF08C0B3
:1036200081E090E0A0E0B0E0482A592A6A2A7B2A8B
:103630003196E032F10549F0000F111F221F331FB0
:10364000F694E794D794C794C5CF8B899C892B8532
:103650003C85820F931F02969C8F8B8F1A8E9A85C2
:103660008A89981711F081E08A8F2B8D3C8D17C0C5
:10367000CA0181709070892B61F0B694A7949794D9
:10368000879480E090E0A0E0B0E8882A992AAA2AEE
:10369000BB2A76956795579547952F5F3F4F77FDE6
:1036A000E7CFC9010BC0440F551F661F771FB7FC3A
:1036B0004160880C991CAA1CBB1C01974030A0E0FB
:1036C0005A07A0E06A07A0E47A0768F39C8F8B8F03
:1036D000DB01CA018F779070A070B07080349105C3
:1036E000A105B10561F447FD0AC081149104A1044C
:1036F000B10429F0405C5F4F6F4F7F4F40784D8F92
:103700005E8F6F8F78A383E0898FBE01675E7F4FE6
:10371000CB010E948D1CE0E1A0960C947E1EA8E0D7
:10372000B0E0E5E9FBE10C94691E9B01AC0183E08C
:103730008983DA01C9018827B7FD83959927AA27CC
:10374000BB27B82E211531054105510519F482E03A
:1037500089833AC08823A9F0203080E0380780E0D0
:10376000480780E8580729F460E070E080E09FECAB
:1037700030C0EE24FF248701E21AF30A040B150B74
:1037800002C079018A018EE1C82ED12CDC82CB8265
:10379000ED82FE820F831887C801B7010E94401C8A
:1037A00001971816190684F4082E04C0EE0CFF1CAD
:1037B000001F111F0A94D2F7ED82FE820F83188733
:1037C000C81AD90ADC82CB82BA82CE0101960E9445
:1037D0008D1CE9E028960C94851EACE0B0E0E3EF88
:1037E000FBE10C94701E69837A838B839C83BE01FA
:1037F0006B5F7F4FCE0101960E946D1D8D818230DF
:10380000A9F1823098F1843021F48E81882359F413
:103810000FC02F81388537FD29C06E812F313105CA
:1038200064F0662329F020E030E040E050E822C058
:103830002FEF3FEF4FEF5FE71DC08EE190E0821B5F
:10384000930B29853A854B855C8504C05695479531
:10385000379527958A95D2F7662361F05095409564
:10386000309521953F4F4F4F5F4F04C020E030E02F
:1038700040E050E0CA01B901E2E02C960C948C1EA5
:10388000EF92FF920F931F939B01AC01203080E0D9
:10389000380781E0480780E0580780F42F3F310562
:1038A0004105510509F020F4EE24FF24870119C0D9
:1038B00068E0E62EF12C012D112D13C0203080E0A0
:1038C000380780E0480781E0580730F490E1E92E9E
:1038D000F12C012D112D05C088E1E82EF12C012DD0
:1038E000112D80E290E0A0E0B0E08E199F09A00BBE
:1038F000B10B04C05695479537952795EA94D2F7B2
:10390000F901E55EFD4F2081821B9109A109B109F2
:103910001F910F91FF90EF9008959F92AF92BF92E9
:10392000CF92DF92EF92FF920F931F93EE24FF242A
:103930008701FC01248135814681578191808081F6
:10394000823010F44061A2C0843009F49BC0823000
:1039500029F420E030E040E050E005C021153105B9
:103960004105510519F4E0E0F0E092C082819381B5
:103970006FEF823896070CF05AC062E87FEF681B41
:10398000790B6A3171052CF020E030E040E050E026
:103990002AC0AA24BB24650181E090E0A0E0B0E049
:1039A000062E04C0880F991FAA1FBB1F0A94D2F7C6
:1039B0000197A109B10982239323A423B52300977A
:1039C000A105B10529F071E0A72EB12CC12CD12C95
:1039D00004C056954795379527956A95D2F72A29B9
:1039E0003B294C295D29DA01C9018F779070A070BD
:1039F000B07080349105A105B10539F427FF09C0E5
:103A0000205C3F4F4F4F5F4F04C0215C3F4F4F4FF3
:103A10005F4F80E090E0203060E0360760E04607CE
:103A200060E4560710F081E090E0FC0123C080388C
:103A3000910544F5FC01E158FF4FDA01C9018F7788
:103A40009070A070B07080349105A105B10539F473
:103A500027FF09C0205C3F4F4F4F5F4F04C0215CE0
:103A60003F4F4F4F5F4F57FF05C0569547953795CE
:103A70002795319687E056954795379527958A95EE
:103A8000D1F706C020E030E040E050E0EFEFF0E09A
:103A9000E22EF32E942F9F77802F8078892B9E2FF4
:103AA0009795992797958F77082F092B9E2F969595
:103AB000812F8078892B9794992497948F77182F4A
:103AC0001929C801B7011F910F91FF90EF90DF9066
:103AD000CF90BF90AF909F900895CF93DF93FC015C
:103AE000DB01208131819281492F4F7750E0991F6E
:103AF0009927991F8381E82FEE0FE92B6E2F70E035
:103B0000881F8827881FED018983EE2371F5211511
:103B100031054105510511F482E02FC06E57704008
:103B2000FD017383628367E0220F331F441F551F1B
:103B30006A95D1F783E08C930AC0220F331F441F8C
:103B4000551FED018A819B8101979B838A832030D9
:103B5000E0E03E07E0E04E07E0E45E0770F3ED01D1
:103B60002C833D834E835F8325C0EF3F79F421157D
:103B700031054105510519F484E08C931BC044FFC5
:103B800003C081E08C9311C01C920FC06F5770402E
:103B9000ED017B836A8383E08C9387E0220F331FE0
:103BA000441F551F8A95D1F75064FD012483358346
:103BB00046835783DF91CF910895629FD001739F11
:103BC000F001829FE00DF11D649FE00DF11D929FB9
:103BD000F00D839FF00D749FF00D659FF00D9927F8
:103BE000729FB00DE11DF91F639FB00DE11DF91F1C
:103BF000BD01CF0111240895AA1BBB1B51E107C0D1
:103C0000AA1FBB1FA617B70710F0A61BB70B881F6C
:103C1000991F5A95A9F780959095BC01CD010895FB
:103C200097FB092E07260AD077FD04D0E5DF06D0E2
:103C300000201AF4709561957F4F0895F6F79095DE
:103C400081959F4F089597FB092E05260ED057FDAD
:103C500004D014D00AD0001C38F45095409530950B
:103C600021953F4F4F4F5F4F0895F6F79095809500
:103C7000709561957F4F8F4F9F4F0895A1E21A2E47
:103C8000AA1BBB1BFD010DC0AA1FBB1FEE1FFF1F00
:103C9000A217B307E407F50720F0A21BB30BE40B50
:103CA000F50B661F771F881F991F1A9469F7609597
:103CB0007095809590959B01AC01BD01CF01089551
:103CC0002F923F924F925F926F927F928F929F922C
:103CD000AF92BF92CF92DF92EF92FF920F931F931A
:103CE000CF93DF93CDB7DEB7CA1BDB0B0FB6F894CB
:103CF000DEBF0FBECDBF19942A88398848885F84FB
:103D00006E847D848C849B84AA84B984C884DF807B
:103D1000EE80FD800C811B81AA81B981CE0FD11D5F
:103D20000FB6F894DEBF0FBECDBFED010895CF935F
:103D3000DF938230910510F482E090E0E0910F046F
:103D4000F091100440E050E020E030E026C06081B7
:103D5000718168177907E0F06817790781F482812B
:103D600093812115310531F0D90113969C938E93DF
:103D700012972BC09093100480930F0426C0411516
:103D8000510519F06417750718F4AB01E901DF015B
:103D90009F0172816381E72FF62F3097C1F641159D
:103DA000510501F1481B590B4430510580F412961E
:103DB0008D919C911397209719F09B838A8304C05F
:103DC0009093100480930F04FD01329646C0FD01CC
:103DD000E40FF51F819391934250504011965C93EC
:103DE0004E933BC020910D0430910E0421153105F6
:103DF00041F420911D0330911E0330930E04209353
:103E00000D0420911F03309120032115310541F449
:103E10002DB73EB740911B0350911C03241B350B5B
:103E2000E0910D04F0910E04E217F307A0F42E1BAD
:103E30003F0B2817390778F0AC014E5F5F4F24170E
:103E4000350748F04E0F5F1F50930E0440930D044A
:103E50008193919302C0E0E0F0E0CF01DF91CF9138
:103E60000895CF93DF93009709F491C0FC01329736
:103E70001382128260910F04709110046115710514
:103E800081F420813181280F391F80910D04909198
:103E90000E048217930799F5F0930E04E0930D0436
:103EA00076C0DB0180E090E002C0CD01D901AE1701
:103EB000BF0748F412962D913C91139721153105B7
:103EC000A1F7CD0121C0B383A283EF01499159919C
:103ED0009E01240F351FA217B30779F42D913C9151
:103EE0001197240F351F2E5F3F4F31832083129689
:103EF0002D913C91139733832283009729F4F093FB
:103F00001004E0930F0443C0DC011396FC93EE937E
:103F100012974D915D91A40FB51FEA17FB0769F445
:103F200020813181240F351F2E5F3F4FEC013983F3
:103F30002883228133813B832A83E0E0F0E002C0C2
:103F4000FB01BC01DB0112968D919C9113970097A8
:103F5000B9F79B012E5F3F4F8D919C911197820F76
:103F6000931F40910D0450910E044817590779F49E
:103F7000309729F41092100410920F0402C013829B
:103F800012822250304030930E0420930D04DF91B2
:103F9000CF910895F5D058F080E891E009F49EEFB4
:103FA000F6D028F040E851E059F45EEF09C0C0C0F7
:103FB00028C1E92FE07803D168F3092E052AC1F35F
:103FC000261737074807590738F00E2E07F8E0255F
:103FD00069F0E025E0640AC0EF6307F8009407FA8F
:103FE000DB01B9019D01DC01CA01AD01EF9341D0B4
:103FF000D5D00AD05F91552331F02BED3FE049E455
:1040000050FD49EC60CA0895DF93DD27B92FBF77D3
:1040100040E85FE31616170648075B0710F4D92F30
:10402000F7D09F938F937F936F935AD1E4EEF0E094
:1040300082D0B4D02F913F914F915F91FAD0DD2380
:1040400049F09058A2EA2AED3FE049EC5FE3D078CE
:104050005D2756D1DF91A2C09AD040F091D030F0C8
:1040600021F45F3F19F05EC05111CCC061C0A7D0F0
:1040700098F39923C9F35523B1F3951B550BBB272F
:10408000AA2762177307840738F09F5F5F4F220FDC
:10409000331F441FAA1FA9F333D00E2E3AF0E0E8D5
:1040A00030D091505040E695001CCAF729D0FE2F21
:1040B00027D0660F771F881FBB1F261737074807B3
:1040C000AB07B0E809F0BB0B802DBF01FF27935869
:1040D0005F4F2AF09E3F510568F024C093C05F3FB8
:1040E000ECF3983EDCF3869577956795B795F79551
:1040F0009F5FC9F7880F911D9695879597F9089549
:10410000E1E0660F771F881FBB1F621773078407E4
:10411000BA0720F0621B730B840BBA0BEE1F88F7F3
:10412000E095089597F99F6780E870E060E0089552
:104130009FEF80EC0895DF93CF931F930F93FF922F
:10414000EF92DF927B018C01689405C0DA2EEF01BB
:1041500070D0FE01E894A591259135914591559136
:10416000AEF3EF01CDD0FE019701A801DA9479F703
:10417000DF90EF90FF900F911F91CF91DF91089505
:1041800000240A9416161706180609060895002436
:104190000A9412161306140605060895092E0394B0
:1041A000000C11F4882352F0BB0F40F4BF2B11F424
:1041B00060FF04C06F5F7F4F8F4F9F4F089557FD83
:1041C0009058440F551F59F05F3F71F04795880F85
:1041D00097FB991F61F09F3F79F08795089512161C
:1041E00013061406551FF2CF4695F1DF08C01616C8
:1041F00017061806991FF1CF869571056105089479
:104200000895E894BB2766277727CB0197F908958F
:104210009B01AC0160E070E080E89FE3C4C0B0DFC8
:1042200028F0B5DF18F0952309F07CCF81CF112459
:10423000E9CFC5DFA0F3959FD1F3950F50E0551F4F
:10424000629FF001729FBB27F00DB11D639FAA27EB
:10425000F00DB11DAA1F649F6627B00DA11D661F3A
:10426000829F2227B00DA11D621F739FB00DA11D5B
:10427000621F839FA00D611D221F749F3327A00D15
:10428000611D231F849F600D211D822F762F6A2FB1
:1042900011249F5750408AF0E1F088234AF0EE0F36
:1042A000FF1FBB1F661F771F881F91505040A9F743
:1042B0009E3F510570F036CFA5CF5F3FECF3983E9F
:1042C000DCF3869577956795B795F795E7959F5FAA
:1042D000C1F7FE2B880F911D9695879597F9089544
:1042E0009B01AC011DC94CDF30F051DF20F031F4EF
:1042F0009F3F11F41EF41CCF0EF4E095E7FB12CFA4
:10430000E92F5DDF80F3BA1762077307840795070B
:1043100018F071F49EF575CF0EF4E0950B2EBA2FC0
:10432000A02D0B01B90190010C01CA01A0011124BB
:10433000FF27591B99F0593F50F4503E68F11A1667
:10434000F040A22F232F342F4427585FF3CF4695F8
:1043500037952795A795F0405395C9F77EF41F161A
:10436000BA0B620B730B840BBAF09150A1F0FF0FE4
:10437000BB1F661F771F881FC2F70EC0BA0F621FD0
:10438000731F841F48F4879577956795B795F795C0
:104390009E3F08F0B3CF9395880F08F09927EE0F52
:0C43A00097958795089563DEF9CEFFCF56
:1043AC0002FFFFFFFF6602000066020000FFFFFF36
:1043BC000501A6000000000000000000010202033D
:1043CC00030303040404040404040405050505059F
:1043DC00050505050505050505050506060606067C
:1043EC000606060606060606060606060606060661
:1043FC00060606060606060606060607070707074C
:10440C000707070707070707070707070707070730
:10441C000707070707070707070707070707070720
:10442C000707070707070707070707070707070710
:10443C0007070707070707070707070808080808FB
:10444C0008080808080808080808080808080808E0
:10445C0008080808080808080808080808080808D0
:10446C0008080808080808080808080808080808C0
:10447C0008080808080808080808080808080808B0
:10448C0008080808080808080808080808080808A0
:10449C000808080808080808080808080808080890
:1044AC000808080808080808080808080808080880
:1044BC000808080808080808080808200011040063
:0244CC000000EE
:00000001FF
