:100000000C94BE000C94DD000C94DD000C94DD001B
:100010000C94DD000C94DD000C94DD000C94DD00EC
:100020000C94DD000C94DD000C9463190C94DD003D
:100030000C94DD000C94A0190C94DD000C94DD00F0
:100040000C94DD000C94DD000C94DD000C94DD00BC
:100050000C94DD000C94DD000C94DD000C94DD00AC
:100060000C94DD000C949D1E0C94DD000C94DD00BE
:100070000C94DD000C9401010C94DD000C94DD0067
:100080000C94C8030C94DA030C94DD000C947503F3
:100090000C94DD000C94DD000C94DD000C94DD006C
:1000A0000C94DD000C94DD000C9451030C9463035C
:1000B0000C94DD000C94FC020C94DD000C94DD002B
:1000C0000C94DD000C94DD000C94DD000C94DD003C
:1000D0000C94DD000C94DD000C94DD000C94DD002C
:1000E0000C94DD0063152F15C8144716D6152F166E
:1000F00069143314D5139F132B0E2B0E2B0E2B0EBE
:100100002B0E2B0E8C1379132B0E2B0E2B0E2B0E6E
:100110002B0E2B0E2B0E2B0E2B0E2B0E2B0E2B0E17
:10012000D513C814761358132B0E2B0E2B0E2B0E33
:100130002B0E2B0E2B0E2B0E2B0E2B0E2B0E2B0EF7
:10014000D61569142B0E2B0E63152F16B015084A01
:10015000D73B3BCE016E84BCBFFDC12F3D6C7431DB
:100160009ABD56833DDA3D00C77F11BED9E4BB4C32
:100170003E916BAAAABE000000803F0011241FBE62
:10018000CFEFD1E2DEBFCDBF00E00CBF13E0A0E0B7
:10019000B2E0EAE9F4E502C005900D92AE31B10794
:1001A000D9F714E0AEE1B3E001C01D92A238B10767
:1001B000E1F70E94E3080C944C2A0C9400002227DB
:1001C0003327281B390BC9010895EAE7F0E0808145
:1001D00086608083ACE7B0E08C9180648C938081F2
:1001E00080628083ABE7B0E08C91887F8C938081C4
:1001F0008860808380818068808380818064808340
:1002000008951F920F920FB60F920BB60F92112402
:100210002F933F934F938F939F93EF93FF938091EF
:1002200046049091470401969093470480934604B6
:100230008091780090E040917900342F20E0822B6B
:10024000932B20918903223009F412C1233008F442
:1002500044C0233009F4FFC0243009F4D1C0809198
:100260008A03823009F4B8C0833008F052C0882372
:1002700009F08DC08091240386958093230380919B
:100280008B03882309F025C181E08093890381E0F5
:1002900080938A0390912303983008F06DC0909169
:1002A0007B00977F90937B0090912303905C9093C9
:1002B0007C00823021F48FEF8093050112B8FF910A
:1002C000EF919F918F914F913F912F910F900BBE86
:1002D0000F900FBE0F901F901895222309F068C051
:1002E000209124032E3009F402C1E22FF0E0EE0F3A
:1002F000FF1FE75DFC4F918380832F5F20932403D2
:10030000283108F4ACCF1092240381E0809392034B
:10031000A6CF833009F48BC0843009F0BBCF909115
:100320002603909323039091270390938B0390913E
:100330008C03992309F0CAC083E08093890310924B
:100340008A03209124032E3009F4CBC0822F90E041
:1003500020FFB5C0203108F0A2C02E3009F4D9C06A
:10036000269581E090E002C0880F991F2A95E2F758
:1003700082B980918A038ECF90917B009860909390
:100380007B0090912303985C90937C0092CF813006
:1003900009F080CF80912503809323038091280367
:1003A00080938C031092890382E080938A0372CF3A
:1003B000213009F054CF2091C6033091C703280F94
:1003C000391F369527953093C7032093C603809134
:1003D0008A03823009F048CF80912603809323035B
:1003E0008091270380938B0380918C03882309F0ED
:1003F00074C083E08093890383E080938A034ACFAB
:100400002091D4033091D503280F391F3093D503A1
:100410002093D4032091CC033091CD032F5F3F4F25
:100420003093CD032093CC0380931F0418CF809189
:100430002503809323038091280380938C0380916C
:100440008B03882309F03EC081E08093890384E018
:1004500080938A031FCF2091C4033091C503280FD6
:10046000391F369527953093C5032093C403F7CEE3
:100470002091D8033091D903280F391F3093D90325
:100480002093D8032091D0033091D1032F5F3F4FA9
:100490003093D1032093D00380931E04E0CE40918B
:1004A000050140979595879521E030E002C0220F25
:1004B000331F8A95E2F7209524232093050180912C
:1004C0008A03E8CE82E080938903C1CF80938903B9
:1004D00036CF82E080938903DACE84E0809389036B
:1004E0008BCF80918F03813079F080E0D3CE309133
:1004F0008F03323009F0F9CE90938E0380938D03F1
:1005000010928F034698F9CE82E080938F03469A2B
:100510001DCF80918F03813009F022CF82E080933C
:100520008F03469A80918A03B5CEE0E8F0E080819F
:10053000896A8083E1E8F0E080818960808380912E
:100540000C0290E0909389008093880080910D02C6
:1005500090E090938B0080938A0080910E0290E04F
:1005600090938D0080938C00E0E9F0E080818368B7
:100570008083808183608083A1E9B0E08C918B606F
:100580008C938091E0039091E10390939900809384
:10059000980010929B0010929A00A1E7B0E08C9115
:1005A00081608C9380818F7580838EB1877E8EB9B8
:1005B000E0EAF0E0808183688083A1EAB0E08C917A
:1005C0008B608C938091E4039091E5039093A90054
:1005D0008093A8001092AB001092AA00A2E7B0E0AE
:1005E0008C9181608C9380818F758083E2E0F1E053
:1005F0008081877E808308951F920F920FB60F929D
:1006000011248F939F93AF93BF93109228038091EF
:10061000C4039091C5039093C9038093C80380914C
:10062000CC039091CD039093CF038093CE03809120
:10063000D4039091D5039093D7038093D60310925F
:10064000C5031092C4031092CD031092CC031092F4
:10065000D5031092D40381E0809310048093120498
:100660008091E4039091E503A091E603B091E70344
:100670000097A105B10529F0181619061A061B06E0
:1006800064F48FE080932503BF91AF919F918F9188
:100690000F900FBE0F901F9018958EE0809325034A
:1006A000F3CF1F920F920FB60F9211248F9381E018
:1006B000809328038EE0809325038F910F900FBEC7
:1006C0000F901F9018951F920F920FB60F92112442
:1006D0008F9381E0809328038FE0809325038F918F
:1006E0000F900FBE0F901F9018951F920F920FB68C
:1006F0000F9211248F939F93AF93BF931092270370
:100700008091C6039091C7039093CB038093CA0353
:100710008091D8039091D9039093DB038093DA03FF
:100720008091D0039091D1039093D3038093D2030F
:100730001092C7031092C6031092D9031092D803E7
:100740001092D1031092D00381E080931104809124
:10075000E0039091E103A091E203B091E3030097DD
:10076000A105B10529F0181619061A061B0664F42E
:100770008DE080932603BF91AF919F918F910F9051
:100780000FBE0F901F9018958CE080932603F3CF37
:100790001F920F920FB60F9211248F9381E08093D6
:1007A00027038CE0809326038F910F900FBE0F904C
:1007B0001F9018951F920F920FB60F9211248F93CE
:1007C00081E0809327038DE0809326038F910F9023
:1007D0000FBE0F901F901895DF93CF9300D000D0DD
:1007E000CDB7DEB780912A048823C1F0813009F4A7
:1007F00089C010922C0410922B0410922E04109297
:100800002D041092300410922F0426960FB6F894FF
:10081000DEBF0FBECDBFCF91DF910895809113024F
:100820000E94E01D80E00E945B1E809113028F5F9A
:100830000E942D1E0E946D1E89830E946D1E8A8358
:100840000E946D1E8B830E946D1E8C830E946D1E04
:100850008D830E94771E8E830E94531E80914904CF
:100860008823F9F03A8120E0898190E0822B932B54
:1008700090932C0480932B043C8120E08B8190E0AA
:10088000822B932B90932E0480932D043E8120E0A5
:100890008D8190E0822B932B9093300480932F04D2
:1008A000B4CF3A8120E0898190E0822B932B209174
:1008B000370430913804821B930B90932C0480935F
:1008C0002B043C8120E08B8190E0822B932B2091A4
:1008D000390430913A04821B930B90932E04809339
:1008E0002D043E8120E08D8190E0822B932B20917E
:1008F0003B0430913C04821B930B90933004809313
:100900002F0483CF809113020E94E01D82E38BCFDE
:10091000FF920F931F93DF93CF930F92CDB7DEB764
:1009200080912A04882391F0813009F470C01092DC
:100930002C0410922B0410922E0410922D040F9070
:10094000CF91DF911F910F91FF9008958091130235
:100950000E94E01D80E00E945B1E809113028F5F69
:100960000E942D1E0E946D1E082F0E946D1EF82EE3
:100970000E946D1E182F0E94771E89830E94531EAD
:100980009091490489819923D9F05F2D40E0202F6F
:1009900030E0242B352B30932C0420932B04382F5C
:1009A00020E0812F90E0822B932B90932E04809354
:1009B0002D040F90CF91DF911F910F91FF9008951B
:1009C0005F2D40E0202F30E0242B352B4091370461
:1009D00050913804241B350B30932C0420932B04A6
:1009E000382F20E0812F90E0822B932B2091390427
:1009F00030913A04821B930B90932E0480932D0424
:100A00000F90CF91DF911F910F91FF9008958091EA
:100A100013020E94E01D82E39ECF809113020E9488
:100A2000E01D882351F486E10E945B1E85E40E944C
:100A30005B1E0E94531E80E008950E94531E81E0B9
:100A40000895809113020E94E01D882331F58DE204
:100A50000E945B1E88E00E945B1E0E94531E8091D4
:100A600013020E94E01D8823C1F481E30E945B1EF3
:100A700080E00E945B1E0E94531E809113020E9420
:100A8000E01D882351F48CE20E945B1E89E00E94E5
:100A90005B1E0E94531E80E008950E94531E81E059
:100AA00008950E94D81D809113020E94E01D8823A2
:100AB00049F486E10E945B1E85E40E945B1E0E9451
:100AC000531E08950E94531E86EA90E090931402EC
:100AD0008093130286EA0E94E01D882341F58DE28F
:100AE0000E945B1E88E00E945B1E0E94531E809144
:100AF00013020E94E01D8823D1F481E30E945B1E53
:100B000080E00E945B1E0E94531E809113020E948F
:100B1000E01D882361F48CE20E945B1E89E00E9444
:100B20005B1E0E94531E81E080932A0408950E9458
:100B3000531E82E080932A040895CF93DF9310928E
:100B400038041092370410923A041092390410922B
:100B50003C0410923B04C2E3D0E00E94EC0380917D
:100B60002B0490912C042091370430913804820F8B
:100B7000931F9093380480933704E0912D04F091F3
:100B80002E042091390430913A04E20FF31FF093C0
:100B90003A04E093390420912F04309130044091BD
:100BA0003B0450913C04240F351F30933C042093A8
:100BB0003B04219791F6C2E3D0E0BE010E94BC271E
:100BC0007093380460933704CF01BE010E94BC27A4
:100BD00070933A0460933904C901BE010E94BC2796
:100BE00070933C0460933B04DF91CF910895EF92A2
:100BF000FF920F931F930E94880460912B047091C1
:100C00002C04882777FD8095982F0E9472247B0101
:100C10008C0160912D0470912E04882777FD8095BA
:100C2000982F0E9472249B01AC01C801B7010E9459
:100C3000522821EE3EE245E652E40E9488220E94BC
:100C4000D0249B0170933E0460933D0477FF06C05F
:100C500028593E4F30933E0420933D041F910F913D
:100C6000FF90EF900895F8940E94B61D80917A004D
:100C7000866080937A0080917C00806480937C0001
:100C800080917A00806280937A0080917B00887FD7
:100C900080937B0080917A00886080937A008091B5
:100CA0007A00806880937A0080917A0080648093D3
:100CB0007A000E9495020E9490170E9443180E9499
:100CC000811E0E94D81D809113020E94E01D88237E
:100CD00051F486E10E945B1E85E40E945B1E0E9427
:100CE000531E789408950E94531E86EA90E09093D4
:100CF00014028093130286EA0E94E01D882341F5C6
:100D00008DE20E945B1E88E00E945B1E0E94531EC3
:100D1000809113020E94E01D8823D1F481E30E9498
:100D20005B1E80E00E945B1E0E94531E8091130296
:100D30000E94E01D882361F48CE20E945B1E89E022
:100D40000E945B1E0E94531E81E080932A04C9CF3B
:100D50000E94531E82E080932A047894089581E0D3
:100D600090912404891B80932404882339F4809172
:100D70008000877F809380002F9808958091800065
:100D80008860809380008FEF90E090938D00809337
:100D90008C000895882359F090918000906890937A
:100DA000800090E09093890080938800089580915E
:100DB00080008F77809380002D980895882359F0C4
:100DC0009091800090629093800090E090938B00CF
:100DD00080938A000895809180008F7D80938000A9
:100DE0002E980895882359F09091800098609093F0
:100DF000800090E090938D0080938C000895809106
:100E00008000877F809380002F98089581E08093F1
:100E10004504089586B166B126B146B130E0287028
:100E20003070359527953595279535952795220F5F
:100E3000331F70E064707070759567957595679550
:100E4000260F371F220F331F50E042705070559508
:100E50004795240F351F220F8170820F0895CF927E
:100E6000DF92EF92FF920F931F93CF93DF938091C6
:100E7000E8039091E903A091EA03B091EB03B7FD79
:100E800003C1209123048091EC039091ED03A09184
:100E9000EE03B091EF03B7FDFDC0A0912204C22F75
:100EA000D0E0B0E0F0905B0300915C0390915F03B1
:100EB00080916003E92FF82FF7FDF2C0F595E795D3
:100EC00010916303E090640390916703809168033D
:100ED000692F782F77FDE8C07595679570956195B6
:100EE0007F4F9D012C0F3D1F359527958F2D902FFE
:100EF00097FDD8C095958795AF01481B590B8091F8
:100F0000610390916203480F591FC12EDE2CC60168
:100F100097FDD5C095958795840F951F860F971FD0
:100F20004091590350915A03841B950B96958795D0
:100F300096958795820F931FCA1BDB0BD7FDBDC00B
:100F4000D595C7956E0F7F1F20915D0330915E038D
:100F5000620F731F4F2D502F57FDACC0559547950D
:100F6000460F571F212F3E2D37FDA1C035952795E0
:100F7000421B530B2091650330916603421B530BB8
:100F800056954795569547954C0F5D1F9A01280F2A
:100F9000391F841B950B880F991F880F991FAA274B
:100FA00097FDA095BA2F8093190490931A04A093EB
:100FB0001B04B0931C04220F331F220F331F44273E
:100FC00037FD4095542F2093150430931604409319
:100FD000170450931804243361E0360760E0460795
:100FE00060E0560764F023E331E040E050E02093F6
:100FF0001504309316044093170450931804843357
:1010000061E0960760E0A60760E0B60764F083E35E
:1010100091E0A0E0B0E08093190490931A04A093AB
:101020001B04B0931C042D3C6EEF36076FEF460790
:101030006FEF560764F42DEC3EEF4FEF5FEF209318
:1010400015043093160440931704509318048D3CF4
:101050002EEF92072FEFA2072FEFB20764F48DEC6B
:101060009EEFAFEFBFEF8093190490931A04A09303
:101070001B04B0931C04DF91CF911F910F91FF903F
:10108000EF90DF90CF900895209123042195209335
:101090002304F9CEA0912204A195A0932204FFCEAF
:1010A00031960CCF019626CF6F5F7F4F15CF2F5F04
:1010B0003F4F5CCF4F5F5F4F51CF219641CF01969D
:1010C00029CF8091490390914A0320914B0330919D
:1010D0004C03821B930B60914D0370914E03209142
:1010E0004F0330915003621B730B40915103509199
:1010F00052032091530330915403421B530B57FD6D
:1011000056C02091550330915603E0915703F0915A
:1011100058032E1B3F0B37FD53C097FD4EC09093D5
:10112000530480935204E3E0F0E0F0931502E0935F
:10113000140277FD3FC06817790758F47093530481
:101140006093520482E090E0909315028093140221
:10115000CB014817590758F4509353044093520455
:1011600081E090E09093150280931402CA01281741
:10117000390748F430935304209352041092150217
:1011800010921402C9018437910580F4109215045D
:101190001092160410921704109218041092190459
:1011A00010921A0410921B0410921C04089540E03F
:1011B00050E0A7CF60E070E0BECF80E090E0AFCF1E
:1011C00020E030E0AACF2F923F924F925F926F9231
:1011D0007F928F929F92AF92BF92CF92DF92EF92C7
:1011E000FF920F931F93DF93CF93CDB7DEB7A897EE
:1011F0000FB6F894DEBF0FBECDBF81E08093100222
:101200000E9433060E945319FF24F39494E6C92EDA
:10121000D12C8FEF282E312CEE24EA9466B146B102
:1012200086B126B190E088709070959587959595D8
:10123000879595958795880F991F50E04470507059
:101240005595479555954795840F951F880F991F7C
:1012500030E02270307035952795820F931F880FEC
:101260006170860F809348040E94EC038091920382
:10127000882309F0C9C220914904809046049090C7
:10128000470430E283163EE4930610F0F0928F0399
:10129000222309F4E5C100914A0410914B040F3058
:1012A00011050CF0E1C18091C303882309F4B6CF86
:1012B0001092C3030115110511F40C947B12609177
:1012C0003F047091400440914104509142045EA358
:1012D0004DA3809143049091440498A78FA320913B
:1012E000930330919403409195035091960380901D
:1012F000970390909803A0909903B0909A03409020
:101300009B0350909C0360909D0370909E0380917E
:101310009F039091A003A091A103B091A2038983A0
:101320009A83AB83BC838091A3039091A403A09183
:10133000A503B091A6038D839E83AF83B887809168
:10134000A7039091A803A091A903B091AA0389874C
:101350009A87AB87BC878091AB039091AC03A09137
:10136000AD03B091AE038D879E87AF87B88B809118
:10137000AF039091B003A091B103B091B203898BF8
:101380009A8BAB8BBC8B8091B3039091B403A091EB
:10139000B503B091B6038D8B9E8BAF8BB88F8091C8
:1013A000B7039091B803A091B903B091BA03898FA4
:1013B0009A8FAB8FBC8F8091BB039091BC03A0919F
:1013C000BD03B091BE038D8F9E8FAF8FB8A3809168
:1013D000BF039091C003A091C103B091C20389A340
:1013E0009AA3ABA3BCA38091590390915A03AA2757
:1013F00097FDA095BA2F820F931FA41FB51F80934E
:10140000930390939403A0939503B09396038091D4
:101410005B0390915C03AA2797FDA095BA2F880DD6
:10142000991DAA1DBB1D8093970390939803A093C9
:101430009903B0939A0380915D0390915E03AA276C
:1014400097FDA095BA2F840D951DA61DB71D8093FD
:101450009B0390939C03A0939D03B0939E03809164
:101460005F0390916003AA2797FDA095BA2F89800A
:101470009A80AB80BC80880D991DAA1DBB1D8093EE
:101480009F039093A003A093A103B093A203809124
:10149000610390916203AA2797FDA095BA2F2D8131
:1014A0003E814F815885820F931FA41FB51F8093E3
:1014B000A3039093A403A093A503B093A6038091E4
:1014C000630390916403AA2797FDA095BA2F89849E
:1014D0009A84AB84BC84880D991DAA1DBB1D809382
:1014E000A7039093A803A093A903B093AA038091A4
:1014F000650390916603AA2797FDA095BA2F2D85C5
:101500003E854F855889820F931FA41FB51F809376
:10151000AB039093AC03A093AD03B093AE03809163
:10152000670390916803AA2797FDA095BA2F898831
:101530009A88AB88BC88880D991DAA1DBB1D809315
:10154000AF039093B003A093B103B093B203809123
:10155000690390916A03AA2797FDA095BA2F2D8958
:101560003E894F89588D820F931FA41FB51F80930A
:10157000B3039093B403A093B503B093B6038091E3
:101580006B0390916C03AA2797FDA095BA2F898CC5
:101590009A8CAB8CBC8C880D991DAA1DBB1D8093A9
:1015A000B7039093B803A093B903B093BA038091A3
:1015B0006D0390916E03AA2797FDA095BA2F2D8DEC
:1015C0003E8D4F8D58A1820F931FA41FB51F80938E
:1015D000BB039093BC03A093BD03B093BE03809163
:1015E0006F0390917003AA2797FDA095BA2F89A049
:1015F0009AA0ABA0BCA0880D991DAA1DBB1D80930D
:10160000BF039093C003A093C103B093C203809122
:101610002B0490912C04860F971F90934004809385
:101620003F0480912D0490912E04ADA0BEA08A0DA0
:101630009B1D909342048093410480912F049091CC
:1016400030042FA138A5820F931F909344048093F8
:1016500043040F5F1F4F10934B0400934A04DECDE9
:1016600000914A0410914B040F30110509F4A3C4F2
:1016700080911102882309F0DDC220E282162EE457
:10168000920620F010924704109246040E946818B7
:10169000882309F00DC380914804882309F0AEC067
:1016A00080911204882309F4ACC08091E8039091E2
:1016B000E903A091EA03B091EB03809315049093A2
:1016C0001604A0931704B09318048091EC03909132
:1016D000ED03A091EE03B091EF0380931904909372
:1016E0001A04A0931B04B0931C0480914C0488231B
:1016F00009F0D1C780915104882309F055C7109291
:101700001204F0921D0421E080911004882301F15D
:101710008091CE039091CF038230910508F4F5C5F6
:101720008091D6039091D7036091CE037091CF033F
:1017300030911E04831B9109615070400E94A827BC
:101740007093DD036093DC03F09213041092100495
:1017500080911104882301F18091D2039091D303E9
:101760008230910508F4D6C58091DA039091DB03AD
:101770006091D2037091D30330911F04831B9109B0
:10178000615070400E94A8277093DF036093DE03CE
:10179000F092140410921104222309F43FCD109208
:1017A0001D042091190430911A0440911B0450919A
:1017B0001C042093E4033093E5034093E603509325
:1017C000E7038091150490911604A0911704B0913D
:1017D00018048093E0039093E103A093E203B09395
:1017E000E303B7FDA5C5909399008093980057FD3A
:1017F00096C53093A9002093A80010CD823009F43B
:10180000CDC020911D0480CF1092920320914904F5
:10181000222309F402C18091290390912A03409167
:101820002B0350912C03841B950B90935A038093A8
:10183000590397FD3DC680912D0390912E03409151
:101840002F0350913003841B950B90935C0380937E
:101850005B0397FD37C6809131039091320340912D
:10186000330350913403841B950B90935E03809354
:101870005D0397FD22C68091350390913603409118
:10188000370350913803841B950B9093600380932A
:101890005F0397FD2BC68091390390913A034091E5
:1018A0003B0350913C03841B950B90936203809300
:1018B000610397FD16C680913D0390913E034091D0
:1018C0003F0350914003841B950B909364038093D6
:1018D000630397FD01C680914103909142034091BB
:1018E000430350914403841B950B909366038093AC
:1018F000650397FDECC580914503909146034091A7
:10190000470350914803841B950B90936803809381
:10191000670397FDC8C58091490390914A034091A0
:101920004B0350914C03841B950B90936A03809357
:10193000690397FDB3C580914D0390914E0340918B
:101940004F0350915003841B950B90936C0380932D
:101950006B0397FD9EC58091510390915203409176
:10196000530350915403841B950B90936E03809303
:101970006D0397FD89C58091550390915603409161
:10198000570350915803841B950B909370038093D9
:101990006F0397FD4AC1F092C3036FCC809112048C
:1019A000882309F42ECF80911304882309F429CFCA
:1019B00080911404882309F424CF8091E803909146
:1019C000E903A091EA03B091EB038093150490938F
:1019D0001604A0931704B09318048091EC0390911F
:1019E000ED03A091EE03B091EF038093190490935F
:1019F0001A04A0931B04B0931C04109212041092BA
:101A000013041092140489E194E065E174E00E94EB
:101A1000C71AF0921D0421E077CE8091290390919E
:101A20002A0340912B0350912C03841B950B40916A
:101A3000710350917203841B950B90935A0380930A
:101A4000590397FDEFC480912D0390912E0340918F
:101A50002F0350913003841B950B409173035091D9
:101A60007403841B950B90935C0380935B0397FD39
:101A7000D4C480913103909132034091330350914B
:101A80003403841B950B4091750350917603841B9E
:101A9000950B90935E0380935D0397FDF0C4809156
:101AA0003503909136034091370350913803841BDE
:101AB000950B4091770350917803841B950B90937D
:101AC000600380935F0397FDD5C4809139039091A3
:101AD0003A0340913B0350913C03841B950B40918A
:101AE000790350917A03841B950B90936203809342
:101AF000610397FDBAC480913D0390913E034091EC
:101B00003F0350914003841B950B40917B03509100
:101B10007C03841B950B909364038093630397FD70
:101B20009FC480914103909142034091430350919F
:101B30004403841B950B40917D0350917E03841BCD
:101B4000950B909366038093650397FD84C4809101
:101B50004503909146034091470350914803841BED
:101B6000950B40917F0350918003841B950B9093BC
:101B700068038093670397FD69C48091490390913E
:101B80004A0340914B0350914C03841B950B4091A9
:101B9000810350918203841B950B90936A03809379
:101BA000690397FD4EC480914D0390914E0340917F
:101BB0004F0350915003841B950B40918303509128
:101BC0008403841B950B90936C0380936B0397FDA8
:101BD00033C480915103909152034091530350912B
:101BE0005403841B950B4091850350918603841BFD
:101BF000950B90936E0380936D0397FD18C48091AD
:101C00005503909156034091570350915803841BFC
:101C1000950B4091870350918803841B950B9093FB
:101C2000700380936F0397FFB6CE109270031092EB
:101C30006F03B1CE0E949D198093260490912704D2
:101C4000992309F432C310922704E82FF0E0E5331A
:101C5000F10508F423C58091E8039091E903A09170
:101C6000EA03B091EB032091EC033091ED03409136
:101C7000EE035091EF03B7FD2FC5B595A795979546
:101C80008795B595A795979587958093230457FDDC
:101C9000FBC25595479537952795559547953795A7
:101CA0002795209322048090460490904704E5CC29
:101CB00087E060E70E94AB188CE694E00E949318DE
:101CC0000E948D1890917004892F8F778093230440
:101CD00030917104232F2F772093220497FD52C453
:101CE00090E0880F991F880F991F909581959F4FBD
:101CF000AA2797FDA095BA2F8093E8039093E90354
:101D0000A093EA03B093EB0337FD2AC430E0220F1F
:101D1000331F220F331F309521953F4F442737FD46
:101D20004095542F2093EC033093ED034093EE0342
:101D30005093EF03843361E0960760E0A60760E00C
:101D4000B60764F083E391E0A0E0B0E08093E8039D
:101D50009093E903A093EA03B093EB032433E1E00B
:101D60003E07E0E04E07E0E05E0794F023E3822EBA
:101D700021E0922EA12CB12C8092EC039092ED03E5
:101D8000A092EE03B092EF0323E331E040E050E095
:101D90008D3C6EEF96076FEFA6076FEFB60764F402
:101DA0008DEC9EEFAFEFBFEF8093E8039093E903D4
:101DB000A093EA03B093EB032D3C9EEF39079FEF0E
:101DC00049079FEF590784F40DEC802E0EEF902EFB
:101DD0000FEFA02E0FEFB02E8092EC039092ED0348
:101DE000A092EE03B092EF0340916C0450E0509348
:101DF00067044093660420916D0430E030936904D9
:101E000020936804E0916E04F0E0F0936B04E0939B
:101E10006A04942F8827841B950BB6010E94A8277B
:101E2000462F409540930C02922F8827821B930BDC
:101E3000B6010E94A827609560930E029E2F882706
:101E40008E1B9F0BB6010E94A827609560930D0220
:101E5000442309F483C280918000806880938000CD
:101E600050E0509389004093880080910D028823B0
:101E700009F46DC29091800090629093800090E090
:101E800090938B0080938A0080910E02882309F43E
:101E900057C29091800098609093800090E090935A
:101EA0008D0080938C0080916F0480FF2CC2449839
:101EB00081FF27C24598982F82FFFFC1F09211023F
:101EC00094FDFFC196FFF6C1F0924C04880F880B79
:101ED0008F218093510480910B02809356048430AB
:101EE00009F40CC7853008F040C2833009F05DC0AA
:101EF0009091590380915A0390935704809358040A
:101F000090915B0380915C039093590480935A04F1
:101F100090915D0380915E0390935B0480935C04D9
:101F200090915F038091600390935D0480935E04C1
:101F3000909163038091640390935F0480936004A5
:101F4000909165038091660390936104809362048D
:101F50009091670380916803909363048093640475
:101F6000209103018091030190E08072907095951B
:101F70008795959587959595879595958795959549
:101F80008795880F991F30E020713070359527951F
:101F9000359527953595279535952795822B8093EF
:101FA000650444E0942E90920B0286E594E060E193
:101FB0000E94201970CB60919303709194038091DB
:101FC0009503909196030E94232520E030E040E79E
:101FD00051E40E9487230E94BE2070937203609395
:101FE0007103609197037091980380919903909188
:101FF0009A030E94232520E030E040E751E40E944C
:1020000087230E94BE2070937403609373036091D2
:102010009B0370919C0380919D0390919E030E946D
:10202000232520E030E040E751E40E9487230E940E
:10203000BE20709376036093750360919F03709147
:10204000A0038091A1039091A2030E94232520E088
:1020500030E040E751E40E9487230E94BE20709345
:102060007803609377036091A3037091A403809138
:10207000A5039091A6030E94232520E030E040E7CD
:1020800051E40E9487230E94BE2070937A036093DC
:1020900079036091A7037091A8038091A90390919F
:1020A000AA030E94232520E030E040E751E40E948B
:1020B00087230E94BE2070937C0360937B03609112
:1020C000AB037091AC038091AD039091AE030E947D
:1020D000232520E030E040E751E40E9487230E945E
:1020E000BE2070937E0360937D036091AF03709177
:1020F000B0038091B1039091B2030E94232520E0A8
:1021000030E040E751E40E9487230E94BE20709394
:10211000800360937F036091B3037091B403809157
:10212000B5039091B6030E94232520E030E040E7FC
:1021300051E40E9487230E94BE2070938203609323
:1021400081036091B7037091B8038091B9039091B6
:10215000BA030E94232520E030E040E751E40E94CA
:1021600087230E94BE207093840360938303609151
:10217000BB037091BC038091BD039091BE030E948C
:10218000232520E030E040E751E40E9487230E94AD
:10219000BE2070938603609385036091BF037091A6
:1021A000C0038091C1039091C2030E94232520E0C7
:1021B00030E040E751E40E9487230E94BE207093E4
:1021C00088036093870360913F04709140048827DF
:1021D00077FD8095982F0E94722420E030E040E740
:1021E00051E40E9487230E94D024709338046093A6
:1021F00037048091410490914204B8010E94BC27A9
:1022000070933A04609339046091430470914404DC
:10221000882777FD8095982F0E94722420E030E077
:1022200040E751E40E9487230E94D02470933C042D
:1022300060933B041092490410924B0410924A049C
:10224000E0920C02E0920D02E0920E02809180007A
:10225000806880938000309289002092880080916D
:10226000800080628093800030928B0020928A00F0
:10227000809180008860809380004FEF50E0509301
:102280008D0040938C00F4C9509540953095219570
:102290003F4F4F4F5F4F559547953795279555952C
:1022A0004795379527952093220480904604909077
:1022B0004704E3C910924C0409CE1092110294FF16
:1022C00001CEF092490410924B0410924A041092ED
:1022D0000C0210920D0210920E02909180009F77D6
:1022E000909380002D98909180009F7D9093800026
:1022F0002E9890918000977F909380002F98982F30
:10230000E1CD459AD8CD449AD3CD1092DD031092F9
:10231000DC031ACA1092DF031092DE0339CA30952B
:1023200021953F4F3093AB002093AA000C940E09E7
:10233000909581959F4F90939B0080939A0057CAE8
:1023400080918000877F809380002F98ACCD809112
:1023500080008F7D809380002E9896CD80918000A4
:102360008F77809380002D9880CD853009F407C544
:10237000863009F01ACE8091390390913A03809308
:1023800057048091390390913A03909358048091B7
:10239000490390914A038093590480914903909195
:1023A0004A0390935A0480914D0390914E03809379
:1023B0005B0480914D0390914E0390935C04809157
:1023C00051039091520380935D0480915103909149
:1023D000520390935E04809155039091560380932D
:1023E0005F048091550390915603909360049091FF
:1023F0002F04809130049093610480936204909143
:102400008D0380918E0390936304809364041092F3
:10241000650423E020930B02C8CD10925C03109258
:102420005B0327CB10925A03109259030CCB1092E6
:102430006E0310926D03E3CB10926C0310926B034A
:10244000C8CB10926A0310926903ADCB1092680357
:102450001092670392CB109266031092650377CBBC
:1024600010926403109263035CCB1092620310928B
:10247000610341CB1092600310925F0326CB109250
:102480005E0310925D030BCB10926E0310926D03EE
:1024900072CA10926C0310926B035DCA10926A03A9
:1024A0001092690348CA109268031092670333CAF6
:1024B00010925A0310925903BEC910925E031092F3
:1024C0005D03D9C910925C0310925B03C4C91092DA
:1024D0006603109265030FCA10926403109263039F
:1024E000FAC91092620310926103E5C91092600369
:1024F00010925F03D0C919A21AA21BA21CA21D8EA2
:102500001E8E1F8E18A2198E1A8E1B8E1C8E1D8A6F
:102510001E8A1F8A188E198A1A8A1B8A1C8A1D868F
:102520001E861F86188A19861A861B861C861D829F
:102530001E821F82188619821A821B821C824424E2
:102540005524320188249924540120E030E0A90167
:1025500018A61FA21EA21DA260E070E00C94F30951
:1025600030E0220F331F220F331F442737FD4095E1
:10257000542F2093EC033093ED034093EE035093DC
:10258000EF03D8CB90E0880F991F880F991FAA27D7
:1025900097FDA095BA2F8093E8039093E903A09349
:1025A000EA03B093EB03B0CB4091490350914A0347
:1025B00080914B0390914C03481B590BE0914D03C4
:1025C000F0914E0380914F0390915003E81BF90B5B
:1025D0002091510330915203809153039091540301
:1025E000281B390B37FD2FC480915503909156035A
:1025F0006091570370915803861B970B97FD1CC47D
:1026000057FD1EC4509353044093520463E070E09E
:102610007093150260931402F7FD18C4E417F507D0
:1026200058F4F0935304E0935204A2E0B0E0B09366
:102630001502A0931402AF012417350758F4309304
:10264000530420935204E1E0F0E0F0931502E0938C
:102650001402A9018417950748F4909353048093BA
:1026600052041092150210921402AC014437510525
:1026700008F045C810921504109216041092170421
:10268000109218041092190410921A0410921B044C
:1026900010921C0434C80E942F072CC8EE58FF4F1C
:1026A000EE0FFF1F0590F491E02D199480934C04D8
:1026B000109251048091E8039091E903A091EA03FC
:1026C000B091EB032091EC033091ED034091EE03C8
:1026D0005091EF03B7FFD1CAB095A0959095819521
:1026E0009F4FAF4FBF4FC9CA10924C04F092510494
:1026F000B2CA10924C048091E8039091E903A09132
:10270000EA03B091EB032091EC033091ED0340918B
:10271000EE035091EF03AFCAF0924C048091E803AE
:102720009091E903A091EA03B091EB032091EC03AF
:102730003091ED034091EE035091EF039CCA20913C
:10274000EC033091ED034091EE035091EF032E51D5
:102750003040404050402093EC033093ED034093D1
:10276000EE035093EF032A396DEF36076FEF4607FC
:102770006FEF56070CF06EC08AE99DEFAFEFBFEF29
:102780008093EC039093ED03A093EE03B093EF03DB
:102790008091E8039091E903A091EA03B091EB03E3
:1027A0002AE93DEF4FEF5FEF66CA2091E8033091D1
:1027B000E9034091EA035091EB038091E403909187
:1027C000E503A091E603B091E703281739074A070C
:1027D0005B0744F02091EC033091ED034091EE0350
:1027E0005091EF03DA01C9014E97A109B109809315
:1027F000E8039093E903A093EA03B093EB039C01F1
:10280000AD018093EC039093ED03A093EE03B0939E
:10281000EF038A396DEF96076FEFA6076FEFB607E4
:1028200084F47AE9872E7DEF972E7FEFA72E7FEF36
:10283000B72E8092E8039092E903A092EA03B09247
:10284000EB038A396DEF96076FEFA6076FEFB607B8
:102850000CF492CF8091E8039091E903A091EA03F0
:10286000B091EB0308CA8091E8039091E903A0912D
:10287000EA03B091EB034E97A109B1098093E803F5
:102880009093E903A093EA03B093EB038A39EDEF49
:102890009E07EFEFAE07EFEFBE070CF0E6C20AE9C6
:1028A000802E0DEF902E0FEFA02E0FEFB02E809206
:1028B000E8039092E903A092EA03B092EB0320911F
:1028C000EC033091ED034091EE035091EF0389E961
:1028D000DCC98091E8039091E903A091EA03B091EB
:1028E000EB034E97A109B1098093E8039093E903A4
:1028F000A093EA03B093EB032091EC033091ED0336
:102900004091EE035091EF03225E3F4F4F4F5F4FD8
:102910002093EC033093ED034093EE035093EF03C9
:102920008A39EDEF9E07EFEFAE07EFEFBE07A4F495
:102930006AE9862E6DEF962E6FEFA62E6FEFB62EFC
:102940008092E8039092E903A092EA03B092EB032D
:102950008AE99DEFAFEFBFEF273662E0360760E010
:10296000460760E056070CF486C936E6832E32E04F
:10297000932EA12CB12C8092EC039092ED03A092A7
:10298000EE03B092EF0326E632E040E050E073C978
:102990008091E8039091E903A091EA03B091EB03E1
:1029A0002091EC033091ED034091EE035091EF0341
:1029B000281739074A075B070CF461C2DA01C9011D
:1029C0004E96A11DB11D8093E8039093E903A09357
:1029D000EA03B093EB03225E3F4F4F4F5F4F2093CC
:1029E000EC033093ED034093EE035093EF038736EF
:1029F00062E0960760E0A60760E0B60764F086E64E
:102A000092E0A0E0B0E08093E8039093E903A09304
:102A1000EA03B093EB03273692E0390790E04907C9
:102A200090E059070CF416CFE6E68E2EE2E09E2EDB
:102A3000A12CB12C8092EC039092ED03A092EE03B6
:102A4000B092EF038091E8039091E903A091EA032B
:102A5000B091EB0326E632E040E050E00CC98091F3
:102A6000E8039091E903A091EA03B091EB034E963D
:102A7000A11DB11D8093E8039093E903A093EA039D
:102A8000B093EB038736E2E09E07E0E0AE07E0E0BC
:102A9000BE070CF4EAC186E6882E82E0982EA12CAF
:102AA000B12C8092E8039092E903A092EA03B092DD
:102AB000EB032091EC033091ED034091EE03509134
:102AC000EF0389E9E2C88091280490E0019665E06F
:102AD00070E00E94BC2780932804882309F0D2C1AB
:102AE000449A459A10920E02E0920D02E0920C0276
:102AF00080918000806880938000309289002092CD
:102B0000880080910D02882309F4CAC19091800049
:102B100090629093800090E090938B0080938A0065
:102B200080910E02882309F4C6C1909180009860BC
:102B30009093800090E090938D0080938C00809122
:102B4000E8039091E903A091EA03B091EB0320918F
:102B5000EC033091ED034091EE035091EF038BC8ED
:102B60008091290490E001968370907080932904ED
:102B7000823009F4B9CD833009F46BC1813009F496
:102B800095CD10924C04109251048091E8039091DD
:102B9000E903A091EA03B091EB032091EC0330919B
:102BA000ED034091EE035091EF0365C88091E80377
:102BB0009091E903A091EA03B091EB034E96A11D19
:102BC000B11D8093E8039093E903A093EA03B093C7
:102BD000EB032091EC033091ED034091EE03509113
:102BE000EF032E513040404050402093EC0330938F
:102BF000ED034093EE035093EF03873662E09607B0
:102C000060E0A60760E0B60764F086E692E0A0E028
:102C1000B0E08093E8039093E903A093EA03B093B4
:102C2000EB032A39EDEF3E07EFEF4E07EFEF5E07BC
:102C30000CF021C82AE9822E2DEF922E2FEFA22E22
:102C40002FEFB22E8092EC039092ED03A092EE0350
:102C5000B092EF032AE93DEF4FEF5FEF0CC81092FF
:102C6000E8031092E9031092EA031092EB0310922A
:102C7000EC031092ED031092EE031092EF0320E0AC
:102C800030E0A90180E090E0DC010C943D0E209141
:102C9000EC033091ED034091EE035091EF03225E7F
:102CA0003F4F4F4F5F4F2093EC033093ED03409322
:102CB000EE035093EF03273662E0360760E04607E5
:102CC00060E056070CF4C6CD86E692E0A0E0B0E0E6
:102CD0008093EC039093ED03A093EE03B093EF0386
:102CE0008091E8039091E903A091EA03B091EB038E
:102CF00026E632E040E050E00C943B0E90916103F8
:102D000080916203909357048093580490916903D3
:102D100080916A039093590480935A0490916B03B5
:102D200080916C0390935B0480935C0490916D039D
:102D300080916E0390935D0480935E0490916F0385
:102D40008091700390935F048093600490912B04B2
:102D500080912C04909361048093620490912D04DF
:102D600080912E04909363048093640480912604E0
:102D70008093650435E0A32EA0920B0216C98091C2
:102D8000290390912A0380935704809129039091FD
:102D90002A039093580480912D0390912E038093E1
:102DA000590480912D0390912E0390935A048091A1
:102DB00031039091320380935B04809131039091B1
:102DC000320390935C048091350390913603809395
:102DD0005D04809135039091360390935E04809159
:102DE0003D0390913E0380935F0480913D03909159
:102DF0003E0390936004809141039091420380933D
:102E00006104809141039091420390936204809108
:102E1000450390914603809363048091450390910C
:102E2000460390936404809148048093650426E0EF
:102E3000B22EB0920B02B9C880E090E057FFE2CB0F
:102E400040E050E0DFCB20E030E0CECBE0E0F0E04F
:102E5000E5CBF0924C04F09251048091E8039091FC
:102E6000E903A091EA03B091EB032091EC033091C8
:102E7000ED034091EE035091EF030C943B0E9C0147
:102E8000AD019ECD8130F1F1823069F1833009F4DA
:102E900040C0E0920E02E0920D02E0920C0228CEB9
:102EA000809180008F7D809380002E9880910E020B
:102EB000882309F03ACE80918000877F809380003C
:102EC0002F988091E8039091E903A091EA03B091D3
:102ED000EB032091EC033091ED034091EE03509110
:102EE000EF030C943B0E44984598E0920E02E0925A
:102EF0000D0210920C02809180008F7780938000E9
:102F00002D98FFCDE0920E0210920D02E0920C027D
:102F1000EFCD10920E0210920D0210920C02EBCF28
:102F200084B1807F84B984B1876084B980E58CBD29
:102F30008DB581608DBD0895442379F0A82FB92FF8
:102F4000E62FF72F80E09D919EBD0DB407FEFDCFCB
:102F50009EB591938F5F8417B0F30895662359F05F
:102F6000E82FF92F80E091919EBD0DB407FEFDCFB3
:102F70008F5F8617C0F308958EBD0DB407FEFDCF99
:102F80008EB508950F931F93DF93CF9300D0CDB7E5
:102F9000DEB7289880E20E94BC178DE00E94BC1723
:102FA000289A289883E20E94BC1781E00E94BC17EF
:102FB000289A8CE0898380E88A831B82289880E3A2
:102FC0000E94BC178E010F5F1F4FC80163E00E9473
:102FD000AE17289A28988AE20E94BC17C80163E0BD
:102FE0000E94AE17289A289881E20E94BC1781E0BF
:102FF0000E94BC17289A289882E20E94BC1781E0A0
:103000000E94BC17289A289884E20E94BC1782E18B
:103010000E94BC17289A289885E20E94BC1788E273
:103020000E94BC17289A289881E30E94BC1786E06A
:103030000E94BC17289A289880E50E94BC1783E755
:103040000E94BC17289A28988CE30E94BC1781E044
:103050000E94BC17289A28988DE30E94BC1786E02E
:103060000E94BC17289A289880E20E94BC178FE023
:103070000E94BC17289A0F900F900F90CF91DF916C
:103080001F910F9108952C9A289A0E94C2170895B3
:10309000CF93DF93EC012C9828988AE20E94BC170A
:1030A000CE0165E00E94AE17289A2C9ADF91CF914D
:1030B0000895CF93DF93EC01289880E30E94BC171A
:1030C000CE0165E00E94AE17289ADF91CF91089556
:1030D00080915504882311F080E0089528988FEF9F
:1030E0000E94BC17289A80740895DF93CF930F92A3
:1030F000CDB7DEB71982289887E10E94BC17BE01C0
:103100006F5F7F4FCB0141E00E949C17289A898115
:1031100081700F90CF91DF910895289882EE0E94E0
:10312000BC17289A0895CF93DF93EC01289881E685
:103130000E94BC17CE01BE0146E00E949C17289A4F
:10314000289887E20E94BC1780E40E94BC17289A46
:10315000DF91CF910895DF93CF930F92CDB7DEB774
:1031600028988F71806269830E94BC176981862FBD
:103170000E94BC17289A0F90CF91DF9108950F936A
:103180001F93DF93CF930F92CDB7DEB78B012898B3
:103190008F7149830E94BC17C801B80149810E9400
:1031A0009C17289A0F90CF91DF911F910F9108954E
:1031B0000F931F93DF93CF930F92CDB7DEB78B01A1
:1031C00028988F71806249830E94BC17C801498189
:1031D000642F0E94AE17289A0F90CF91DF911F9114
:1031E0000F9108950F931F93DF93CF930F92CDB755
:1031F000DEB78C01809155048823E1F72C9881E09B
:1032000080935504289880E269830E94BC178AE461
:103210000E94BC17289A289881EE0E94BC17289A11
:10322000289880EA0E94BC17C80169810E94AE17E5
:10323000289A2C9A0F90CF91DF911F910F910895AA
:10324000EF92FF920F931F93DF93CF930F92CDB71F
:10325000DEB7182F062F289881EE99830E94BC179D
:10326000289A289888EA0E94BC179981002361F067
:10327000612F792F7B01F70181917F010E94BC179B
:103280008E2D811B8017B8F3289A0F90CF91DF9174
:103290001F910F91FF90EF900895289881EE0E9462
:1032A000BC17289A0895E8E6F0E080818260808368
:1032B000ECE6F0E0808180688083E0EBF0E08081E4
:1032C0008260808308951F920F920FB60F9211248F
:1032D0008F9380911102882321F18091030186FD53
:1032E00020C0809168008D7F8093680080916C0081
:1032F0008F7780936C0081E0809312028DE0809341
:10330000B3008091B10086608093B100809170001D
:10331000826080937000109220031092210310921B
:1033200022038F910F900FBE0F901F9018958091E0
:103330000002089580911E03089580911F0308954F
:103340001F920F920FB60F9211242F933F934F931A
:103350005F938F939F938091B100887F8093B1009A
:10336000809112028823A9F08091030186FF65C035
:103370008091680082608093680080916C00806812
:1033800080936C008FEF9FEF909302028093010275
:1033900049C080910102909102022FEF8F3F920766
:1033A00009F463C08130910509F498C09C01225052
:1033B00030402530310508F467C09C01275030406B
:1033C0002630310508F0BDC026E32093B3002091DC
:1033D000B10026602093B1002091700022602093FC
:1033E00070002091030130E0207430700024220F1F
:1033F000331F001C220F331F001C232F302D4CE0E5
:1034000050E0481B590B02C0220F331F4A95E2F7C8
:1034100040912003420F40932003019690930202B3
:10342000809301029F918F915F914F913F912F91D6
:103430000F900FBE0F901F9018951092120283E309
:103440008093B3008091B10086608093B100809139
:10345000700082608093700080910102909102025E
:103460002FEF8F3F9207C9F6DDCF2091030126FF92
:1034700052C02091680022602093680020916C0067
:10348000206820936C00CECF26E32093B3002091D8
:10349000B10026602093B10020917000226020933B
:1034A00070002091030130E0207430700024220F5E
:1034B000331F001C220F331F001C232F302D46E02A
:1034C00050E0481B590B02C0220F331F4A95E2F708
:1034D00040912103420F409321039FCF209103018C
:1034E00030E020743070022E232F000C221F330B8B
:1034F000000C221F331F2093220326E32093B300E6
:103500002091B10026602093B100209170002260CC
:103510002093700082CF8CE18093B3008091B10042
:1035200086608093B100809170008260809370000B
:1035300010922003109221031092220381E090E068
:103540006DCF8D30910509F068CF80916800826061
:103550008093680080916C00806880936C008FEF8E
:103560009FEF909302028093010280912203809347
:1035700000028091210380931E0380912003809399
:103580001F0381E0809327044DCF089508952F9263
:103590003F924F925F926F927F928F929F92AF92E3
:1035A000BF92CF92DF92EF92FF920F931F93DF9320
:1035B000CF93CDB7DEB72C970FB6F894DEBF0FBE12
:1035C000CDBF9C878B8779876887FC0120803180FD
:1035D00042805380FB01A080B180C280D38021143F
:1035E00031044104510431F4A114B104C104D104E3
:1035F00009F4BDC160907A0470907B0480907C04D3
:1036000090907D0460927E0470927F04809280048A
:1036100090928104D7FC35C28091DE039091DF0344
:10362000A0E0B0E086017501E81AF90A0A0B1B0B4D
:10363000E092FC03F092FD030093FE031093FF035E
:10364000E0927A04F0927B0400937C0410937D0452
:103650006091040470910504809106049091070420
:103660006E0D7F1D801F911F6093040470930504ED
:1036700080930604909307046138FCE07F07F0E034
:103680008F07F0E09F070CF08BC16038E3EF7E07F7
:10369000EFEF8E07EFEF9E070CF42CC20E9472240E
:1036A0009B01AC010E945B226D837E838F839A878E
:1036B000C801B7010E94722420E030E048EC52E4D7
:1036C0000E94882269837A838B839C83C801B70117
:1036D00066197709880999090E94722420E030E070
:1036E00040E251E40E9488229B01AC0169817A8109
:1036F0008B819C810E945B22BD81AE81EF806A84B8
:103700002B2F3A2F4E2D562D0E945B220E94D02443
:103710007B018C0160930C0470930D0480930E0464
:1037200090930F04C601B50128E730E040E050E077
:103730000E9489276E0D7F1D801F911F6093F003EB
:103740007093F1038093F2039093F30397FD76C196
:1037500016161706180619060CF07DC1D7FCFDC118
:10376000613CEDE57E07E0E08E07E0E09E070CF4AB
:1037700072C180EC9DE5A0E0B0E08093F0039093EF
:10378000F103A093F203B093F303A0907204B090FE
:103790007304C0907404D0907504A0927604B09223
:1037A0007704C0927804D092790457FC7DC180914F
:1037B000DC039091DD03A0E0B0E082017101E81A22
:1037C000F90A0A0B1B0BE092F803F092F90300933D
:1037D000FA031093FB03E0927204F09273040093D7
:1037E0007404109375046091000470910104809139
:1037F0000204909103046E0D7F1D801F911F609342
:1038000000047093010480930204909303046138D0
:103810002CE0720720E0820720E092070CF4D3C06E
:1038200080E89CE0A0E0B0E0809300049093010465
:10383000A0930204B093030419821D8288EC8E8346
:10384000E5E4EF83C801B7010E94722420E030E074
:1038500048EC52E40E9488223B014C01C801B701A8
:103860006A197B098C099D090E94722420E030E0CE
:1038700040E251E40E9488229B01AC01C401B301E3
:103880000E945B22B981AD81EE80AF802B2F3A2F51
:103890004E2D5A2D0E945B220E94D0247B018C0168
:1038A000609308047093090480930A0490930B04B6
:1038B000C201B10128E730E040E050E00E948927D2
:1038C0006E0D7F1D801F911F6093F4037093F503AD
:1038D0008093F6039093F70397FD89C01616170699
:1038E000180619060CF090C057FC17C1613CEDE5B5
:1038F0007E07E0E08E07E0E09E070CF485C080ECD8
:103900009DE5A0E0B0E08093F4039093F503A093CD
:10391000F603B093F70364EB70E080E090E0EB8592
:10392000FC8560837183828393836091F00370913F
:10393000F1038091F2039091F30326E632E040E038
:1039400050E00E94892720E039E04DE350E00E94DA
:10395000CF27CA01B9012CE330E040E050E00E94DB
:103960008927E885F98560837183828393832C9608
:103970000FB6F894DEBF0FBECDBFCF91DF911F9180
:103980000F91FF90EF90DF90CF90BF90AF909F90FE
:103990008F907F906F905F904F903F902F90089501
:1039A00080E89CE0A0E0B0E08093040490930504DC
:1039B000A0930604B09307041D821E8228EC2F8377
:1039C00085E48A8775CE6038F3EF7F07FFEF8F07B6
:1039D000FFEF9F070CF47BC00E9472249B01AC0197
:1039E0000E945B2269837D838E839F832BCF57FC4C
:1039F0000BC01092F4031092F5031092F60310928C
:103A0000F70360E070E0CB016034F2EA7F07FFEF7C
:103A10008F07FFEF9F070CF08BC080E492EAAFEFB7
:103A2000BFEF8093F4039093F503A093F603B09354
:103A3000F7036CE47FEF8FEF9FEF71CFD7FC0BC0E4
:103A40001092F0031092F1031092F2031092F3031C
:103A500060E070E0CB016034F2EA7F07FFEF8F0790
:103A6000FFEF9F070CF091CE80E492EAAFEFBFEF3B
:103A70008093F0039093F103A093F203B093F303C8
:103A800084CEE090DE03F090DF0300E010E0EA0C6B
:103A9000FB1C0C1D1D1DE092FC03F092FD03009326
:103AA000FE031093FF03CCCDE090DC03F090DD0328
:103AB00000E010E0E20CF31C041D151DE092F80379
:103AC000F092F9030093FA031093FB0384CE80E88D
:103AD00093EFAFEFBFEF8093000490930104A093A6
:103AE0000204B093030419821D8228EC2E8385EC16
:103AF0008F83A8CE80E893EFAFEFBFEF80930404ED
:103B000090930504A0930604B09307041D821E82BF
:103B1000F8ECFF8325EC2A87CBCD1092F4031092AA
:103B2000F5031092F6031092F70360E070E0CB010A
:103B300026E632E040E050E00E94892720E039E0AC
:103B40004DE350E00E94CF27CA01B9012CE330E0D9
:103B500040E050E00E948927E2CE1092F0031092DC
:103B6000F1031092F2031092F3030FCE8FEF81B99D
:103B700012B897EF94B990EE95B990EF97B990EB92
:103B800098B99CEF9AB993E09BB98DB91EB810BA59
:103B900083BB14BA80930101109202019FE89093B5
:103BA00004011092070180930A0110920B010895FD
:103BB000589A599A1092B90080E28093B8000895FB
:103BC00094EA9093BC009091BC0097FFFCCF909139
:103BD000B900987F983021F0903111F081E008957C
:103BE0008093BB0084E88093BC008091BC0087FF79
:103BF000FCCF9091B900987F983121F081E090340A
:103C000019F0089580E0089580E0089524EA34E8EA
:103C100044E92093BC009091BC0097FFFCCF9091A9
:103C2000B900987F983011F0903199F78093BB00DC
:103C30003093BC009091BC0097FFFCCF9091B900ED
:103C4000987F903219F0983509F008954093BC00A0
:103C50009091BC0094FDFCCFDCCF94EA9093BC0023
:103C60009091BC0097FFFCCF9091B900987F98305D
:103C700021F0903111F081E008958093BB0084E839
:103C80008093BC008091BC0087FFFCCF9091B9006D
:103C9000987F983121F081E0903419F0089580E008
:103CA000089580E0089584E98093BC008091BC0071
:103CB00084FDFCCF08958093BB0084E88093BC0012
:103CC0008091BC0087FFFCCF9091B900987F81E084
:103CD000983209F0089580E0089584EC8093BC0048
:103CE0008091BC0087FFFCCF8091BB00089584E8E1
:103CF0008093BC008091BC0087FFFCCF8091BB000B
:103D000008951092C50080E18093C400E0ECF0E0DB
:103D1000808182608083E1ECF0E08081886980832B
:103D2000E2ECF0E080818660808308959091C0008D
:103D300095FFFCCF8093C60008951F920F920FB697
:103D40000F9211242F938F939F93AF93BF938091E2
:103D5000C600909110029923C9F0823309F456C02D
:103D6000833358F5803309F479C0813329F481E035
:103D700080930F0210921002BF91AF919F918F918B
:103D80002F910F900FBE0F901F90189590910F02DA
:103D9000923009F441C0933008F1943009F489C09D
:103DA000943008F46CC0953039F7833729F71092B6
:103DB000250481E080931002DFCF843309F459C0D9
:103DC000843308F450C08533B9F685E080930F0240
:103DD0001092100281E080932504CECF992391F5B3
:103DE0008D3209F405C18B3221F780910C0290E0ED
:103DF0000A9797FD9CC180930C02882309F499C10E
:103E000090E09093890080938800B6CF82E0809301
:103E10000F0210921002B0CF8D3209F42FC18B32F5
:103E200041F680910E0290E00A9797FD92C180932F
:103E30000E02882309F48FC190E090938D00809347
:103E40008C009ACF913009F097CF8D3209F4B9C028
:103E50008B3209F447C0909310028ECF10920F025C
:103E60001092100289CF83E080930F02109210020B
:103E700083CF84E080930F02109210027DCF8B32AB
:103E800009F413C18D3209F46DC0833709F091CF65
:103E90001092E0031092E1031092E2031092E30308
:103EA000109299001092980010929B0010929A0024
:103EB00063CF8B3209F4B3C08D3229F1833709F017
:103EC00078CF1092E4031092E5031092E60310926B
:103ED000E7031092A9001092A8001092AB00109274
:103EE000AA004ACF80910D0290E00A9797FD28C161
:103EF00080930D02882309F425C190E090938B00F4
:103F000080938A0039CF8091E4039091E503A091DA
:103F1000E603B091E7034E97A109B1098093E4034A
:103F20009093E503A093E603B093E7038A392DEF5E
:103F300092072FEFA2072FEFB2070CF013C18AE907
:103F40009DEFAFEFBFEF8093E4039093E503A09361
:103F5000E603B093E70386E692E09093AB0080938C
:103F6000AA000ACF8091E0039091E103A091E203BF
:103F7000B091E3034E97A109B1098093E0039093B8
:103F8000E103A093E203B093E3038A392DEF920794
:103F90002FEFA2072FEFB2070CF0EAC08AE99DEFDE
:103FA000AFEFBFEF8093E0039093E103A093E203B0
:103FB000B093E30386E692E090939B0080939A008F
:103FC000DBCE8091800080628093800080910D0222
:103FD00090E00A968F3F910519F014F08FEF90E072
:103FE00080930D0290E090938B0080938A00C4CE62
:103FF0008091800080688093800080910C0290E026
:104000000A968F3F910519F014F08FEF90E080939E
:104010000C0290E09093890080938800ADCE80914F
:10402000E4039091E503A091E603B091E7034E9677
:10403000A11DB11D8093E4039093E503A093E603D3
:10404000B093E703873622E0920720E0A20720E042
:10405000B2070CF458C086E692E0A0E0B0E080938E
:10406000E4039093E503A093E603B093E70386E6A9
:1040700092E09093A9008093A8007ECE809180006A
:1040800088608093800080910E0290E00A968F3FB6
:10409000910519F014F08FEF90E080930E0290E0FC
:1040A00090938D0080938C0067CE8091E003909177
:1040B000E103A091E203B091E3034E96A11DB11D6F
:1040C0008093E0039093E103A093E203B093E303B2
:1040D000873622E0920720E0A20720E0B207ECF04A
:1040E00086E692E0A0E0B0E08093E0039093E103E5
:1040F000A093E203B093E30386E692E090939900E5
:104100008093980039CEB7FFB4CF909581959F4F9B
:104110009093AB008093AA002FCEB7FFEFCF90957E
:1041200081959F4F90939B0080939A0025CE10928B
:104130000C02809180008F77809380002D981CCE98
:1041400010920D02809180008F7D809380002E98C8
:1041500013CE10920E0280918000877F80938000A2
:104160002F980ACEB7FF85CF909581959F4FF5CEBA
:10417000B7FFC4CF909581959F4F1ECFEF92FF92CE
:104180000F931F937B018C0120E030E040E05FE45F
:104190000E943C2488237CF020E030E040E05FE493
:1041A000C801B7010E942A220E94D02460507040AA
:1041B0008040904804C0C801B7010E94D0241F91DC
:1041C0000F91FF90EF900895A0E0B0E0EAEEF0E2EA
:1041D0000C940E282C015B01FA01DC019C919230B9
:1041E00008F432C1EB018881823008F42CC194308C
:1041F00071F4843009F028C1F20191818981981706
:1042000009F422C116E1412E12E0512E1DC1843065
:1042100009F419C18230A9F4923009F015C1CA011C
:10422000A20128E0DA010D90AD01EC010992CE0166
:104230002150C1F7E5018981E201998189238183B8
:1042400000C1923009F4FFC0E201CA80DB80EB01BB
:104250008A819B81E2012C813D814E815F81EB014E
:10426000EC80FD800E811F81B601681B790BDB019C
:1042700077FF03C0709561957F4F603271050CF038
:104280005DC01A161B065CF566247724430181E0A5
:1042900090E0A0E0B0E0062E04C0880F991FAA1F8E
:1042A000BB1F0A94D2F70197A109B1098E219F2162
:1042B000A023B1230097A105B10529F0B1E06B2E31
:1042C000712C812C912C04C016950795F794E794D6
:1042D0006A95D2F7E628F728082919293BC0AB2BA5
:1042E000C9F1C60ED71E66247724430181E090E011
:1042F000A0E0B0E0062E04C0880F991FAA1FBB1FC4
:104300000A94D2F70197A109B10982239323A42328
:10431000B5230097A105B10529F0A1E06A2E712C03
:10432000812C912C04C056954795379527956A9511
:10433000D2F726293729482959290CC08C159D0503
:1043400034F06C0120E030E040E050E003C0EE24A7
:10435000FF248701E2019981E5018981981709F419
:1043600043C0992339F0E21AF30A040B150BA80194
:10437000970104C02E193F09400B510B57FD08C08F
:104380001182D382C28224833583468357831DC022
:1043900081E08183D382C28288279927DC01821B36
:1043A000930BA40BB50B84839583A683B7830DC0B1
:1043B000220F331F441F551F2483358346835783A1
:1043C0008281938101979383828324813581468101
:1043D0005781DA01C9010197A109B1098F5F9F4F88
:1043E000AF4FBF4328F30BC09183D382C2822E0DFF
:1043F0003F1D401F511F248335834683578383E02D
:10440000808324813581468157815523D4F4C901A5
:10441000AA2797FDA095BA2F81709070A070B070F8
:104420005695479537952795822B932BA42BB52B23
:1044300084839583A683B783828193810196938336
:1044400082832F0101C02501C201E0E1CDB7DEB7B3
:104450000C942A28A0E2B0E0E0E3F2E20C941828E1
:1044600069837A838B839C832D833E834F83588714
:1044700009E0E02EF12CEC0EFD1EB701CE010196F5
:104480000E94C3268E010F5E1F4FB801CE01059614
:104490000E94C3268A8991E089278A8BAE01475EF4
:1044A0005F4FB801C7010E94E4200E94E325E6E0C7
:1044B000A0960C943428A0E2B0E0E1E6F2E20C947D
:1044C000182869837A838B839C832D833E834F8353
:1044D000588789E0E82EF12CEC0EFD1EB701CE01C5
:1044E00001960E94C3268E010F5E1F4FB801CE01B8
:1044F00005960E94C326AE01475E5F4FB801C70113
:104500000E94E4200E94E325E6E0A0960C94342863
:10451000A0E2B0E0EEE8F2E20C940E2869837A8320
:104520008B839C832D833E834F83588799E0E92EAC
:10453000F12CEC0EFD1EB701CE0101960E94C326A0
:104540008E010F5E1F4FB801CE0105960E94C32653
:104550009985923088F089898230C0F0943019F4BE
:10456000823029F009C0843029F4923079F466E170
:1045700072E0C6C0923041F420E09A858A8998138F
:1045800021E02A87B701BCC0823041F420E09A853F
:104590008A89981321E02A8BB801B2C0CD84DE84C9
:1045A000EF84F8880D891E892F89388D88249924F5
:1045B000540140E050E060E070E0442455243201B2
:1045C000E0E0F0E0C60181709070892BD9F0800E98
:1045D000911EA21EB31EDB01CA01840D951DA61DEE
:1045E000B71D40E050E060E070E080169106A20642
:1045F000B30620F441E050E060E070E0480F591F3E
:104600006A1F7B1F440C551C661C771C37FF08C0B3
:1046100081E090E0A0E0B0E0482A592A6A2A7B2A8B
:104620003196E032F10549F0000F111F221F331FB0
:10463000F694E794D794C794C5CF8B899C892B8532
:104640003C85820F931F02969C8F8B8F1A8E9A85C2
:104650008A89981711F081E08A8F2B8D3C8D17C0C5
:10466000CA0181709070892B61F0B694A7949794D9
:10467000879480E090E0A0E0B0E8882A992AAA2AEE
:10468000BB2A76956795579547952F5F3F4F77FDE6
:10469000E7CFC9010BC0440F551F661F771FB7FC3A
:1046A0004160880C991CAA1CBB1C01974030A0E0FB
:1046B0005A07A0E06A07A0E47A0768F39C8F8B8F03
:1046C000DB01CA018F779070A070B07080349105C3
:1046D000A105B10561F447FD0AC081149104A1044C
:1046E000B10429F0405C5F4F6F4F7F4F40784D8F92
:1046F0005E8F6F8F78A383E0898FBE01675E7F4FE7
:10470000CB010E94E325E0E1A0960C942A28A8E1C1
:10471000B0E0EDE8F3E20C94142869837A838B838C
:104720009C832D833E834F8358878E01075F1F4FE5
:10473000B801CE0101960E94C32681E1E82EF12C3A
:10474000EC0EFD1EB701CE0105960E94C3263985E9
:104750003230F8F02989223010F4B70186C08A85FA
:104760009A8989278A87343011F0323029F4321738
:1047700081F466E172E079C0243039F41D861E862A
:104780001F86188A1C861B8604C0223021F484E010
:104790008987B8016AC06B857C858B899C89681B79
:1047A000790B7C876B872D853E854F8558898D8950
:1047B0009E89AF89B88D281739074A075B0740F4EF
:1047C000220F331F441F551F615070407C876B8739
:1047D000A12CB12CC12C10E4D12EEE24FF24870192
:1047E00060E070E0281739074A075B0740F0EA28C5
:1047F000FB280C291D29281B390B4A0B5B0BD6946F
:10480000C794B794A794220F331F441F551F6F5F9F
:104810007F4F6F31710531F7D801C7018F779070E5
:10482000A070B07080349105A105B105B9F4E7FC22
:1048300015C0211531054105510581F080E490E056
:10484000A0E0B0E0E80EF91E0A1F1B1F80E89FEFF2
:10485000AFEFBFEFE822F9220A231B23ED86FE8685
:104860000F87188BBE01675F7F4FCB010E94E32546
:10487000EAE068960C943028A8E1B0E0E2E4F4E2C3
:104880000C94182869837A838B839C832D833E83C1
:104890004F83588789E0E82EF12CEC0EFD1EB701FE
:1048A000CE0101960E94C3268E010F5E1F4FB801F4
:1048B000CE0105960E94C3268985823060F08989E1
:1048C000823048F0B801C7010E943327282F3327D0
:1048D00027FD309502C02FEF3FEFC901E6E0689653
:1048E0000C943428A8E0B0E0E8E7F4E20C94152832
:1048F0009B01AC0183E08983DA01C9018827B7FDF8
:1049000083959927AA27BB27B82E21153105410584
:10491000510519F482E089833AC08823A9F0203038
:1049200080E0380780E0480780E8580729F460E015
:1049300070E080E09FEC30C0EE24FF248701E21A93
:10494000F30A040B150B02C079018A018EE1C82E0F
:10495000D12CDC82CB82ED82FE820F831887C801C6
:10496000B7010E94962501971816190684F4082E9F
:1049700004C0EE0CFF1C001F111F0A94D2F7ED8239
:10498000FE820F831887C81AD90ADC82CB82BA82CA
:10499000CE0101960E94E325E9E028960C94312887
:1049A000ACE0B0E0E6EDF4E20C941C2869837A8375
:1049B0008B839C83BE016B5F7F4FCE0101960E946B
:1049C000C3268D818230A9F1823098F1843021F4A0
:1049D0008E81882359F40FC02F81388537FD29C077
:1049E0006E812F31310564F0662329F020E030E03C
:1049F00040E050E822C02FEF3FEF4FEF5FE71DC0D0
:104A00008EE190E0821B930B29853A854B855C856E
:104A100004C056954795379527958A95D2F7662312
:104A200061F050954095309521953F4F4F4F5F4F26
:104A300004C020E030E040E050E0CA01B901E2E00B
:104A40002C960C943828A8E0B0E0E9E2F5E20C944A
:104A500016287B018C01611571058105910519F4FA
:104A600082E089835AC083E089838EE1C82ED12CED
:104A7000DC82CB82ED82FE820F831887C801B701EA
:104A80000E949625BC016150704077FF33C0EE272D
:104A9000FF27E61BF70B20E030E040E050E081E02C
:104AA00090E0A0E0B0E00E2E04C0880F991FAA1F6E
:104AB000BB1F0A94D2F70197A109B1098E219F214A
:104AC000A023B1230097A105B10521F021E030E03A
:104AD00040E050E004C016950795F794E794EA95F6
:104AE000D2F72E293F29402B512B2D833E834F8314
:104AF00058870FC06115710581F0062E04C0EE0CB9
:104B0000FF1C001F111F0A94D2F7ED82FE820F8353
:104B10001887C61AD70ADC82CB821A82CE01019688
:104B20000E94E325E8E028960C943228EF92FF9249
:104B30000F931F939B01AC01203080E0380781E088
:104B4000480780E0580780F42F3F310541055105A3
:104B500009F020F4EE24FF24870119C068E0E62E56
:104B6000F12C012D112D13C0203080E0380780E09A
:104B7000480781E0580730F490E1E92EF12C012D2F
:104B8000112D05C088E1E82EF12C012D112D80E2B8
:104B900090E0A0E0B0E08E199F09A00BB10B04C01B
:104BA0005695479537952795EA94D2F7F901E25E35
:104BB000FD4F2081821B9109A109B1091F910F911D
:104BC000FF90EF9008959F92AF92BF92CF92DF92A5
:104BD000EF92FF920F931F93EE24FF248701FC01B5
:104BE000248135814681578191808081823010F403
:104BF0004061A2C0843009F49BC0823029F420E0D7
:104C000030E040E050E005C0211531054105510577
:104C100019F4E0E0F0E092C0828193816FEF823876
:104C200096070CF05AC062E87FEF681B790B6A3177
:104C300071052CF020E030E040E050E02AC0AA24CA
:104C4000BB24650181E090E0A0E0B0E0062E04C046
:104C5000880F991FAA1FBB1F0A94D2F70197A109B9
:104C6000B10982239323A423B5230097A105B1059D
:104C700029F071E0A72EB12CC12CD12C04C056957F
:104C80004795379527956A95D2F72A293B294C29CC
:104C90005D29DA01C9018F779070A070B0708034FF
:104CA0009105A105B10539F427FF09C0205C3F4FEC
:104CB0004F4F5F4F04C0215C3F4F4F4F5F4F80E02D
:104CC00090E0203060E0360760E0460760E4560779
:104CD00010F081E090E0FC0123C08038910544F59C
:104CE000FC01E158FF4FDA01C9018F779070A07085
:104CF000B07080349105A105B10539F427FF09C0D2
:104D0000205C3F4F4F4F5F4F04C0215C3F4F4F4FE0
:104D10005F4F57FF05C056954795379527953196B4
:104D200087E056954795379527958A95D1F706C020
:104D300020E030E040E050E0EFEFF0E0E22EF32E34
:104D4000942F9F77802F8078892B9E2F9795992776
:104D500097958F77082F092B9E2F9695812F807816
:104D6000892B9794992497948F77182F1929C80124
:104D7000B7011F910F91FF90EF90DF90CF90BF9000
:104D8000AF909F900895CF93DF93FC01DB012081CA
:104D900031819281492F4F7750E0991F9927991FB0
:104DA0008381E82FEE0FE92B6E2F70E0881F882794
:104DB000881FED018983EE2371F521153105410529
:104DC000510511F482E02FC06E577040FD017383CE
:104DD000628367E0220F331F441F551F6A95D1F786
:104DE00083E08C930AC0220F331F441F551FED012F
:104DF0008A819B8101979B838A832030E0E03E0774
:104E0000E0E04E07E0E45E0770F3ED012C833D83A4
:104E10004E835F8325C0EF3F79F4211531054105AD
:104E2000510519F484E08C931BC044FF03C081E05A
:104E30008C9311C01C920FC06F577040ED017B83A3
:104E40006A8383E08C9387E0220F331F441F551F32
:104E50008A95D1F75064FD012483358346835783B7
:104E6000DF91CF910895CF93DF93DC01FB019C91FB
:104E7000923008F446C08081823008F442C09430F9
:104E800049F4ED016981843079F5818190E0861BD8
:104E900091093CC0843021F0923031F48230A1F18C
:104EA0008181882371F52AC0ED0169818230E1F0AA
:104EB00081816817C9F4ED012A813B818281938148
:104EC000821793078CF028173907B4F0ED018C8115
:104ED0009D81AE81BF81248135814681578128170C
:104EE00039074A075B0718F4662341F40AC08217A2
:104EF0009307A407B50740F4662319F48FEF9FEFDB
:104F000005C081E090E002C080E090E0DF91CF91A9
:104F10000895629FD001739FF001829FE00DF11D03
:104F2000649FE00DF11D929FF00D839FF00D749F23
:104F3000F00D659FF00D9927729FB00DE11DF91FCF
:104F4000639FB00DE11DF91FBD01CF01112408952C
:104F5000AA1BBB1B51E107C0AA1FBB1FA617B7079F
:104F600010F0A61BB70B881F991F5A95A9F78095BB
:104F70009095BC01CD01089597FB092E07260AD014
:104F800077FD04D0E5DF06D000201AF47095619516
:104F90007F4F0895F6F7909581959F4F089597FB61
:104FA000092E05260ED057FD04D014D00AD0001CBF
:104FB00038F450954095309521953F4F4F4F5F4FB6
:104FC0000895F6F790958095709561957F4F8F4F76
:104FD0009F4F0895A1E21A2EAA1BBB1BFD010DC015
:104FE000AA1FBB1FEE1FFF1FA217B307E407F50799
:104FF00020F0A21BB30BE40BF50B661F771F881F75
:10500000991F1A9469F760957095809590959B010A
:10501000AC01BD01CF0108952F923F924F925F9254
:105020006F927F928F929F92AF92BF92CF92DF92B8
:10503000EF92FF920F931F93CF93DF93CDB7DEB71D
:10504000CA1BDB0B0FB6F894DEBF0FBECDBF1994A1
:105050002A88398848885F846E847D848C849B8408
:10506000AA84B984C884DF80EE80FD800C811B8116
:10507000AA81B981CE0FD11D0FB6F894DEBF0FBE45
:10508000CDBFED010895F5D058F080E891E009F426
:105090009EEFF6D028F040E851E059F45EEF09C0E9
:1050A000C0C028C1E92FE07803D168F3092E052A92
:1050B000C1F3261737074807590738F00E2E07F8AF
:1050C000E02569F0E025E0640AC0EF6307F800948A
:1050D00007FADB01B9019D01DC01CA01AD01EF93C3
:1050E00041D0D5D00AD05F91552331F02BED3FE070
:1050F00049E450FD49ECDFC90895DF93DD27B92F5E
:10510000BF7740E85FE31616170648075B0710F401
:10511000D92FF7D09F938F937F936F935AD1EEE45B
:10512000F1E082D0B4D02F913F914F915F91FAD0AE
:10513000DD2349F09058A2EA2AED3FE049EC5FE315
:10514000D0785D2756D1DF91A2C09AD040F091D09F
:1051500030F021F45F3F19F05EC05111CCC061C046
:10516000A7D098F39923C9F35523B1F3951B550B99
:10517000BB27AA2762177307840738F09F5F5F4F2A
:10518000220F331F441FAA1FA9F333D00E2E3AF06B
:10519000E0E830D091505040E695001CCAF729D085
:1051A000FE2F27D0660F771F881FBB1F26173707D4
:1051B0004807AB07B0E809F0BB0B802DBF01FF2704
:1051C00093585F4F2AF09E3F510568F024C093C06A
:1051D0005F3FECF3983EDCF3869577956795B7953E
:1051E000F7959F5FC9F7880F911D9695879597F959
:1051F0000895E1E0660F771F881FBB1F62177307D2
:105200008407BA0720F0621B730B840BBA0BEE1FE6
:1052100088F7E095089597F99F6780E870E060E06F
:1052200008959FEF80EC0895DF93CF931F930F9322
:10523000FF92EF92DF927B018C01689405C0DA2E19
:10524000EF0170D0FE01E894A5912591359145912B
:105250005591AEF3EF01CDD0FE019701A801DA948C
:1052600079F7DF90EF90FF900F911F91CF91DF9131
:10527000089500240A9416161706180609060895BC
:1052800000240A9412161306140605060895092E22
:105290000394000C11F4882352F0BB0F40F4BF2B91
:1052A00011F460FF04C06F5F7F4F8F4F9F4F0895D1
:1052B00057FD9058440F551F59F05F3F71F04795C7
:1052C000880F97FB991F61F09F3F79F087950895AC
:1052D000121613061406551FF2CF4695F1DF08C0CB
:1052E000161617061806991FF1CF869571056105E8
:1052F00008940895E894BB2766277727CB0197F990
:1053000008959B01AC0160E070E080E89FE3FFC975
:10531000B0DF28F0B5DF18F0952309F07CCF81CFFE
:105320001124E9CFC5DFA0F3959FD1F3950F50E08D
:10533000551F629FF001729FBB27F00DB11D639F47
:10534000AA27F00DB11DAA1F649F6627B00DA11DED
:10535000661F829F2227B00DA11D621F739FB00D93
:10536000A11D621F839FA00D611D221F749F332703
:10537000A00D611D231F849F600D211D822F762F9C
:105380006A2F11249F5750408AF0E1F088234AF099
:10539000EE0FFF1FBB1F661F771F881F91505040E5
:1053A000A9F79E3F510570F036CFA5CF5F3FECF3D4
:1053B000983EDCF3869577956795B795F795E795D1
:1053C0009F5FC1F7FE2B880F911D9695879597F9E2
:1053D00008959B01AC019CC84CDF30F051DF20F0F8
:1053E00031F49F3F11F41EF41CCF0EF4E095E7FB5F
:1053F00012CFE92F5DDF80F3BA17620773078407C6
:10540000950718F071F49EF575CF0EF4E0950B2E0C
:10541000BA2FA02D0B01B90190010C01CA01A00106
:105420001124FF27591B99F0593F50F4503E68F161
:105430001A16F040A22F232F342F4427585FF3CFA2
:10544000469537952795A795F0405395C9F77EF473
:105450001F16BA0B620B730B840BBAF09150A1F0BC
:10546000FF0FBB1F661F771F881FC2F70EC0BA0F42
:10547000621F731F841F48F4879577956795B795CA
:10548000F7959E3F08F0B3CF9395880F08F09927C2
:0A549000EE0F979587950895FFCF62
:10549A0002FFFF660200006602000003FFFFFF052D
:1054AA000101013A030000000000000000000001B1
:1054BA0002020303030304040404040404040505A8
:1054CA000505050505050505050505050505060680
:1054DA000606060606060606060606060606060662
:1054EA000606060606060606060606060606070750
:1054FA000707070707070707070707070707070732
:10550A000707070707070707070707070707070721
:10551A000707070707070707070707070707070711
:10552A0007070707070707070707070707070808FF
:10553A0008080808080808080808080808080808E1
:10554A0008080808080808080808080808080808D1
:10555A0008080808080808080808080808080808C1
:10556A0008080808080808080808080808080808B1
:10557A0008080808080808080808080808080808A1
:10558A000808080808080808080808080808080891
:10559A000808080808080808080808080808080881
:0E55AA00080808080808080808080808080883
:00000001FF
