:100000000C94BE000C94DD000C94DD000C94DD001B
:100010000C94DD000C94DD000C94DD000C94DD00EC
:100020000C94DD000C94DD000C94E9070C94DD00C9
:100030000C94DD000C941D080C94DD000C94A712A8
:100040000C94DD000C94DD000C94DD000C94DD00BC
:100050000C94DD000C94DD000C94DD000C94DD00AC
:100060000C94DD000C94A6100C94DD000C94DD00C3
:100070000C94DD000C944B130C94DD000C94DD000B
:100080000C945B170C9471170C94DD000C94CE1635
:100090000C94DD000C94DD000C94DD000C94DD006C
:1000A0000C94DD000C94DD000C94A2160C94B81690
:1000B0000C94DD000C940B160C94DD000C94DD0008
:1000C0000C94DD000C94DD000C94DD000C94DD003C
:1000D0000C94DD000C94DD000C94DD000C94DD002C
:1000E0000C94DD00960A7A0A480A0B0BD50AFE0A20
:1000F0001F0A030AD609BE095F095F095F095F0984
:100100005F095F09B209A7095F095F095F095F0914
:100110005F095F095F095F095F095F095F095F099F
:10012000D609480A9B0996095F095F095F095F09BB
:100130005F095F095F095F095F095F095F095F097F
:10014000D50A1F0A5F095F09960AFE0ABF0A084A14
:10015000D73B3BCE016E84BCBFFDC12F3D6C7431DB
:100160009ABD56833DDA3D00C77F11BED9E4BB4C32
:100170003E916BAAAABE000000803F0011241FBE62
:10018000CFEFD1E2DEBFCDBF00E00CBF13E0A0E0B7
:10019000B2E0EEEBFCE402C005900D92A432B10790
:1001A000D9F714E0A4E2B3E001C01D92A435B10771
:1001B000E1F70E94DF000C945E260C940000FF9291
:1001C0000F931F93CF93DF9381E0809310020E94DF
:1001D00092120E94F11B80919400909195000E94D0
:1001E0000624FF24F3940FEF10E0C4E6D0E00E9451
:1001F0006D12809321040E94311B0E94801F809108
:100200001F04909120042BE48E31920708F0FEC069
:100210000E944D090E94CE04D093F203C093F103D3
:10022000D093F003C093EF03F09224048091210453
:10023000882309F067C080910702882391F080919C
:10024000E3039091E403969587959695879590930F
:10025000E8038093E703109207021092E4031092E0
:10026000E30380910802882391F08091E503909147
:10027000E60396958795969587959093EA038093E4
:10028000E903109208021092E6031092E503D0935E
:10029000FC03C093FB03D093FE03C093FD038DEFDB
:1002A00093E06BEF73E00E9487172091FD0330917C
:1002B000FE033093E2032093E1038091FB039091CE
:1002C000FC039093E0038093DF033093EE032093CD
:1002D000ED039093EC038093EB03181619060CF0D2
:1002E0001EC190939900809398008091ED039091A6
:1002F000EE03181619060CF007C19093A90080931D
:10030000A80075CF813009F4A9C0823009F06FCF01
:10031000D093FE03C093FD03D093FC03C093FB0373
:100320008DEF93E06BEF73E00E9487178091FD03E0
:100330009091FE039093E2038093E1038091FB038D
:100340009091FC039093E0038093DF038091070278
:10035000882359F18091E3039091E4039695879562
:10036000969587959093E8038093E7031092070290
:100370001092E4031092E30380911602813009F495
:1003800014C18DEF93E00E945A0B8091FD03909170
:10039000FE039093EE038093ED03181619060CF0FC
:1003A00009C19093A9008093A80080910802882336
:1003B00009F41DCF8091E5039091E603969587950A
:1003C000969587959093EA038093E903109208022B
:1003D0001092E6031092E50380911602813009F431
:1003E000DFC08BEF93E00E949F0C8091FB03909104
:1003F000FC039093EC038093EB03181619060CF0A2
:1004000077C09093990080939800F1CE10922004C9
:1004100010921F04F092C5030E940124B8010E94AB
:10042000692380930C020E940124B8010E94692371
:1004300080930D020E940124B8010E9469238093D9
:100440000E0280910C020E94C81980910D020E9438
:10045000DC1980910E020E94F019DACED093FE03CF
:10046000C093FD03D093FC03C093FB038DEF93E097
:100470006BEF73E00E9487178091FD039091FE035C
:100480009093E2038093E1038091FB039091FC033E
:100490009093E0038093DF0380910702882309F0A3
:1004A00049C080910802882309F4A1CE8091E50318
:1004B0009091E60396958795969587959093EA0394
:1004C0008093E903109208021092E6031092E5036C
:1004D0008BEF93E00E94E40D8091FB039091FC036D
:1004E0009093EC038093EB03181619060CF489CF54
:1004F000009709F075C01092990010929800109220
:100500009B0010929A0073CE0097D1F51092A9002B
:100510001092A8001092AB001092AA0068CE00972B
:10052000B9F5109299001092980010929B001092C9
:100530009A00DBCE8091E3039091E4039695879532
:10054000969587959093E8038093E70310920702AE
:100550001092E4031092E3038DEF93E00E94C90E22
:100560008091FD039091FE039093EE038093ED0341
:100570001816190654F59093A9008093A80091CFFE
:10058000909581959F4F9093AB008093AA002FCEBA
:10059000909581959F4F90939B0080939A00A5CE54
:1005A0008BEF93E00E94E40D20CF8DEF93E00E944B
:1005B000C90EEBCE0097E1F41092A9001092A800AA
:1005C0001092AB001092AA00F0CE0097C9F41092DE
:1005D000A9001092A8001092AB001092AA0061CF5F
:1005E000909581959F4F90939B0080939A00FFCDAB
:1005F000909581959F4F9093AB008093AA00D5CEA4
:10060000909581959F4F9093AB008093AA0049CF1E
:1006100084B1807F84B984B1876084B980E58CBD62
:100620008DB581608DBD08951CBC1DBC089544230B
:1006300079F0A82FB92FE62FF72F80E09D919EBD6E
:100640000DB407FEFDCF9EB591938F5F8417B0F375
:100650000895662359F0E82FF92F80E091919EBD0F
:100660000DB407FEFDCF8F5F8617C0F308958EBDD2
:100670000DB407FEFDCF8EB508950F931F93DF9342
:10068000CF9300D0CDB7DEB7289880E20E94370321
:100690008DE00E943703289A289883E20E9437034E
:1006A00081E00E943703289A8CE0898380E88A835E
:1006B0001B82289880E30E9437038E010F5F1F4F33
:1006C000C80163E00E942903289A28988AE20E94C0
:1006D0003703C80163E00E942903289A289881E221
:1006E0000E94370381E00E943703289A289882E20B
:1006F0000E94370381E00E943703289A289884E2F9
:100700000E94370382E10E943703289A289885E2E5
:100710000E94370388E20E943703289A289881E3D1
:100720000E9437038DE00E943703289A289880E5BD
:100730000E94370383E70E943703289A28988CE3A6
:100740000E94370381E00E943703289A28988DE39E
:100750000E94370386E00E943703289A289880E297
:100760000E9437038FE00E943703289A0F900F9062
:100770000F90CF91DF911F910F9108952C9A289A95
:100780000E943D030895CF93DF93EC012C982898A5
:100790008AE20E943703CE0165E00E942903289A6D
:1007A0002C9ADF91CF910895CF93DF93EC01289895
:1007B00080E30E943703CE0165E00E942903289A56
:1007C000DF91CF91089580912704882311F080E074
:1007D000089528988FEF0E943703289A807408950F
:1007E000DF93CF930F92CDB7DEB71982289887E1B8
:1007F0000E943703BE016F5F7F4FCB0141E00E9433
:100800001703289A898181700F90CF91DF91089505
:10081000289882EE0E943703289A0895CF93DF9399
:10082000EC01289881E60E943703CE01BE014DE01D
:100830000E941703289A289887E20E94370380E4D1
:100840000E943703289ADF91CF910895DF93CF93C9
:100850000F92CDB7DEB728988F71806269830E94AE
:1008600037036981862F0E943703289A0F90CF9112
:10087000DF9108950F931F93DF93CF930F92CDB71E
:10088000DEB78B0128988F7149830E943703C80116
:10089000B80149810E941703289A0F90CF91DF91E8
:1008A0001F910F9108950F931F93DF93CF930F9292
:1008B000CDB7DEB78B0128988F71806249830E9483
:1008C0003703C8014981642F0E942903289A0F9099
:1008D000CF91DF911F910F9108950F931F93DF9395
:1008E000CF930F92CDB7DEB78C0180912704882378
:1008F000E1F72C9881E080932704289880E26983AF
:100900000E9437038AE40E943703289A289881EED0
:100910000E943703289A289880EA0E943703C8016A
:1009200069810E942903289A2C9A0F90CF91DF9118
:100930001F910F910895EF92FF920F931F93DF93F2
:10094000CF930F92CDB7DEB7182F062F289881EEE0
:1009500099830E943703289A289888EA0E943703CF
:100960009981002361F0612F792F7B01F70181913B
:100970007F010E9437038E2D811B8017B8F3289AC0
:100980000F90CF91DF911F910F91FF90EF900895FD
:10099000289881EE0E943703289A08951F93CF93D9
:1009A000DF9380912704882321F0DF91CF911F915D
:1009B000089528988FEF0E943703289A86FFF5CF75
:1009C000289887E20E94370380E70E943703289A1D
:1009D000289881E60E94370384E494E0BC014DE04E
:1009E0000E941703289A289887E20E94370380E420
:1009F0000E943703289A289882EE0E943703289A8B
:100A000060914404662309F46BC1509148044091FD
:100A10004904E091450470914604252F30E02F777A
:100A200030703093020420930104842F90E08F777C
:100A30009070909300048093FF0357FD15C2220F1E
:100A4000331F220F331F309521953F4F3093F00312
:100A50002093EF0347FD12C2880F991F880F991F3B
:100A6000909581959F4F9093F2038093F10342E01C
:100A70002130340744F040E052E05093F0034093BB
:100A8000EF0320E032E042E08130940734F080E070
:100A900092E09093F2038093F1034EEF20303407FD
:100AA00034F440E05EEF5093F0034093EF032EEFF9
:100AB0008030920734F480E09EEF9093F2038093AD
:100AC000F103262F30E030933D0420933C04F0E006
:100AD000F0933F04E0933E04C72FD0E0D09341044D
:100AE000C0934004922F8827821B930B24E630E0AA
:100AF000B9010E945523162F109510930C025E2FFA
:100B000044274E1B5F0BCA01B9010E945523609513
:100B100060930E025C2F44274C1B5D0BCA01B90188
:100B20000E945523609560930D02812F0E94C81981
:100B300080910D020E94DC1980910E020E94F01932
:100B40008091470480FFD8C0449881FFD8C0459861
:100B5000982F82FFD8C021E02093110284FDD7C0D6
:100B600086FFDCC081E08093240497FDDBC01092F7
:100B7000250480910B0280932C04843009F4DCC09E
:100B8000853008F019C1833009F05CC090915F0393
:100B90008091600390932D0480932E0490916103C3
:100BA0008091620390932F048093300490916303AB
:100BB0008091640390933104809332049091650393
:100BC0008091660390933304809334049091690379
:100BD00080916A03909335048093360490916B035F
:100BE00080916C03909337048093380490916D0347
:100BF00080916E039093390480933A04209103010D
:100C00008091030190E080729070959587959595FD
:100C10008795959587959595879595958795880F4F
:100C2000991F30E0207130703595279535952795BF
:100C30003595279535952795822B80933B0484E045
:100C400080930B02289881EE0E943703289A2898F7
:100C500088EA0E94370380912C040E943703809118
:100C60002D040E94370380912E040E943703809147
:100C70002F040E943703809130040E943703809133
:100C800031040E943703809132040E94370380911F
:100C900033040E943703809134040E94370380910B
:100CA00035040E943703809136040E9437038091F7
:100CB00037040E943703809138040E9437038091E3
:100CC00039040E94370380913A040E9437038091CF
:100CD0003B040E943703289ADF91CF911F9108951A
:100CE000E0914504EE2309F4D2C0509148044091AC
:100CF00049047091460491CE449A81FD28CF459ACB
:100D0000982F82FD28CF1092110284FF29CF0E94D4
:100D1000F11B90914704892F86FD24CF1092240463
:100D200097FF25CF81E08093250480910B0280936B
:100D30002C04843009F024CF9091670380916803DC
:100D400090932D0480932E0490916F0380917003F3
:100D500090932F04809330049091710380917203DB
:100D600090933104809332049091730380917403C3
:100D700090933304809334049091750380917603AB
:100D8000909335048093360490910A0480910B046B
:100D9000909337048093380490910C0480910D0453
:100DA0009093390480933A048091050480933B0426
:100DB00085E080930B0246CF853009F47DC08630F4
:100DC00009F040CF80913F039091400380932D0420
:100DD00080913F039091400390932E0480914F03A4
:100DE0009091500380932F0480914F039091500372
:100DF0009093300480915303909154038093310475
:100E0000809153039091540390933204809157033F
:100E10009091580380933304809157039091580325
:100E20009093340480915B0390915C03809335042C
:100E300080915B0390915C039093360490910E0433
:100E400080910F0490933704809338049091C303EA
:100E50008091C4039093390480933A0410923B0428
:100E600083E080930B02EECE220F331F220F331F3D
:100E70003093F0032093EF0347FFEECD880F991FC7
:100E8000880F991F9093F2038093F103F0CD709136
:100E90004604772361F480914704883041F45091EF
:100EA0004804552309F464C040914904B6CD5091DB
:100EB000480440914904B1CD80912F0390913003B3
:100EC00080932D0480912F039091300390932E04F2
:100ED000809133039091340380932F0480913303E6
:100EE00090913403909330048091370390913803AC
:100EF00080933104809137039091380390933204AA
:100F000080913B0390913C038093330480913B0399
:100F100090913C0390933404809143039091440357
:100F20008093350480914303909144039093360459
:100F30008091470390914803809337048091470341
:100F4000909148039093380480914B0390914C0307
:100F50008093390480914B0390914C0390933A0411
:100F60008091210480933B0486E080930B026ACE3B
:100F700040914904442379F0109202041092010434
:100F8000842F90E08F779070909300048093FF03FC
:100F900020E030E054CD8CE30E94B112509148041F
:100FA0004091490460914404E091450470914604E5
:100FB00034CDE8E6F0E0808182608083ECE6F0E00A
:100FC000808180688083E0EBF0E0808182608083B4
:100FD00008951F920F920FB60F9211248F93809154
:100FE0001102882321F18091030186FD20C08091A8
:100FF00068008D7F8093680080916C008F7780936C
:101000006C0081E0809312028DE08093B3008091A8
:10101000B10086608093B1008091700082608093FF
:1010200070001092260310922703109228038F91CC
:101030000F900FBE0F901F9018951F920F920FB632
:101040000F9211242F933F934F935F938F939F930E
:101050008091B100887F8093B10080911202882333
:10106000A9F08091030186FF65C0809168008260CD
:101070008093680080916C00806880936C008FEF93
:101080009FEF909302028093010249C08091010278
:10109000909102022FEF8F3F920709F463C08130D5
:1010A000910509F498C09C0122503040253031054B
:1010B00008F467C09C01275030402630310508F005
:1010C000BDC026E32093B3002091B1002660209399
:1010D000B1002091700022602093700020910301E4
:1010E00030E0207430700024220F331F001C220FC8
:1010F000331F001C232F302D4CE050E0481B590BB0
:1011000002C0220F331F4A95E2F740912603420F97
:1011100040932603019690930202809301029F91CF
:101120008F915F914F913F912F910F900FBE0F9034
:101130001F9018951092120283E38093B300809160
:10114000B10086608093B1008091700082608093CE
:10115000700080910102909102022FEF8F3F920761
:10116000C9F6DDCF2091030126FF52C0209168000F
:1011700022602093680020916C00206820936C000E
:10118000CECF26E32093B3002091B10026602093B8
:10119000B100209170002260209370002091030123
:1011A00030E0207430700024220F331F001C220F07
:1011B000331F001C232F302D46E050E0481B590BF5
:1011C00002C0220F331F4A95E2F740912703420FD6
:1011D000409327039FCF2091030130E020743070AB
:1011E000022E232F000C221F330B000C221F331F53
:1011F0002093280326E32093B3002091B1002660BA
:101200002093B1002091700022602093700082CF63
:101210008CE18093B3008091B10086608093B1002F
:10122000809170008260809370001092260310926B
:1012300027031092280381E090E06DCF8D30910557
:1012400009F068CF109270008091680082608093EE
:10125000680080916C00806880936C008FEF9FEF36
:1012600090930202809301028091280380930002F0
:101270008091270380932403809126038093250384
:1012800081E0809306044BCF809100020895809105
:1012900024030895809125030895809111028823E5
:1012A000B1F1E0912503E0930504809106048823C1
:1012B00071F110920604F0E0E533F10548F1209158
:1012C000EF033091F0038091F1039091F20337FD29
:1012D00027C035952795359527953093020420939F
:1012E000010497FD09C095958795959587959093ED
:1012F00000048093FF030895909581959F4F9595E5
:10130000879595958795909300048093FF030895A2
:10131000EE58FF4FEE0FFF1F0590F491E02D19944A
:10132000309521953F4FD5CF80932404109225040A
:10133000C6CF1092240481E0809325042091EF030E
:101340003091F0038091F1039091F203C0CF10929D
:1013500024042091EF033091F0038091F1039091E8
:10136000F203B5CF81E0809324042091EF03309104
:10137000F0038091F1039091F203A9CF8091F103E2
:101380009091F2034E979093F2038093F1032EEF26
:10139000803092079CF580E09EEF9093F20380935B
:1013A000F1032091EF033091F00391CF2091EF03EF
:1013B0003091F0038091ED039091EE0328173907E7
:1013C00024F02091F1033091F2032E5130403093FC
:1013D000F0032093EF03C9013093F2032093F1034C
:1013E0004EEF2030340734F440E05EEF5093F003CA
:1013F0004093EF034EEF203034076CF22091EF035F
:101400003091F00364CF2091EF033091F0032E511F
:1014100030403093F0032093EF034EEF2030340739
:101420000CF017C180E09EEF9093F0038093EF03E0
:101430008091F1039091F20320E830E04ECF2091AB
:10144000EF033091F0032E5130403093F00320939E
:10145000EF038091F1039091F2034E969093F20383
:101460008093F1034EEF2030340734F420E03EEF58
:101470003093F0032093EF0342E0813094070CF4A3
:1014800026CF80E092E09093F2038093F1031FCF88
:101490002091EF033091F0038091F1039091F203DA
:1014A000821793070CF4DAC09C01225E3F4F309301
:1014B000F0032093EF034E969093F2038093F10391
:1014C00042E02130340734F020E032E03093F00382
:1014D0002093EF0322E0813092070CF48FCF80E05D
:1014E00092E09093F2038093F1032091EF03309107
:1014F000F003EDCE2091EF033091F003225E3F4FD9
:101500003093F0032093EF0342E0213034070CF4D2
:10151000A0C080E092E09093F0038093EF0380916D
:10152000F1039091F20320E830E0D7CE80910704D8
:1015300090E0019665E070E00E94692380930704C3
:10154000882309F08DC0449A459A10920E028FEFBD
:1015500080930D0280930C020E94C81980910D02A5
:101560000E94DC1980910E020E94F0192091EF0375
:101570003091F0038091F1039091F203A8CE809115
:10158000080490E001968370907080930804823084
:1015900009F4CFCE833009F453C0813009F4C4CEAE
:1015A00010922404109225048ACE2091EF033091EA
:1015B000F003225E3F4F3093F0032093EF038091BE
:1015C000F1039091F2034E979093F2038093F1030D
:1015D00042E02130340734F020E032E03093F00371
:1015E0002093EF034EEF803094070CF070CE80E034
:1015F0009EEF9093F2038093F10369CE1092F00373
:101600001092EF031092F2031092F10380E090E049
:1016100020E030E05ECE8091F1039091F2034E968F
:101620009093F2038093F10322E0813092070CF44F
:10163000E5CE80E092E09093F2038093F103DECE5A
:1016400081E080932404809325042091EF0330915E
:10165000F0038091F1039091F20339CEC90125CFB7
:10166000813061F0823091F08330D9F08FEF809338
:101670000E0280930D0280930C026ECF8FEF809349
:101680000E0210920D0280930C0266CF449845988A
:101690008FEF80930E0280930D0210920C0280E077
:1016A0005BCF10920E0210920D0210920C0280E09D
:1016B00053CF08950F931F93CF93DF93FC01808145
:1016C0009181009709F4B7C020911C0430911D044A
:1016D00041E02E3034070CF488C0181619060CF0BF
:1016E00013C188E691E0821B930B9595879595959C
:1016F000879529E130E0281B390B309304022093B1
:1017000003024091280450912904509343044093CC
:1017100042042081318137FDD2C08091E70390914E
:10172000E803B901681B790BCB017093290460931E
:1017300028042091F7033091F803280F391F3093C4
:10174000F8032093F70376E0213437070CF484C0C4
:1017500020E436E03093F8032093F70360EC72E165
:101760009C01220F331FDC01AA0FBB1FAA0FBB1F56
:10177000AA0FBB1F2A0F3B1F00811181C0910302DA
:10178000D09104020C9FD0010D9FB00D1C9FB00D95
:1017900011242A0F3B1F481B590B440F551F240FC0
:1017A000351F260F371F3093F6032093F50337FDBF
:1017B00069C0121613060CF06FC08081918197FDED
:1017C00089C07DE5213C37070CF466C080EC9DE5BF
:1017D0009093F6038093F50380E092E091838083F9
:1017E000DF91CF911F910F910895243B310594F41F
:1017F0002A3531057CF4181619060CF093C035957E
:10180000279535952795275E3F4F30930402209307
:10181000030277CF1816190694F584EB90E0821B2B
:10182000930B959587959595879549969093040286
:101830008093030266CF1092F8031092F703109280
:101840002904109228041092430410924204DF915C
:10185000CF911F910F91089569EF203C36074CF40A
:1018600020EC39EF3093F8032093F70360E47DEE2A
:1018700077CFB901660F771F620F731F71CF84EBAB
:1018800090E031CF8081918197FD06C01092F603E0
:101890001092F50320E030E082EA2034380704F5A6
:1018A00080E492EA9093F6038093F50380E09EEF44
:1018B00091838083DF91CF911F910F910895809143
:1018C000E7039091E803820F931F9093290480937C
:1018D00028042FCF1092F6031092F50320E030E099
:1018E00035952795359527953595279535952795E0
:1018F0003183208342E0213034070CF06DCF6EEF4E
:10190000203036079CF26CCF88E691E0821B930B67
:101910009595879595958795499690930402809320
:101920000302EFCE359527953595279589E190E00F
:10193000821B930B9093040280930302E2CE0F93D9
:101940001F93CF93DF93FC0180819181009709F46D
:10195000B7C020911C0430911D0441E02E303407A3
:101960000CF488C0181619060CF013C188E691E033
:10197000821B930B959587959595879529E130E086
:10198000281B390B30930602209305024091510425
:101990005091520450932B0440932A0420813181AA
:1019A00037FDD2C08091E9039091EA03B901681B29
:1019B000790BCB0170935204609351042091F90389
:1019C0003091FA03280F391F3093FA032093F9035B
:1019D00076E0213437070CF484C020E436E03093FD
:1019E000FA032093F90360EC72E19C01220F331F8C
:1019F000DC01AA0FBB1FAA0FBB1FAA0FBB1F2A0F18
:101A00003B1F00811181C0910502D09106020C9FFD
:101A1000D0010D9FB00D1C9FB00D11242A0F3B1F4C
:101A2000481B590B440F551F240F351F260F371F16
:101A30003093F4032093F30337FD69C012161306A5
:101A40000CF06FC08081918197FD89C07DE5213CBC
:101A500037070CF466C080EC9DE59093F403809307
:101A6000F30380E092E091838083DF91CF911F9117
:101A70000F910895243B310594F42A3531057CF407
:101A8000181619060CF093C03595279535952795AE
:101A9000275E3F4F309306022093050277CF18163A
:101AA000190694F584EB90E0821B930B959587952E
:101AB000959587954996909306028093050266CF87
:101AC0001092FA031092F9031092520410925104EA
:101AD00010922B0410922A04DF91CF911F910F9145
:101AE000089569EF203C36074CF420EC39EF309331
:101AF000FA032093F90360E47DEE77CFB901660F16
:101B0000771F620F731F71CF84EB90E031CF80811C
:101B1000918197FD06C01092F4031092F30320E028
:101B200030E082EA2034380704F580E492EA9093AA
:101B3000F4038093F30380E09EEF91838083DF9131
:101B4000CF911F910F9108958091E9039091EA033D
:101B5000820F931F90935204809351042FCF1092C1
:101B6000F4031092F30320E030E035952795359586
:101B7000279535952795359527953183208342E024
:101B8000213034070CF06DCF6EEF203036079CF219
:101B90006CCF88E691E0821B930B95958795959580
:101BA000879549969093060280930502EFCE35956E
:101BB00027953595279589E190E0821B930B9093AB
:101BC000060280930502E2CEFC018081918100979C
:101BD00009F47BC0A0915104B0915204B0932B043E
:101BE000A0932A042081318137FD89C08091E903C7
:101BF0009091EA03A901481B590BCA015093520462
:101C0000409351042091F9033091FA03280F391FB2
:101C10003093FA032093F90356E0213435070CF48E
:101C200061C020E436E03093FA032093F90360E8C2
:101C30007CE09C01220F331F280F391F220F331F16
:101C4000220F331F220F331F280F391F408151816C
:101C5000440F551F440F551F440F551F240F351FA8
:101C6000AD01481B590BCA01880F991F840F951F9E
:101C7000280F391F260F371F3093F4032093F303E7
:101C800037FD4CC0121613060CF052C080819181B2
:101C900097FD67C05DE5213C35070CF449C080EC39
:101CA0009DE59093F4038093F3032CED35E0225EE1
:101CB0003F4F3183208342E0213034070CF448C089
:101CC00080E092E09183808308951092FA0310924D
:101CD000F903109252041092510410922B041092A6
:101CE0002A04089549EF203C3407A4F420EC39EF8E
:101CF0003093FA032093F90360E873EF9ACF809151
:101D0000E9039091EA03820F931F9093520480930A
:101D1000510478CFB901660F771F8BCF80819181F5
:101D200097FD06C01092F4031092F30320E030E018
:101D300082EA20343807DCF480E492EA9093F403DA
:101D40008093F30324E23AEF2E5130403183208315
:101D50005EEF2030350724F480E09EEF918380838E
:101D600008951092F4031092F30320E030E03595CB
:101D70002795359527953595279535952795318361
:101D80002083121613060CF492CF21153105E1F6CB
:101D90000895FC0180819181009709F47BC0A09196
:101DA0002804B0912904B0934304A09342042081F5
:101DB000318137FD89C08091E7039091E803A90143
:101DC000481B590BCA0150932904409328042091C1
:101DD000F7033091F803280F391F3093F80320934D
:101DE000F70356E0213435070CF461C020E436E0F7
:101DF0003093F8032093F70360E87CE09C01220F06
:101E0000331F280F391F220F331F220F331F220FBA
:101E1000331F280F391F40815181440F551F440F34
:101E2000551F440F551F240F351FAD01481B590B7B
:101E3000CA01880F991F840F951F280F391F260F7D
:101E4000371F3093F6032093F50337FD4CC012166D
:101E500013060CF052C08081918197FD67C05DE54B
:101E6000213C35070CF449C080EC9DE59093F603C6
:101E70008093F5032CED35E0225E3F4F31832083C4
:101E800042E0213034070CF448C080E092E09183B6
:101E9000808308951092F8031092F703109229049A
:101EA000109228041092430410924204089549EFBE
:101EB000203C3407A4F420EC39EF3093F80320934E
:101EC000F70360E873EF9ACF8091E7039091E803FE
:101ED000820F931F909329048093280478CFB9012F
:101EE000660F771F8BCF8081918197FD06C010927E
:101EF000F6031092F50320E030E082EA2034380740
:101F0000DCF480E492EA9093F6038093F50324E2F4
:101F10003AEF2E513040318320835EEF2030350779
:101F200024F480E09EEF9183808308951092F6035D
:101F30001092F50320E030E03595279535952795EB
:101F400035952795359527953183208312161306ED
:101F50000CF492CF21153105E1F6089585B7806123
:101F600085BF8FEF81B912B897EF94B990EE95B90C
:101F700090EF97B990EB98B99CEF9AB993E09BB921
:101F80008DB91EB810BA83BB14BA809301011092A8
:101F900002019FE0909304019093050110920701C4
:101FA00080930A0110920B0108951092B8001092CC
:101FB000BC000895589A599A1092B90080E2809313
:101FC000B800089594EA9093BC009091BC0097FFEC
:101FD000FCCF9091B900987F983021F0903111F0AA
:101FE00081E008958093BB0084E88093BC008091D9
:101FF000BC0087FFFCCF9091B900987F983121F009
:1020000081E0903419F0089580E0089580E008950B
:1020100024EA34E844E92093BC009091BC0097FF87
:10202000FCCF9091B900987F983011F0903199F7DA
:102030008093BB003093BC009091BC0097FFFCCF15
:102040009091B900987F903219F0983509F0089571
:102050004093BC009091BC0094FDFCCFDCCF94EA8F
:102060009093BC009091BC0097FFFCCF9091B90079
:10207000987F983021F0903111F081E0089580939D
:10208000BB0084E88093BC008091BC0087FFFCCF3C
:102090009091B900987F983121F081E0903419F047
:1020A000089580E0089580E0089584E98093BC005D
:1020B0008091BC0084FDFCCF08958093BB0084E830
:1020C0008093BC008091BC0087FFFCCF9091B90049
:1020D000987F81E0983209F0089580E0089584ECBB
:1020E0008093BC008091BC0087FFFCCF8091BB0037
:1020F000089584E88093BC008091BC0087FFFCCFEA
:102100008091BB0008951092C50080E18093C400C7
:10211000E0ECF0E0808182608083E1ECF0E080819F
:1021200088698083E2ECF0E0808186608083089596
:102130001092C0001092C1001092C20008959091B8
:10214000C00095FFFCCF8093C60008951F920F92A8
:102150000FB60F9211242F938F939F938091C600F7
:10216000909110029923B9F0823309F45BC0833354
:1021700080F5803309F47EC0813329F481E08093B7
:102180000F02109210029F918F912F910F900FBE0E
:102190000F901F90189590910F02923009F448C04B
:1021A000933040F1943009F48CC0943008F473C03B
:1021B000953049F7833739F71092040481E0809312
:1021C00010029F918F912F910F900FBE0F901F9033
:1021D0001895843309F459C0843308F450C085330A
:1021E00091F685E080930F021092100281E08093B7
:1021F0000404C9CF992391F58D3209F4D5C08B32EF
:10220000E9F680910C0290E00A9797FD3FC1809318
:102210000C02882309F43CC190E0909389008093DC
:102220008800B1CF82E080930F0210921002ABCFF2
:102230008D3209F4E8C08B3209F680910E0290E0ED
:102240000A9797FD35C180930E02882309F432C1A5
:1022500090E090938D0080938C0095CF913009F0A1
:1022600092CF8D3209F489C08B3209F43FC090932C
:10227000100289CF10920F021092100284CF83E0D7
:1022800080930F02109210027ECF84E080930F02A1
:102290001092100278CF8B3209F4CCC08D3209F441
:1022A00051C0833709F08ACF1092EC031092EB03F0
:1022B000109299001092980010929B0010929A0030
:1022C00062CF8B3209F487C08D3209F1833709F070
:1022D00075CF1092EE031092ED031092A9001092A8
:1022E000A8001092AB001092AA004DCF80910D0271
:1022F00090E00A9797FDD3C080930D02882309F4DC
:10230000D0C090E090938B0080938A003CCF809166
:10231000ED039091EE034E979093EE038093ED03BF
:102320002CEF803092070CF0CCC080E09CEF9093B3
:10233000EE038093ED0380E094E09093AB008093F4
:10234000AA0021CF8091EB039091EC034E979093DC
:10235000EC038093EB032CEF803092070CF0B7C0B6
:1023600080E09CEF9093EC038093EB0380E094E09B
:1023700090939B0080939A0006CF809180008062AA
:102380008093800080910D0290E00A968F3F910526
:1023900019F014F08FEF90E080930D0290E090938D
:1023A0008B0080938A00EFCE8091800080688093BC
:1023B000800080910C0290E00A968F3F910519F001
:1023C00014F08FEF90E080930C0290E090938900DE
:1023D00080938800D8CE8091ED039091EE034E96C5
:1023E0009093EE038093ED0324E081309207D4F1C3
:1023F00080E094E09093EE038093ED039093A90026
:102400008093A800C0CE8091800088608093800077
:1024100080910E0290E00A968F3F910519F014F01A
:102420008FEF90E080930E0290E090938D00809368
:102430008C00A9CE8091EB039091EC034E96909383
:10244000EC038093EB0324E081309207ACF080E052
:1024500094E09093EC038093EB0390939900809326
:10246000980091CE97FFCACF909581959F4F9093FA
:10247000AB008093AA0087CE97FFEFCF9095819510
:102480009F4F90939B0080939A007DCE10920C02F8
:10249000809180008F77809380002D9874CE109269
:1024A0000D02809180008F7D809380002E986BCEEE
:1024B00010920E0280918000877F809380002F9879
:1024C00062CE97FF9BCF909581959F4F36CF97FF18
:1024D000C4CF909581959F4F4BCF86B166B126B101
:1024E00046B130E0287030703595279535952795A1
:1024F00035952795220F331F70E0647070707595C5
:10250000679575956795260F371F220F331F50E08B
:102510004270507055954795240F351F220F8170DA
:10252000820F0895F8940E94AE0F0E942F130E940C
:10253000C3150E948D190E9408030E94BE030E94C9
:1025400083100E94041A0E94D907789408951F925C
:102550000F920FB60F9211240F900FBE0F901F9085
:102560001895CF93DF939EE1899FE001112480911C
:1025700068008D7F8093680080916C008F778093D6
:102580006C00D99A10927A0080917A0080618093D1
:102590007A0010929000109291001092710088B30E
:1025A000876088BB1092A0001092A1001092720068
:1025B00089B3876089BB10928000109281000E94CD
:1025C00098100E9414030E94D50F0E94AE0F83B78B
:1025D0008F6083BF81E0809370008091B0008D7F19
:1025E0008093B0008091B10087608093B100209704
:1025F00019F088952197E9F713BE8091B100887F83
:102600008093B100109270008091B000826080933E
:10261000B0008FEF80930C0280930D0280930E0226
:102620001092EC031092EB031092EE031092ED0364
:10263000F8940E94AE0F0E942F130E94C3150E94AF
:102640008D190E9408030E94BE030E9483100E94FD
:10265000041A0E94D9077894DF91CF910895EAE790
:10266000F0E0808186608083ACE7B0E08C9180648C
:102670008C93808180628083ABE7B0E08C91887F0F
:102680008C93808188608083808180688083808152
:102690008064808308951F920F920FB60F920BB63D
:1026A0000F9211242F933F934F935F936F938F93C8
:1026B0009F93EF93FF9380911F04909120040196C4
:1026C0009093200480931F042091780030E0409183
:1026D0007900942F80E0282B392B8091BF03823022
:1026E00009F48EC1833008F446C0833009F4ABC1CD
:1026F000843009F44AC18091C003823009F431C1A9
:10270000833008F0CEC0882309F006C180912A03E7
:102710008695809329038091C103882309F0BFC166
:1027200081E08093BF0381E08093C00390912903EF
:10273000983008F0E6C090917B00977F90937B00E3
:1027400090912903905C90937C00823021F48FEF6C
:102750008093050112B8FF91EF919F918F916F9136
:102760005F914F913F912F910F900BBE0F900FBE35
:102770000F901F901895882309F0DFC060912A03FD
:102780006E3009F4A1C1462F50E0FA01EE0FFF1F91
:10279000E15DFC4F3183208340FF77C0FA01EE0FEB
:1027A000FF1FE35DFC4F80819181FA01EE0FFF1F57
:1027B000E15DFC4F40815181262F269530E0841B3E
:1027C000950B220F331FF901E958FC4F40815181CD
:1027D000841B950BF901E15AFC4F9183808397FD8F
:1027E0008EC144E08130940724F080E094E091832E
:1027F0008083603148F48C3391050CF085C12953F6
:102800003C4FF9019183808380912504882309F44A
:1028100052C180916F0390917003F1E0843A9F0759
:10282000CCF0809171039091720321E0843A920779
:102830008CF0809173039091740341E0843A940783
:102840004CF08091750390917603E1E0843A9E0705
:102850000CF031C181E0809326041092EE031092B7
:10286000ED031092A9001092A8001092AB001092F4
:10287000AA001092EC031092EB03109299001092B0
:10288000980010929B0010929A006F5F60932A0349
:10289000683108F430CF10922A0381E08093C60398
:1028A0002ACF833009F498C0843009F03FCF90914B
:1028B0002C039093290390912D039093C103909141
:1028C000C203992309F0E5C083E08093BF0310920F
:1028D000C00320912A032E3009F4F0C0822F90E02B
:1028E00020FFCEC0203108F0BBC0269581E090E0EB
:1028F00002C0880F991F2A95E2F782B98091C00320
:1029000015CF90917B00986090937B009091290364
:10291000985C90937C0019CF813009F007CF8091AB
:102920002B038093290380912E038093C20310927E
:10293000BF0382E08093C003F9CE813009F0DBCE83
:102940008091D9039091DA03820F931F9695879512
:102950009093DA038093D9038091C003823009F009
:10296000CFCE80912C038093290380912D038093F7
:10297000C1038091C203882309F097C083E080934C
:10298000BF0383E08093C003D1CE80910A028823E5
:1029900009F4B1CE9091000193FDADCE909100016C
:1029A00094FDA9CE482F4F5F40930A02453008F4AA
:1029B000A2CE8091E3039091E403820F931F909342
:1029C000E4038093E303483009F095CE10920A02A5
:1029D00081E0809307028FCE80912B03809329039F
:1029E00080912E038093C2038091C103882309F054
:1029F0004AC081E08093BF0384E08093C00396CEF9
:102A000080910902882309F476CE639974CE649983
:102A100072CE482F4F5F40930902453008F46BCEC9
:102A20008091E5039091E603820F931F9093E60354
:102A30008093E503483009F05ECE1092090281E0F0
:102A40008093080258CE8091D7039091D803820FCB
:102A5000931F969587959093D8038093D7034BCE79
:102A60004091050140979595879521E030E002C09F
:102A7000220F331F8A95E2F7209524232093050126
:102A80008091C00353CE813071F185E08093BF0304
:102A9000B3CF913009F085E08093BF0318CF813028
:102AA00051F185E08093BF033ECE813001F185E096
:102AB0008093BF0366CF10922604E7CE8091C503B2
:102AC0008130A1F180E032CE8091C503823009F0DF
:102AD0005ACE3093C4032093C3031092C503469883
:102AE0004EE050E059CE82E08093BF0385CF84E072
:102AF0008093BF0346CF82E08093BF0314CE118240
:102B0000108280E090E075CEAC01445C5F4F55953B
:102B10004795483751057CF429533C4FCC97959500
:102B20008795CC96F901918380836ECE82E0809365
:102B3000C503469AD3CEAC01445D5E4F559547958B
:102B400055954795443B510574F429533C4F845B9C
:102B50009040959587959595879588589F4FF90151
:102B60009183808351CE29533C4F845A914095954F
:102B7000879595958795959587958C549F4FF901E5
:102B80009183808341CEE0E9F0E080818368808397
:102B9000808183608083A1E9B0E08C918B608C930D
:102BA0008091EB039091EC039093990080939800AF
:102BB00010929B0010929A00A1E7B0E08C91816086
:102BC0008C9380818F7580838EB1877E8EB9E0EA89
:102BD000F0E0808183688083A1EAB0E08C918B6013
:102BE0008C938091ED039091EE039093A9008093D4
:102BF000A8001092AB001092AA00A2E7B0E08C915E
:102C000081608C9380818F758083E2E0F1E0808128
:102C1000877E808308951F920F920FB60F92112422
:102C20008F939F9380912604882361F01092EE0386
:102C30001092ED031092A9001092A8001092AB0020
:102C40001092AA001092D8031092D7038091ED033E
:102C50009091EE03009741F58091E1039091E2039A
:102C600097FD69C081E080932E038EE080932B0353
:102C700081E080930A028091A0008F758093A0006C
:102C800080910201877E8093020180917200897F8A
:102C90008093720089B3866089BB9F918F910F905A
:102CA0000FBE0F901F901895181619062CF510924C
:102CB0002E038FE080932B038091A0008F7D809363
:102CC000A000809172008B7F80937200809102013E
:102CD0008F7E809302018091A00080688093A00085
:102CE000809172008260809372009F918F910F900B
:102CF0000FBE0F901F90189510922E038EE08093B8
:102D00002B038091A0008F778093A00080917200A8
:102D10008D7F8093720080910201877F80930201F2
:102D20008091A00080628093A000809172008460F6
:102D300080937200B2CF81E080932E038FE0809366
:102D40002B0396CF1F920F920FB60F9211248F93E1
:102D50009F9381E080932E039EE090932B038093BA
:102D60000A029F918F910F900FBE0F901F901895A0
:102D70001F920F920FB60F9211248F939F9381E0B1
:102D800080932E039FE090932B0380930A029F91E0
:102D90008F910F900FBE0F901F9018951F920F925A
:102DA0000FB60F9211248F939F938091260488234E
:102DB00061F01092EC031092EB03109299001092C4
:102DC000980010929B0010929A001092DA031092D1
:102DD000D9038091EB039091EC03009731F580913A
:102DE000DF039091E00397FD5FC081E080932D03A6
:102DF0008CE080932C0381E0809309028091900005
:102E00008F75809390008EB1877E8EB9809171000E
:102E1000897F8093710088B3866088BB9F918F9172
:102E20000F900FBE0F901F901895181619060CF5ED
:102E300010922D038DE080932C03809190008F7D64
:102E400080939000809171008B7F809371007498C3
:102E500080919000806880939000809171008260E2
:102E6000809371009F918F910F900FBE0F901F90D4
:102E7000189510922D038CE080932C038091900084
:102E80008F7780939000809171008D7F8093710087
:102E9000739880919000806280939000809171007F
:102EA000846080937100BACF81E080932D038DE020
:102EB00080932C03A0CF1F920F920FB60F92112474
:102EC0008F939F9381E080932D039CE090932C033C
:102ED000809309029F918F910F900FBE0F901F90CA
:102EE00018951F920F920FB60F9211248F939F93F4
:102EF00081E080932D039DE090932C038093090241
:102F00009F918F910F900FBE0F901F9018952F9249
:102F10003F924F925F926F927F928F929F92AF9269
:102F2000BF92CF92DF92EF92FF920F931F93DF93A6
:102F3000CF93CDB7DEB728970FB6F894DEBF0FBE9C
:102F4000CDBF2C017A836983FC010190F081E02DD3
:102F5000FC83EB83FB010190F081E02DFE83ED8388
:102F60006091C7037091C8036530710534F4109205
:102F7000C8031092C70360E070E04091C90350910C
:102F8000CA034530510534F41092CA031092C903A4
:102F900040E050E08091CB039091CC0385309105C7
:102FA00024F41092CC031092CB030091CD03109126
:102FB000CE030530110534F41092CE031092CD03E8
:102FC00000E010E06090CF037090D003F5E06F1642
:102FD000710434F41092D0031092CF036624772446
:102FE0002091D1033091D2032530310534F4109271
:102FF000D2031092D10320E030E08091D30390916E
:10300000D4038530910524F41092D4031092D30395
:103010008091D5039091D6038530910534F41092B8
:10302000D6031092D50380E090E0EE24FF24E61A48
:10303000F70A5A01B594A794159507956901D59497
:10304000C7944C01959487940E94012493012E51BA
:1030500030402E0D3F1D200F311F2C0D3D1D2A1914
:103060003B09281939094CE3242E312CB1010E9467
:103070006923280F391F38872F83E090C903F09008
:10308000CA03F594E7940091CB031091CC031595F6
:10309000079515950795C090CD03D090CE03D59494
:1030A000C7948090D1039090D203959487946090B8
:1030B000D3037090D4037594679475946794A0902B
:1030C000D503B090D603B594A7940E94012497012C
:1030D000200F311F2E5130402C0D3D1D2A193B0968
:1030E0002819390926193709B1010E946923280FC7
:1030F000391F4B815C8157FD97C05A01CC24B7FC26
:10310000C094DC2C8F8198853C01882477FC8094C6
:10311000982C79010027F7FC0095102FC401B3010A
:103120006E197F09800B910BA60195010E94362331
:10313000F7E09595879577956795FA95D1F76A0D9C
:103140007B1D8C1D9D1DF201718360832D813E814D
:1031500037FD99C05901CC24B7FCC094DC2CC801C0
:10316000B701660D771D881D991DA60195010E9466
:10317000362337E095958795779567953A95D1F7FA
:103180006A0D7B1D8C1D9D1D9B01E981FA81718358
:103190006083F2E021303F0744F080E092E0E98173
:1031A000FA819183808320E032E0F2018081918175
:1031B000F2E081309F074CF080E092E0F2019183D1
:1031C0008083E981FA8120813181FEEF20303F0741
:1031D0004CF480E09EEFE981FA8191838083F201D3
:1031E00080819181FEEF80309F072CF480E09EEF7C
:1031F000F2019183808328960FB6F894DEBF0FBE4C
:10320000CDBFCF91DF911F910F91FF90EF90DF9095
:10321000CF90BF90AF909F908F907F906F905F9076
:103220004F903F902F9008954D815E815A01CC249C
:10323000B7FCC094DC2C8F8198853C01882477FCF6
:103240008094982C79010027F7FC0095102FC80175
:10325000B701660D771D881D991DA60195010E9475
:103260003623E7E09595879577956795EA95D1F7A9
:10327000261B370B480B590BF201318320832D811C
:103280003E8137FF67CF2B813C815901CC24B7FCAD
:10329000C094DC2CC401B3016E197F09800B910B23
:1032A000A60195010E94362327E09595879577958D
:1032B00067952A95D1F7A61AB70AC80AD90A9501BF
:1032C000E981FA81B182A08264CF80916F039091ED
:1032D000700321E0843A9207D4F0809171039091B9
:1032E000720321E0843A920794F0809173039091E5
:1032F000740321E0843A920774F081E02091750311
:103300003091760391E0243A39071CF4089581E066
:10331000089580E0089581E00895E0E8F0E080817C
:10332000896A8083E1E8F0E0808189608083809110
:103330000C0290E0909389008093880080910D02A8
:1033400090E090938B0080938A0080910E0290E031
:1033500090938D0080938C00089581E090910304F8
:10336000891B80930304882339F480918000877F30
:10337000809380002F9808958091800088608093CA
:1033800080008FEF90E090938D0080938C000895E3
:10339000882359F09091800090689093800090E08D
:1033A00090938900809388000895809180008F77A2
:1033B000809380002D980895882359F09091800083
:1033C00090629093800090E090938B0080938A00AD
:1033D0000895809180008F7D809380002E980895BD
:1033E000882359F09091800098609093800090E03D
:1033F00090938D0080938C00089580918000877F4A
:10340000809380002F9808950E94DA0F8091130214
:103410000E94E20F882349F486E10E945D1085E452
:103420000E945D100E94551008950E94551086EA72
:1034300090E0909314028093130286EA0E94E20FB8
:10344000882341F58DE20E945D1088E00E945D10A6
:103450000E945510809113020E94E20F8823D1F43C
:1034600081E30E945D1080E00E945D100E94551073
:10347000809113020E94E20F882361F48CE20E9483
:103480005D1089E00E945D100E94551081E08093DC
:10349000090408950E94551082E08093090408955C
:1034A000809113020E94E20F882351F486E10E946A
:1034B0005D1085E40E945D100E94551080E0089523
:1034C0000E94551081E00895809113020E94E20F3E
:1034D000882331F58DE20E945D1088E00E945D1026
:1034E0000E945510809113020E94E20F8823C1F4BC
:1034F00081E30E945D1080E00E945D100E945510E3
:10350000809113020E94E20F882351F48CE20E9402
:103510005D1089E00E945D100E94551080E00895C2
:103520000E94551081E00895FF920F931F93DF933F
:10353000CF930F92CDB7DEB780910904882391F025
:10354000813009F488C010920B0410920A04109282
:103550000D0410920C040F90CF91DF911F910F91E9
:10356000FF900895809113020E94E20F80E00E9474
:103570005D10809113028F5F0E942F100E946F10C8
:10358000082F0E946F10F82E0E946F10182F0E94B3
:10359000791089830E945510909153048981992351
:1035A00039F14F2D552747FD5095542F4427602F53
:1035B000772767FD7095462B572B50930B0440934C
:1035C0000A04282F332727FD3095322F2227812FF9
:1035D000992787FD9095282B392B30930D04209344
:1035E0000C040F90CF91DF911F910F91FF900895E0
:1035F0004F2D552747FD5095542F4427602F77278F
:1036000067FD7095462B572B609110047091110443
:10361000461B570B50930B0440930A04282F332763
:1036200027FD3095322F2227812F992787FD9095EE
:10363000282B392B8091120490911304281B390BED
:1036400030930D0420930C040F90CF91DF911F91C4
:103650000F91FF900895809113020E94E20F82E380
:1036600086CFDF93CF9300D000D0CDB7DEB7809167
:1036700009048823C1F0813009F4ADC010920B0415
:1036800010920A0410920D0410920C0410920F0470
:1036900010920E0426960FB6F894DEBF0FBECDBF73
:1036A000CF91DF910895809113020E94E20F80E094
:1036B0000E945D10809113028F5F0E942F100E9464
:1036C0006F1089830E946F108A830E946F108B8312
:1036D0000E946F108C830E946F108D830E9479105E
:1036E0008E830E94551080915304882389F18A812A
:1036F000992787FD9095982F88272981332727FDC3
:103700003095822B932B90930B0480930A048C8129
:10371000992787FD9095982F88272B81332727FDA0
:103720003095822B932B90930D0480930C048E8103
:10373000992787FD9095982F88272D81332727FD7E
:103740003095822B932B90930F0480930E04A2CF7D
:103750008A81992787FD9095982F8827298133277B
:1037600027FD3095822B932B20911004309111046A
:10377000821B930B90930B0480930A048C819927EE
:1037800087FD9095982F88272B81332727FD30952B
:10379000822B932B2091120430911304821B930BE4
:1037A00090930D0480930C048E81992787FD90954A
:1037B000982F88272D81332727FD3095822B932B37
:1037C0002091140430911504821B930B90930F04E5
:1037D00080930E045FCF809113020E94E20F82E378
:1037E00067CFCF93DF9310920C0210920D021092CC
:1037F0000E0280E00E94C81980910D020E94DC191F
:1038000080910E020E94F01910922304109222045B
:1038100081E080935304C1E0D0E00E94311B2091ED
:10382000220430912304213131050CF435C18091FB
:103830008F0390919003A0919103B091920354E073
:10384000B695A795979587955A95D1F79093780354
:10385000809377038091930390919403A0919503B3
:10386000B091960344E0B695A795979587954A95AC
:10387000D1F790937A038093790380919703909185
:103880009803A0919903B0919A0334E0B695A79557
:10389000979587953A95D1F790937C0380937B0316
:1038A00080919B0390919C03A0919D03B0919E03F6
:1038B00024E0B695A795979587952A95D1F790938B
:1038C0007E0380937D0380919F039091A003A0913C
:1038D000A103B091A203F4E0B695A79597958795BB
:1038E000FA95D1F79093800380937F038091A3038F
:1038F0009091A403A091A503B091A603E4E0B6952E
:10390000A79597958795EA95D1F790938203809331
:1039100081038091A7039091A803A091A903B0917E
:10392000AA0374E0B695A795979587957A95D1F7F0
:1039300090938403809383038091AB039091AC03B5
:10394000A091AD03B091AE0364E0B695A7959795AD
:1039500087956A95D1F7909386038093850380912C
:10396000B3039091B403A091B503B091B60354E0B2
:10397000B695A795979587955A95D1F79C01809113
:10398000B7039091B803A091B903B091BA0344E092
:10399000B695A795979587954A95D1F7BC018091E3
:1039A000BB039091BC03A091BD03B091BE03F4E0B2
:1039B000B695A79597958795FA95D1F7AC01809123
:1039C000AF039091B003A091B103B091B203E4E0D2
:1039D000B695A79597958795EA95D1F7805092402F
:1039E00090938803809387032050324030938A035A
:1039F000209389036050724070938C0360938B0313
:103A00004050524050938E0340938D038091160492
:103A10009091170495958795959587959595879598
:103A200095958795909311048093100480911804C4
:103A30009091190495958795959587959595879576
:103A400095958795909313048093120480911A049E
:103A500090911B0495958795959587959595879554
:103A600095958795909315048093140410925304B0
:103A70008FEF80930C0280930D0280930E020E94C0
:103A8000C81980910D020E94DC1980910E020E94DB
:103A9000F019DF91CF9108958091C603882309F42E
:103AA00086C11092C6032115310509F486C18091A3
:103AB0005F0390916003AA2797FDA095BA2F4091CC
:103AC0008F03509190036091910370919203840F42
:103AD000951FA61FB71F80938F0390939003A09309
:103AE0009103B09392038091610390916203AA279E
:103AF00097FDA095BA2F4091930350919403609144
:103B0000950370919603840F951FA61FB71F80938E
:103B1000930390939403A0939503B093960380919D
:103B2000630390916403AA2797FDA095BA2F409153
:103B30009703509198036091990370919A03840FB1
:103B4000951FA61FB71F8093970390939803A09388
:103B50009903B0939A038091650390916603AA2715
:103B600097FDA095BA2F40919B0350919C036091C3
:103B70009D0370919E03840F951FA61FB71F80930E
:103B80009B0390939C03A0939D03B0939E0380910D
:103B9000670390916803AA2797FDA095BA2F4091DB
:103BA0009F035091A0036091A1037091A203840F21
:103BB000951FA61FB71F80939F039093A003A09308
:103BC000A103B093A2038091690390916A03AA278D
:103BD00097FDA095BA2F4091A3035091A403609143
:103BE000A5037091A603840F951FA61FB71F80938E
:103BF000A3039093A403A093A503B093A60380917D
:103C00006B0390916C03AA2797FDA095BA2F409162
:103C1000A7035091A8036091A9037091AA03840F90
:103C2000951FA61FB71F8093A7039093A803A09387
:103C3000A903B093AA0380916D0390916E03AA2704
:103C400097FDA095BA2F4091AB035091AC036091C2
:103C5000AD037091AE03840F951FA61FB71F80930D
:103C6000AB039093AC03A093AD03B093AE038091EC
:103C70006F0390917003AA2797FDA095BA2F4091EA
:103C8000AF035091B0036091B1037091B203840F00
:103C9000951FA61FB71F8093AF039093B003A09307
:103CA000B103B093B2038091710390917203AA277C
:103CB00097FDA095BA2F4091B3035091B403609142
:103CC000B5037091B603840F951FA61FB71F80938D
:103CD000B3039093B403A093B503B093B60380915C
:103CE000730390917403AA2797FDA095BA2F409172
:103CF000B7035091B8036091B9037091BA03840F70
:103D0000951FA61FB71F8093B7039093B803A09386
:103D1000B903B093BA038091750390917603AA27F3
:103D200097FDA095BA2F4091BB035091BC036091C1
:103D3000BD037091BE03840F951FA61FB71F80930C
:103D4000BB039093BC03A093BD03B093BE038091CB
:103D500016049091170440910A0450910B04840FAB
:103D6000951F9093170480931604809118049091E6
:103D7000190440910C0450910D04840F951F9093E9
:103D800019048093180480911A0490911B044091A7
:103D90000E0450910F04840F951F90931B04809381
:103DA0001A042F5F3F4F3093230420932204809105
:103DB0005304882309F031CD5BCE10928F0310920B
:103DC0009003109291031092920310927803109234
:103DD000770310929303109294031092950310921C
:103DE000960310927A03109279031092970310921F
:103DF00098031092990310929A0310927C031092E8
:103E00007B0310929B0310929C0310929D031092CF
:103E10009E0310927E0310927D0310929F031092D6
:103E2000A0031092A1031092A2031092800310929B
:103E30007F031092A3031092A4031092A503109283
:103E4000A60310928203109281031092A70310928E
:103E5000A8031092A9031092AA031092840310924F
:103E600083031092AB031092AC031092AD03109237
:103E7000AE0310928603109285031092AF03109246
:103E8000B0031092B1031092B20310928803109203
:103E900087031092B3031092B4031092B5031092EB
:103EA000B60310928A03109289031092B7031092FE
:103EB000B8031092B9031092BA0310928C031092B7
:103EC0008B031092BB031092BC031092BD0310929F
:103ED000BE0310928E0310928D031092170410925D
:103EE0001604109219041092180410921B041092D8
:103EF0001A04D0932304C09322048091530459CF11
:103F0000EF92FF920F931F9380910E0490910F04F4
:103F100097FD5BC08031910508F042C081E080933D
:103F2000150290911402981709F442C010921E04D1
:103F30008093140260910A0470910B04882777FD26
:103F40008095982F0E94E8207B018C0160910C04E1
:103F500070910D04882777FD8095982F0E94E820A6
:103F60009B01AC01C801B7010E94202421EE3EE272
:103F700045E652E40E94E91F0E9446219B0170938E
:103F80001D0460931C0477FF06C028593E4F3093F0
:103F90001D0420931C041F910F91FF90EF90089532
:103FA0001092150280E090911402981709F0BECF8C
:103FB00090911E049F5F90931E04953008F4B8CF33
:103FC00010921E0480931602B3CF909581959F4F57
:103FD000A1CFA0E2B0E0EFEEFFE10C947E23698375
:103FE0007A838B839C832D833E834F83588799E00C
:103FF000E92EF12CEC0EFD1EB701CE0101960E94B8
:10400000C6228E010F5E1F4FB801CE0105960E9499
:10401000C6229985923088F089898230C0F0943028
:1040200019F4823029F009C0843029F4923079F4EF
:1040300067E172E0C6C0923041F420E09A858A8937
:10404000981321E02A87B701BCC0823041F420E0F8
:104050009A858A89981321E02A8BB801B2C0CD8451
:10406000DE84EF84F8880D891E892F89388D882495
:104070009924540140E050E060E070E0442455246D
:104080003201E0E0F0E0C60181709070892BD9F038
:10409000800E911EA21EB31EDB01CA01840D951D68
:1040A000A61DB71D40E050E060E070E0801691066C
:1040B000A206B30620F441E050E060E070E0480F53
:1040C000591F6A1F7B1F440C551C661C771C37FF49
:1040D00008C081E090E0A0E0B0E0482A592A6A2AAE
:1040E0007B2A3196E032F10549F0000F111F221FA3
:1040F000331FF694E794D794C794C5CF8B899C89D6
:104100002B853C85820F931F02969C8F8B8F1A8E76
:104110009A858A89981711F081E08A8F2B8D3C8DC2
:1041200017C0CA0181709070892B61F0B694A79472
:104130009794879480E090E0A0E0B0E8882A992ADC
:10414000AA2ABB2A76956795579547952F5F3F4FCB
:1041500077FDE7CFC9010BC0440F551F661F771FBE
:10416000B7FC4160880C991CAA1CBB1C019740300D
:10417000A0E05A07A0E06A07A0E47A0768F39C8FE2
:104180008B8FDB01CA018F779070A070B070803484
:104190009105A105B10561F447FD0AC081149104A0
:1041A000A104B10429F0405C5F4F6F4F7F4F40780E
:1041B0004D8F5E8F6F8F78A383E0898FBE01675E1E
:1041C0007F4FCB010E94E621E0E1A0960C949A2358
:1041D000A8E0B0E0EEEEF0E20C9485239B01AC0188
:1041E00083E08983DA01C9018827B7FD8395992780
:1041F000AA27BB27B82E211531054105510519F411
:1042000082E089833AC08823A9F0203080E0380713
:1042100080E0480780E8580729F460E070E080E01B
:104220009FEC30C0EE24FF248701E21AF30A040B4E
:10423000150B02C079018A018EE1C82ED12CDC82D7
:10424000CB82ED82FE820F831887C801B7010E94DE
:10425000992101971816190684F4082E04C0EE0C53
:10426000FF1C001F111F0A94D2F7ED82FE820F83FC
:104270001887C81AD90ADC82CB82BA82CE0101968D
:104280000E94E621E9E028960C94A123ACE0B0E07E
:10429000ECE4F1E20C948C2369837A838B839C8316
:1042A000BE016B5F7F4FCE0101960E94C6228D81B9
:1042B0008230A9F1823098F1843021F48E818823F4
:1042C00059F40FC02F81388537FD29C06E812F31F9
:1042D000310564F0662329F020E030E040E050E84A
:1042E00022C02FEF3FEF4FEF5FE71DC08EE190E060
:1042F000821B930B29853A854B855C8504C05695B6
:104300004795379527958A95D2F7662361F05095A2
:104310004095309521953F4F4F4F5F4F04C020E0AF
:1043200030E040E050E0CA01B901E2E02C960C9484
:10433000A823EF92FF920F931F939B01AC012030B3
:1043400080E0380781E0480780E0580780F42F3F7D
:1043500031054105510509F020F4EE24FF248701C1
:1043600019C068E0E62EF12C012D112D13C020306C
:1043700080E0380780E0480781E0580730F490E19A
:10438000E92EF12C012D112D05C088E1E82EF12C2C
:10439000012D112D80E290E0A0E0B0E08E199F0980
:1043A000A00BB10B04C05695479537952795EA9415
:1043B000D2F7F901E15EFD4F2081821B9109A1092D
:1043C000B1091F910F91FF90EF9008959F92AF92C6
:1043D000BF92CF92DF92EF92FF920F931F93EE2442
:1043E000FF248701FC01248135814681578191801A
:1043F0008081823010F44061A2C0843009F49BC0F7
:10440000823029F420E030E040E050E005C0211582
:1044100031054105510519F4E0E0F0E092C08281D8
:1044200093816FEF823896070CF05AC062E87FEFF5
:10443000681B790B6A3171052CF020E030E040E018
:1044400050E02AC0AA24BB24650181E090E0A0E0EE
:10445000B0E0062E04C0880F991FAA1FBB1F0A9444
:10446000D2F70197A109B10982239323A423B5238D
:104470000097A105B10529F071E0A72EB12CC12C40
:10448000D12C04C056954795379527956A95D2F754
:104490002A293B294C295D29DA01C9018F779070BF
:1044A000A070B07080349105A105B10539F427FFE3
:1044B00009C0205C3F4F4F4F5F4F04C0215C3F4F0E
:1044C0004F4F5F4F80E090E0203060E0360760E0C3
:1044D000460760E4560710F081E090E0FC0123C03D
:1044E0008038910544F5FC01E158FF4FDA01C9011C
:1044F0008F779070A070B07080349105A105B105E0
:1045000039F427FF09C0205C3F4F4F4F5F4F04C075
:10451000215C3F4F4F4F5F4F57FF05C05695479562
:1045200037952795319687E0569547953795279586
:104530008A95D1F706C020E030E040E050E0EFEF90
:10454000F0E0E22EF32E942F9F77802F8078892B36
:104550009E2F9795992797958F77082F092B9E2F38
:104560009695812F8078892B9794992497948F77AB
:10457000182F1929C801B7011F910F91FF90EF90D3
:10458000DF90CF90BF90AF909F900895CF93DF932F
:10459000FC01DB01208131819281492F4F7750E06E
:1045A000991F9927991F8381E82FEE0FE92B6E2F12
:1045B00070E0881F8827881FED018983EE2371F53D
:1045C000211531054105510511F482E02FC06E57C8
:1045D0007040FD017383628367E0220F331F441F25
:1045E000551F6A95D1F783E08C930AC0220F331FC1
:1045F000441F551FED018A819B8101979B838A830C
:104600002030E0E03E07E0E04E07E0E45E0770F3B4
:10461000ED012C833D834E835F8325C0EF3F79F40A
:10462000211531054105510519F484E08C931BC017
:1046300044FF03C081E08C9311C01C920FC06F57E0
:104640007040ED017B836A8383E08C9387E0220FC7
:10465000331F441F551F8A95D1F75064FD012483F1
:10466000358346835783DF91CF910895629FD001B0
:10467000739FF001829FE00DF11D649FE00DF11D1D
:10468000929FF00D839FF00D749FF00D659FF00DCC
:104690009927729FB00DE11DF91F639FB00DE11DB9
:1046A000F91FBD01CF0111240895AA1BBB1B51E1C5
:1046B00007C0AA1FBB1FA617B70710F0A61BB70B92
:1046C000881F991F5A95A9F780959095BC01CD0137
:1046D000089597FB092E07260AD077FD04D0E5DF61
:1046E00006D000201AF4709561957F4F0895F6F773
:1046F000909581959F4F08952F923F924F925F9290
:104700006F927F928F929F92AF92BF92CF92DF92E1
:10471000EF92FF920F931F93CF93DF93CDB7DEB746
:10472000CA1BDB0B0FB6F894DEBF0FBECDBF1994CA
:104730002A88398848885F846E847D848C849B8431
:10474000AA84B984C884DF80EE80FD800C811B813F
:10475000AA81B981CE0FD11D0FB6F894DEBF0FBE6E
:10476000CDBFED010895AF92BF92CF92DF92EF924D
:10477000FF920F931F93CF93DF93EC0168817981B0
:104780008A819B81611571058105910521F464E29F
:1047900079ED8BE597E02DE133EF41E050E00E94A9
:1047A000212679018A0127EA31E440E050E00E94A5
:1047B00036235B016C01C801B7012CEE34EF4FEFDB
:1047C0005FEF0E9436236A0D7B1D8C1D9D1D97FF98
:1047D00004C06150704080409048688379838A8328
:1047E0009B837F77CB01DF91CF911F910F91FF903A
:1047F000EF90DF90CF90BF90AF9008950E94B323C9
:1048000008958FE193E00E94B3230895A0E0B0E003
:1048100080931F0390932003A0932103B09322035E
:104820000895F5D058F080E891E009F49EEFF6D0B5
:1048300028F040E851E059F45EEF09C0C0C028C13B
:10484000E92FE07803D168F3092E052AC1F3261772
:1048500037074807590738F00E2E07F8E02569F0AA
:10486000E025E0640AC0EF6307F8009407FADB0173
:10487000B9019D01DC01CA01AD01EF9341D0D5D052
:104880000AD05F91552331F02BED3FE049E450FD14
:1048900049EC71C10895DF93DD27B92FBF7740E858
:1048A0005FE31616170648075B0710F4D92FF7D0F9
:1048B0009F938F937F936F935AD1EEE4F1E082D070
:1048C000B4D02F913F914F915F91FAD0DD2349F001
:1048D0009058A2EA2AED3FE049EC5FE3D0785D27EB
:1048E0005BD1DF91A2C09AD040F091D030F021F49A
:1048F0005F3F19F05EC05111CCC061C0A7D098F3E2
:104900009923C9F35523B1F3951B550BBB27AA2750
:1049100062177307840738F09F5F5F4F220F331FC2
:10492000441FAA1FA9F333D00E2E3AF0E0E830D08E
:1049300091505040E695001CCAF729D0FE2F27D091
:10494000660F771F881FBB1F261737074807AB075F
:10495000B0E809F0BB0B802DBF01FF2793585F4FD4
:104960002AF09E3F510568F024C093C05F3FECF3EE
:10497000983EDCF3869577956795B795F7959F5F99
:10498000C9F7880F911D9695879597F90895E1E0ED
:10499000660F771F881FBB1F621773078407BA074C
:1049A00020F0621B730B840BBA0BEE1F88F7E095A7
:1049B000089597F99F6780E870E060E008959FEFA1
:1049C00080EC0895DF93CF931F930F93FF92EF92A4
:1049D000DF927B018C01689405C0DA2EEF0170D064
:1049E000FE01E894A5912591359145915591AEF33D
:1049F000EF01D2D0FE019701A801DA9479F7DF9098
:104A0000EF90FF900F911F91CF91DF9108950024B7
:104A10000A941616170618060906089500240A9423
:104A200012161306140605060895092E0394000CA9
:104A300011F4882352F0BB0F40F4BF2B11F460FF38
:104A400004C06F5F7F4F8F4F9F4F089557FD905861
:104A5000440F551F59F05F3F71F04795880F97FB42
:104A6000991F61F09F3F79F08795089512161306FC
:104A70001406551FF2CF4695F1DF08C0161617062B
:104A80001806991FF1CF8695710561050894089560
:104A9000E894BB2766277727CB0197F908959B01F8
:104AA000AC0160E070E080E89FE3C9C0B0DF28F0AF
:104AB000B5DF18F0952309F07CCF81CF1124E9CF21
:104AC000C5DFA0F3959FD1F3950F50E0551F629F6E
:104AD000F001729FBB27F00DB11D639FAA27F00D57
:104AE000B11DAA1F649F6627B00DA11D661F829F7E
:104AF0002227B00DA11D621F739FB00DA11D621F63
:104B0000839FA00D611D221F749F3327A00D611D7F
:104B1000231F849F600D211D822F762F6A2F112461
:104B20009F5750408AF0E1F088234AF0EE0FFF1FB4
:104B3000BB1F661F771F881F91505040A9F79E3FEB
:104B4000510570F036CFA5CF5F3FECF3983EDCF314
:104B5000869577956795B795F795E7959F5FC1F728
:104B6000FE2B880F911D9695879597F908959B01C7
:104B7000AC012FCA5058BB27AA270ED056CF47DF0B
:104B800030F04CDF20F031F49F3F11F41EF417CFCA
:104B90000EF4E095E7FB0DCFE92F58DF80F3BA174D
:104BA000620773078407950718F071F49EF570CFBC
:104BB0000EF4E0950B2EBA2FA02D0B01B901900138
:104BC0000C01CA01A0011124FF27591B99F0593F7C
:104BD00050F4503E68F11A16F040A22F232F342FC4
:104BE0004427585FF3CF469537952795A795F04012
:104BF0005395C9F77EF41F16BA0B620B730B840B27
:104C0000BAF09150A1F0FF0FBB1F661F771F881FDE
:104C1000C2F70EC0BA0F621F731F841F48F4879536
:104C200077956795B795F7959E3F08F0B3CF939525
:104C3000880F08F09927EE0F9795879508955EDE07
:104C4000F4CE97FB092E05260ED057FD04D014D0C4
:104C50000AD0001C38F450954095309521953F4F6F
:104C60004F4F5F4F0895F6F7909580957095619539
:104C70007F4F8F4F9F4F0895A1E21A2EAA1BBB1B97
:104C8000FD010DC0AA1FBB1FEE1FFF1FA217B30718
:104C9000E407F50720F0A21BB30BE40BF50B661F2E
:104CA000771F881F991F1A9469F7609570958095F2
:0E4CB00090959B01AC01BD01CF010895FFCF8F
:104CBE0002FFFF190019000101010103FFFFFF05AB
:104CCE000101013A01010100000000000000000096
:104CDE000102020303030304040404040404040590
:104CEE000505050505050505050505050505050665
:104CFE000606060606060606060606060606060646
:104D0E000606060606060606060606060606060734
:104D1E000707070707070707070707070707070715
:104D2E000707070707070707070707070707070705
:104D3E0007070707070707070707070707070707F5
:104D4E0007070707070707070707070707070708E4
:104D5E0008080808080808080808080808080808C5
:104D6E0008080808080808080808080808080808B5
:104D7E0008080808080808080808080808080808A5
:104D8E000808080808080808080808080808080895
:104D9E000808080808080808080808080808080885
:104DAE000808080808080808080808080808080875
:104DBE000808080808080808080808080808080865
:104DCE00080808080808080808080808080808015C
:044DDE0000000000D1
:00000001FF
