:100000000C9472000C9491000C9491000C9491004B
:100010000C9491000C9491000C9491000C9491001C
:100020000C9491000C9491000C94AD040C949100EC
:100030000C9491000C9491000C9491000C949100FC
:100040000C9491000C9491000C9491000C949100EC
:100050000C9491000C9491000C9491000C949100DC
:100060000C9491000C94C7020C9491000C94910094
:100070000C9491000C94C5000C9491000C94910088
:100080000C9487020C9499020C9491000C94FD013D
:100090000C9491000C9491000C9491000C9491009C
:1000A0000C9491000C9491000C94D9010C94EB01E8
:1000B0000C9491000C9460010C9491000C949100AC
:1000C0000C9491000C9491000C9491000C9491006C
:1000D0000C9491000C9491000C9491000C9491005C
:1000E0000C94910011241FBECFEFD1E2DEBFCDBF33
:1000F00000E00CBF12E0A0E0B2E0E8EFFCE002C0DC
:1001000005900D92AE37B107D9F712E0AEE7B2E035
:1001100001C01D92A33FB107E1F70E94C6040C94F1
:100120007B060C9400008FEF81B912B887EF84B979
:1001300085B1806E85B980EF87B91AB888E18DB92D
:1001400010BA13BA88E5809301018FE0809304010F
:100150001092070188E080930A010895EAE7F0E031
:10016000808186608083ACE7B0E08C9180648C9362
:1001700080818062808380818860808380818068C4
:10018000808380818064808308951F920F920FB6D0
:100190000F9211242F933F934F938F939F9320910E
:1001A000780040917900809183028130C1F430E081
:1001B000942F80E0282B392B8091DF029091E00270
:1001C000820F931F9093E0028093DF028091D70209
:1001D0009091D80201969093D8028093D7029F9174
:1001E0008F914F913F912F910F900FBE0F901F90C5
:1001F0001895E0E8F0E08081896A8083E1E8F0E02A
:1002000080818960808380917A0290E09093890058
:100210008093880080917B0290E090938B00809384
:100220008A0080917C0290E090938D0080938C00F6
:10023000E0E9F0E08081836880838081836080834F
:10024000A1E9B0E08C918B608C938091E302909156
:10025000E402909399008093980010929B00109272
:100260009A00A1E7B0E08C9181608C9380818F75BA
:1002700080838EB1877E8EB9E0EAF0E0808183686A
:100280008083A1EAB0E08C918B608C938091E7022F
:100290009091E8029093A9008093A8001092AB007F
:1002A0001092AA00A2E7B0E08C9181608C938081CB
:1002B0008F758083E2E0F1E08081877E80830895FE
:1002C0001F920F920FB60F9211248F939F93AF93AB
:1002D000BF93109284028091C9029091CA029093B8
:1002E000CE028093CD021092CA021092C902809170
:1002F000E7029091E802A091E902B091EA0200972A
:10030000A105B10589F48FE0809381028091A0005E
:100310008F758093A00080910201877E80930201F7
:1003200080917200897F3AC0181619061A061B06BA
:10033000DCF48FE0809381028091A0008F7D809318
:10034000A000809172008B7F8093720080910201E7
:100350008F7E809302018091A00080688093A0002E
:100360008091720082601AC08EE080938102809139
:10037000A0008F778093A000809172008D7F809382
:10038000720080910201877F809302018091A0001A
:1003900080628093A00080917200846080937200DC
:1003A000BF91AF919F918F910F900FBE0F901F90B3
:1003B00018951F920F920FB60F9211248F9381E020
:1003C000809384028EE0809381028F910F900FBE04
:1003D0000F901F9018951F920F920FB60F92112435
:1003E0008F9381E0809384028FE0809381028F91CC
:1003F0000F900FBE0F901F9018951F920F920FB67F
:100400000F9211248F939F93AF93BF931092830207
:100410008091CB029091CC029093D0028093CF0236
:100420001092CC021092CB028091DF029091E002F8
:100430009093E2028093E1028091D7029091D802DA
:100440009093DA028093D9021092E0021092DF02B8
:100450001092D8021092D70281E08093EB02809133
:10046000E3029091E402A091E502B091E6020097C8
:10047000A105B10579F48DE080938202809190000E
:100480008F75809390008EB1877E8EB980917100B8
:10049000897F32C0181619061A061B06BCF48DE0B7
:1004A00080938202809190008F7D80939000809154
:1004B00071008B7F809371007498809190008068A8
:1004C0008093900080917100826016C08CE08093D0
:1004D0008202809190008F778093900080917100CC
:1004E0008D7F8093710073988091900080628093DB
:1004F000900080917100846080937100BF91AF91F2
:100500009F918F910F900FBE0F901F9018951F9283
:100510000F920FB60F9211248F9381E08093830284
:100520008CE0809382028F910F900FBE0F901F90EE
:1005300018951F920F920FB60F9211248F9381E09E
:10054000809383028DE0809382028F910F900FBE83
:100550000F901F9018951092C50083E38093C400FC
:10056000E0ECF0E080818D7F8083E1ECF0E0808141
:1005700088698083E2ECF0E0808186608083089562
:100580009091C00095FFFCCF8093C60008951F9204
:100590000F920FB60F9211242F938F939F93AF93C7
:1005A000BF938091C60090917902992351F18233D3
:1005B000C9F0833330F4803361F0813309F0C2C174
:1005C0000BC0843399F0843378F0853309F0BAC1D5
:1005D0000FC01092780203C081E0809378021092DD
:1005E0007902B0C182E0F9CF83E0F7CF84E0F5CFA4
:1005F00085E0809378021092790281E08093EB028B
:10060000A1C190917802923009F474C0933030F413
:10061000992371F0913009F095C13AC0943009F4F2
:1006200012C1943008F496C0953009F08BC183C193
:100630008D3291F480918000806880938000809159
:100640007A0290E00A968F3F910519F014F08FEF2F
:1006500090E080937A0216C08B3209F070C18091CD
:100660007A0290E00A9797FF02C080E090E08093C2
:100670007A02882339F4809180008F7780938000FC
:100680002D9860C190E090938900809388005AC1B2
:100690008D3291F4809180008062809380008091FF
:1006A0007B0290E00A968F3F910519F014F08FEFCE
:1006B00090E080937B0215C08B32C9F480917B025D
:1006C00090E00A9797FF02C080E090E080937B0261
:1006D000882339F4809180008F7D809380002E984C
:1006E00031C190E090938B0080938A002BC190934E
:1006F000790228C18D3291F48091800088608093C6
:10070000800080917C0290E00A968F3F910519F05D
:1007100014F08FEF90E080937C0216C08B3209F0CA
:100720000EC180917C0290E00A9797FF02C080E0A2
:1007300090E080937C02882339F480918000877F49
:10074000809380002F98FEC090E090938D0080935E
:100750008C00F8C08B3209F58091E3029091E4029D
:10076000A091E502B091E6028C599F4FAF4FBF4F69
:100770008093E3029093E402A093E502B093E60233
:10078000803024E0920720E0A20720E0B20784F145
:100790008FEF93E0A0E0B0E023C08D3209F03FC0BE
:1007A0008091E3029091E402A091E502B091E6020B
:1007B00084569040A040B0408093E3029093E402BE
:1007C000A093E502B093E60281302CEF92072FEF61
:1007D000A2072FEFB20764F481E09CEFAFEFBFEF09
:1007E0008093E3029093E402A093E502B093E602C3
:1007F0008091E3029091E402A091E502B091E602BB
:10080000B7FD05C090939900809398009BC0909588
:1008100081959F4F90939B0080939A0093C083375C
:1008200009F08DC01092E3021092E4021092E502EA
:100830001092E602109299001092980010929B007C
:1008400010929A007FC08B3209F58091E702909157
:10085000E802A091E902B091EA028C599F4FAF4F94
:10086000BF4F8093E7029093E802A093E902B09310
:10087000EA02803024E0920720E0A20720E0B207DD
:1008800084F18FEF93E0A0E0B0E023C08D3209F057
:100890003FC08091E7029091E802A091E902B091F7
:1008A000EA0284569040A040B0408093E7029093C3
:1008B000E802A093E902B093EA0281302CEF92079C
:1008C0002FEFA2072FEFB20764F481E09CEFAFEFA8
:1008D000BFEF8093E7029093E802A093E902B09300
:1008E000EA028091E7029091E802A091E902B091BA
:1008F000EA02B7FD05C09093A9008093A80022C02A
:10090000909581959F4F9093AB008093AA001AC059
:100910008337A9F41092E7021092E8021092E902DC
:100920001092EA021092A9001092A8001092AB0057
:100930001092AA0007C0833729F41092EB0281E0DD
:1009400080937902BF91AF919F918F912F910F90DA
:100950000FBE0F901F90189508951F920F920FB61B
:100960000F9211240F900FBE0F901F901895F894BE
:100970000E9493000E94AE000E94F9000E942B0585
:100980000E943E060E94AB027894089581E0809315
:10099000790210927F020E94B7048CE080937E025D
:1009A00080917E02883050F480917B00877F809315
:1009B0007B0090917C0080917E020AC080917B0038
:1009C000886080937B0090917C0080917E028850AB
:1009D000892B80937C008AEA0E94C0028091EB02FE
:1009E000882359F11092EB026091D9027091DA02DA
:1009F0008091E1029091E2020E9467067093E20208
:100A00006093E1028AEA0E94C0028AEA0E94C00260
:100A10008091E1020E94C0028091E2020E94C00225
:100A20008091D9029091DA020E94C0028091D9028D
:100A30009091DA02892F0E94C0020E94B205882399
:100A400069F660E70E9471058CEE92E00E948505D0
:100A50000E946B05C3CF84B1807F84B984B1876065
:100A600084B980E58CBD8DB581608DBD0895262F3C
:100A7000372FF901282F392FD90180E008C09D9127
:100A80009EBD0DB407FEFDCF9EB591938F5F841779
:100A9000B0F30895282F392FF90180E006C0919115
:100AA0009EBD0DB407FEFDCF8F5F8617C0F308957E
:100AB0008EBD0DB407FEFDCF8EB508958091F20274
:100AC000882339F428988FEF0E945805289A80745B
:100AD000089580E00895289882EE0E945805289A8B
:100AE0000895DF93CF930F92CDB7DEB728988F711B
:100AF000806269830E9458056981862F0E9458058B
:100B0000289A0F90CF91DF910895CF93DF93EC0156
:100B1000289881E60E945805CE01BE0146E00E9459
:100B20003705289A87E060E40E947105DF91CF9134
:100B300008950F931F93DF93CF930F92CDB7DEB736
:100B40008B0128988F7149830E945805C801B8010C
:100B500049810E943705289A0F90CF91DF911F910C
:100B60000F910895DF93CF930F92CDB7DEB719821F
:100B700087E1BE016F5F7F4F41E00E949905898147
:100B800081700F90CF91DF9108950F931F93DF93A2
:100B9000CF930F92CDB7DEB78B0128988F7180620B
:100BA00049830E945805C8014981642F0E944A0563
:100BB000289A0F90CF91DF911F910F910895BC015A
:100BC00080E145E00E94C5050895BC012C988AE0AB
:100BD00045E00E94C5052C9A08950F931F93DF935B
:100BE000CF9300D0CDB7DEB780E06DE00E947105F5
:100BF00083E061E00E9471058BE089838CEC8A833D
:100C00001B8280E18E010F5F1F4FB80143E00E94FD
:100C1000C5058AE0B80143E00E94C50581E061E0B6
:100C20000E94710582E061E00E94710584E062E14A
:100C30000E94710585E068E20E94710581E166E02D
:100C40000E947105289880E50E94580583E70E945C
:100C50005805289A8CE161E00E9471058DE166E0FB
:100C60000E94710580E06FE00E9471050F900F9067
:100C70000F90CF91DF911F910F9108952C9A289A90
:100C80000E94ED0508951F93CF93DF93EC01162F7B
:100C90008091F2028823E1F72C9881E08093F202A0
:100CA00080E06AE40E947105289881EE0E94580550
:100CB000289A289880EA0E945805CE01612F0E9448
:100CC0004A05289A2C9ADF91CF911F910895AA1B6B
:100CD000BB1B51E107C0AA1FBB1FA617B70710F027
:100CE000A61BB70B881F991F5A95A9F78095909559
:080CF000BC01CD010895FFCF06
:100CF800000C0E0D0F000C0E0D0F010C0E0D0F0148
:100D08000C0E0D0F020C0E0D0F020C0E0D0F030C26
:100D18000E0D0F030C0E0D0F040C0E0D0F040C0E10
:100D28000D0F050C0E0D0F050C0E0D0F060C0E0DFC
:100D38000F060C0E0D0F070C0E0D0F070C0E0D0FE6
:100D4800080C0E0D0F080C0E0D0F090C0E0D0F09D7
:100D58000C0E0D0F0A0C0E0D0F0A0C0E0D0F0B0CBE
:0E0D68000E0D0F0B0C0E0D0F0501FFFFFF000F
:00000001FF
