:100000000C94BE000C94DD000C94DD000C94DD001B
:100010000C94DD000C94DD000C94DD000C94DD00EC
:100020000C94DD000C94DD000C946B080C94DD0046
:100030000C94DD000C949F080C94DD000C942A13A2
:100040000C94DD000C94DD000C94DD000C94DD00BC
:100050000C94DD000C94DD000C94DD000C94DD00AC
:100060000C94DD000C9429110C94DD000C94DD003F
:100070000C94DD000C94CE130C94DD000C94DD0088
:100080000C94DE170C94F4170C94DD000C945117AB
:100090000C94DD000C94DD000C94DD000C94DD006C
:1000A0000C94DD000C94DD000C9425170C943B1788
:1000B0000C94DD000C948E160C94DD000C94DD0085
:1000C0000C94DD000C94DD000C94DD000C94DD003C
:1000D0000C94DD000C94DD000C94DD000C94DD002C
:1000E0000C94DD00180BFC0ACA0A8D0B570B800B11
:1000F000A10A850A580A400AE109E109E109E10972
:10010000E109E109340A290AE109E109E109E10902
:10011000E109E109E109E109E109E109E109E1098F
:10012000580ACA0A1D0A180AE109E109E109E109A8
:10013000E109E109E109E109E109E109E109E1096F
:10014000570BA10AE109E109180B800B410B084A82
:10015000D73B3BCE016E84BCBFFDC12F3D6C7431DB
:100160009ABD56833DDA3D00C77F11BED9E4BB4C32
:100170003E916BAAAABE000000803F0011241FBE62
:10018000CFEFD1E2DEBFCDBF00E00CBF13E0A0E0B7
:10019000B2E0EEEEFBE402C005900D92A032B10792
:1001A000D9F714E0A0E2B3E001C01D92A035B10779
:1001B000E1F70E94DF000C94F6250C9400001F93D9
:1001C00081E0809310020E9415130E94241C11E00C
:1001D0000E94F01280931D040E94641B0E94B31FB2
:1001E00080911B0490911C042BE48E31920730F017
:1001F00010921C0410921B041093C1030E94CF099B
:100200000E94BF0480911D04882309F066C080917C
:100210000702882391F08091DF039091E003969587
:100220008795969587959093E4038093E3031092C6
:1002300007021092E0031092DF03809108028823E6
:1002400091F08091E1039091E203969587959695C0
:1002500087959093E6038093E5031092080210922D
:10026000E2031092E1038091EB039091EC039093F1
:10027000F8038093F7032091ED033091EE03309360
:10028000FA032093F90340912004442309F0A8C005
:100290003093DE032093DD039093DC038093DB0334
:1002A0003093EA032093E9039093E8038093E703F4
:1002B000181619060CF004C19093990080939800C9
:1002C0008091E9039091EA03181619060CF0ECC02E
:1002D0009093A9008093A8007BCF813009F48FC050
:1002E000823009F075CF2091ED033091EE03309309
:1002F000FA032093F9038091EB039091EC03909320
:10030000F8038093F70340912004442309F02AC1A5
:100310003093DE032093DD039093DC038093DB03B3
:1003200080910702882359F18091DF039091E003C7
:1003300096958795969587959093E4038093E3032C
:10034000109207021092E0031092DF0380911602D0
:10035000813009F41BC189EF93E00E94DC0B80918E
:10036000F9039091FA039093EA038093E903181636
:1003700019060CF010C19093A9008093A8008091F9
:100380000802882309F424CF8091E1039091E203CD
:1003900096958795969587959093E6038093E503C8
:1003A000109208021092E2031092E103809116026B
:1003B000813009F4E6C087EF93E00E94210D80911F
:1003C000F7039091F8039093E8038093E7031816DE
:1003D00019060CF05DC09093990080939800F8CEB8
:1003E00089EF93E067EF73E00E940A182091F90308
:1003F0003091FA038091F7039091F80349CF20914F
:10040000ED033091EE033093FA032093F9038091CA
:10041000EB039091EC039093F8038093F7034091E2
:100420002004442309F07FC03093DE032093DD03D2
:100430009093DC038093DB0380910702882309F00B
:100440004BC080910802882309F4C2CE8091E10359
:100450009091E20396958795969587959093E603FC
:100460008093E503109208021092E2031092E103D8
:1004700087EF93E00E94660E8091F7039091F80356
:100480009093E8038093E703181619060CF4A3CFA2
:10049000009709F096C0109299001092980010925F
:1004A0009B0010929A0094CE009709F04BC01092D6
:1004B000A9001092A8001092AB001092AA0088CE5A
:1004C000009709F047C0109299001092980010927E
:1004D0009B0010929A00F4CE8091DF039091E0038C
:1004E00096958795969587959093E4038093E3037B
:1004F000109207021092E0031092DF0389EF93E05D
:100500000E944B0F8091F9039091FA039093EA03B4
:100510008093E903181619060CF048C09093A900BF
:100520008093A8008ECF89EF93E067EF73E00E947D
:100530000A182091F9033091FA038091F703909102
:10054000F80372CF909581959F4F9093AB00809365
:10055000AA003ECE909581959F4F90939B008093EB
:100560009A00AECE89EF93E067EF73E00E940A181D
:100570002091F9033091FA038091F7039091F803E9
:10058000C7CE87EF93E00E94660E19CF89EF93E004
:100590000E944B0FE4CE0097E1F41092A900109254
:1005A000A8001092AB001092AA00E9CE0097C9F4FF
:1005B0001092A9001092A8001092AB001092AA000D
:1005C00040CF909581959F4F90939B0080939A0088
:1005D000FFCD909581959F4F9093AB008093AA009B
:1005E000CECE909581959F4F9093AB008093AA00BB
:1005F00028CF84B1807F84B984B1876084B980E5D5
:100600008CBD8DB581608DBD08951CBC1DBC089549
:10061000442379F0A82FB92FE62FF72F80E09D9182
:100620009EBD0DB407FEFDCF9EB591938F5F8417DD
:10063000B0F30895662359F0E82FF92F80E09191E7
:100640009EBD0DB407FEFDCF8F5F8617C0F30895E2
:100650008EBD0DB407FEFDCF8EB508950F931F9389
:10066000DF93CF9300D0CDB7DEB7289880E20E9409
:1006700028038DE00E942803289A289883E20E948C
:10068000280381E00E942803289A8CE0898385E86A
:100690008A831B82289880E30E9428038E010F5FC3
:1006A0001F4FC80163E00E941A03289A28988AE223
:1006B0000E942803C80163E00E941A03289A289820
:1006C00081E20E94280381E00E942803289A28984A
:1006D00082E20E94280381E00E942803289A289839
:1006E00084E20E94280382E10E942803289A289825
:1006F00085E20E94280388E20E942803289A28980D
:1007000081E30E9428038DE00E942803289A2898FC
:1007100080E50E94280383E70E942803289A2898EE
:100720008CE30E94280381E00E942803289A2898DD
:100730008DE30E94280386E00E942803289A2898C7
:1007400080E20E9428038FE00E942803289A0F90DD
:100750000F900F90CF91DF911F910F9108952C9AD8
:10076000289A0E942E030895CF93DF93EC012C98D2
:1007700028988AE20E942803CE0165E00E941A03AD
:10078000289A2C9ADF91CF910895CF93DF93EC01B3
:10079000289880E30E942803CE0165E00E941A0396
:1007A000289ADF91CF91089580912304882311F036
:1007B00080E0089528988FEF0E942803289A80747B
:1007C0000895DF93CF930F92CDB7DEB719822898A3
:1007D00087E10E942803BE016F5F7F4FCB0141E09C
:1007E0000E940803289A898181700F90CF91DF9130
:1007F0000895289882EE0E942803289A0895CF939E
:10080000DF93EC01289881E60E942803CE01BE0107
:100810004DE00E940803289A289887E20E94280346
:1008200080E40E942803289ADF91CF910895DF93F6
:10083000CF930F92CDB7DEB728988F71806269830E
:100840000E9428036981862F0E942803289A0F900E
:10085000CF91DF9108950F931F93DF93CF930F9262
:10086000CDB7DEB78B0128988F7149830E9428038A
:10087000C801B80149810E940803289A0F90CF91BE
:10088000DF911F910F9108950F931F93DF93CF93E3
:100890000F92CDB7DEB78B0128988F7180624983A4
:1008A0000E942803C8014981642F0E941A03289AD4
:1008B0000F90CF91DF911F910F9108950F931F9388
:1008C000DF93CF930F92CDB7DEB78C0180912304D5
:1008D0008823E1F72C9881E080932304289880E214
:1008E00069830E9428038AE40E942803289A289892
:1008F00081EE0E942803289A289880EA0E94280303
:10090000C80169810E941A03289A2C9A0F90CF91EE
:10091000DF911F910F910895EF92FF920F931F9314
:10092000DF93CF930F92CDB7DEB7182F062F2898FD
:1009300081EE99830E942803289A289888EA0E94C9
:1009400028039981002361F0612F792F7B01F70142
:1009500081917F010E9428038E2D811B8017B8F39F
:10096000289A0F90CF91DF911F910F91FF90EF90F8
:100970000895289881EE0E942803289A08951F93CD
:10098000CF93DF9380912304882321F0DF91CF91CF
:100990001F91089528988FEF0E942803289A86FFB8
:1009A000F5CF289887E20E94280380E70E94280359
:1009B000289A289881E60E94280380E494E0BC01EC
:1009C0004DE00E940803289A289887E20E94280395
:1009D00080E40E942803289A289882EE0E94280327
:1009E000289A60914004662309F4B8C150914404E8
:1009F00040914504E091410470914204252F30E07C
:100A00002F7730703093FE032093FD03842F90E006
:100A10008F7790709093FC038093FB0357FDA6C2E1
:100A2000220F331F220F331F309521953F4F3093F4
:100A3000EC032093EB0347FDA3C2880F991F880F97
:100A4000991F909581959F4F9093EE038093ED03AE
:100A500042E02130340744F040E052E05093EC0390
:100A60004093EB0320E032E042E08130940734F021
:100A700080E092E09093EE038093ED034EEF203000
:100A8000340734F440E05EEF5093EC034093EB0303
:100A90002EEF8030920734F480E09EEF9093EE03C7
:100AA0008093ED03262F30E03093390420933804EF
:100AB000F0E0F0933B04E0933A04C72FD0E0D093EA
:100AC0003D04C0933C04922F8827821B930B24E69D
:100AD00030E0B9010E948823162F109510930C0264
:100AE0005E2F44274E1B5F0BCA01B9010E94882369
:100AF000609560930E025C2F44274C1B5D0BCA016E
:100B0000B9010E948823609560930D02812F0E9495
:100B1000FB1980910D020E940F1A80910E020E9413
:100B2000231A8091430480FF25C1449881FF25C189
:100B30004598982F82FF25C121E02093110284FD62
:100B400024C186FF29C181E08093200497FD28C13C
:100B5000109221048091460480FF29C180910B01ED
:100B60008E7F80930B018091460481FF29C1809183
:100B70000B018D7F80930B018091460482FF29C178
:100B800080910B018B7F80930B018091460483FF42
:100B900029C1A3988091460484FF29C180910B014B
:100BA0008F7E80930B018091460485FF29C180913F
:100BB0000B018F7D80930B018091460486FF29C134
:100BC00080910B018F7B80930B018091460487FD00
:100BD00029C180910B01806880930B0180910B02E9
:100BE00080932804843009F429C1853008F066C157
:100BF000833009F065C090915B0380915C03909312
:100C0000290480932A0490915D0380915E03909360
:100C10002B0480932C0490915F0380916003909348
:100C20002D0480932E049091610380916203909330
:100C30002F04809330049091650380916603909314
:100C400031048093320490916703809168039093FC
:100C50003304809334049091690380916A039093E4
:100C60003504809336043091030180910301209173
:100C7000030190E080729070959587959595879582
:100C8000959587959595879595958795880F991F43
:100C9000221F2227221F220F220F282B832F90E0B2
:100CA0008071907095958795959587959595879581
:100CB00095958795282B2093370484E080930B0229
:100CC000289881EE0E942803289A289888EA0E9492
:100CD0002803809128040E942803809129040E94FF
:100CE000280380912A040E94280380912B040E94EB
:100CF000280380912C040E94280380912D040E94D7
:100D0000280380912E040E94280380912F040E94C2
:100D10002803809130040E942803809131040E94AE
:100D20002803809132040E942803809133040E949A
:100D30002803809134040E942803809135040E9486
:100D40002803809136040E942803809137040E9472
:100D50002803289ADF91CF911F910895E0914104D3
:100D6000EE2309F416C1509144044091450470915A
:100D7000420444CE449A81FDDBCE459A982F82FDF1
:100D8000DBCE1092110284FFDCCE0E94241C9091D5
:100D90004304892F86FDD7CE1092200497FFD8CE2A
:100DA00081E0809321048091460480FDD7CE80911C
:100DB0000B01816080930B018091460481FDD7CEA9
:100DC00080910B01826080930B018091460482FD2B
:100DD000D7CE80910B01846080930B0180914604F3
:100DE00083FDD7CEA39A8091460484FDD7CE80910F
:100DF0000B01806180930B018091460485FDD7CE65
:100E000080910B01806280930B018091460486FDE6
:100E1000D7CE80910B01806480930B0180914604B2
:100E200087FFD7CE80910B018F7780930B01809144
:100E30000B0280932804843009F0D7CE909163038D
:100E4000809164039093290480932A0490916B030A
:100E500080916C0390932B0480932C0490916D03EC
:100E600080916E0390932D0480932E0490916F03D4
:100E70008091700390932F048093300490917103BC
:100E80008091720390933104809332049091060410
:100E90008091070490933304809334049091080464
:100EA0008091090490933504809336048091010465
:100EB0008093370485E080930B0202CF853009F4DC
:100EC0007DC0863009F0FCCE80913B0390913C03BD
:100ED0008093290480913B0390913C0390932A04D2
:100EE00080914B0390914C0380932B0480914B0392
:100EF00090914C0390932C0480914F039091500358
:100F000080932D0480914F039091500390932E0471
:100F1000809153039091540380932F048091530345
:100F2000909154039093300480915703909158030B
:100F30008093310480915703909158039093320429
:100F400090910A0480910B049093330480933404AD
:100F50009091BF038091C003909335048093360431
:100F60001092370483E080930B02AACE220F331F26
:100F7000220F331F3093EC032093EB0347FF5DCD2B
:100F8000880F991F880F991F9093EE038093ED03AC
:100F90005FCD70914204772361F4809143048830DF
:100FA00041F450914404552309F464C04091450430
:100FB00025CD509144044091450420CD80912B03D0
:100FC00090912C038093290480912B0390912C0302
:100FD00090932A0480912F039091300380932B04E7
:100FE00080912F039091300390932C0480913303D0
:100FF0009091340380932D048091330390913403B6
:1010000090932E04809137039091380380932F049E
:1010100080913703909138039093300480913F037F
:10102000909140038093310480913F03909140035D
:10103000909332048091430390914403809333044E
:10104000809143039091440390933404809147032B
:101050009091480380933504809147039091480311
:101060009093360480911D048093370486E080932A
:101070000B0226CE40914504442379F01092FE03E2
:101080001092FD03842F90E08F7790709093FC0373
:101090008093FB0320E030E0C3CC8CE30E94341348
:1010A000509144044091450460914004E091410412
:1010B00070914204A3CCE8E6F0E0808182608083F6
:1010C000ECE6F0E0808180688083E0EBF0E08081F6
:1010D0008260808308951F920F920FB60F921124A1
:1010E0008F9380911102882321F18091030186FD65
:1010F00020C0809168008D7F8093680080916C0093
:101100008F7780936C0081E0809312028DE0809352
:10111000B3008091B10086608093B100809170002F
:101120008260809370001092220310922303109229
:1011300024038F910F900FBE0F901F9018951F9250
:101140000F920FB60F9211242F933F934F935F93FB
:101150008F939F938091B100887F8093B10080919D
:1011600012028823A9F08091030186FF65C0809157
:10117000680082608093680080916C008068809332
:101180006C008FEF9FEF909302028093010249C0A1
:1011900080910102909102022FEF8F3F920709F494
:1011A00063C08130910509F498C09C012250304001
:1011B0002530310508F467C09C01275030402630A7
:1011C000310508F0BDC026E32093B3002091B100A3
:1011D00026602093B100209170002260209370005F
:1011E0002091030130E0207430700024220F331F5F
:1011F000001C220F331F001C232F302D4CE050E029
:10120000481B590B02C0220F331F4A95E2F7409149
:101210002203420F4093220301969093020280938F
:1012200001029F918F915F914F913F912F910F906C
:101230000FBE0F901F9018951092120283E38093B7
:10124000B3008091B10086608093B10080917000FE
:1012500082608093700080910102909102022FEFD2
:101260008F3F9207C9F6DDCF2091030126FF52C0C0
:101270002091680022602093680020916C00206813
:1012800020936C00CECF26E32093B3002091B100D1
:1012900026602093B100209170002260209370009E
:1012A0002091030130E0207430700024220F331F9E
:1012B000001C220F331F001C232F302D46E050E06E
:1012C000481B590B02C0220F331F4A95E2F7409189
:1012D0002303420F409323039FCF2091030130E06B
:1012E00020743070022E232F000C221F330B000CB1
:1012F000221F331F2093240326E32093B300209161
:10130000B10026602093B1002091700022602093EC
:10131000700082CF8CE18093B3008091B100866031
:101320008093B10080917000826080937000109271
:101330002203109223031092240381E090E06DCFEA
:101340008D30910509F068CF10927000809168008F
:1013500082608093680080916C00806880936C004C
:101360008FEF9FEF909302028093010280912403FC
:1013700080930002809123038093200380912203B5
:101380008093210381E0809302044BCF809100027F
:1013900008958091200308958091210308958091FC
:1013A00011028823B1F1E0912103E09301048091BF
:1013B0000204882371F110920204F0E0E533F10594
:1013C00048F12091EB033091EC038091ED03909173
:1013D000EE0337FD27C03595279535952795309332
:1013E000FE032093FD0397FD09C09595879595957C
:1013F00087959093FC038093FB03089590958195C6
:101400009F4F95958795959587959093FC0380932D
:10141000FB030895EE58FF4FEE0FFF1F0590F49168
:10142000E02D1994309521953F4FD5CF809320041E
:1014300010922104C6CF1092200481E080932104F1
:101440002091EB033091EC038091ED039091EE033A
:10145000C0CF109220042091EB033091EC038091D7
:10146000ED039091EE03B5CF81E0809320042091AD
:10147000EB033091EC038091ED039091EE03A9CF43
:101480008091ED039091EE034E979093EE0380933D
:10149000ED032EEF803092079CF580E09EEF909355
:1014A000EE038093ED032091EB033091EC0391CF99
:1014B0002091EB033091EC038091E9039091EA03D2
:1014C0002817390724F02091ED033091EE032E51B7
:1014D00030403093EC032093EB03C9013093EE03CB
:1014E0002093ED034EEF2030340734F440E05EEFFC
:1014F0005093EC034093EB034EEF203034076CF233
:101500002091EB033091EC0364CF2091EB033091F9
:10151000EC032E5130403093EC032093EB034EEF5D
:10152000203034070CF017C180E09EEF9093EC035D
:101530008093EB038091ED039091EE0320E830E07F
:101540004ECF2091EB033091EC032E51304030937D
:10155000EC032093EB038091ED039091EE034E9604
:101560009093EE038093ED034EEF2030340734F474
:1015700020E03EEF3093EC032093EB0342E0813018
:1015800094070CF426CF80E092E09093EE038093D2
:10159000ED031FCF2091EB033091EC038091ED031D
:1015A0009091EE03821793070CF4DAC09C01225E3F
:1015B0003F4F3093EC032093EB034E969093EE0352
:1015C0008093ED0342E02130340734F020E032E034
:1015D0003093EC032093EB0322E0813092070CF46C
:1015E0008FCF80E092E09093EE038093ED03209103
:1015F000EB033091EC03EDCE2091EB033091EC0343
:10160000225E3F4F3093EC032093EB0342E0213006
:1016100034070CF4A0C080E092E09093EC03809338
:10162000EB038091ED039091EE0320E830E0D7CEFC
:101630008091030490E0019665E070E00E949C2395
:1016400080930304882309F08DC0449A459A109230
:101650000E028FEF80930D0280930C020E94FB1903
:1016600080910D020E940F1A80910E020E94231A8F
:101670002091EB033091EC038091ED039091EE0308
:10168000A8CE8091040490E00196837090708093BE
:101690000404823009F4CFCE833009F453C0813082
:1016A00009F4C4CE10922004109221048ACE209115
:1016B000EB033091EC03225E3F4F3093EC03209319
:1016C000EB038091ED039091EE034E979093EE0320
:1016D0008093ED0342E02130340734F020E032E023
:1016E0003093EC032093EB034EEF803094070CF023
:1016F00070CE80E09EEF9093EE038093ED0369CE71
:101700001092EC031092EB031092EE031092ED0393
:1017100080E090E020E030E05ECE8091ED0390919B
:10172000EE034E969093EE038093ED0322E081301A
:1017300092070CF4E5CE80E092E09093EE03809364
:10174000ED03DECE81E0809320048093210420917C
:10175000EB033091EC038091ED039091EE0339CED1
:10176000C90125CF813061F0823091F08330D9F00A
:101770008FEF80930E0280930D0280930C026ECF48
:101780008FEF80930E0210920D0280930C0266CFB1
:10179000449845988FEF80930E0280930D0210922B
:1017A0000C0280E05BCF10920E0210920D0210929C
:1017B0000C0280E053CF08950F931F93CF93DF93D4
:1017C000FC0180819181009709F4B7C02091180431
:1017D0003091190441E02E3034070CF488C01816FB
:1017E00019060CF013C188E691E0821B930B9595C6
:1017F00087959595879529E130E0281B390B309323
:101800000402209303024091240450912504509334
:101810003F0440933E042081318137FDD2C0809146
:10182000E3039091E403B901681B790BCB0170933A
:101830002504609324042091F3033091F403280FCE
:10184000391F3093F4032093F30376E021343707F4
:101850000CF484C020E436E03093F4032093F303C7
:1018600060EC72E19C01220F331FDC01AA0FBB1F49
:10187000AA0FBB1FAA0FBB1F2A0F3B1F008111819C
:10188000C0910302D09104020C9FD0010D9FB00DB6
:101890001C9FB00D11242A0F3B1F481B590B440FEE
:1018A000551F240F351F260F371F3093F203209347
:1018B000F10337FD69C0121613060CF06FC080816A
:1018C000918197FD89C07DE5213C37070CF466C006
:1018D00080EC9DE59093F2038093F10380E092E029
:1018E00091838083DF91CF911F910F910895243BC5
:1018F000310594F42A3531057CF4181619060CF0DC
:1019000093C03595279535952795275E3F4F3093A2
:1019100004022093030277CF1816190694F584EB7E
:1019200090E0821B930B95958795959587954996A1
:10193000909304028093030266CF1092F4031092F6
:10194000F303109225041092240410923F04109285
:101950003E04DF91CF911F910F91089569EF203CD4
:1019600036074CF420EC39EF3093F4032093F30363
:1019700060E47DEE77CFB901660F771F620F731FAA
:1019800071CF84EB90E031CF8081918197FD06C0CB
:101990001092F2031092F10320E030E082EA20344A
:1019A000380704F580E492EA9093F2038093F10300
:1019B00080E09EEF91838083DF91CF911F910F9103
:1019C00008958091E3039091E403820F931F909315
:1019D0002504809324042FCF1092F2031092F10378
:1019E00020E030E035952795359527953595279555
:1019F000359527953183208342E0213034070CF060
:101A00006DCF6EEF203036079CF26CCF88E691E008
:101A1000821B930B959587959595879549969093FD
:101A2000040280930302EFCE3595279535952795CF
:101A300089E190E0821B930B909304028093030250
:101A4000E2CE0F931F93CF93DF93FC0180819181AE
:101A5000009709F4B7C0209118043091190441E0AF
:101A60002E3034070CF488C0181619060CF013C178
:101A700088E691E0821B930B9595879595958795C0
:101A800029E130E0281B390B309306022093050230
:101A900040914D0450914E045093270440932604E6
:101AA0002081318137FDD2C08091E5039091E6031A
:101AB000B901681B790BCB0170934E0460934D0400
:101AC0002091F5033091F603280F391F3093F60368
:101AD0002093F50376E0213437070CF484C020E42A
:101AE00036E03093F6032093F50360EC72E19C013D
:101AF000220F331FDC01AA0FBB1FAA0FBB1FAA0FA7
:101B0000BB1F2A0F3B1F00811181C0910502D0919C
:101B100006020C9FD0010D9FB00D1C9FB00D11242B
:101B20002A0F3B1F481B590B440F551F240F351F0D
:101B3000260F371F3093F0032093EF0337FD69C062
:101B4000121613060CF06FC08081918197FD89C039
:101B50007DE5213C37070CF466C080EC9DE5909351
:101B6000F0038093EF0380E092E091838083DF9124
:101B7000CF911F910F910895243B310594F42A359C
:101B800031057CF4181619060CF093C0359527958D
:101B900035952795275E3F4F309306022093050227
:101BA00077CF1816190694F584EB90E0821B930BFF
:101BB000959587959595879549969093060280937C
:101BC000050266CF1092F6031092F50310924E04B0
:101BD00010924D041092270410922604DF91CF91A9
:101BE0001F910F91089569EF203C36074CF420ECCB
:101BF00039EF3093F6032093F50360E47DEE77CF61
:101C0000B901660F771F620F731F71CF84EB90E0ED
:101C100031CF8081918197FD06C01092F003109220
:101C2000EF0320E030E082EA2034380704F580E456
:101C300092EA9093F0038093EF0380E09EEF91830C
:101C40008083DF91CF911F910F9108958091E503DB
:101C50009091E603820F931F90934E0480934D045E
:101C60002FCF1092F0031092EF0320E030E0359573
:101C70002795359527953595279535952795318362
:101C8000208342E0213034070CF06DCF6EEF20301E
:101C900036079CF26CCF88E691E0821B930B9595FA
:101CA00087959595879549969093060280930502AE
:101CB000EFCE359527953595279589E190E0821BE4
:101CC000930B9093060280930502E2CEFC01808183
:101CD0009181009709F47BC0A0914D04B0914E040E
:101CE000B0932704A09326042081318137FD89C059
:101CF0008091E5039091E603A901481B590BCA01A5
:101D000050934E0440934D042091F5033091F60317
:101D1000280F391F3093F6032093F50356E0213442
:101D200035070CF461C020E436E03093F6032093CD
:101D3000F50360E87CE09C01220F331F280F391F58
:101D4000220F331F220F331F220F331F280F391F7B
:101D500040815181440F551F440F551F440F551F9B
:101D6000240F351FAD01481B590BCA01880F991F5D
:101D7000840F951F280F391F260F371F3093F0034C
:101D80002093EF0337FD4CC0121613060CF052C01F
:101D90008081918197FD67C05DE5213C35070CF49A
:101DA00049C080EC9DE59093F0038093EF032CED08
:101DB00035E0225E3F4F3183208342E021303407FB
:101DC0000CF448C080E092E09183808308951092E3
:101DD000F6031092F50310924E0410924D041092E7
:101DE000270410922604089549EF203C3407A4F4F8
:101DF00020EC39EF3093F6032093F50360E873EF9E
:101E00009ACF8091E5039091E603820F931F909300
:101E10004E0480934D0478CFB901660F771F8BCFA6
:101E20008081918197FD06C01092F0031092EF031C
:101E300020E030E082EA20343807DCF480E492EAE3
:101E40009093F0038093EF0324E23AEF2E51304059
:101E5000318320835EEF2030350724F480E09EEF4D
:101E60009183808308951092F0031092EF0320E095
:101E700030E03595279535952795359527953595F6
:101E8000279531832083121613060CF492CF211567
:101E90003105E1F60895FC0180819181009709F4F4
:101EA0007BC0A0912404B0912504B0933F04A0937B
:101EB0003E042081318137FD89C08091E3039091F8
:101EC000E403A901481B590BCA0150932504409310
:101ED00024042091F3033091F403280F391F309329
:101EE000F4032093F30356E0213435070CF461C06A
:101EF00020E436E03093F4032093F30360E87CE0C1
:101F00009C01220F331F280F391F220F331F220F6E
:101F1000331F220F331F280F391F40815181440F77
:101F2000551F440F551F440F551F240F351FAD017A
:101F3000481B590BCA01880F991F840F951F280F42
:101F4000391F260F371F3093F2032093F10337FD1B
:101F50004CC0121613060CF052C08081918197FD7F
:101F600067C05DE5213C35070CF449C080EC9DE578
:101F70009093F2038093F1032CED35E0225E3F4F06
:101F80003183208342E0213034070CF448C080E0E4
:101F900092E09183808308951092F4031092F303EA
:101FA000109225041092240410923F0410923E04D3
:101FB000089549EF203C3407A4F420EC39EF309326
:101FC000F4032093F30360E873EF9ACF8091E30367
:101FD0009091E403820F931F90932504809324042F
:101FE00078CFB901660F771F8BCF8081918197FDE4
:101FF00006C01092F2031092F10320E030E082EA72
:1020000020343807DCF480E492EA9093F203809362
:10201000F10324E23AEF2E513040318320835EEF0A
:102020002030350724F480E09EEF9183808308956B
:102030001092F2031092F10320E030E035952795DD
:1020400035952795359527953595279531832083A7
:10205000121613060CF492CF21153105E1F60895FE
:1020600085B7806185BF8FEF81B912B897EF94B9BA
:1020700020EE25B920EF27B920EB28B92CEF2AB99B
:1020800023E02BB98DB91EB810BA83BB28E024BB5E
:1020900080930101109202012FE02093040120930C
:1020A00005011092070180930A0190930B01089596
:1020B0001092B8001092BC000895589A599A109244
:1020C000B90080E28093B800089594EA9093BC0030
:1020D0009091BC0097FFFCCF9091B900987F983009
:1020E00021F0903111F081E008958093BB0084E8E5
:1020F0008093BC008091BC0087FFFCCF9091B90019
:10210000987F983121F081E0903419F0089580E0B3
:10211000089580E0089524EA34E844E92093BC005F
:102120009091BC0097FFFCCF9091B900987F9830B8
:1021300011F0903199F78093BB003093BC009091DF
:10214000BC0097FFFCCF9091B900987F903219F0B6
:10215000983509F008954093BC009091BC0094FD1F
:10216000FCCFDCCF94EA9093BC009091BC0097FF29
:10217000FCCF9091B900987F983021F0903111F008
:1021800081E008958093BB0084E88093BC00809137
:10219000BC0087FFFCCF9091B900987F983121F067
:1021A00081E0903419F0089580E0089580E008956A
:1021B00084E98093BC008091BC0084FDFCCF08952D
:1021C0008093BB0084E88093BC008091BC0087FFB3
:1021D000FCCF9091B900987F81E0983209F0089582
:1021E00080E0089584EC8093BC008091BC0087FF60
:1021F000FCCF8091BB00089584E88093BC0080915F
:10220000BC0087FFFCCF8091BB0008951092C500F1
:1022100080E18093C400E0ECF0E080818260808304
:10222000E1ECF0E0808188698083E2ECF0E080817D
:102230008660808308951092C0001092C1001092B1
:10224000C20008959091C00095FFFCCF8093C60016
:1022500008951F920F920FB60F9211242F938F9310
:102260009F938091C600909110029923B9F0823318
:1022700009F45BC0833380F5803309F47EC0813379
:1022800029F481E080930F02109210029F918F91A8
:102290002F910F900FBE0F901F90189590910F02E5
:1022A000923009F448C0933040F1943009F48CC066
:1022B000943008F473C0953049F7833739F710929A
:1022C000000481E0809310029F918F912F910F90D5
:1022D0000FBE0F901F901895843309F459C08433B2
:1022E00008F450C0853391F685E080930F02109278
:1022F000100281E080930004C9CF992391F58D32BB
:1023000009F4D5C08B32E9F680910C0290E00A976F
:1023100097FD3FC180930C02882309F43CC190E0F3
:102320009093890080938800B1CF82E080930F0260
:1023300010921002ABCF8D3209F4E8C08B3209F64F
:1023400080910E0290E00A9797FD35C180930E02AE
:10235000882309F432C190E090938D0080938C0023
:1023600095CF913009F092CF8D3209F489C08B322C
:1023700009F43FC09093100289CF10920F0210927F
:10238000100284CF83E080930F02109210027ECF60
:1023900084E080930F021092100278CF8B3209F400
:1023A000CCC08D3209F451C0833709F08ACF109226
:1023B000E8031092E703109299001092980010928F
:1023C0009B0010929A0062CF8B3209F487C08D3245
:1023D00009F1833709F075CF1092EA031092E903EF
:1023E0001092A9001092A8001092AB001092AA00BF
:1023F0004DCF80910D0290E00A9797FDD3C0809356
:102400000D02882309F4D0C090E090938B00809354
:102410008A003CCF8091E9039091EA034E97909314
:10242000EA038093E9032CEF803092070CF0CCC0D4
:1024300080E09CEF9093EA038093E90380E094E0CE
:102440009093AB008093AA0021CF8091E7039091F5
:10245000E8034E979093E8038093E7032CEF8030D6
:1024600092070CF0B7C080E09CEF9093E803809354
:10247000E70380E094E090939B0080939A0006CF5E
:102480008091800080628093800080910D0290E0B6
:102490000A968F3F910519F014F08FEF90E080932A
:1024A0000D0290E090938B0080938A00EFCE809194
:1024B000800080688093800080910C0290E00A96F2
:1024C0008F3F910519F014F08FEF90E080930C028C
:1024D00090E09093890080938800D8CE8091E903A2
:1024E0009091EA034E969093EA038093E90324E0E7
:1024F00081309207D4F180E094E09093EA038093D6
:10250000E9039093A9008093A800C0CE8091800039
:1025100088608093800080910E0290E00A968F3F41
:10252000910519F014F08FEF90E080930E0290E087
:1025300090938D0080938C00A9CE8091E7039091B9
:10254000E8034E969093E8038093E70324E08130FC
:102550009207ACF080E094E09093E8038093E70367
:10256000909399008093980091CE97FFCACF909551
:1025700081959F4F9093AB008093AA0087CE97FFE1
:10258000EFCF909581959F4F90939B0080939A00F9
:102590007DCE10920C02809180008F778093800016
:1025A0002D9874CE10920D02809180008F7D8093C3
:1025B00080002E986BCE10920E0280918000877F53
:1025C000809380002F9862CE97FF9BCF9095819546
:1025D0009F4F36CF97FFC4CF909581959F4F4BCF9C
:1025E00086B166B126B146B130E0287030703595BD
:1025F00027953595279535952795220F331F70E040
:10260000647070707595679575956795260F371F7F
:10261000220F331F50E04270507055954795240F9C
:10262000351F220F8170820F0895F8940E94301098
:102630000E94B2130E9446160E94C0190E94F9021D
:102640000E94AF030E9406110E94371A0E945B0885
:10265000789408951F920F920FB60F9211240F9045
:102660000FBE0F901F901895CF93DF939EE1899F27
:10267000E0011124809168008D7F80936800809133
:102680006C008F7780936C00D99A10927A008091B9
:102690007A00806180937A001092900010929100ED
:1026A0001092710088B3876088BB1092A0001092CE
:1026B000A1001092720089B3876089BB10928000DC
:1026C000109281000E941B110E9405030E94581065
:1026D0000E94301083B78F6083BF81E080937000C9
:1026E0008091B0008D7F8093B0008091B1008760B1
:1026F0008093B100209719F088952197E9F713BED0
:102700008091B100887F8093B10010927000809119
:10271000B00082608093B0008FEF80930C028093B2
:102720000D0280930E021092E8031092E7031092BC
:10273000EA031092E903F8940E9430100E94B21349
:102740000E9446160E94C0190E94F9020E94AF031F
:102750000E9406110E94371A0E945B087894DF914C
:10276000CF910895EAE7F0E0808186608083ACE74E
:10277000B0E08C9180648C93808180628083ABE731
:10278000B0E08C91887F8C93808188608083808189
:102790008068808380818064808308951F920F9277
:1027A0000FB60F920BB60F9211242F933F934F93B6
:1027B0005F936F938F939F93EF93FF9380911B048D
:1027C00090911C04019690931C0480931B0420910B
:1027D000780030E040917900942F80E0282B392B4D
:1027E0008091BB03823009F48EC1833008F446C067
:1027F000833009F4ABC1843009F44AC18091BC0331
:10280000823009F431C1833008F0CEC0882309F04A
:1028100006C1809126038695809325038091BD0390
:10282000882309F0BFC181E08093BB0381E08093DE
:10283000BC0390912503983008F0E6C090917B008E
:10284000977F90937B0090912503905C90937C0000
:10285000823021F48FEF8093050112B8FF91EF9140
:102860009F918F916F915F914F913F912F910F9019
:102870000BBE0F900FBE0F901F901895882309F084
:10288000DFC0609126036E3009F4A1C1462F50E0ED
:10289000FA01EE0FFF1FE55DFC4F3183208340FFFF
:1028A00077C0FA01EE0FFF1FE75DFC4F8081918139
:1028B000FA01EE0FFF1FE55DFC4F40815181262F8D
:1028C000269530E0841B950B220F331FF901ED583C
:1028D000FC4F40815181841B950BF901E55AFC4F57
:1028E0009183808397FD8EC144E08130940724F06A
:1028F00080E094E091838083603148F48C339105CB
:102900000CF085C12D533C4FF90191838083809158
:102910002104882309F452C180916B0390916C03C8
:10292000F1E0843A9F07CCF080916D0390916E03A3
:1029300021E0843A92078CF080916F0390917003AC
:1029400041E0843A94074CF08091710390917203B6
:10295000E1E0843A9E070CF031C181E080932204CB
:102960001092EA031092E9031092A9001092A800B5
:102970001092AB001092AA001092E8031092E703A5
:10298000109299001092980010929B0010929A0059
:102990006F5F60932603683108F430CF10922603EE
:1029A00081E08093C2032ACF833009F498C0843039
:1029B00009F03FCF9091280390932503909129032C
:1029C0009093BD039091BE03992309F0E5C083E085
:1029D0008093BB031092BC03209126032E3009F490
:1029E000F0C0822F90E020FFCEC0203108F0BBC0A5
:1029F000269581E090E002C0880F991F2A95E2F7A2
:102A000082B98091BC0315CF90917B009860909320
:102A10007B0090912503985C90937C0019CF8130C6
:102A200009F007CF809127038093250380912A0323
:102A30008093BE031092BB0382E08093BC03F9CE67
:102A4000813009F0DBCE8091D5039091D603820FBF
:102A5000931F969587959093D6038093D503809185
:102A6000BC03823009F0CFCE8091280380932503E8
:102A7000809129038093BD038091BE03882309F0D0
:102A800097C083E08093BB0383E08093BC03D1CEE7
:102A900080910A02882309F4B1CE9091000193FD40
:102AA000ADCE9091000194FDA9CE482F4F5F409389
:102AB0000A02453008F4A2CE8091DF039091E00332
:102AC000820F931F9093E0038093DF03483009F057
:102AD00095CE10920A0281E0809307028FCE8091FA
:102AE00027038093250380912A038093BE0380915E
:102AF000BD03882309F04AC081E08093BB0384E0D2
:102B00008093BC0396CE80910902882309F476CE87
:102B1000639974CE649972CE482F4F5F4093090237
:102B2000453008F46BCE8091E1039091E203820F6F
:102B3000931F9093E2038093E103483009F05ECE47
:102B40001092090281E08093080258CE8091D3034D
:102B50009091D403820F931F969587959093D403F9
:102B60008093D3034BCE409105014097959587956F
:102B700021E030E002C0220F331F8A95E2F7209552
:102B80002423209305018091BC0353CE813071F141
:102B900085E08093BB03B3CF913009F085E080934B
:102BA000BB0318CF813051F185E08093BB033ECE4B
:102BB000813001F185E08093BB0366CF109222043F
:102BC000E7CE8091C1038130A1F180E032CE8091C7
:102BD000C103823009F05ACE3093C0032093BF0363
:102BE0001092C10346984EE050E059CE82E08093A7
:102BF000BB0385CF84E08093BB0346CF82E0809304
:102C0000BB0314CE1182108280E090E075CEAC013F
:102C1000445C5F4F55954795483751057CF42D53DB
:102C20003C4FCC9795958795CC96F90191838083FD
:102C30006ECE82E08093C103469AD3CEAC01445D50
:102C40005E4F5595479555954795443B510574F40E
:102C50002D533C4F845B904095958795959587952E
:102C600088589F4FF9019183808351CE2D533C4F5B
:102C7000845A9140959587959595879595958795D3
:102C80008C549F4FF9019183808341CEE0E9F0E0BD
:102C9000808183688083808183608083A1E9B0E044
:102CA0008C918B608C938091E7039091E8039093D3
:102CB00099008093980010929B0010929A00A1E7CF
:102CC000B0E08C9181608C9380818F7580838EB110
:102CD000877E8EB9E0EAF0E0808183688083A1EA94
:102CE000B0E08C918B608C938091E9039091EA0322
:102CF0009093A9008093A8001092AB001092AA00B4
:102D0000A2E7B0E08C9181608C9380818F75808385
:102D1000E2E0F1E08081877E808308951F920F9228
:102D20000FB60F9211248F939F93809122048823D2
:102D300061F01092EA031092E9031092A900109238
:102D4000A8001092AB001092AA001092D403109227
:102D5000D3038091E9039091EA03009741F58091B4
:102D6000DD039091DE0397FD69C081E080932A0323
:102D70008EE08093270381E080930A028091A00077
:102D80008F758093A00080910201877E809302015D
:102D900080917200897F8093720089B3866089BBBD
:102DA0009F918F910F900FBE0F901F90189518163E
:102DB00019062CF510922A038FE080932703809147
:102DC000A0008F7D8093A000809172008B7F809304
:102DD0007200809102018F7E809302018091A00099
:102DE00080688093A000809172008260809372005E
:102DF0009F918F910F900FBE0F901F90189510927A
:102E00002A038EE0809327038091A0008F77809320
:102E1000A000809172008D7F8093720080910201EA
:102E2000877F809302018091A00080628093A00040
:102E300080917200846080937200B2CF81E08093B1
:102E40002A038FE08093270396CF1F920F920FB62D
:102E50000F9211248F939F9381E080932A039EE029
:102E60009093270380930A029F918F910F900FBE3A
:102E70000F901F9018951F920F920FB60F9211246A
:102E80008F939F9381E080932A039FE09093270381
:102E900080930A029F918F910F900FBE0F901F9009
:102EA00018951F920F920FB60F9211248F939F9334
:102EB00080912204882361F01092E8031092E703C6
:102EC000109299001092980010929B0010929A0014
:102ED0001092D6031092D5038091E7039091E803F6
:102EE000009731F58091DB039091DC0397FD5FC083
:102EF00081E0809329038CE08093280381E0809314
:102F00000902809190008F75809390008EB1877E2A
:102F10008EB980917100897F8093710088B386603B
:102F200088BB9F918F910F900FBE0F901F901895A7
:102F3000181619060CF5109229038DE080932803CA
:102F4000809190008F7D80939000809171008B7FA5
:102F500080937100749880919000806880939000B5
:102F6000809171008260809371009F918F910F908A
:102F70000FBE0F901F901895109229038CE080933C
:102F80002803809190008F7780939000809171004A
:102F90008D7F809371007398809190008062809300
:102FA000900080917100846080937100BACF81E0BD
:102FB000809329038DE080932803A0CF1F920F9266
:102FC0000FB60F9211248F939F9381E08093290372
:102FD0009CE090932803809309029F918F910F901A
:102FE0000FBE0F901F9018951F920F920FB60F9261
:102FF00011248F939F9381E0809329039DE0909308
:103000002803809309029F918F910F900FBE0F901C
:103010001F9018952F923F924F925F926F927F92DE
:103020008F929F92AF92BF92CF92DF92EF92FF92D8
:103030000F931F93DF93CF9300D00F92CDB7DEB7DE
:103040004C011B01DC010D90BC91A02DBA83A9831A
:10305000FB010190F081E02DFC83EB834091C303E1
:103060005091C4034431510534F41092C4031092BA
:10307000C30340E050E0E090C503F090C603F4E1E4
:10308000EF16F10434F41092C6031092C503EE2437
:10309000FF248091C7039091C8038431910534F4D3
:1030A0001092C8031092C70380E090E0A091C9037A
:1030B000B091CA03A431B10534F41092CA0310923E
:1030C000C903A0E0B0E02091CB033091CC032431C0
:1030D000310534F41092CC031092CB0320E030E0A1
:1030E000E091CD03F091CE03E431F10534F4109278
:1030F000CE031092CD03E0E0F0E00091CF031091F9
:10310000D0030431110534F41092D0031092CF0390
:1031100000E010E06091D1037091D2036431710539
:1031200034F41092D2031092D10360E070E05701A2
:10313000B594A7947D01F594E794F595E795759579
:103140006795D701A41BB50BAD01420F531F4E0F5E
:103150005F1F4A195B09461B570BEA0CFB1CE80E64
:10316000F91EE01AF10AE61AF70AEE1AFF0AE981D7
:10317000FA81F7FD91C05F01CC24B7FCC094DC2C30
:103180002A01662457FC6094762C0027F7FC0095F2
:10319000102FC301B2016E197F09800B910BA6019C
:1031A00095010E946923672F782F892F992787FD22
:1031B0009A956A0D7B1D8C1D9D1DD40111967C93E3
:1031C0006E932B813C8137FD92C05901CC24B7FC12
:1031D000C094DC2CC801B701640D751D861D971DB8
:1031E000A60195010E946923672F782F892F9927BF
:1031F00087FD9A956A0D7B1D8C1D9D1D9B01D1013C
:1032000011967C936E93B2E021303B073CF080E056
:1032100092E0F1019183808320E032E0D4018D912E
:103220009C911197B2E081309B074CF080E092E0D6
:10323000F40191838083D1012D913C911197BEEFD0
:1032400020303B074CF480E09EEFF10191838083B6
:10325000D4018D919C911197BEEF80309B072CF487
:1032600080E09EEFF401918380830F900F900F9088
:103270000F90CF91DF911F910F91FF90EF90DF9012
:10328000CF90BF90AF909F908F907F906F905F9006
:103290004F903F902F900895EB81FC815F01CC24EB
:1032A000B7FCC094DC2C2A01662457FC6094762C71
:1032B0000027F7FC0095102FC801B701640D751D9C
:1032C000861D971DA60195010E946923BB2797FDC6
:1032D000BA95A92F982F872F281B390B4A0B5B0B08
:1032E000F401318320832B813C8137FF6ECFE9814C
:1032F000FA815F01CC24B7FCC094DC2CC301B2017D
:103300006E197F09800B910BA60195010E9469231C
:10331000BB2797FDBA95A92F982F872FA81AB90A0E
:10332000CA0ADB0A9501D1011196BC92AE926BCF0D
:1033300080916B0390916C0321E0843A9207D4F062
:1033400080916D0390916E0321E0843A920794F08E
:1033500080916F039091700321E0843A920774F09A
:1033600081E0209171033091720391E0243A390792
:103370001CF4089581E0089580E0089581E00895A7
:10338000E0E8F0E08081896A8083E1E8F0E0808114
:103390008960808380910C0290E0909389008093F3
:1033A000880080910D0290E090938B0080938A00BA
:1033B00080910E0290E090938D0080938C00089590
:1033C00081E09091FF03891B8093FF03882339F4E8
:1033D00080918000877F809380002F98089580914E
:1033E00080008860809380008FEF90E090938D0044
:1033F00080938C000895882359F090918000906804
:103400009093800090E090938900809388000895C5
:10341000809180008F77809380002D980895882375
:1034200059F09091800090629093800090E090938A
:103430008B0080938A000895809180008F7D809317
:1034400080002E980895882359F09091800098600C
:103450009093800090E090938D0080938C0008956D
:1034600080918000877F809380002F9808950E942C
:103470005D10809113020E946510882349F486E153
:103480000E94E01085E40E94E0100E94D810089588
:103490000E94D81086EA90E0909314028093130261
:1034A00086EA0E946510882341F58DE20E94E010B3
:1034B00088E00E94E0100E94D810809113020E94C0
:1034C00065108823D1F481E30E94E01080E00E941F
:1034D000E0100E94D810809113020E94651088238A
:1034E00061F48CE20E94E01089E00E94E0100E94EA
:1034F000D81081E08093050408950E94D81082E0DE
:10350000809305040895809113020E94651088231A
:1035100051F486E10E94E01085E40E94E0100E94D0
:10352000D81080E008950E94D81081E0089580911D
:1035300013020E946510882331F58DE20E94E0108D
:1035400088E00E94E0100E94D810809113020E942F
:1035500065108823C1F481E30E94E01080E00E949E
:10356000E0100E94D810809113020E9465108823F9
:1035700051F48CE20E94E01089E00E94E0100E9469
:10358000D81080E008950E94D81081E00895FF923D
:103590000F931F93DF93CF930F92CDB7DEB7809138
:1035A0000504882391F0813009F488C01092070443
:1035B0001092060410920904109208040F90CF9103
:1035C000DF911F910F91FF900895809113020E9447
:1035D000651080E00E94E010809113028F5F0E94CE
:1035E000B2100E94F210082F0E94F210F82E0E94D2
:1035F000F210182F0E94FC1089830E94D81090911D
:103600004F048981992339F14F2D552747FD509556
:10361000542F4427602F772767FD7095462B572B33
:103620005093070440930604282F332727FD309535
:10363000322F2227812F992787FD9095282B392B10
:1036400030930904209308040F90CF91DF911F91CC
:103650000F91FF9008954F2D552747FD5095542FFA
:103660004427602F772767FD7095462B572B609175
:103670000C0470910D04461B570B509307044093A4
:103680000604282F332727FD3095322F2227812F3C
:10369000992787FD9095282B392B80910E049091C6
:1036A0000F04281B390B30930904209308040F9052
:1036B000CF91DF911F910F91FF9008958091130298
:1036C0000E94651082E386CFDF93CF9300D000D0B5
:1036D000CDB7DEB7809105048823C1F0813009F4AD
:1036E000ADC01092070410920604109209041092C3
:1036F000080410920B0410920A0426960FB6F89450
:10370000DEBF0FBECDBFCF91DF9108958091130230
:103710000E94651080E00E94E010809113028F5F8C
:103720000E94B2100E94F21089830E94F2108A83D4
:103730000E94F2108B830E94F2108C830E94F21080
:103740008D830E94FC108E830E94D81080914F04BC
:10375000882389F18A81992787FD9095982F88275A
:103760002981332727FD3095822B932B90930704D3
:10377000809306048C81992787FD9095982F882740
:103780002B81332727FD3095822B932B90930904AF
:10379000809308048E81992787FD9095982F88271C
:1037A0002D81332727FD3095822B932B90930B048B
:1037B00080930A04A2CF8A81992787FD9095982F3C
:1037C00088272981332727FD3095822B932B209141
:1037D0000C0430910D04821B930B9093070480938B
:1037E00006048C81992787FD9095982F88272B8137
:1037F000332727FD3095822B932B20910E04309197
:103800000F04821B930B90930904809308048E810C
:10381000992787FD9095982F88272D81332727FD9D
:103820003095822B932B2091100430911104821B30
:10383000930B90930B0480930A045FCF8091130243
:103840000E94651082E367CFCF93DF9310920C0242
:1038500010920D0210920E0280E00E94FB198091DE
:103860000D020E940F1A80910E020E94231A1092DC
:103870001F0410921E0481E080934F04C1E0D0E049
:103880000E94641B20911E0430911F0421313105D8
:103890000CF435C180918B0390918C03A0918D0322
:1038A000B0918E0354E0B695A795979587955A9554
:1038B000D1F7909374038093730380918F03909159
:1038C0009003A0919103B091920344E0B695A7951F
:1038D000979587954A95D1F79093760380937503D2
:1038E0008091930390919403A0919503B0919603D6
:1038F00034E0B695A795979587953A95D1F790932B
:103900007803809377038091970390919803A09117
:103910009903B0919A0324E0B695A795979587955A
:103920002A95D1F790937A038093790380919B0332
:1039300090919C03A0919D03B0919E03F4E0B695F5
:10394000A79597958795FA95D1F790937C038093E7
:103950007B0380919F039091A003A091A103B0915C
:10396000A203E4E0B695A79597958795EA95D1F7D8
:1039700090937E0380937D038091A3039091A40391
:10398000A091A503B091A60374E0B695A79597956D
:1039900087957A95D1F79093800380937F038091E8
:1039A000A7039091A803A091A903B091AA0364E092
:1039B000B695A795979587956A95D1F790938203C9
:1039C000809381038091AF039091B003A091B103E4
:1039D000B091B20354E0B695A795979587955A95FF
:1039E000D1F79C018091B3039091B403A091B503EA
:1039F000B091B60344E0B695A795979587954A95FB
:103A0000D1F7BC018091B7039091B803A091B9039D
:103A1000B091BA03F4E0B695A79597958795FA9576
:103A2000D1F7AC018091AB039091AC03A091AD03B1
:103A3000B091AE03E4E0B695A79597958795EA9582
:103A4000D1F7805092409093840380938303205059
:103A50003240309386032093850360507240709308
:103A60008803609387034050524050938A034093E9
:103A700089038091120490911304959587959595EB
:103A80008795959587959595879590930D04809347
:103A90000C04809114049091150495958795959543
:103AA0008795959587959595879590930F04809325
:103AB0000E0480911604909117049595879595951D
:103AC0008795959587959595879590931104809303
:103AD000100410924F048FEF80930C0280930D021C
:103AE00080930E020E94FB1980910D020E940F1A12
:103AF00080910E020E94231ADF91CF910895809148
:103B0000C203882309F486C11092C203211531052E
:103B100009F486C180915B0390915C03AA2797FD0D
:103B2000A095BA2F40918B0350918C0360918D0327
:103B300070918E03840F951FA61FB71F80938B0370
:103B400090938C03A0938D03B0938E0380915D03BB
:103B500090915E03AA2797FDA095BA2F40918F03FD
:103B6000509190036091910370919203840F951F7F
:103B7000A61FB71F80938F0390939003A093910388
:103B8000B093920380915F0390916003AA2797FD01
:103B9000A095BA2F4091930350919403609195039F
:103BA00070919603840F951FA61FB71F80939303F0
:103BB00090939403A0939503B0939603809161032F
:103BC00090916203AA2797FDA095BA2F4091970381
:103BD000509198036091990370919A03840F951FF7
:103BE000A61FB71F8093970390939803A093990300
:103BF000B0939A038091630390916403AA2797FD81
:103C0000A095BA2F40919B0350919C0360919D0316
:103C100070919E03840F951FA61FB71F80939B036F
:103C200090939C03A0939D03B0939E0380916503A2
:103C300090916603AA2797FDA095BA2F40919F0304
:103C40005091A0036091A1037091A203840F951F6E
:103C5000A61FB71F80939F039093A003A093A10377
:103C6000B093A2038091670390916803AA2797FD00
:103C7000A095BA2F4091A3035091A4036091A5038E
:103C80007091A603840F951FA61FB71F8093A303EF
:103C90009093A403A093A503B093A6038091690316
:103CA00090916A03AA2797FDA095BA2F4091A70388
:103CB0005091A8036091A9037091AA03840F951FE6
:103CC000A61FB71F8093A7039093A803A093A903EF
:103CD000B093AA0380916B0390916C03AA2797FD80
:103CE000A095BA2F4091AB035091AC036091AD0306
:103CF0007091AE03840F951FA61FB71F8093AB036F
:103D00009093AC03A093AD03B093AE0380916D0389
:103D100090916E03AA2797FDA095BA2F4091AF030B
:103D20005091B0036091B1037091B203840F951F5D
:103D3000A61FB71F8093AF039093B003A093B10366
:103D4000B093B20380916F0390917003AA2797FDFF
:103D5000A095BA2F4091B3035091B4036091B5037D
:103D60007091B603840F951FA61FB71F8093B303EE
:103D70009093B403A093B503B093B60380917103FD
:103D800090917203AA2797FDA095BA2F4091B7038F
:103D90005091B8036091B9037091BA03840F951FD5
:103DA000A61FB71F8093B7039093B803A093B903DE
:103DB000B093BA03809112049091130440910604C9
:103DC00050910704840F951F90931304809312045D
:103DD00080911404909115044091080450910904B5
:103DE000840F951F909315048093140480911604FA
:103DF0009091170440910A0450910B04840F951F71
:103E000090931704809316042F5F3F4F30931F0445
:103E100020931E0480914F04882309F031CD5BCE9E
:103E200010928B0310928C0310928D0310928E03CC
:103E3000109274031092730310928F0310929003E8
:103E400010929103109292031092760310927503D0
:103E5000109293031092940310929503109296037C
:103E600010927803109277031092970310929803A0
:103E70001092990310929A0310927A031092790388
:103E800010929B0310929C0310929D0310929E032C
:103E900010927C0310927B0310929F031092A00358
:103EA0001092A1031092A20310927E0310927D0340
:103EB0001092A3031092A4031092A5031092A603DC
:103EC0001092800310927F031092A7031092A80310
:103ED0001092A9031092AA031092820310928103F8
:103EE0001092AB031092AC031092AD031092AE038C
:103EF00010928403109283031092AF031092B003C8
:103F00001092B1031092B2031092860310928503AF
:103F10001092B3031092B4031092B5031092B6033B
:103F200010928803109287031092B7031092B8037F
:103F30001092B9031092BA0310928A031092890367
:103F4000109213041092120410921504109214048B
:103F50001092170410921604D0931F04C0931E04ED
:103F600080914F0459CFEF92FF920F931F9380914E
:103F70000A0490910B0497FD5BC08031910508F015
:103F800042C081E08093150290911402981709F4C1
:103F900042C010921A04809314026091060470913A
:103FA0000704882777FD8095982F0E941B217B01AD
:103FB0008C016091080470910904882777FD809531
:103FC000982F0E941B219B01AC01C801B7010E94E0
:103FD000F52321EE3EE245E652E40E941C200E94B9
:103FE00079219B01709319046093180477FF06C030
:103FF00028593E4F30931904209318041F910F91B4
:10400000FF90EF9008951092150280E090911402B5
:10401000981709F0BECF90911A049F5F90931A04ED
:10402000953008F4B8CF10921A0480931602B3CFDB
:10403000909581959F4FA1CFA0E2B0E0E2E2F0E23F
:104040000C94B12369837A838B839C832D833E8375
:104050004F83588799E0E92EF12CEC0EFD1EB70135
:10406000CE0101960E94F9228E010F5E1F4FB8010A
:10407000CE0105960E94F9229985923088F08989AF
:104080008230C0F0943019F4823029F009C08430B5
:1040900029F4923079F467E172E0C6C0923041F4BD
:1040A00020E09A858A89981321E02A87B701BCC04D
:1040B000823041F420E09A858A89981321E02A8B86
:1040C000B801B2C0CD84DE84EF84F8880D891E89E2
:1040D0002F89388D88249924540140E050E060E015
:1040E00070E0442455243201E0E0F0E0C601817024
:1040F0009070892BD9F0800E911EA21EB31EDB0199
:10410000CA01840D951DA61DB71D40E050E060E07A
:1041100070E080169106A206B30620F441E050E05C
:1041200060E070E0480F591F6A1F7B1F440C551C4C
:10413000661C771C37FF08C081E090E0A0E0B0E08B
:10414000482A592A6A2A7B2A3196E032F10549F039
:10415000000F111F221F331FF694E794D794C794C2
:10416000C5CF8B899C892B853C85820F931F029636
:104170009C8F8B8F1A8E9A858A89981711F081E00F
:104180008A8F2B8D3C8D17C0CA0181709070892B4E
:1041900061F0B694A7949794879480E090E0A0E0B3
:1041A000B0E8882A992AAA2ABB2A76956795579556
:1041B00047952F5F3F4F77FDE7CFC9010BC0440FF5
:1041C000551F661F771FB7FC4160880C991CAA1CFD
:1041D000BB1C01974030A0E05A07A0E06A07A0E4AA
:1041E0007A0768F39C8F8B8FDB01CA018F77907001
:1041F000A070B07080349105A105B10561F447FD50
:104200000AC081149104A104B10429F0405C5F4FFD
:104210006F4F7F4F40784D8F5E8F6F8F78A383E015
:10422000898FBE01675E7F4FCB010E941922E0E1BA
:10423000A0960C94CD23A8E0B0E0E1E2F1E20C946A
:10424000B8239B01AC0183E08983DA01C901882787
:10425000B7FD83959927AA27BB27B82E21153105CD
:104260004105510519F482E089833AC08823A9F0F9
:10427000203080E0380780E0480780E8580729F4BC
:1042800060E070E080E09FEC30C0EE24FF24870106
:10429000E21AF30A040B150B02C079018A018EE1C0
:1042A000C82ED12CDC82CB82ED82FE820F83188750
:1042B000C801B7010E94CC2101971816190684F491
:1042C000082E04C0EE0CFF1C001F111F0A94D2F729
:1042D000ED82FE820F831887C81AD90ADC82CB824E
:1042E000BA82CE0101960E941922E9E028960C9428
:1042F000D423ACE0B0E0EFE7F1E20C94BF23698394
:104300007A838B839C83BE016B5F7F4FCE010196C6
:104310000E94F9228D818230A9F1823098F1843097
:1043200021F48E81882359F40FC02F81388537FD01
:1043300029C06E812F31310564F0662329F020E019
:1043400030E040E050E822C02FEF3FEF4FEF5FE753
:104350001DC08EE190E0821B930B29853A854B8529
:104360005C8504C056954795379527958A95D2F771
:10437000662361F050954095309521953F4F4F4F02
:104380005F4F04C020E030E040E050E0CA01B901D6
:10439000E2E02C960C94DB23EF92FF920F931F9395
:1043A0009B01AC01203080E0380781E0480780E0C5
:1043B000580780F42F3F31054105510509F020F4DD
:1043C000EE24FF24870119C068E0E62EF12C012DB0
:1043D000112D13C0203080E0380780E0480781E0CD
:1043E000580730F490E1E92EF12C012D112D05C074
:1043F00088E1E82EF12C012D112D80E290E0A0E063
:10440000B0E08E199F09A00BB10B04C056954795DB
:1044100037952795EA94D2F7F901E15EFD4F2081A7
:10442000821B9109A109B1091F910F91FF90EF9093
:1044300008959F92AF92BF92CF92DF92EF92FF9238
:104440000F931F93EE24FF248701FC012481358103
:104450004681578191808081823010F44061A2C0F2
:10446000843009F49BC0823029F420E030E040E041
:1044700050E005C0211531054105510519F4E0E072
:10448000F0E092C0828193816FEF823896070CF042
:104490005AC062E87FEF681B790B6A3171052CF016
:1044A00020E030E040E050E02AC0AA24BB246501AF
:1044B00081E090E0A0E0B0E0062E04C0880F991FD4
:1044C000AA1FBB1F0A94D2F70197A109B109822341
:1044D0009323A423B5230097A105B10529F071E02A
:1044E000A72EB12CC12CD12C04C0569547953795D9
:1044F00027956A95D2F72A293B294C295D29DA01AB
:10450000C9018F779070A070B07080349105A105BB
:10451000B10539F427FF09C0205C3F4F4F4F5F4F73
:1045200004C0215C3F4F4F4F5F4F80E090E0203050
:1045300060E0360760E0460760E4560710F081E06F
:1045400090E0FC0123C08038910544F5FC01E1585E
:10455000FF4FDA01C9018F779070A070B07080347E
:104560009105A105B10539F427FF09C0205C3F4F33
:104570004F4F5F4F04C0215C3F4F4F4F5F4F57FF7E
:1045800005C05695479537952795319687E05695FE
:104590004795379527958A95D1F706C020E030E0FA
:1045A00040E050E0EFEFF0E0E22EF32E942F9F7703
:1045B000802F8078892B9E2F9795992797958F77B5
:1045C000082F092B9E2F9695812F8078892B979401
:1045D000992497948F77182F1929C801B7011F9133
:1045E0000F91FF90EF90DF90CF90BF90AF909F9092
:1045F0000895CF93DF93FC01DB012081318192810B
:10460000492F4F7750E0991F9927991F8381E82FF1
:10461000EE0FE92B6E2F70E0881F8827881FED01B1
:104620008983EE2371F5211531054105510511F4FA
:1046300082E02FC06E577040FD017383628367E094
:10464000220F331F441F551F6A95D1F783E08C93C7
:104650000AC0220F331F441F551FED018A819B8121
:1046600001979B838A832030E0E03E07E0E04E071D
:10467000E0E45E0770F3ED012C833D834E835F839E
:1046800025C0EF3F79F4211531054105510519F495
:1046900084E08C931BC044FF03C081E08C9311C065
:1046A0001C920FC06F577040ED017B836A8383E0DB
:1046B0008C9387E0220F331F441F551F8A95D1F733
:1046C0005064FD012483358346835783DF91CF9166
:1046D0000895629FD001739FF001829FE00DF11D4C
:1046E000649FE00DF11D929FF00D839FF00D749F6C
:1046F000F00D659FF00D9927729FB00DE11DF91F18
:10470000639FB00DE11DF91FBD01CF011124089574
:10471000AA1BBB1B51E107C0AA1FBB1FA617B707E7
:1047200010F0A61BB70B881F991F5A95A9F7809503
:104730009095BC01CD01089597FB092E07260AD05C
:1047400077FD04D0E5DF06D000201AF4709561955E
:104750007F4F0895F6F7909581959F4F08952F927A
:104760003F924F925F926F927F928F929F92AF9201
:10477000BF92CF92DF92EF92FF920F931F93CF934E
:10478000DF93CDB7DEB7CA1BDB0B0FB6F894DEBFE5
:104790000FBECDBF19942A88398848885F846E84FB
:1047A0007D848C849B84AA84B984C884DF80EE8055
:1047B000FD800C811B81AA81B981CE0FD11D0FB65E
:1047C000F894DEBF0FBECDBFED010895F5D058F0CF
:1047D00080E891E009F49EEFF6D028F040E851E03F
:1047E00059F45EEF09C0C0C028C1E92FE07803D1B9
:1047F00068F3092E052AC1F326173707480759071A
:1048000038F00E2E07F8E02569F0E025E0640AC0D4
:10481000EF6307F8009407FADB01B9019D01DC01A1
:10482000CA01AD01EF9341D0D5D00AD05F91552395
:1048300031F02BED3FE049E450FD49EC71C10895A2
:10484000DF93DD27B92FBF7740E85FE31616170621
:1048500048075B0710F4D92FF7D09F938F937F936E
:104860006F935AD1EEE4F1E082D0B4D02F913F9112
:104870004F915F91FAD0DD2349F09058A2EA2AEDDA
:104880003FE049EC5FE3D0785D275BD1DF91A2C0C8
:104890009AD040F091D030F021F45F3F19F05EC023
:1048A0005111CCC061C0A7D098F39923C9F3552307
:1048B000B1F3951B550BBB27AA2762177307840713
:1048C00038F09F5F5F4F220F331F441FAA1FA9F3C9
:1048D00033D00E2E3AF0E0E830D091505040E695BB
:1048E000001CCAF729D0FE2F27D0660F771F881F1C
:1048F000BB1F261737074807AB07B0E809F0BB0B0B
:10490000802DBF01FF2793585F4F2AF09E3F51052E
:1049100068F024C093C05F3FECF3983EDCF38695CB
:1049200077956795B795F7959F5FC9F7880F911DA4
:104930009695879597F90895E1E0660F771F881F90
:10494000BB1F621773078407BA0720F0621B730B43
:10495000840BBA0BEE1F88F7E095089597F99F67CF
:1049600080E870E060E008959FEF80EC0895DF93A9
:10497000CF931F930F93FF92EF92DF927B018C01F5
:10498000689405C0DA2EEF0170D0FE01E894A5917D
:104990002591359145915591AEF3EF01D2D0FE01AD
:1049A0009701A801DA9479F7DF90EF90FF900F91CB
:1049B0001F91CF91DF91089500240A9416161706CF
:1049C00018060906089500240A9412161306140600
:1049D00005060895092E0394000C11F4882352F063
:1049E000BB0F40F4BF2B11F460FF04C06F5F7F4F1B
:1049F0008F4F9F4F089557FD9058440F551F59F002
:104A00005F3F71F04795880F97FB991F61F09F3FBB
:104A100079F087950895121613061406551FF2CFE4
:104A20004695F1DF08C0161617061806991FF1CF34
:104A300086957105610508940895E894BB2766275B
:104A40007727CB0197F908959B01AC0160E070E0F6
:104A500080E89FE3C9C0B0DF28F0B5DF18F09523E8
:104A600009F07CCF81CF1124E9CFC5DFA0F3959F5A
:104A7000D1F3950F50E0551F629FF001729FBB2745
:104A8000F00DB11D639FAA27F00DB11DAA1F649FF1
:104A90006627B00DA11D661F829F2227B00DA11DA4
:104AA000621F739FB00DA11D621F839FA00D611D2A
:104AB000221F749F3327A00D611D231F849F600D4B
:104AC000211D822F762F6A2F11249F5750408AF084
:104AD000E1F088234AF0EE0FFF1FBB1F661F771F10
:104AE000881F91505040A9F79E3F510570F036CF76
:104AF000A5CF5F3FECF3983EDCF3869577956795FD
:104B0000B795F795E7959F5FC1F7FE2B880F911D2D
:104B10009695879597F908959B01AC018DCA5058D9
:104B2000BB27AA270ED056CF47DF30F04CDF20F04E
:104B300031F49F3F11F41EF417CF0EF4E095E7FB1C
:104B40000DCFE92F58DF80F3BA1762077307840788
:104B5000950718F071F49EF570CF0EF4E0950B2ECA
:104B6000BA2FA02D0B01B90190010C01CA01A001BF
:104B70001124FF27591B99F0593F50F4503E68F11A
:104B80001A16F040A22F232F342F4427585FF3CF5B
:104B9000469537952795A795F0405395C9F77EF42C
:104BA0001F16BA0B620B730B840BBAF09150A1F075
:104BB000FF0FBB1F661F771F881FC2F70EC0BA0FFB
:104BC000621F731F841F48F4879577956795B79583
:104BD000F7959E3F08F0B3CF9395880F08F099277B
:0E4BE000EE0F9795879508955EDEF4CEFFCF19
:104BEE0002FFFF190019000101010103FFFFFF057C
:104BFE000101013A01010100000000000000000067
:104C0E000102020303030304040404040404040560
:104C1E000505050505050505050505050505050635
:104C2E000606060606060606060606060606060616
:104C3E000606060606060606060606060606060705
:104C4E0007070707070707070707070707070707E6
:104C5E0007070707070707070707070707070707D6
:104C6E0007070707070707070707070707070707C6
:104C7E0007070707070707070707070707070708B5
:104C8E000808080808080808080808080808080896
:104C9E000808080808080808080808080808080886
:104CAE000808080808080808080808080808080876
:104CBE000808080808080808080808080808080866
:104CCE000808080808080808080808080808080856
:104CDE000808080808080808080808080808080846
:104CEE000808080808080808080808080808080836
:104CFE00080808080808080808080808080808002E
:00000001FF
