:100000000C9489000C94A8000C94A8000C94A800EF
:100010000C94A8000C94A8000C94A8000C94A800C0
:100020000C94A8000C94A8000C9418130C94A8002D
:100030000C94A8000C942D140C94A8000C94A80007
:100040000C94A8000C94A8000C94A8000C94A80090
:100050000C94A8000C94A8000C94A8000C94A80080
:100060000C94A8000C94FA180C94A8000C94A80006
:100070000C94A8000C94C6000C94A8000C94A80042
:100080000C9485030C9497030C94A8000C942E03F5
:100090000C94A8000C94A8000C94A8000C94A80040
:1000A0000C94A8000C94A8000C940A030C941C0354
:1000B0000C94A8000C94B5020C94A8000C94A80011
:1000C0000C94A8000C94A8000C94A8000C94A80010
:1000D0000C94A8000C94A8000C94A8000C94A80000
:1000E0000C94A800084AD73B3BCE016E84BCBFFDF0
:1000F000C12F3D6C74319ABD56833DDA3D00C77FF8
:1001000011BED9E4BB4C3E916BAAAABE0000008090
:100110003F0011241FBECFEFD1E2DEBFCDBF00E014
:100120000CBF13E0A0E0B2E0EAE0F8E402C0059002
:100130000D92A432B107D9F714E0A4E2B3E001C0F4
:100140001D92A731B107E1F70E94E1060C94042447
:100150000C940000EAE7F0E0808186608083ACE7E1
:10016000B0E08C9180648C93808180628083ABE767
:10017000B0E08C91887F8C938081886080838081BF
:100180008068808380818064808308951F920F92AD
:100190000FB60F920BB60F9211242F933F934F93EC
:1001A0008F939F93EF93FF938091E3039091E403E8
:1001B00001969093E4038093E3032091780030E06C
:1001C00040917900942F80E0282B392B8091630394
:1001D000823009F40DC1833008F446C0833009F43D
:1001E000FAC0843009F4D0C080916403823009F4ED
:1001F000B7C0833008F051C0882309F08CC08091CB
:100200002E03869580932D0380916503882309F042
:1002100019C181E08093630381E08093640390912E
:100220002D03983008F06CC090917B00977F9093DD
:100230007B0090912D03905C90937C00823031F490
:1002400012B880910501807F80930501FF91EF91A5
:100250009F918F914F913F912F910F900BBE0F90D7
:100260000FBE0F901F901895882309F065C08091EC
:100270002E038E3009F4F4C0E82FF0E0EE0FFF1FDC
:10028000ED5CFC4F318320838F5F80932E03883198
:1002900008F4AACF10922E03A7CF833009F488C0A8
:1002A000843009F0BCCF9091300390932D0390914E
:1002B00031039093650390916603992309F0BFC0C1
:1002C00083E0809363031092640320912E032E3009
:1002D00009F4C0C0822F90E020FFAAC0203108F0AE
:1002E0009BC02E3009F4CEC0269581E090E002C07C
:1002F000880F991F2A95E2F782B9809164038FCF06
:1003000090917B00986090937B0090912D03985C76
:1003100090937C0093CF813009F081CF80912F039F
:1003200080932D03809132038093660310926303C0
:1003300082E08093640373CF813009F055CF8091C0
:100340006E0390916F03820F931F969587959093FC
:100350006F0380936E0380916403823009F049CF6C
:100360008091300380932D03809131038093650346
:1003700080916603882309F069C083E0809363035A
:1003800083E0809364034BCF80917C0390917D0345
:10039000820F931F90937D0380937C03809174035D
:1003A00090917503019690937503809374031CCF0D
:1003B00080912F0380932D038091320380936603F5
:1003C000809165038823B9F581E08093630384E01D
:1003D0008093640324CF80916C0390916D03820F0E
:1003E000931F9695879590936D0380936C03FCCE35
:1003F0008091800390918103820F931F90938103DA
:100400008093800380917803909179030196909373
:10041000790380937803E8CE40979595879521E0FE
:1004200030E002C0220F331F8A95E2F720930501C6
:1004300080916403F4CE82E080936303C8CF8093FD
:10044000630341CF82E080936303E6CE84E0809330
:10045000630396CF80916903813079F080E0DFCE2D
:1004600090916903923009F007CF3093680320938D
:10047000670310926903469807CF82E0809369036F
:10048000469A28CF80916903813009F02DCF82E010
:1004900080936903469A80916403C1CEE0E8F0E05E
:1004A0008081896A8083E1E8F0E0808189608083CF
:1004B00080910E0290E09093890080938800809153
:1004C0000F0290E090938B0080938A00809110023D
:1004D00090E090938D0080938C00E0E9F0E08081C3
:1004E00083688083808183608083A1E9B0E08C9100
:1004F0008B608C93809188039091890390939900ED
:100500008093980010929B0010929A00A1E7B0E0AF
:100510008C9181608C9380818F7580838EB1877E72
:100520008EB9E0EAF0E0808183688083A1EAB0E0E0
:100530008C918B608C9380918C0390918D03909320
:10054000A9008093A8001092AB001092AA00A2E725
:10055000B0E08C9181608C9380818F758083E2E024
:10056000F1E08081877E808308951F920F920FB6FD
:100570000F9211248F939F93AF93BF9310923203E6
:1005800080916C0390916D0390937103809370033D
:100590008091740390917503909377038093760311
:1005A00080917C0390917D0390937F0380937E03E1
:1005B00010926D0310926C031092750310927403E5
:1005C00010927D0310927C0381E08093B8038093A6
:1005D000BA0380918C0390918D03A0918E03B0910A
:1005E0008F030097A105B10529F0181619061A0600
:1005F0001B0664F48FE080932F03BF91AF919F910E
:100600008F910F900FBE0F901F9018958EE08093E2
:100610002F03F3CF1F920F920FB60F9211248F93D7
:1006200081E0809332038EE080932F038F910F90AF
:100630000FBE0F901F9018951F920F920FB60F923A
:1006400011248F9381E0809332038FE080932F03F6
:100650008F910F900FBE0F901F9018951F920F92C1
:100660000FB60F9211242F938F939F93AF93BF9345
:100670001092310321E02093C90380916E03909181
:100680006F03909373038093720380918003909122
:1006900081039093830380938203809178039091E8
:1006A000790390937B0380937A0310926F031092E7
:1006B0006E031092810310928003109279031092BE
:1006C00078032093B9038091880390918903A091C6
:1006D0008A03B0918B030097A105B10529F0181684
:1006E00019061A061B066CF48DE080933003BF9147
:1006F000AF919F918F912F910F900FBE0F901F90F0
:1007000018958CE080933003F2CF1F920F920FB6B2
:100710000F9211248F9381E0809331038CE08093BA
:1007200030038F910F900FBE0F901F9018951F925E
:100730000F920FB60F9211248F9381E080933103B3
:100740008DE0809330038F910F900FBE0F901F901C
:100750001895DF93CF9300D000D0CDB7DEB780914E
:10076000CD038823C1F0813009F454C01092CF0327
:100770001092CE031092D1031092D0031092D303A3
:100780001092D20326960FB6F894DEBF0FBECDBFEF
:10079000CF91DF910895809114020E943D1880E06E
:1007A0000E94B818809114028F5F0E948A180E94DC
:1007B000CA1889830E94CA188A830E94CA188B8328
:1007C0000E94CA188C830E94CA188D830E94D41874
:1007D0008E830E94B0183A8120E0898190E0822BBC
:1007E000932B9093CF038093CE033C8120E08B81A9
:1007F00090E0822B932B9093D1038093D0033E8182
:1008000020E08D8190E0822B932B9093D3038093F3
:10081000D203B8CF809114020E943D1882E3C0CF6A
:10082000FF920F931F93DF93CF930F92CDB7DEB755
:100830008091CD03882391F0813009F445C0109256
:10084000CF031092CE031092D1031092D0030F90D9
:10085000CF91DF911F910F91FF9008958091140225
:100860000E943D1880E00E94B818809114028F5FAA
:100870000E948A180E94CA18082F0E94CA18F82ECF
:100880000E94CA18182F0E94D41889830E94B01899
:100890005F2D40E0202F30E0242B352B3093CF0309
:1008A0002093CE038981382F20E0812F90E0822B86
:1008B000932B9093D1038093D0030F90CF91DF912E
:1008C0001F910F91FF900895809114020E943D188E
:1008D00082E3C9CF809114020E943D18882351F40D
:1008E00086E10E94B81885E40E94B8180E94B018EA
:1008F00080E008950E94B01881E00895809114026C
:100900000E943D18882331F58DE20E94B81888E0D6
:100910000E94B8180E94B018809114020E943D18DD
:100920008823C1F481E30E94B81880E00E94B818BF
:100930000E94B018809114020E943D18882351F43F
:100940008CE20E94B81889E00E94B8180E94B01882
:1009500080E008950E94B01881E008950E94351843
:10096000809114020E943D18882349F486E10E9478
:10097000B81885E40E94B8180E94B01808950E9423
:10098000B01886EA90E0909315028093140286EAEC
:100990000E943D18882341F58DE20E94B81888E036
:1009A0000E94B8180E94B018809114020E943D184D
:1009B0008823D1F481E30E94B81880E00E94B8181F
:1009C0000E94B018809114020E943D18882361F49F
:1009D0008CE20E94B81889E00E94B8180E94B018F2
:1009E00081E08093CD0308950E94B01882E0809347
:1009F000CD030895CF93DF931092DB031092DA03B7
:100A00001092DD031092DC031092DF031092DE03DC
:100A1000C2E3D0E00E94A9038091CE039091CF035E
:100A20002091DA033091DB03820F931F9093DB0355
:100A30008093DA03E091D003F091D1032091DC039D
:100A40003091DD03E20FF31FF093DD03E093DC034D
:100A50002091D2033091D3034091DE035091DF0304
:100A6000240F351F3093DF032093DE03219791F687
:100A7000C2E3D0E0BE010E942B207093DB036093A1
:100A8000DA03CF01BE010E942B207093DD03609337
:100A9000DC03C901BE010E942B207093DF03609329
:100AA000DE03DF91CF910895EF92FF920F931F9392
:100AB000CF93DF930E9410048091CD03882309F027
:100AC00055C06091CE037091CF0322E06030720771
:100AD00034F06F5F73407093CF036093CE03C09187
:100AE000D003D091D10382E0C030D80734F0CF5F7B
:100AF000D340D093D103C093D0038091D20390917F
:100B0000D30322E080309207E4F5882777FD8095B3
:100B1000982F0E94BE1D7B018C01BE01882777FDA6
:100B20008095982F0E94BE1D9B01AC01C801B701A2
:100B30000E94082221EE3EE245E652E40E94BF1CDC
:100B40000E941C1E9B017093E1036093E00377FFFA
:100B500006C028593E4F3093E1032093E003DF9114
:100B6000CF911F910F91FF90EF900895813081F008
:100B70006091CE037091CF03C091D003D091D10387
:100B8000C4CF8F5F93409093D3038093D203BDCFA4
:100B90006091CE037091CF038091DA039091DB03D3
:100BA000681B790B7093CF036093CE03C091D00381
:100BB000D091D1038091DC039091DD03C81BD90B48
:100BC000D093D103C093D003A0CFF8940E94111802
:100BD00080917A00866080937A0080917C008064A6
:100BE00080937C0080917A00806280937A0080916B
:100BF0007B00887F80937B0080917A00886080935F
:100C00007A0080917A00806880937A0080917A00DF
:100C1000806480937A000E944E020E944A100E94D3
:100C2000FD100E94DE180E943518809114020E9467
:100C30003D18882351F486E10E94B81885E40E948B
:100C4000B8180E94B018789408950E94B01886EAE7
:100C500090E0909315028093140286EA0E943D185A
:100C6000882341F58DE20E94B81888E00E94B818E8
:100C70000E94B018809114020E943D188823D1F47C
:100C800081E30E94B81880E00E94B8180E94B01852
:100C9000809114020E943D18882361F48CE20E9426
:100CA000B81889E00E94B8180E94B01881E08093BB
:100CB000CD03C9CF0E94B01882E08093CD03789411
:100CC000089581E09091C803891B8093C80388230D
:100CD00039F480918000877F809380002F98089559
:100CE000809180008860809380008FEF90E09093E7
:100CF0008D0080938C000895882359F09091800096
:100D000090689093800090E0909389008093880091
:100D10000895809180008F77809380002D980895AA
:100D2000882359F09091800090629093800090E029
:100D300090938B0080938A000895809180008F7D2E
:100D4000809380002E980895882359F09091800018
:100D500098609093800090E090938D0080938C0039
:100D6000089580918000877F809380002F98089558
:100D700081E08093E203089586B166B126B146B161
:100D800030E0287030703595279535952795359545
:100D90002795220F331F70E064707070759567950A
:100DA00075956795260F371F220F331F50E042704D
:100DB000507055954795240F351F220F8170820F73
:100DC00008952F923F924F925F926F927F928F92EF
:100DD0009F92AF92BF92CF92DF92EF92FF920F93CA
:100DE0001F93CF93DF9381E0809312020E94E50569
:100DF0001092DB031092DA031092DD031092DC03F1
:100E00001092DF031092DE03C2E3D0E00E94A90338
:100E10008091CE039091CF032091DA033091DB03D0
:100E2000820F931F9093DB038093DA03E091D0034A
:100E3000F091D1032091DC033091DD03E20FF31F29
:100E4000F093DD03E093DC032091D2033091D303D0
:100E50004091DE035091DF03240F351F3093DF03F1
:100E60002093DE03219791F6C2E3D0E0BE010E94F9
:100E70002B207093DB036093DA03CF01BE010E9445
:100E80002B207093DD036093DC03C901BE010E9437
:100E90002B207093DF036093DE030E940813FF246E
:100EA000F394EE24EA94C4E6D0E005E0302E16E098
:100EB000212EBDEC8B2EBEEF9B2EBFEFAB2EBFEFD6
:100EC000BB2EA3E34A2EA1E05A2E612C712C59C0EF
:100ED0008091BA03882309F49DC08091900390917A
:100EE0009103A0919203B09193038093BD039093DB
:100EF000BE03A093BF03B093C0038091940390916D
:100F00009503A0919603B09197038093C1039093AA
:100F1000C203A093C303B093C4031092BA03F09228
:100F2000C50321E08091B803882391F080917E036E
:100F300090917F0360917603709177030E942B203C
:100F40007093850360938403F092BB031092B803FF
:100F50008091B903882391F080918203909183035B
:100F600060917A0370917B030E942B20709387031A
:100F700060938603F092BC031092B903222309F018
:100F80001EC346B186B126B156B130E0287030702C
:100F9000359527953595279535952795220F331F3C
:100FA00090E0847090709595879595958795280F1A
:100FB000391F220F331F852F90E082709070959516
:100FC0008795280F391F220F4170240F2093E503C6
:100FD0000E94A9038091E3039091E4032EE4803200
:100FE000920710F0F092690320911302222309F076
:100FF000F0C1BEE480329B0780F40E942211882356
:1010000009F0D7C08091E503882309F461CF8230CD
:1010100009F43DC32091C50385CF1092E4031092DB
:10102000E3031092C9031092E2038AEA0E94F318C4
:101030008AEA0E94F318CC24DD248601000F111FD8
:101040000D5C1C4FF801808191810E94F318D8013A
:101050008D919C91892F0E94F3180894C11CD11C7A
:10106000B8E1CB16D10449F7809172030E94F318BE
:10107000809173030E94F318809170030E94F3180B
:10108000809171030E94F31880917A0390917B0301
:10109000009709F4FFC180918203909183036091CE
:1010A0007A0370917B030E942B20862F0E94F318F5
:1010B000809182039091830360917A0370917B0306
:1010C0000E942B20872F0E94F31880917603909125
:1010D0007703009709F4D7C180917E0390917F0335
:1010E00060917603709177030E942B20862F0E94D7
:1010F000F31880917E0390917F0360917603709145
:1011000077030E942B20872F0E94F3180E94A903C7
:101110008091CE030E94F3188091CF030E94F318B0
:101120008091D0030E94F3188091D1030E94F3189C
:101130008091D2030E94F3188091D3030E94F31888
:101140008091E0030E94F3188091E1030E94F3185C
:10115000809167030E94F318809168030E94F3183E
:101160008091CA030E94F3188091030190E080727D
:101170009070959587959595879595958795959573
:101180008795959587950E94F3188091030190E0CB
:10119000807190709595879595958795959587958C
:1011A000959587950E94F3180E942211882309F4CF
:1011B00029CF87E060E70E9465118DEF93E00E94E0
:1011C0004D110E94471190910104892F8F778093D0
:1011D000C70360910204762F7F777093C60397FD53
:1011E00009C390E0880F991F880F991F90958195EA
:1011F0009F4F9C01442737FD4095542F2093900327
:1012000030939103409392035093930367FD06C379
:10121000872F90E0880F991F880F991F90958195CF
:101220009F4FAA2797FDA095BA2F80939403909380
:101230009503A0939603B09397032433E1E03E0710
:10124000E0E04E07E0E05E0764F0409290035092C9
:101250009103609292037092930323E331E040E0A4
:1012600050E08433F1E09F07F0E0AF07F0E0BF0704
:1012700064F04092940350929503609296037092AA
:10128000970383E391E0A0E0B0E02D3C6EEF3607DA
:101290006FEF46076FEF560744F4809290039092E9
:1012A0009103A0929203B09293038D3CEEEF9E07C0
:1012B000EFEFAE07EFEFBE0744F4809294039092F5
:1012C0009503A0929603B09297032091FD0330E01E
:1012D0003093F8032093F703E091FE03F0E0F093DE
:1012E000FA03E093F9030091FF0310E01093FC036D
:1012F0000093FB03922F8827821B930BBE010E9451
:101300002B20262F209520930E029E2F88278E1BA0
:101310009F0BBE010E942B20609560931002902FBE
:101320008827801B910BBE010E942B206095609343
:101330000F02222309F4FFC180918000806880930E
:101340008000822F90E090938900809388008091A4
:101350000F02882309F4E8C1909180009062909375
:10136000800090E090938B0080938A00809110021F
:10137000882309F4CBC190918000986090938000FD
:1013800090E090938D0080938C00809100048130D8
:1013900009F4C7C1823009F470C2833009F4EBC389
:1013A000449A459A82FF7DC0F092130280910D020B
:1013B0008093E703843009F47DC0853008F0C2C112
:1013C000833009F4B8C287EE93E060E10E94DA113D
:1013D00019CE0E942A148093CA039091CB039923BB
:1013E00009F44CC01092CB03843009F4A2C48530B8
:1013F00008F060C3813009F463C5813008F03AC455
:101400008091CC0390E0019665E070E00E943F205F
:101410008093CC03882309F0E8C5449A459A10923A
:101420001002E0920F02E0920E028091800080682C
:1014300080938000AFEFB0E0B0938900A093880064
:1014400080910F02882309F4DEC59091800090629C
:101450009093800090E090938B0080938A0080911D
:101460001002882309F4D6C590918000986090936B
:10147000800090E090938D0080938C008091E30336
:101480009091E403B6CD8FEF0E94F31883E00E94A1
:10149000F3183CCE8FEF0E94F31883E00E94F318FC
:1014A00014CE1092130280910D028093E7038430D2
:1014B00009F083CF20914303309144038091450389
:1014C00090914603281B390B30936B0320936A03DA
:1014D00037FD13C4922F832F9093E8038093E90381
:1014E00020915303309154038091550390915603FA
:1014F000281B390B30936B0320936A0337FDFAC323
:10150000922F832F9093EA038093EB03209157034C
:10151000309158038091590390915A03281B390B3D
:1015200030936B0320936A0337FDE1C3922F832F1F
:101530009093EC038093ED0320915B0330915C0367
:1015400080915D0390915E03281B390B30936B03F0
:1015500020936A0337FDC8C3922F832F9093EE0325
:101560008093EF0320915F033091600380916103CA
:1015700090916203281B390B30936B0320936A030D
:1015800037FDABC3922F832F9093F0038093F10329
:101590009091CE038091CF039093F2038093F30355
:1015A0009091D0038091D1039093F4038093F5033D
:1015B0008091CA038093F60330920D0204CF1092FB
:1015C000C5032091C1033091C2034091C3035091E0
:1015D000C40320938C0330938D0340938E03509368
:1015E0008F038091BD039091BE03A091BF03B09182
:1015F000C0038093880390938903A0938A03B093D8
:101600008B03B7FDDDC2909399008093980057FD3E
:10161000B5C23093A9002093A800211531054105DA
:10162000510509F0D5C28091A0008F758093A0006C
:1016300080910201877E8093020180917200897FF0
:10164000809372008091720082608093720080911A
:10165000880390918903A0918A03B0918B0300972E
:10166000A105B10509F0EDC0809190008F758093C0
:1016700090008EB1877E8EB980917100897F8093B2
:101680007100809171008260809371007ACC8091AA
:10169000BA03882309F4BECC8091BB03882309F4E4
:1016A000B9CC8091BC03882309F4B4CC8091900319
:1016B00090919103A0919203B09193038093BD0305
:1016C0009093BE03A093BF03B093C0038091940393
:1016D00090919503A0919603B09197038093C103D5
:1016E0009093C203A093C303B093C4031092BA03B0
:1016F0001092BB031092BC0381EC93E06DEB73E09E
:101700000E942215F092C50321E00CCC809180004C
:10171000877F809380002F9880910004813009F0AA
:1017200039CE4498459A3ECE809180008F7D80933B
:1017300080002E981BCE809180008F778093800050
:101740002D9805CE853009F49BC0863009F03BCE3C
:1017500080914303909144038093E8038091430375
:10176000909144039093E903809153039091540323
:101770008093EA0380915303909154039093EB0379
:1017800080915703909158038093EC038091570305
:10179000909158039093ED0380915B0390915C03CB
:1017A0008093EE0380915B0390915C039093EF0331
:1017B00080915F03909160038093F00380915F03B9
:1017C000909160039093F1039091D2038091D303A1
:1017D0009093F2038093F3039091670380916803E1
:1017E0009093F4038093F5031092F60383E08093C3
:1017F0000D02E9CD282F30E0220F331F220F331FB7
:10180000442737FD4095542F209390033093910344
:10181000409392035093930367FFFACC872F90E095
:10182000880F991F880F991FAA2797FDA095BA2F97
:101830008093940390939503A0939603B09397039A
:10184000FCCC181619061A061B060CF0EFC3809183
:1018500090008F7D80939000809171008B7F8093AA
:1018600071007498809190008068809390008091BE
:10187000710082608093710084CB449A459892CD28
:1018800080913303909134038093E8038091330374
:10189000909134039093E90380913703909138033A
:1018A0008093EA0380913703909138039093EB0380
:1018B00080913B0390913C038093EC0380913B0328
:1018C00090913C039093ED0380913F0390914003EE
:1018D0008093EE0380913F03909140039093EF0338
:1018E00080914703909148038093F00380914703D0
:1018F000909148039093F10380914B0390914C0396
:101900008093F20380914B0390914C039093F303E7
:1019100080914F03909150038093F40380914F0383
:10192000909150039093F5038091E5038093F60323
:1019300020920D0248CD20913303309134038091E1
:10194000350390913603281B390B30936B0320939A
:101950006A0337FDEBC1922F832F9093E8038093A6
:10196000E903209137033091380380913903909136
:101970003A03281B390B30936B0320936A0337FD1E
:10198000D2C1922F832F9093EA038093EB0320918F
:101990003B0330913C0380913D0390913E03281B13
:1019A000390B30936B0320936A0337FDB9C1922F33
:1019B000832F9093EC038093ED0320913F033091AC
:1019C00040038091410390914203281B390B3093CF
:1019D0006B0320936A0337FDA0C1922F832F90934E
:1019E000EE038093EF0320914703309148038091E9
:1019F000490390914A03281B390B30936B032093C2
:101A00006A0337FD87C1922F832F9093F003809351
:101A1000F10320914B0330914C0380914D03909141
:101A20004E03281B390B30936B0320936A0337FD59
:101A30006EC1922F832F9093F2038093F303209132
:101A40004F03309150038091510390915203281B12
:101A5000390B30936B0320936A0337FD51C1922FEA
:101A6000832F9093F4038093F503809103012091D9
:101A7000030130E020723070359527953595279514
:101A8000359527953595279535952795220F331F41
:101A900090E080719070959587959595879595952F
:101AA000879595958795822B8093F603F4E0F093C4
:101AB0000D0289CC873009F491C1883008F0A7C0A5
:101AC000853009F46FC2863009F0D8CC209190039C
:101AD0003091910340919203509193032E513040E5
:101AE00040405040209390033093910340939203E1
:101AF000509393038091940390919503A091960342
:101B0000B09197034E96A11DB11D809394039093BD
:101B10009503A0939603B09397032A39EDEF3E0700
:101B2000EFEF4E07EFEF5E0764F42AE93DEF4FEF6A
:101B30005FEF20939003309391034093920350936F
:101B40009303873632E0930730E0A30730E0B30712
:101B50000CF494CC86E692E0A0E0B0E0809394038D
:101B600090939503A0939603B09397038091E3031A
:101B70009091E4033ECA4498459814CC882799274D
:101B8000821B930B9093AB008093AA008091A000DE
:101B90008F778093A000809172008D7F8093720078
:101BA00080910201877F809302018091A000806272
:101BB0008093A0008091720084608093720047CD72
:101BC000909581959F4F90939B0080939A001FCD95
:101BD0001216130614061506CCF68091A0008F7D10
:101BE0008093A000809172008B7F8093720080911F
:101BF00002018F7E809302018091A0008068809313
:101C0000A0008091720082608093720020CD8830A5
:101C100009F483C1893009F031CC8091940390910B
:101C20009503A0919603B09197034E97A109B1092E
:101C30008093940390939503A0939603B093970396
:101C40008A39EDEF9E07EFEFAE07EFEFBE070CF01E
:101C500015CC2AE93DEF4FEF5FEF209394033093CB
:101C6000950340939603509397038091E3039091DB
:101C7000E403BFC9823009F4DEC0833009F0FECB33
:101C80008091940390919503A0919603B09197034E
:101C90004E96A11DB11D8093940390939503A0933C
:101CA0009603B09397038736E2E09E07E0E0AE0725
:101CB000E0E0BE070CF4E2CB26E632E040E050E084
:101CC0002093940330939503409396035093970386
:101CD0008091E3039091E4038CC910926B031092FE
:101CE0006A0380E090E050CC80E090E037CC80E068
:101CF00090E01ECC80E090E005CC80E090E0ECCB62
:101D000010926B0310926A0380E090E0AACE80E00C
:101D100090E091CE80E090E078CE80E090E05FCEE1
:101D200080E090E046CE80E090E02DCE80E090E034
:101D300014CE2091900330919103409192035091E1
:101D40009303225E3F4F4F4F5F4F2093900330939A
:101D50009103409392035093930380919403909145
:101D60009503A0919603B09197034E97A109B109ED
:101D70008093940390939503A0939603B093970355
:101D80002736E2E03E07E0E04E07E0E05E0764F061
:101D900026E632E040E050E0209390033093910338
:101DA00040939203509393038A393DEF93073FEF9B
:101DB000A3073FEFB3070CF061CB8AE99DEFAFEFCC
:101DC000BFEF8093940390939503A0939603B093F1
:101DD00097038091E3039091E4030BC980919003F2
:101DE00090919103A0919203B09193034E97A10912
:101DF000B1098093900390939103A0939203B093C1
:101E000093038A393DEF93073FEFA3073FEFB307F3
:101E10000CF034CB8AE99DEFAFEFBFEF80939003D6
:101E200090939103A0939203B09393038091E30363
:101E30009091E403DEC8209190033091910340918A
:101E40009203509193038091940390919503A091F4
:101E50009603B091970382179307A407B5070CF078
:101E6000B6C0DA01C901225E3F4F4F4F5F4F20934A
:101E700090033093910340939203509393034E96B3
:101E8000A11DB11D8093940390939503A093960395
:101E9000B0939703273662E0360760E0460760E0BC
:101EA00056070CF44ECE26E632E040E050E0209398
:101EB000900330939103409392035093930341CE48
:101EC0008091900390919103A0919203B09193031C
:101ED0004E96A11DB11D8093900390939103A09302
:101EE0009203B0939303873632E0930730E0A30761
:101EF00030E0B3070CF4C2CA86E692E0A0E0B0E09E
:101F00008093900390939103A0939203B0939303D3
:101F10008091E3039091E4036CC820919003309189
:101F20009103409192035091930380918C0390917F
:101F30008D03A0918E03B0918F03281739074A07AC
:101F40005B070CF047C0DA01C9012E513040404018
:101F50005040209390033093910340939203509309
:101F600093034E97A109B10980939403909395032D
:101F7000A0939603B09397032A39EDEF3E07EFEF56
:101F80004E07EFEF5E070CF00FCF2AE93DEF4FEF62
:101F90005FEF20939003309391034093920350930B
:101FA000930302CF10929003109291031092920328
:101FB000109293031092940310929503109296033B
:101FC000109297038091E3039091E40312C89C015F
:101FD000AD0149CF8091940390919503A091960310
:101FE000B09197039C01AD01B0CF8130B1F1823047
:101FF000D9F1833009F447C0E0921002E0920F0259
:10200000E0920E0212CA809180008F7D8093800042
:102010002E9825CA80918000877F809380002F981A
:102020008091E3039091E4030C94F9078091900070
:102030008F7780939000809171008D7F80937100E5
:1020400073988091900080628093900080917100DD
:102050008460809371000C94C107E092100210928A
:102060000F02E0920E02E1C944984598E0921002F6
:10207000E0920F0210920E02809180008F77809381
:1020800080002D98DDC91092100210920F0210925C
:102090000E02F2CF84B1807F84B984B1876084B9A5
:1020A00080E58CBD8DB581608DBD0895442379F0A8
:1020B000A82FB92FE62FF72F80E09D919EBD0DB47C
:1020C00007FEFDCF9EB591938F5F8417B0F30895FF
:1020D000662359F0E82FF92F80E091919EBD0DB451
:1020E00007FEFDCF8F5F8617C0F308958EBD0DB438
:1020F00007FEFDCF8EB508950F931F93DF93CF9307
:1021000000D0CDB7DEB7289880E20E9476108DE02F
:102110000E947610289A289883E20E94761081E027
:102120000E947610289A8CE0898380E88A831B823B
:10213000289880E30E9476108E010F5F1F4FC80120
:1021400063E00E946810289A28988AE20E9476101C
:10215000C80163E00E946810289A289881E20E94D2
:10216000761081E00E947610289A289882E20E94D8
:10217000761081E00E947610289A289884E20E94C6
:10218000761082E10E947610289A289885E20E94B3
:10219000761088E20E947610289A289881E30E949F
:1021A000761086E00E947610289A289880E50E9492
:1021B000761083E70E947610289A28988CE30E9474
:1021C000761081E00E947610289A28988DE30E946C
:1021D000761086E00E947610289A289880E20E9465
:1021E00076108FE00E947610289A0F900F900F9033
:1021F000CF91DF911F910F9108952C9A289A0E94F8
:102200007C100895CF93DF93EC012C9828988AE2F4
:102210000E947610CE0165E00E946810289A2C9AE0
:10222000DF91CF910895CF93DF93EC01289880E35D
:102230000E947610CE0165E00E946810289ADF9116
:10224000CF9108958091E603882311F080E00895EE
:1022500028988FEF0E947610289A80740895DF9353
:10226000CF930F92CDB7DEB71982289887E10E94ED
:102270007610BE016F5F7F4FCB0141E00E94561088
:10228000289A898181700F90CF91DF9108952898C5
:1022900082EE0E947610289A0895CF93DF93EC0186
:1022A000289881E60E947610CE01BE0146E00E9489
:1022B0005610289A289887E20E94761080E40E949F
:1022C0007610289ADF91CF910895DF93CF930F92E4
:1022D000CDB7DEB728988F71806269830E9476102F
:1022E0006981862F0E947610289A0F90CF91DF91F6
:1022F00008950F931F93DF93CF930F92CDB7DEB75F
:102300008B0128988F7149830E947610C801B8010B
:1023100049810E945610289A0F90CF91DF911F910A
:102320000F9108950F931F93DF93CF930F92CDB723
:10233000DEB78B0128988F71806249830E947610E6
:10234000C8014981642F0E946810289A0F90CF918C
:10235000DF911F910F9108950F931F93DF93CF93F8
:102360000F92CDB7DEB78C018091E6038823E1F7A9
:102370002C9881E08093E603289880E269830E948C
:1023800076108AE40E947610289A289881EE0E949E
:102390007610289A289880EA0E947610C8016981F0
:1023A0000E946810289A2C9A0F90CF91DF911F916C
:1023B0000F910895EF92FF920F931F93DF93CF93A6
:1023C0000F92CDB7DEB7182F062F289881EE99838C
:1023D0000E947610289A289888EA0E94761099819F
:1023E000002361F0612F792F7B01F70181917F013B
:1023F0000E9476108E2D811B8017B8F3289A0F90BB
:10240000CF91DF911F910F91FF90EF900895289841
:1024100081EE0E947610289A0895E0EBF0E080812A
:1024200082608083E1EBF0E080818260808384E6DB
:102430008093B300E0E7F0E08081826080830895BC
:10244000E1EBF0E080818D7F80830895EF92FF9231
:102450000F931F93CF93DF93EC017B010091250332
:10246000109126030115110589F0F80185819681E7
:102470008C179D0731F41FC0858196818C179D07AD
:10248000D1F00780F085E02D3097B1F789E090E03A
:102490000E94C620FC010097B9F0F182E08213820D
:1024A000128281E08483D683C58310870783F093EB
:1024B0002603E093250381E090E0DF91CF911F9107
:1024C0000F91FF90EF90089581E090E00E94042426
:1024D000A0912503B09126031097A1F015962D9198
:1024E0003C9116972817390739F41DC0258136818C
:1024F0002817390759F0DF011796ED91FC911897CD
:102500003097A1F722E030E0C901089587819085D6
:1025100018969C938E931797CF010E94602121E01B
:1025200030E0C901089517968D919C91189790936A
:10253000260380932503FD01EFCFE0912503F09161
:102540002603309731F410C00780F085E02D3097D6
:1025500059F02581368128173907B1F771836083D7
:1025600021E030E0C901089522E030E0C90108957A
:10257000E0912503F0912603309731F410C00780D5
:10258000F085E02D309759F02581368128173907DD
:10259000B1F71382128221E030E0C901089522E0F0
:1025A00030E0C9010895E0912503F09126033097AA
:1025B00031F40FC00780F085E02D309751F0258170
:1025C000368128173907B1F7148221E030E0C901BC
:1025D000089522E030E0C9010895E0912503F091CB
:1025E0002603309731F410C00780F085E02D309736
:1025F00059F02581368128173907B1F781E08483A6
:1026000021E030E0C901089522E030E0C9010895D9
:10261000E8E6F0E0808182608083ECE6F0E0808193
:1026200080688083E0EBF0E08081826080830895A1
:102630001F920F920FB60F9211248F938091030176
:1026400086FD1DC0809168008D7F80936800809119
:102650006C008F7780936C0080E48093B30080914E
:10266000B10086608093B100809170008260809399
:10267000700010922A0310922B0310922C038F915A
:102680000F900FBE0F901F901895809103029091AC
:1026900004022FEF8F3F920709F46AC08130910541
:1026A00009F476C09C01225030402530310578F580
:1026B00027E32093B3002091B10026602093B1005E
:1026C000209170002260209370002091030130E07F
:1026D000207430700024220F331F001C220F331F80
:1026E000001C232F302D46E050E0481B590B02C040
:1026F000220F331F4A95E2F740912B03420F40937C
:102700002B030196909304028093030208959C0189
:10271000275030402630310508F071C026E3209361
:10272000B3002091B10026602093B1002091700089
:102730002260209370002091030130E020743070FB
:102740000024220F331F001C220F331F001C232FD5
:10275000302D4CE050E0481B590B02C0220F331FB4
:102760004A95E2F740912A03420F40932A03C9CFCA
:102770002091030126FF29C0209168002260209348
:10278000680020916C00206820936C002E9A0895B8
:102790002091030130E020743070022E232F000CB2
:1027A000221F330B000C221F331F20932C0325E321
:1027B0002093B3002091B10026602093B1002091B6
:1027C00070002260209370009CCF8CE18093B30056
:1027D0008091B10086608093B1008091700082602A
:1027E0008093700010922A0310922B0310922C03F6
:1027F00081E090E0909304028093030208958D306D
:10280000910509F07ECF8091680082608093680016
:1028100080916C00806880936C008FEF9FEF9093A5
:1028200004028093030280912C0380930002809124
:102830002B038093270380912A038093280381E050
:102840008093CB032E9A0895809100020895809181
:10285000270308958091280308951F920F920FB6C1
:102860000F9211242F933F934F935F938F939F93D6
:102870008091B100887F8093B10080910102909196
:1028800002022FEF8F3F920709F474C08130910547
:1028900009F47FC09C012250304025303105C8F535
:1028A00027E32093B3002091B10026602093B1006C
:1028B000209170002260209370002091030130E08D
:1028C000207430700024220F331F001C220F331F8E
:1028D000001C232F302D46E050E0481B590B02C04E
:1028E000220F331F4A95E2F740912B03420F40938A
:1028F0002B03019690930202809301029F918F9186
:102900005F914F913F912F910F900FBE0F901F90AD
:1029100018959C01275030402630310508F06CC0D6
:1029200026E32093B3002091B10026602093B100EC
:10293000209170002260209370002091030130E00C
:10294000207430700024220F331F001C220F331F0D
:10295000001C232F302D4CE050E0481B590B02C0C7
:10296000220F331F4A95E2F740912A03420F40930A
:102970002A03BFCF2091030126FF28C020916800C1
:1029800022602093680020916C00206820936C00E6
:10299000B5CF2091030130E020743070022E232F38
:1029A000000C221F330B000C221F331F20932C031B
:1029B00025E32093B3002091B10026602093B1005D
:1029C0002091700022602093700093CF8CE180935F
:1029D000B3008091B10086608093B1008091700057
:1029E00082608093700010922A0310922B03109241
:1029F0002C0381E090E07ECF8D30910509F079CFF6
:102A00008091680082608093680080916C0080688B
:102A100080936C008FEF9FEF9093020280930102EE
:102A200080912C038093000280912B0380932703D5
:102A300080912A038093280381E08093CB035ECFAB
:102A4000089508952F923F924F925F926F927F92D6
:102A50008F929F92AF92BF92CF92DF92EF92FF92AE
:102A60000F931F93DF93CF93CDB7DEB72C970FB69D
:102A7000F894DEBF0FBECDBF9C878B8779876887B0
:102A8000FC012080318042805380FB01A080B18016
:102A9000C280D380211431044104510431F4A114C3
:102AA000B104C104D10409F4BDC160900B0470905D
:102AB0000C0480900D0490900E0460920F047092AC
:102AC00010048092110490921204D7FC35C28091B8
:102AD000860390918703A0E0B0E086017501E81AB3
:102AE000F90A0A0B1B0BE092A403F092A5030093D2
:102AF000A6031093A703E0920B04F0920C0400933A
:102B00000D0410930E046091AC037091AD0380919D
:102B1000AE039091AF036E0D7F1D801F911F6093D8
:102B2000AC037093AD038093AE039093AF03613811
:102B3000FCE07F07F0E08F07F0E09F070CF08BC10F
:102B40006038E3EF7E07EFEF8E07EFEF9E070CF4A0
:102B50002CC20E94BE1D9B01AC010E94921C6D8381
:102B60007E838F839A87C801B7010E94BE1D20E033
:102B700030E048EC52E40E94BF1C69837A838B8367
:102B80009C83C801B70166197709880999090E94D1
:102B9000BE1D20E030E040E251E40E94BF1C9B01DA
:102BA000AC0169817A818B819C810E94921CBD81DC
:102BB000AE81EF806A842B2F3A2F4E2D562D0E9426
:102BC000921C0E941C1E7B018C016093B4037093C5
:102BD000B5038093B6039093B703C601B50128E708
:102BE00030E040E050E00E940C206E0D7F1D801F01
:102BF000911F609398037093990380939A03909325
:102C00009B0397FD76C116161706180619060CF0D9
:102C10007DC1D7FCFDC1613CEDE57E07E0E08E079C
:102C2000E0E09E070CF472C180EC9DE5A0E0B0E00E
:102C30008093980390939903A0939A03B0939B0376
:102C4000A0900304B0900404C0900504D090060442
:102C5000A0920704B0920804C0920904D0920A041A
:102C600057FC7DC18091840390918503A0E0B0E082
:102C700082017101E81AF90A0A0B1B0BE092A0030A
:102C8000F092A1030093A2031093A303E092030424
:102C9000F092040400930504109306046091A803C5
:102CA0007091A9038091AA039091AB036E0D7F1DD3
:102CB000801F911F6093A8037093A9038093AA03B8
:102CC0009093AB0361382CE0720720E0820720E08C
:102CD00092070CF4D3C080E89CE0A0E0B0E08093C1
:102CE000A8039093A903A093AA03B093AB031982FE
:102CF0001D8288EC8E83E5E4EF83C801B7010E9452
:102D0000BE1D20E030E048EC52E40E94BF1C3B01B5
:102D10004C01C801B7016A197B098C099D090E9401
:102D2000BE1D20E030E040E251E40E94BF1C9B0148
:102D3000AC01C401B3010E94921CB981AD81EE8047
:102D4000AF802B2F3A2F4E2D5A2D0E94921C0E949D
:102D50001C1E7B018C016093B0037093B1038093C0
:102D6000B2039093B303C201B10128E730E040E021
:102D700050E00E940C206E0D7F1D801F911F6093FC
:102D80009C0370939D0380939E0390939F0397FDF4
:102D900089C016161706180619060CF090C057FCC5
:102DA00017C1613CEDE57E07E0E08E07E0E09E079D
:102DB0000CF485C080EC9DE5A0E0B0E080939C031E
:102DC00090939D03A0939E03B0939F0364EB70E0E8
:102DD00080E090E0EB85FC85608371838283938340
:102DE000609198037091990380919A0390919B034D
:102DF00026E632E040E050E00E940C2020E039E07E
:102E00004DE350E00E945220CA01B9012CE330E0AA
:102E100040E050E00E940C20E885F98560837183D2
:102E2000828393832C960FB6F894DEBF0FBECDBF7E
:102E3000CF91DF911F910F91FF90EF90DF90CF9096
:102E4000BF90AF909F908F907F906F905F904F90CA
:102E50003F902F90089580E89CE0A0E0B0E0809340
:102E6000AC039093AD03A093AE03B093AF031D8268
:102E70001E8228EC2F8385E48A8775CE6038F3EFB5
:102E80007F07FFEF8F07FFEF9F070CF47BC00E94C7
:102E9000BE1D9B01AC010E94921C69837D838E83C1
:102EA0009F832BCF57FC0BC010929C0310929D0365
:102EB00010929E0310929F0360E070E0CB0160349B
:102EC000F2EA7F07FFEF8F07FFEF9F070CF08BC041
:102ED00080E492EAAFEFBFEF80939C0390939D0351
:102EE000A0939E03B0939F036CE47FEF8FEF9FEF5F
:102EF00071CFD7FC0BC010929803109299031092D7
:102F00009A0310929B0360E070E0CB016034F2EA18
:102F10007F07FFEF8F07FFEF9F070CF091CE80E454
:102F200092EAAFEFBFEF8093980390939903A09339
:102F30009A03B0939B0384CEE0908603F0908703BE
:102F400000E010E0EA0CFB1C0C1D1D1DE092A40328
:102F5000F092A5030093A6031093A703CCCDE090B5
:102F60008403F090850300E010E0E20CF31C041DE4
:102F7000151DE092A003F092A1030093A203109309
:102F8000A30384CE80E893EFAFEFBFEF8093A80355
:102F90009093A903A093AA03B093AB0319821D8257
:102FA00028EC2E8385EC8F83A8CE80E893EFAFEFDB
:102FB000BFEF8093AC039093AD03A093AE03B093A7
:102FC000AF031D821E82F8ECFF8325EC2A87CBCD50
:102FD00010929C0310929D0310929E0310929F03E7
:102FE00060E070E0CB0126E632E040E050E00E9475
:102FF0000C2020E039E04DE350E00E945220CA014D
:10300000B9012CE330E040E050E00E940C20E2CE19
:10301000109298031092990310929A0310929B03B6
:103020000FCE8FEF81B912B897EF94B990EE95B9A2
:1030300090EF97B990EB98B99CEF9AB993E09BB950
:103040008DB91EB810BA83BB14BA809301011092D7
:1030500002019FE89093040110920501109207016C
:1030600080930A0110920B010895589A599A109270
:10307000B90080E28093B800089594EA9093BC0070
:103080009091BC0097FFFCCF9091B900987F983049
:1030900021F0903111F081E008958093BB0084E825
:1030A0008093BC008091BC0087FFFCCF9091B90059
:1030B000987F983121F081E0903419F0089580E0F4
:1030C000089580E0089524EA34E844E92093BC00A0
:1030D0009091BC0097FFFCCF9091B900987F9830F9
:1030E00011F0903199F78093BB003093BC00909120
:1030F000BC0097FFFCCF9091B900987F903219F0F7
:10310000983509F008954093BC009091BC0094FD5F
:10311000FCCFDCCF94EA9093BC009091BC0097FF69
:10312000FCCF9091B900987F983021F0903111F048
:1031300081E008958093BB0084E88093BC00809177
:10314000BC0087FFFCCF9091B900987F983121F0A7
:1031500081E0903419F0089580E0089580E00895AA
:1031600084E98093BC008091BC0084FDFCCF08956D
:103170008093BB0084E88093BC008091BC0087FFF3
:10318000FCCF9091B900987F81E0983209F00895C2
:1031900080E0089584EC8093BC008091BC0087FFA0
:1031A000FCCF8091BB00089584E88093BC0080919F
:1031B000BC0087FFFCCF8091BB0008951092C50032
:1031C00080E18093C400E0ECF0E080818260808345
:1031D000E1ECF0E0808188698083E2ECF0E08081BE
:1031E0008660808308959091C00095FFFCCF809306
:1031F000C60008951F920F920FB60F9211242F93BD
:103200008F939F93AF93BF938091C60090911202CA
:103210009923C9F0823309F456C0833358F58033BB
:1032200009F479C0813329F481E08093110210926E
:103230001202BF91AF919F918F912F910F900FBE6E
:103240000F901F90189590911102923009F441C08F
:10325000933008F1943009F489C0943008F46CC0BC
:10326000953039F7833729F71092C90381E08093AD
:103270001202DFCF843309F459C0843308F450C0FC
:103280008533B9F685E0809311021092120281E035
:103290008093C903CECF992391F58D3209F405C1EE
:1032A0008B3221F780910E0290E00A9797FD9CC126
:1032B00080930E02882309F499C190E090938900CD
:1032C00080938800B6CF82E08093110210921202A0
:1032D000B0CF8D3209F42FC18B3241F680911002AC
:1032E00090E00A9797FD92C180931002882309F419
:1032F0008FC190E090938D0080938C009ACF913095
:1033000009F097CF8D3209F4B9C08B3209F447C068
:10331000909312028ECF109211021092120289CF56
:1033200083E0809311021092120283CF84E0809395
:103330001102109212027DCF8B3209F413C18D322B
:1033400009F46DC0833709F091CF10928803109271
:10335000890310928A0310928B03109299001092A5
:10336000980010929B0010929A0063CF8B3209F460
:10337000B3C08D3229F1833709F078CF10928C03D6
:1033800010928D0310928E0310928F031092A90059
:103390001092A8001092AB001092AA004ACF809120
:1033A0000F0290E00A9797FD28C180930F028823AF
:1033B00009F425C190E090938B0080938A0039CF67
:1033C00080918C0390918D03A0918E03B0918F0317
:1033D0004E97A109B10980938C0390938D03A0931C
:1033E0008E03B0938F038A392DEF92072FEFA20738
:1033F0002FEFB2070CF013C18AE99DEFAFEFBFEFDB
:1034000080938C0390938D03A0938E03B0938F03CE
:1034100086E692E09093AB008093AA000ACF809159
:10342000880390918903A0918A03B0918B034E97F2
:10343000A109B1098093880390938903A0938A031B
:10344000B0938B038A392DEF92072FEFA2072FEF4E
:10345000B2070CF0EAC08AE99DEFAFEFBFEF8093AF
:10346000880390938903A0938A03B0938B0386E625
:1034700092E090939B0080939A00DBCE8091800035
:1034800080628093800080910F0290E00A968F3FC7
:10349000910519F014F08FEF90E080930F0290E007
:1034A00090938B0080938A00C4CE809180008068C6
:1034B0008093800080910E0290E00A968F3F9105E4
:1034C00019F014F08FEF90E080930E0290E090934B
:1034D000890080938800ADCE80918C0390918D03FC
:1034E000A0918E03B0918F034E96A11DB11D8093C4
:1034F0008C0390938D03A0938E03B0938F03873634
:1035000022E0920720E0A20720E0B2070CF458C0A6
:1035100086E692E0A0E0B0E080938C0390938D0368
:10352000A0938E03B0938F0386E692E09093A90058
:103530008093A8007ECE8091800088608093800078
:103540008091100290E00A968F3F910519F014F0D7
:103550008FEF90E08093100290E090938D00809325
:103560008C0067CE8091880390918903A0918A0393
:10357000B0918B034E96A11DB11D8093880390934B
:103580008903A0938A03B0938B03873622E09207C6
:1035900020E0A20720E0B207ECF086E692E0A0E08F
:1035A000B0E08093880390938903A0938A03B0933B
:1035B0008B0386E692E0909399008093980039CE31
:1035C000B7FFB4CF909581959F4F9093AB008093B8
:1035D000AA002FCEB7FFEFCF909581959F4F909384
:1035E0009B0080939A0025CE10920E02809180005D
:1035F0008F77809380002D981CCE10920F028091BF
:1036000080008F7D809380002E9813CE1092100240
:1036100080918000877F809380002F980ACEB7FF2B
:1036200085CF909581959F4FF5CEB7FFC4CF9095EC
:1036300081959F4F1ECFA0E0B0E0E1E2FBE10C944A
:1036400091202C015B01FA01DC019C91923008F47D
:1036500032C1EB018881823008F42CC1943071F4BE
:10366000843009F028C1F20191818981981709F409
:1036700022C115E1412E12E0512E1DC1843009F402
:1036800019C18230A9F4923009F015C1CA01A20112
:1036900028E0DA010D90AD01EC010992CE01215034
:1036A000C1F7E5018981E20199818923818300C104
:1036B000923009F4FFC0E201CA80DB80EB018A810D
:1036C0009B81E2012C813D814E815F81EB01EC8089
:1036D000FD800E811F81B601681B790BDB0177FF2E
:1036E00003C0709561957F4F603271050CF05DC02D
:1036F0001A161B065CF566247724430181E090E0EE
:10370000A0E0B0E0062E04C0880F991FAA1FBB1FBF
:103710000A94D2F70197A109B1098E219F21A02314
:10372000B1230097A105B10529F0B1E06B2E712CF2
:10373000812C912C04C016950795F794E7946A950F
:10374000D2F7E628F728082919293BC0AB2BC9F185
:10375000C60ED71E66247724430181E090E0A0E0E6
:10376000B0E0062E04C0880F991FAA1FBB1F0A9441
:10377000D2F70197A109B10982239323A423B5238A
:103780000097A105B10529F0A1E06A2E712C812CCA
:10379000912C04C056954795379527956A95D2F791
:1037A00026293729482959290CC08C159D0534F044
:1037B0006C0120E030E040E050E003C0EE24FF2444
:1037C0008701E2019981E5018981981709F443C0D5
:1037D000992339F0E21AF30A040B150BA80197019B
:1037E00004C02E193F09400B510B57FD08C0118230
:1037F000D382C28224833583468357831DC081E0F0
:103800008183D382C28288279927DC01821B930B94
:10381000A40BB50B84839583A683B7830DC0220FB9
:10382000331F441F551F248335834683578382816A
:1038300093810197938382832481358146815781C7
:10384000DA01C9010197A109B1098F5F9F4FAF4FFD
:10385000BF4328F30BC09183D382C2822E0D3F1D3C
:10386000401F511F248335834683578383E0808321
:1038700024813581468157815523D4F4C901AA2773
:1038800097FDA095BA2F81709070A070B07056957A
:10389000479537952795822B932BA42BB52B8483A3
:1038A0009583A683B78382819381019693838283D4
:1038B0002F0101C02501C201E0E1CDB7DEB70C94B4
:1038C000AD20A0E2B0E0E7E6FCE10C949B20698328
:1038D0007A838B839C832D833E834F83588709E0B3
:1038E000E02EF12CEC0EFD1EB701CE0101960E94D8
:1038F0009C1F8E010F5E1F4FB801CE0105960E94DE
:103900009C1F8A8991E089278A8BAE01475E5F4FB1
:10391000B801C7010E941B1B0E94BC1EE6E0A096D6
:103920000C94B720A0E2B0E0E8E9FCE10C949B2005
:1039300069837A838B839C832D833E834F8358874F
:1039400089E0E82EF12CEC0EFD1EB701CE010196A8
:103950000E949C1F8E010F5E1F4FB801CE0105967D
:103960000E949C1FAE01475E5F4FB801C7010E94D5
:103970001B1B0E94BC1EE6E0A0960C94B720A0E2A0
:10398000B0E0E5ECFCE10C94912069837A838B83B1
:103990009C832D833E834F83588799E0E92EF12C39
:1039A000EC0EFD1EB701CE0101960E949C1F8E01F8
:1039B0000F5E1F4FB801CE0105960E949C1F99858E
:1039C000923088F089898230C0F0943019F48230C6
:1039D00029F009C0843029F4923079F465E172E06D
:1039E000C6C0923041F420E09A858A89981321E07C
:1039F0002A87B701BCC0823041F420E09A858A89C9
:103A0000981321E02A8BB801B2C0CD84DE84EF8404
:103A1000F8880D891E892F89388D882499245401AE
:103A200040E050E060E070E0442455243201E0E0E2
:103A3000F0E0C60181709070892BD9F0800E911E44
:103A4000A21EB31EDB01CA01840D951DA61DB71D64
:103A500040E050E060E070E080169106A206B306F8
:103A600020F441E050E060E070E0480F591F6A1F09
:103A70007B1F440C551C661C771C37FF08C081E077
:103A800090E0A0E0B0E0482A592A6A2A7B2A3196C1
:103A9000E032F10549F0000F111F221F331FF69489
:103AA000E794D794C794C5CF8B899C892B853C8597
:103AB000820F931F02969C8F8B8F1A8E9A858A890C
:103AC000981711F081E08A8F2B8D3C8D17C0CA01A9
:103AD00081709070892B61F0B694A7949794879425
:103AE00080E090E0A0E0B0E8882A992AAA2ABB2AC0
:103AF00076956795579547952F5F3F4F77FDE7CFB1
:103B0000C9010BC0440F551F661F771FB7FC4160EA
:103B1000880C991CAA1CBB1C01974030A0E05A07D6
:103B2000A0E06A07A0E47A0768F39C8F8B8FDB0123
:103B3000CA018F779070A070B07080349105A10594
:103B4000B10561F447FD0AC081149104A104B104D8
:103B500029F0405C5F4F6F4F7F4F40784D8F5E8FF5
:103B60006F8F78A383E0898FBE01675E7F4FCB01A3
:103B70000E94BC1EE0E1A0960C94AD20A8E0B0E04D
:103B8000E4ECFDE10C9498209B01AC0183E0898377
:103B9000DA01C9018827B7FD83959927AA27BB2792
:103BA000B82E211531054105510519F482E08983AC
:103BB0003AC08823A9F0203080E0380780E0480729
:103BC00080E8580729F460E070E080E09FEC30C0A6
:103BD000EE24FF248701E21AF30A040B150B02C03E
:103BE00079018A018EE1C82ED12CDC82CB82ED8254
:103BF000FE820F831887C801B7010E946F1E0197CC
:103C00001816190684F4082E04C0EE0CFF1C001FC1
:103C1000111F0A94D2F7ED82FE820F831887C81A0B
:103C2000D90ADC82CB82BA82CE0101960E94BC1EE8
:103C3000E9E028960C94B420ACE0B0E0E2E2FEE1CA
:103C40000C949F2069837A838B839C83BE016B5F76
:103C50007F4FCE0101960E949C1F8D818230A9F179
:103C6000823098F1843021F48E81882359F40FC07A
:103C70002F81388537FD29C06E812F31310564F0E1
:103C8000662329F020E030E040E050E822C02FEF2A
:103C90003FEF4FEF5FE71DC08EE190E0821B930B7B
:103CA00029853A854B855C8504C05695479537959F
:103CB00027958A95D2F7662361F050954095309507
:103CC00021953F4F4F4F5F4F04C020E030E040E070
:103CD00050E0CA01B901E2E02C960C94BB20EF92AF
:103CE000FF920F931F939B01AC01203080E03807B7
:103CF00081E0480780E0580780F42F3F31054105F7
:103D0000510509F020F4EE24FF24870119C068E072
:103D1000E62EF12C012D112D13C0203080E0380744
:103D200080E0480781E0580730F490E1E92EF12C5B
:103D3000012D112D05C088E1E82EF12C012D112D4A
:103D400080E290E0A0E0B0E08E199F09A00BB10BDB
:103D500004C05695479537952795EA94D2F7F9010F
:103D6000E35EFD4F2081821B9109A109B1091F91DA
:103D70000F91FF90EF9008959F92AF92BF92CF92D4
:103D8000DF92EF92FF920F931F93EE24FF2487019F
:103D9000FC01248135814681578191808081823068
:103DA00010F44061A2C0843009F49BC0823029F431
:103DB00020E030E040E050E005C02115310541052C
:103DC000510519F4E0E0F0E092C0828193816FEF39
:103DD000823896070CF05AC062E87FEF681B790BB7
:103DE0006A3171052CF020E030E040E050E02AC05C
:103DF000AA24BB24650181E090E0A0E0B0E0062E9B
:103E000004C0880F991FAA1FBB1F0A94D2F70197FD
:103E1000A109B10982239323A423B5230097A10507
:103E2000B10529F071E0A72EB12CC12CD12C04C012
:103E300056954795379527956A95D2F72A293B29B4
:103E40004C295D29DA01C9018F779070A070B0709C
:103E500080349105A105B10539F427FF09C0205C24
:103E60003F4F4F4F5F4F04C0215C3F4F4F4F5F4F5D
:103E700080E090E0203060E0360760E0460760E4D4
:103E8000560710F081E090E0FC0123C080389105D6
:103E900044F5FC01E158FF4FDA01C9018F779070BA
:103EA000A070B07080349105A105B10539F427FFE9
:103EB00009C0205C3F4F4F4F5F4F04C0215C3F4F14
:103EC0004F4F5F4F57FF05C056954795379527953C
:103ED000319687E056954795379527958A95D1F77E
:103EE00006C020E030E040E050E0EFEFF0E0E22EEE
:103EF000F32E942F9F77802F8078892B9E2F979574
:103F0000992797958F77082F092B9E2F9695812FAC
:103F10008078892B9794992497948F77182F192953
:103F2000C801B7011F910F91FF90EF90DF90CF90E4
:103F3000BF90AF909F900895CF93DF93FC01DB017A
:103F4000208131819281492F4F7750E0991F992725
:103F5000991F8381E82FEE0FE92B6E2F70E0881FE9
:103F60008827881FED018983EE2371F5211531051E
:103F70004105510511F482E02FC06E577040FD01DC
:103F80007383628367E0220F331F441F551F6A95B6
:103F9000D1F783E08C930AC0220F331F441F551FB3
:103FA000ED018A819B8101979B838A832030E0E029
:103FB0003E07E0E04E07E0E45E0770F3ED012C837E
:103FC0003D834E835F8325C0EF3F79F42115310592
:103FD0004105510519F484E08C931BC044FF03C0D4
:103FE00081E08C9311C01C920FC06F577040ED019F
:103FF0007B836A8383E08C9387E0220F331F441F07
:10400000551F8A95D1F75064FD012483358346837B
:104010005783DF91CF910895629FD001739FF00184
:10402000829FE00DF11D649FE00DF11D929FF00D48
:10403000839FF00D749FF00D659FF00D9927729F7F
:10404000B00DE11DF91F639FB00DE11DF91FBD010A
:10405000CF0111240895AA1BBB1B51E107C0AA1F61
:10406000BB1FA617B70710F0A61BB70B881F991F19
:104070005A95A9F780959095BC01CD01089597FBBD
:10408000092E07260AD077FD04D0E5DF06D00020F0
:104090001AF4709561957F4F0895F6F79095819584
:1040A0009F4F089597FB092E05260ED057FD04D08B
:1040B00014D00AD0001C38F45095409530952195C5
:1040C0003F4F4F4F5F4F0895F6F79095809570954D
:1040D00061957F4F8F4F9F4F0895A1E21A2EAA1B23
:1040E000BB1BFD010DC0AA1FBB1FEE1FFF1FA217A8
:1040F000B307E407F50720F0A21BB30BE40BF50BA5
:10410000661F771F881F991F1A9469F7609570952D
:10411000809590959B01AC01BD01CF0108952F9230
:104120003F924F925F926F927F928F929F92AF9247
:10413000BF92CF92DF92EF92FF920F931F93CF9394
:10414000DF93CDB7DEB7CA1BDB0B0FB6F894DEBF2B
:104150000FBECDBF19942A88398848885F846E8441
:104160007D848C849B84AA84B984C884DF80EE809B
:10417000FD800C811B81AA81B981CE0FD11D0FB6A4
:10418000F894DEBF0FBECDBFED010895CF93DF934E
:104190008230910510F482E090E0E0911504F091F6
:1041A000160440E050E020E030E026C060817181DC
:1041B00068177907E0F06817790781F482819381A5
:1041C0002115310531F0D90113969C938E931297E6
:1041D0002BC0909316048093150426C041155105F9
:1041E00019F06417750718F4AB01E901DF019F01AD
:1041F00072816381E72FF62F3097C1F64115510583
:1042000001F1481B590B4430510580F412968D91F1
:104210009C911397209719F09B838A8304C09093F5
:10422000160480931504FD01329646C0FD01E40F8B
:10423000F51F819391934250504011965C934E9399
:104240003BC020911304309114042115310541F431
:1042500020911F0330912003309314042093130402
:1042600020912103309122032115310541F42DB70E
:104270003EB740911D0350911E03241B350BE09166
:104280001304F0911404E217F307A0F42E1B3F0B64
:104290002817390778F0AC014E5F5F4F24173507B8
:1042A00048F04E0F5F1F5093140440931304819302
:1042B000919302C0E0E0F0E0CF01DF91CF9108954B
:1042C000CF93DF93009709F491C0FC0132971382DA
:1042D000128260911504709116046115710581F4C4
:1042E00020813181280F391F80911304909114048B
:1042F0008217930799F5F0931404E093130476C0A2
:10430000DB0180E090E002C0CD01D901AE17BF070C
:1043100048F412962D913C91139721153105A1F780
:10432000CD0121C0B383A283EF01499159919E0130
:10433000240F351FA217B30779F42D913C911197E3
:10434000240F351F2E5F3F4F3183208312962D910E
:104350003C91139733832283009729F4F09316043A
:10436000E093150443C0DC011396FC93EE9312977F
:104370004D915D91A40FB51FEA17FB0769F42081E9
:104380003181240F351F2E5F3F4FEC013983288385
:10439000228133813B832A83E0E0F0E002C0FB010D
:1043A000BC01DB0112968D919C9113970097B9F790
:1043B0009B012E5F3F4F8D919C911197820F931F10
:1043C00040911304509114044817590779F4309719
:1043D00029F4109216041092150402C0138212825E
:1043E000225030403093140420931304DF91CF9176
:1043F0000895F5D058F080E891E009F49EEFF6D0EA
:1044000028F040E851E059F45EEF09C0C0C028C16F
:10441000E92FE07803D168F3092E052AC1F32617A6
:1044200037074807590738F00E2E07F8E02569F0DE
:10443000E025E0640AC0EF6307F8009407FADB01A7
:10444000B9019D01DC01CA01AD01EF9341D0D5D086
:104450000AD05F91552331F02BED3FE049E450FD48
:1044600049EC60CA0895DF93DD27B92FBF7740E894
:104470005FE31616170648075B0710F4D92FF7D02D
:104480009F938F937F936F935AD1E4EEF0E082D0A5
:10449000B4D02F913F914F915F91FAD0DD2349F035
:1044A0009058A2EA2AED3FE049EC5FE3D0785D271F
:1044B00056D1DF91A2C09AD040F091D030F021F4D3
:1044C0005F3F19F05EC05111CCC061C0A7D098F316
:1044D0009923C9F35523B1F3951B550BBB27AA2785
:1044E00062177307840738F09F5F5F4F220F331FF7
:1044F000441FAA1FA9F333D00E2E3AF0E0E830D0C3
:1045000091505040E695001CCAF729D0FE2F27D0C5
:10451000660F771F881FBB1F261737074807AB0793
:10452000B0E809F0BB0B802DBF01FF2793585F4F08
:104530002AF09E3F510568F024C093C05F3FECF322
:10454000983EDCF3869577956795B795F7959F5FCD
:10455000C9F7880F911D9695879597F90895E1E021
:10456000660F771F881FBB1F621773078407BA0780
:1045700020F0621B730B840BBA0BEE1F88F7E095DB
:10458000089597F99F6780E870E060E008959FEFD5
:1045900080EC0895DF93CF931F930F93FF92EF92D8
:1045A000DF927B018C01689405C0DA2EEF0170D098
:1045B000FE01E894A5912591359145915591AEF371
:1045C000EF01CDD0FE019701A801DA9479F7DF90D1
:1045D000EF90FF900F911F91CF91DF9108950024EC
:1045E0000A941616170618060906089500240A9458
:1045F00012161306140605060895092E0394000CDE
:1046000011F4882352F0BB0F40F4BF2B11F460FF6C
:1046100004C06F5F7F4F8F4F9F4F089557FD905895
:10462000440F551F59F05F3F71F04795880F97FB76
:10463000991F61F09F3F79F0879508951216130630
:104640001406551FF2CF4695F1DF08C0161617065F
:104650001806991FF1CF8695710561050894089594
:10466000E894BB2766277727CB0197F908959B012C
:10467000AC0160E070E080E89FE3C4C0B0DF28F0E8
:10468000B5DF18F0952309F07CCF81CF1124E9CF55
:10469000C5DFA0F3959FD1F3950F50E0551F629FA2
:1046A000F001729FBB27F00DB11D639FAA27F00D8B
:1046B000B11DAA1F649F6627B00DA11D661F829FB2
:1046C0002227B00DA11D621F739FB00DA11D621F97
:1046D000839FA00D611D221F749F3327A00D611DB4
:1046E000231F849F600D211D822F762F6A2F112496
:1046F0009F5750408AF0E1F088234AF0EE0FFF1FE9
:10470000BB1F661F771F881F91505040A9F79E3F1F
:10471000510570F036CFA5CF5F3FECF3983EDCF348
:10472000869577956795B795F795E7959F5FC1F75C
:10473000FE2B880F911D9695879597F908959B01FB
:10474000AC011DC94CDF30F051DF20F031F49F3F48
:1047500011F41EF41CCF0EF4E095E7FB12CFE92F05
:104760005DDF80F3BA17620773078407950718F0B7
:1047700071F49EF575CF0EF4E0950B2EBA2FA02D97
:104780000B01B90190010C01CA01A0011124FF27FE
:10479000591B99F0593F50F4503E68F11A16F040F9
:1047A000A22F232F342F4427585FF3CF46953795F8
:1047B0002795A795F0405395C9F77EF41F16BA0BBD
:1047C000620B730B840BBAF09150A1F0FF0FBB1F6B
:1047D000661F771F881FC2F70EC0BA0F621F731FB4
:1047E000841F48F4879577956795B795F7959E3F11
:1047F00008F0B3CF9395880F08F09927EE0F97959F
:0A4800008795089563DEF9CEFFCF1F
:10480A0002FFFFFFFF660200006602000003FFFFCF
:10481A00FF0501013A00000000000000000001024B
:10482A000203030303040404040404040405050541
:10483A00050505050505050505050505050606061B
:10484A0006060606060606060606060606060606FE
:10485A0006060606060606060606060606070707EB
:10486A0007070707070707070707070707070707CE
:10487A0007070707070707070707070707070707BE
:10488A0007070707070707070707070707070707AE
:10489A00070707070707070707070707070808089B
:1048AA00080808080808080808080808080808087E
:1048BA00080808080808080808080808080808086E
:1048CA00080808080808080808080808080808085E
:1048DA00080808080808080808080808080808084E
:1048EA00080808080808080808080808080808083E
:1048FA00080808080808080808080808080808082E
:10490A00080808080808080808080808080808081D
:10491A0008080808080808080808080808200017EE
:04492A000400000085
:00000001FF
