:100000000C94BE000C94DD000C94DD000C94DD001B
:100010000C94DD000C94DD000C94DD000C94DD00EC
:100020000C94DD000C94DD000C9473080C94DD003E
:100030000C94DD000C94A7080C94DD000C9475134F
:100040000C94DD000C94DD000C94DD000C94DD00BC
:100050000C94DD000C94DD000C94DD000C94DD00AC
:100060000C94DD000C9454110C94DD000C94DD0014
:100070000C94DD000C9439140C94DD000C94DD001C
:100080000C9475180C948B180C94DD000C94E817E4
:100090000C94DD000C94DD000C94DD000C94DD006C
:1000A0000C94DD000C94DD000C94BC170C94D2175A
:1000B0000C94DD000C9425170C94DD000C94DD00ED
:1000C0000C94DD000C94DD000C94DD000C94DD003C
:1000D0000C94DD000C94DD000C94DD000C94DD002C
:1000E0000C94DD00200B040BD20A950B5F0B880BE0
:1000F000A90A8D0A600A480AE909E909E909E90932
:10010000E909E9093C0A310AE909E909E909E909C2
:10011000E909E909E909E909E909E909E909E9094F
:10012000600AD20A250A200AE909E909E909E90968
:10013000E909E909E909E909E909E909E909E9092F
:100140005F0BA90AE909E909200B880B490B084A4A
:10015000D73B3BCE016E84BCBFFDC12F3D6C7431DB
:100160009ABD56833DDA3D00C77F11BED9E4BB4C32
:100170003E916BAAAABE000000803F0011241FBE62
:10018000CFEFD1E2DEBFCDBF00E00CBF13E0A0E0B7
:10019000B2E0EEE1FFE402C005900D92A432B10797
:1001A000D9F714E0A4E2B3E001C01D92A735B1076E
:1001B000E1F70E94DF000C948E270C9400001F933F
:1001C00081E0809310020E9440130E940B1D8091D9
:1001D0009400909195000E94202511E00E941B132D
:1001E000809323040E944B1C0E949A20809121043A
:1001F000909122042BE48E31920730F01092220469
:10020000109221041093C5030E94D7090E94C704CD
:1002100080912304882309F066C080910702882317
:1002200091F08091E3039091E403969587959695DC
:1002300087959093E8038093E7031092070210924A
:10024000E4031092E30380910802882391F08091E7
:10025000E5039091E60396958795969587959093FB
:10026000EA038093E903109208021092E6031092C9
:10027000E5038091EF039091F0039093FC0380934A
:10028000FB032091F1033091F2033093FE0320939E
:10029000FD0340912704442309F0A8C03093E203F2
:1002A0002093E1039093E0038093DF033093EE0308
:1002B0002093ED039093EC038093EB03181619063B
:1002C0000CF004C190939900809398008091ED0305
:1002D0009091EE03181619060CF0ECC09093A9004B
:1002E0008093A8007BCF813009F48FC0823009F061
:1002F00075CF2091F1033091F2033093FE032093E8
:10030000FD038091EF039091F0039093FC038093A1
:10031000FB0340912704442309F02AC13093E203F0
:100320002093E1039093E0038093DF038091070221
:10033000882359F18091E3039091E4039695879582
:10034000969587959093E8038093E70310920702B0
:100350001092E4031092E30380911602813009F4B5
:100360001BC18DEF93E00E94E40B8091FD039091FF
:10037000FE039093EE038093ED03181619060CF01C
:1003800010C19093A9008093A8008091080288234F
:1003900009F424CF8091E5039091E6039695879523
:1003A000969587959093EA038093E903109208024B
:1003B0001092E6031092E50380911602813009F451
:1003C000E6C08BEF93E00E94290D8091FB03909192
:1003D000FC039093EC038093EB03181619060CF0C2
:1003E0005DC09093990080939800F8CE8DEF93E0D4
:1003F0006BEF73E00E94A1182091FD033091FE0382
:100400008091FB039091FC0349CF2091F10330913F
:10041000F2033093FE032093FD038091EF0390914C
:10042000F0039093FC038093FB0340912704442343
:1004300009F07FC03093E2032093E1039093E0033F
:100440008093DF0380910702882309F04BC08091DD
:100450000802882309F4C2CE8091E5039091E60357
:1004600096958795969587959093EA038093E903EF
:10047000109208021092E6031092E5038BEF93E0CE
:100480000E946E0E8091FB039091FC039093EC030D
:100490008093EB03181619060CF4A3CF009709F00C
:1004A00096C0109299001092980010929B001092A2
:1004B0009A0094CE009709F04BC01092A9001092B8
:1004C000A8001092AB001092AA0088CE009709F005
:1004D00047C0109299001092980010929B001092C1
:1004E0009A00F4CE8091E3039091E403969587956A
:1004F000969587959093E8038093E70310920702FF
:100500001092E4031092E3038DEF93E00E94530FE7
:100510008091FD039091FE039093EE038093ED0391
:10052000181619060CF048C09093A9008093A800F3
:100530008ECF8DEF93E06BEF73E00E94A1182091B6
:10054000FD033091FE038091FB039091FC0372CF79
:10055000909581959F4F9093AB008093AA003ECEDB
:10056000909581959F4F90939B0080939A00AECE7B
:100570008DEF93E06BEF73E00E94A1182091FD03D3
:100580003091FE038091FB039091FC03C7CE8BEF6B
:1005900093E00E946E0E19CF8DEF93E00E94530FEF
:1005A000E4CE0097E1F41092A9001092A8001092F6
:1005B000AB001092AA00E9CE0097C9F41092A900EE
:1005C0001092A8001092AB001092AA0040CF909514
:1005D00081959F4F90939B0080939A00FFCD9095BB
:1005E00081959F4F9093AB008093AA00CECE9095BB
:1005F00081959F4F9093AB008093AA0028CF84B140
:10060000807F84B984B1876084B980E58CBD8DB565
:1006100081608DBD08951CBC1DBC0895442379F0F4
:10062000A82FB92FE62FF72F80E09D919EBD0DB426
:1006300007FEFDCF9EB591938F5F8417B0F30895A9
:10064000662359F0E82FF92F80E091919EBD0DB4FB
:1006500007FEFDCF8F5F8617C0F308958EBD0DB4E2
:1006600007FEFDCF8EB508950F931F93DF93CF93B1
:1006700000D0CDB7DEB7289880E20E942E038DE02F
:100680000E942E03289A289883E20E942E0381E07C
:100690000E942E03289A8091030490910404998368
:1006A0008A831B82289880E30E942E038E010F5FAD
:1006B0001F4FC80163E00E942003289A28988AE20D
:1006C0000E942E03C80163E00E942003289A289804
:1006D00081E20E942E0381E00E942E03289A28982E
:1006E00082E20E942E0381E00E942E03289A28981D
:1006F00084E20E942E0382E10E942E03289A289809
:1007000085E20E942E0388E20E942E03289A2898F0
:1007100081E30E942E038DE00E942E03289A2898E0
:1007200080E50E942E0383E70E942E03289A2898D2
:100730008CE30E942E0381E00E942E03289A2898C1
:100740008DE30E942E0386E00E942E03289A2898AB
:1007500080E20E942E038FE00E942E03289A0F90C1
:100760000F900F90CF91DF911F910F9108952C9AC8
:10077000289A0E9434030895CF93DF93EC012C98BC
:1007800028988AE20E942E03CE0165E00E94200391
:10079000289A2C9ADF91CF910895CF93DF93EC01A3
:1007A000289880E30E942E03CE0165E00E9420037A
:1007B000289ADF91CF91089580912A04882311F01F
:1007C00080E0089528988FEF0E942E03289A807465
:1007D0000895DF93CF930F92CDB7DEB71982289893
:1007E00087E10E942E03BE016F5F7F4FCB0141E086
:1007F0000E940E03289A898181700F90CF91DF911A
:100800000895289882EE0E942E03289A0895CF9387
:10081000DF93EC01289881E60E942E03CE01BE01F1
:100820004DE00E940E03289A289887E20E942E032A
:1008300080E40E942E03289ADF91CF910895DF93E0
:10084000CF930F92CDB7DEB728988F7180626983FE
:100850000E942E036981862F0E942E03289A0F90F2
:10086000CF91DF9108950F931F93DF93CF930F9252
:10087000CDB7DEB78B0128988F7149830E942E0374
:10088000C801B80149810E940E03289A0F90CF91A8
:10089000DF911F910F9108950F931F93DF93CF93D3
:1008A0000F92CDB7DEB78B0128988F718062498394
:1008B0000E942E03C8014981642F0E942003289AB8
:1008C0000F90CF91DF911F910F9108950F931F9378
:1008D000DF93CF930F92CDB7DEB78C0180912A04BE
:1008E0008823E1F72C9881E080932A04289880E2FD
:1008F00069830E942E038AE40E942E03289A289876
:1009000081EE0E942E03289A289880EA0E942E03E6
:10091000C80169810E942003289A2C9A0F90CF91D8
:10092000DF911F910F910895EF92FF920F931F9304
:10093000DF93CF930F92CDB7DEB7182F062F2898ED
:1009400081EE99830E942E03289A289888EA0E94B3
:100950002E039981002361F0612F792F7B01F7012C
:1009600081917F010E942E038E2D811B8017B8F389
:10097000289A0F90CF91DF911F910F91FF90EF90E8
:100980000895289881EE0E942E03289A08951F93B7
:10099000CF93DF9380912A04882321F0DF91CF91B8
:1009A0001F91089528988FEF0E942E03289A86FFA2
:1009B000F5CF289887E20E942E0380E70E942E033D
:1009C000289A289881E60E942E0387E494E0BC01CF
:1009D0004DE00E940E03289A289887E20E942E0379
:1009E00080E40E942E03289A289882EE0E942E030B
:1009F000289A60914704662309F4B8C150914B04CA
:100A000040914C04E091480470914904252F30E056
:100A10002F7730703093020420930104842F90E0EC
:100A20008F779070909300048093FF0357FDA6C2C8
:100A3000220F331F220F331F309521953F4F3093E4
:100A4000F0032093EF0347FDA3C2880F991F880F7F
:100A5000991F909581959F4F9093F2038093F10396
:100A600042E02130340744F040E052E05093F0037C
:100A70004093EF0320E032E042E08130940734F00D
:100A800080E092E09093F2038093F1034EEF2030E8
:100A9000340734F440E05EEF5093F0034093EF03EB
:100AA0002EEF8030920734F480E09EEF9093F203B3
:100AB0008093F103262F30E03093400420933F04CD
:100AC000F0E0F0934204E0934104C72FD0E0D093CC
:100AD0004404C0934304922F8827821B930B24E67F
:100AE00030E0B9010E946F24162F109510930C026C
:100AF0005E2F44274E1B5F0BCA01B9010E946F2471
:100B0000609560930E025C2F44274C1B5D0BCA015D
:100B1000B9010E946F24609560930D02812F0E949D
:100B2000E21A80910D020E94F61A80910E020E9434
:100B30000A1B80914A0480FF25C1449881FF25C18A
:100B40004598982F82FF25C121E02093110284FD52
:100B500024C186FF29C181E08093270497FD28C125
:100B60001092280480914D0480FF29C180910B01CF
:100B70008E7F80930B0180914D0481FF29C180916C
:100B80000B018D7F80930B0180914D0482FF29C161
:100B900080910B018B7F80930B0180914D0483FF2B
:100BA00029C1A39880914D0484FF29C180910B0134
:100BB0008F7E80930B0180914D0485FF29C1809128
:100BC0000B018F7D80930B0180914D0486FF29C11D
:100BD00080910B018F7B80930B0180914D0487FDE9
:100BE00029C180910B01806880930B0180910B02D9
:100BF00080932F04843009F429C1853008F066C140
:100C0000833009F065C090915F03809160039093F9
:100C1000300480933104909161038091620390933A
:100C20003204809333049091630380916403909322
:100C3000340480933504909165038091660390930A
:100C40003604809337049091690380916A039093EE
:100C500038048093390490916B0380916C039093D6
:100C60003A0480933B0490916D0380916E039093BE
:100C70003C0480933D043091030180910301209155
:100C8000030190E080729070959587959595879572
:100C9000959587959595879595958795880F991F33
:100CA000221F2227221F220F220F282B832F90E0A2
:100CB0008071907095958795959587959595879571
:100CC00095958795282B20933E0484E080930B0212
:100CD000289881EE0E942E03289A289888EA0E947C
:100CE0002E0380912F040E942E03809130040E94D5
:100CF0002E03809131040E942E03809132040E94C1
:100D00002E03809133040E942E03809134040E94AC
:100D10002E03809135040E942E03809136040E9498
:100D20002E03809137040E942E03809138040E9484
:100D30002E03809139040E942E0380913A040E9470
:100D40002E0380913B040E942E0380913C040E945C
:100D50002E0380913D040E942E0380913E040E9448
:100D60002E03289ADF91CF911F910895E0914804B6
:100D7000EE2309F416C150914B0440914C0470913C
:100D8000490444CE449A81FDDBCE459A982F82FDDA
:100D9000DBCE1092110284FFDCCE0E940B1D9091DD
:100DA0004A04892F86FDD7CE1092270497FFD8CE0C
:100DB00081E08093280480914D0480FDD7CE8091FE
:100DC0000B01816080930B0180914D0481FDD7CE92
:100DD00080910B01826080930B0180914D0482FD14
:100DE000D7CE80910B01846080930B0180914D04DC
:100DF00083FDD7CEA39A80914D0484FDD7CE8091F8
:100E00000B01806180930B0180914D0485FDD7CE4D
:100E100080910B01806280930B0180914D0486FDCF
:100E2000D7CE80910B01806480930B0180914D049B
:100E300087FFD7CE80910B018F7780930B01809134
:100E40000B0280932F04843009F0D7CE9091670372
:100E500080916803909330048093310490916F03E4
:100E600080917003909332048093330490917103C6
:100E700080917203909334048093350490917303AE
:100E80008091740390933604809337049091750396
:100E900080917603909338048093390490910C04E8
:100EA00080910D0490933A0480933B0490910E043A
:100EB00080910F0490933C0480933D04809107043B
:100EC00080933E0485E080930B0202CF853009F4C5
:100ED0007DC0863009F0FCCE80913F0390914003A5
:100EE0008093300480913F039091400390933104AC
:100EF00080914F03909150038093320480914F036F
:100F00009091500390933304809153039091540334
:100F1000809334048091530390915403909335044B
:100F20008091570390915803809336048091570322
:100F3000909158039093370480915B0390915C03E8
:100F40008093380480915B0390915C039093390403
:100F5000909110048091110490933A0480933B0483
:100F60009091C3038091C40390933C0480933D040B
:100F700010923E0483E080930B02AACE220F331F0F
:100F8000220F331F3093F0032093EF0347FF5DCD13
:100F9000880F991F880F991F9093F2038093F10394
:100FA0005FCD70914904772361F480914A048830C1
:100FB00041F450914B04552309F464C040914C0412
:100FC00025CD50914B0440914C0420CD80912F03AE
:100FD000909130038093300480912F0390913003DF
:100FE00090933104809133039091340380933204C1
:100FF00080913303909134039093330480913703AD
:101000009091380380933404809137039091380392
:101010009093350480913B0390913C038093360478
:1010200080913B0390913C0390933704809143035C
:10103000909144038093380480914303909144033A
:1010400090933904809147039091480380933A0428
:10105000809147039091480390933B0480914B0308
:1010600090914C0380933C0480914B0390914C03EE
:1010700090933D048091230480933E0486E0809306
:101080000B0226CE40914C04442379F010920204C6
:1010900010920104842F90E08F7790709093000459
:1010A0008093FF0320E030E0C3CC8CE30E947F13E9
:1010B00050914B0440914C0460914704E0914804E6
:1010C00070914904A3CCE8E6F0E0808182608083DF
:1010D000ECE6F0E0808180688083E0EBF0E08081E6
:1010E0008260808308951F920F920FB60F92112491
:1010F0008F9380911102882321F18091030186FD55
:1011000020C0809168008D7F8093680080916C0082
:101110008F7780936C0081E0809312028DE0809342
:10112000B3008091B10086608093B100809170001F
:101130008260809370001092260310922703109211
:1011400028038F910F900FBE0F901F9018951F923C
:101150000F920FB60F9211242F933F934F935F93EB
:101160008F939F938091B100887F8093B10080918D
:1011700012028823A9F08091030186FF65C0809147
:10118000680082608093680080916C008068809322
:101190006C008FEF9FEF909302028093010249C091
:1011A00080910102909102022FEF8F3F920709F484
:1011B00063C08130910509F498C09C0122503040F1
:1011C0002530310508F467C09C0127503040263097
:1011D000310508F0BDC026E32093B3002091B10093
:1011E00026602093B100209170002260209370004F
:1011F0002091030130E0207430700024220F331F4F
:10120000001C220F331F001C232F302D4CE050E018
:10121000481B590B02C0220F331F4A95E2F7409139
:101220002603420F40932603019690930202809377
:1012300001029F918F915F914F913F912F910F905C
:101240000FBE0F901F9018951092120283E38093A7
:10125000B3008091B10086608093B10080917000EE
:1012600082608093700080910102909102022FEFC2
:101270008F3F9207C9F6DDCF2091030126FF52C0B0
:101280002091680022602093680020916C00206803
:1012900020936C00CECF26E32093B3002091B100C1
:1012A00026602093B100209170002260209370008E
:1012B0002091030130E0207430700024220F331F8E
:1012C000001C220F331F001C232F302D46E050E05E
:1012D000481B590B02C0220F331F4A95E2F7409179
:1012E0002703420F409327039FCF2091030130E053
:1012F00020743070022E232F000C221F330B000CA1
:10130000221F331F2093280326E32093B30020914C
:10131000B10026602093B1002091700022602093DC
:10132000700082CF8CE18093B3008091B100866021
:101330008093B10080917000826080937000109261
:101340002603109227031092280381E090E06DCFCE
:101350008D30910509F068CF10927000809168007F
:1013600082608093680080916C00806880936C003C
:101370008FEF9FEF909302028093010280912803E8
:101380008093000280912703809324038091260399
:101390008093250381E0809308044BCF8091000265
:1013A00008958091240308958091250308958091E4
:1013B00011028823B1F1E0912503E09307048091A5
:1013C0000804882371F110920804F0E0E533F10578
:1013D00048F12091EF033091F0038091F103909157
:1013E000F20337FD27C0359527953595279530931E
:1013F00002042093010497FD09C095958795959562
:101400008795909300048093FF03089590958195AC
:101410009F4F959587959595879590930004809318
:10142000FF030895EE58FF4FEE0FFF1F0590F49154
:10143000E02D1994309521953F4FD5CF8093270407
:1014400010922804C6CF1092270481E080932804CC
:101450002091EF033091F0038091F1039091F2031A
:10146000C0CF109227042091EF033091F0038091B8
:10147000F1039091F203B5CF81E08093270420918E
:10148000EF033091F0038091F1039091F203A9CF23
:101490008091F1039091F2034E979093F203809321
:1014A000F1032EEF803092079CF580E09EEF909341
:1014B000F2038093F1032091EF033091F00391CF79
:1014C0002091EF033091F0038091ED039091EE03B2
:1014D0002817390724F02091F1033091F2032E519F
:1014E00030403093F0032093EF03C9013093F203AF
:1014F0002093F1034EEF2030340734F440E05EEFE8
:101500005093F0034093EF034EEF203034076CF21A
:101510002091EF033091F00364CF2091EF033091DD
:10152000F0032E5130403093F0032093EF034EEF41
:10153000203034070CF017C180E09EEF9093F00349
:101540008093EF038091F1039091F20320E830E063
:101550004ECF2091EF033091F0032E513040309365
:10156000F0032093EF038091F1039091F2034E96E4
:101570009093F2038093F1034EEF2030340734F45C
:1015800020E03EEF3093F0032093EF0342E0813000
:1015900094070CF426CF80E092E09093F2038093BE
:1015A000F1031FCF2091EF033091F0038091F103FD
:1015B0009091F203821793070CF4DAC09C01225E2B
:1015C0003F4F3093F0032093EF034E969093F20336
:1015D0008093F10342E02130340734F020E032E020
:1015E0003093F0032093EF0322E0813092070CF454
:1015F0008FCF80E092E09093F2038093F1032091EB
:10160000EF033091F003EDCE2091EF033091F00322
:10161000225E3F4F3093F0032093EF0342E02130EE
:1016200034070CF4A0C080E092E09093F003809324
:10163000EF038091F1039091F20320E830E0D7CEE0
:101640008091090490E0019665E070E00E94832497
:1016500080930904882309F08DC0449A459A10921A
:101660000E028FEF80930D0280930C020E94E21A0B
:1016700080910D020E94F61A80910E020E940A1BB0
:101680002091EF033091F0038091F1039091F203E8
:10169000A8CE80910A0490E00196837090708093A8
:1016A0000A04823009F4CFCE833009F453C081306C
:1016B00009F4C4CE10922704109228048ACE2091F7
:1016C000EF033091F003225E3F4F3093F0032093FD
:1016D000EF038091F1039091F2034E979093F20300
:1016E0008093F10342E02130340734F020E032E00F
:1016F0003093F0032093EF034EEF803094070CF00B
:1017000070CE80E09EEF9093F2038093F10369CE58
:101710001092F0031092EF031092F2031092F10373
:1017200080E090E020E030E05ECE8091F103909187
:10173000F2034E969093F2038093F10322E08130FE
:1017400092070CF4E5CE80E092E09093F203809350
:10175000F103DECE81E0809327048093280420915A
:10176000EF033091F0038091F1039091F20339CEB1
:10177000C90125CF813061F0823091F08330D9F0FA
:101780008FEF80930E0280930D0280930C026ECF38
:101790008FEF80930E0210920D0280930C0266CFA1
:1017A000449845988FEF80930E0280930D0210921B
:1017B0000C0280E05BCF10920E0210920D0210928C
:1017C0000C0280E053CF08950F931F93CF93DF93C4
:1017D000FC0180819181009709F4B7C020911E041B
:1017E00030911F0441E02E3034070CF488C01816E5
:1017F00019060CF013C188E691E0821B930B9595B6
:1018000087959595879529E130E0281B390B309312
:1018100004022093030240912B0450912C04509316
:101820004604409345042081318137FDD2C0809128
:10183000E7039091E803B901681B790BCB01709322
:101840002C0460932B042091F7033091F803280FA8
:10185000391F3093F8032093F70376E021343707DC
:101860000CF484C020E436E03093F8032093F703AF
:1018700060EC72E19C01220F331FDC01AA0FBB1F39
:10188000AA0FBB1FAA0FBB1F2A0F3B1F008111818C
:10189000C0910302D09104020C9FD0010D9FB00DA6
:1018A0001C9FB00D11242A0F3B1F481B590B440FDE
:1018B000551F240F351F260F371F3093F603209333
:1018C000F50337FD69C0121613060CF06FC0808156
:1018D000918197FD89C07DE5213C37070CF466C0F6
:1018E00080EC9DE59093F6038093F50380E092E011
:1018F00091838083DF91CF911F910F910895243BB5
:10190000310594F42A3531057CF4181619060CF0CB
:1019100093C03595279535952795275E3F4F309392
:1019200004022093030277CF1816190694F584EB6E
:1019300090E0821B930B9595879595958795499691
:10194000909304028093030266CF1092F8031092E2
:10195000F70310922C0410922B041092460410925C
:101960004504DF91CF911F910F91089569EF203CBD
:1019700036074CF420EC39EF3093F8032093F7034B
:1019800060E47DEE77CFB901660F771F620F731F9A
:1019900071CF84EB90E031CF8081918197FD06C0BB
:1019A0001092F6031092F50320E030E082EA203432
:1019B000380704F580E492EA9093F6038093F503E8
:1019C00080E09EEF91838083DF91CF911F910F91F3
:1019D00008958091E7039091E803820F931F9093FD
:1019E0002C0480932B042FCF1092F6031092F50352
:1019F00020E030E035952795359527953595279545
:101A0000359527953183208342E0213034070CF04F
:101A10006DCF6EEF203036079CF26CCF88E691E0F8
:101A2000821B930B959587959595879549969093ED
:101A3000040280930302EFCE3595279535952795BF
:101A400089E190E0821B930B909304028093030240
:101A5000E2CE0F931F93CF93DF93FC01808191819E
:101A6000009709F4B7C020911E0430911F0441E093
:101A70002E3034070CF488C0181619060CF013C168
:101A800088E691E0821B930B9595879595958795B0
:101A900029E130E0281B390B309306022093050220
:101AA000409154045091550450932E0440932D04BA
:101AB0002081318137FDD2C08091E9039091EA0302
:101AC000B901681B790BCB017093550460935404E2
:101AD0002091F9033091FA03280F391F3093FA034C
:101AE0002093F90376E0213437070CF484C020E416
:101AF00036E03093FA032093F90360EC72E19C0125
:101B0000220F331FDC01AA0FBB1FAA0FBB1FAA0F96
:101B1000BB1F2A0F3B1F00811181C0910502D0918C
:101B200006020C9FD0010D9FB00D1C9FB00D11241B
:101B30002A0F3B1F481B590B440F551F240F351FFD
:101B4000260F371F3093F4032093F30337FD69C04A
:101B5000121613060CF06FC08081918197FD89C029
:101B60007DE5213C37070CF466C080EC9DE5909341
:101B7000F4038093F30380E092E091838083DF910C
:101B8000CF911F910F910895243B310594F42A358C
:101B900031057CF4181619060CF093C0359527957D
:101BA00035952795275E3F4F309306022093050217
:101BB00077CF1816190694F584EB90E0821B930BEF
:101BC000959587959595879549969093060280936C
:101BD000050266CF1092FA031092F9031092550491
:101BE0001092540410922E0410922D04DF91CF9184
:101BF0001F910F91089569EF203C36074CF420ECBB
:101C000039EF3093FA032093F90360E47DEE77CF48
:101C1000B901660F771F620F731F71CF84EB90E0DD
:101C200031CF8081918197FD06C01092F40310920C
:101C3000F30320E030E082EA2034380704F580E442
:101C400092EA9093F4038093F30380E09EEF9183F4
:101C50008083DF91CF911F910F9108958091E903C7
:101C60009091EA03820F931F90935504809354043C
:101C70002FCF1092F4031092F30320E030E035955B
:101C80002795359527953595279535952795318352
:101C9000208342E0213034070CF06DCF6EEF20300E
:101CA00036079CF26CCF88E691E0821B930B9595EA
:101CB000879595958795499690930602809305029E
:101CC000EFCE359527953595279589E190E0821BD4
:101CD000930B9093060280930502E2CEFC01808173
:101CE0009181009709F47BC0A0915404B0915504F0
:101CF000B0932E04A0932D042081318137FD89C03B
:101D00008091E9039091EA03A901481B590BCA018C
:101D100050935504409354042091F9033091FA03F1
:101D2000280F391F3093FA032093F90356E021342A
:101D300035070CF461C020E436E03093FA032093B9
:101D4000F90360E87CE09C01220F331F280F391F44
:101D5000220F331F220F331F220F331F280F391F6B
:101D600040815181440F551F440F551F440F551F8B
:101D7000240F351FAD01481B590BCA01880F991F4D
:101D8000840F951F280F391F260F371F3093F40338
:101D90002093F30337FD4CC0121613060CF052C00B
:101DA0008081918197FD67C05DE5213C35070CF48A
:101DB00049C080EC9DE59093F4038093F3032CEDF0
:101DC00035E0225E3F4F3183208342E021303407EB
:101DD0000CF448C080E092E09183808308951092D3
:101DE000FA031092F90310925504109254041092C1
:101DF0002E0410922D04089549EF203C3407A4F4DA
:101E000020EC39EF3093FA032093F90360E873EF85
:101E10009ACF8091E9039091EA03820F931F9093E8
:101E200055048093540478CFB901660F771F8BCF88
:101E30008081918197FD06C01092F4031092F30304
:101E400020E030E082EA20343807DCF480E492EAD3
:101E50009093F4038093F30324E23AEF2E51304041
:101E6000318320835EEF2030350724F480E09EEF3D
:101E70009183808308951092F4031092F30320E07D
:101E800030E03595279535952795359527953595E6
:101E9000279531832083121613060CF492CF211557
:101EA0003105E1F60895FC0180819181009709F4E4
:101EB0007BC0A0912B04B0912C04B0934604A09356
:101EC00045042081318137FD89C08091E7039091DD
:101ED000E803A901481B590BCA0150932C044093F5
:101EE0002B042091F7033091F803280F391F30930A
:101EF000F8032093F70356E0213435070CF461C052
:101F000020E436E03093F8032093F70360E87CE0A8
:101F10009C01220F331F280F391F220F331F220F5E
:101F2000331F220F331F280F391F40815181440F67
:101F3000551F440F551F440F551F240F351FAD016A
:101F4000481B590BCA01880F991F840F951F280F32
:101F5000391F260F371F3093F6032093F50337FD03
:101F60004CC0121613060CF052C08081918197FD6F
:101F700067C05DE5213C35070CF449C080EC9DE568
:101F80009093F6038093F5032CED35E0225E3F4FEE
:101F90003183208342E0213034070CF448C080E0D4
:101FA00092E09183808308951092F8031092F703D2
:101FB00010922C0410922B041092460410924504A7
:101FC000089549EF203C3407A4F420EC39EF309316
:101FD000F8032093F70360E873EF9ACF8091E7034B
:101FE0009091E803820F931F90932C0480932B040D
:101FF00078CFB901660F771F8BCF8081918197FDD4
:1020000006C01092F6031092F50320E030E082EA59
:1020100020343807DCF480E492EA9093F60380934E
:10202000F50324E23AEF2E513040318320835EEFF6
:102030002030350724F480E09EEF9183808308955B
:102040001092F6031092F50320E030E035952795C5
:102050003595279535952795359527953183208397
:10206000121613060CF492CF21153105E1F60895EE
:1020700085B7806185BF8FEF81B912B897EF94B9AA
:1020800090EE95B990EF97B990EB98B99CEF9AB90B
:1020900093E09BB98DB91EB810BA83BB809126041A
:1020A0008823E1F08130D1F0823051F19FEF90939D
:1020B0000101109202019FE0909304018823A9F48A
:1020C0009091050110920501109207019FEF9093E6
:1020D0000A01882329F410920B01089514BAE6CF5F
:1020E0008130C9F3823041F00895813011F082309F
:1020F00059F790930501E8CF87EF80930B0108957E
:1021000098E094BBD3CF1092B8001092BC00089511
:10211000589A599A1092B90080E28093B8000895B5
:1021200094EA9093BC009091BC0097FFFCCF9091F3
:10213000B900987F983021F0903111F081E0089536
:102140008093BB0084E88093BC008091BC0087FF33
:10215000FCCF9091B900987F983121F081E09034C4
:1021600019F0089580E0089580E0089524EA34E8A5
:1021700044E92093BC009091BC0097FFFCCF909164
:10218000B900987F983011F0903199F78093BB0097
:102190003093BC009091BC0097FFFCCF9091B900A8
:1021A000987F903219F0983509F008954093BC005B
:1021B0009091BC0094FDFCCFDCCF94EA9093BC00DE
:1021C0009091BC0097FFFCCF9091B900987F983018
:1021D00021F0903111F081E008958093BB0084E8F4
:1021E0008093BC008091BC0087FFFCCF9091B90028
:1021F000987F983121F081E0903419F0089580E0C3
:10220000089580E0089584E98093BC008091BC002B
:1022100084FDFCCF08958093BB0084E88093BC00CC
:102220008091BC0087FFFCCF9091B900987F81E03E
:10223000983209F0089580E0089584EC8093BC0002
:102240008091BC0087FFFCCF8091BB00089584E89B
:102250008093BC008091BC0087FFFCCF8091BB00C5
:1022600008951092C50080E18093C400E0ECF0E096
:10227000808182608083E1ECF0E0808188698083E6
:10228000E2ECF0E080818660808308951092C000C7
:102290001092C1001092C20008959091C00095FF65
:1022A000FCCF8093C60008951F920F920FB60F9235
:1022B00011242F938F939F938091C60090911002C9
:1022C0009923B9F0823309F45BC0833380F58033FE
:1022D00009F47EC0813329F481E080930F021092CB
:1022E00010029F918F912F910F900FBE0F901F9012
:1022F000189590910F02923009F448C0933040F144
:10230000943009F48CC0943008F473C0953049F7C8
:10231000833739F71092060481E0809310029F9171
:102320008F912F910F900FBE0F901F9018958433AF
:1023300009F459C0843308F450C0853391F685E020
:1023400080930F021092100281E080930604C9CF9F
:10235000992391F58D3209F4D5C08B32E9F680913D
:102360000C0290E00A9797FD3FC180930C028823EE
:1023700009F43CC190E09093890080938800B1CF2C
:1023800082E080930F0210921002ABCF8D3209F4DD
:10239000E8C08B3209F680910E0290E00A9797FD13
:1023A00035C180930E02882309F432C190E09093E6
:1023B0008D0080938C0095CF913009F092CF8D32B3
:1023C00009F489C08B3209F43FC09093100289CF81
:1023D00010920F021092100284CF83E080930F02BC
:1023E000109210027ECF84E080930F0210921002B0
:1023F00078CF8B3209F4CCC08D3209F451C08337C9
:1024000009F08ACF1092EC031092EB03109299001E
:102410001092980010929B0010929A0062CF8B321B
:1024200009F487C08D3209F1833709F075CF109216
:10243000EE031092ED031092A9001092A8001092E2
:10244000AB001092AA004DCF80910D0290E00A9748
:1024500097FDD3C080930D02882309F4D0C090E08B
:1024600090938B0080938A003CCF8091ED039091F4
:10247000EE034E979093EE038093ED032CEF8030A4
:1024800092070CF0CCC080E09CEF9093EE03809319
:10249000ED0380E094E09093AB008093AA0021CFFD
:1024A0008091EB039091EC034E979093EC03809313
:1024B000EB032CEF803092070CF0B7C080E09CEF6C
:1024C0009093EC038093EB0380E094E090939B0067
:1024D00080939A0006CF8091800080628093800074
:1024E00080910D0290E00A968F3F910519F014F04B
:1024F0008FEF90E080930D0290E090938B0080939B
:102500008A00EFCE80918000806880938000809167
:102510000C0290E00A968F3F910519F014F08FEFAE
:1025200090E080930C0290E0909389008093880063
:10253000D8CE8091ED039091EE034E969093EE03EA
:102540008093ED0324E081309207D4F180E094E0A1
:102550009093EE038093ED039093A9008093A800DD
:10256000C0CE8091800088608093800080910E02B0
:1025700090E00A968F3F910519F014F08FEF90E0EC
:1025800080930E0290E090938D0080938C00A9CEF2
:102590008091EB039091EC034E969093EC03809323
:1025A000EB0324E081309207ACF080E094E090935C
:1025B000EC038093EB03909399008093980091CE65
:1025C00097FFCACF909581959F4F9093AB008093D2
:1025D000AA0087CE97FFEFCF909581959F4F90935C
:1025E0009B0080939A007DCE10920C028091800017
:1025F0008F77809380002D9874CE10920D02809179
:1026000080008F7D809380002E986BCE10920E02FA
:1026100080918000877F809380002F9862CE97FF03
:102620009BCF909581959F4F36CF97FFC4CF9095C4
:1026300081959F4F4BCF86B166B126B146B130E050
:1026400028703070359527953595279535952795C0
:10265000220F331F70E064707070759567957595E3
:102660006795260F371F220F331F50E042705070BE
:1026700055954795240F351F220F8170820F0895BD
:10268000F8948EEF9FE00E94D426909304048093E8
:1026900003049C0121583C4023303105B0F41092D2
:1026A00026040E9438100E941D140E94DD160E940C
:1026B000A71A0E94FF020E94B7030E9431110E94D4
:1026C0001E1B0E946308789408952CE080389207BE
:1026D00021F481E080932604E4CF2CE08438920733
:1026E00000F382E080932604DCCF1F920F920FB696
:1026F0000F9211240F900FBE0F901F901895CF933B
:10270000DF939EE1899FE0011124809168008D7F15
:102710008093680080916C008F7780936C00D99AC9
:1027200010927A0080917A00806180937A001092F2
:102730009000109291001092710088B3876088BB5E
:102740001092A0001092A1001092720089B38760CD
:1027500089BB10928000109281000E9446110E9455
:102760000B030E9483100E94381083B78F6083BFD1
:1027700081E0809370008091B0008D7F8093B000E5
:102780008091B10087608093B100209719F08895FF
:102790002197E9F713BE8091B100887F8093B10043
:1027A000109270008091B00082608093B0008FEF33
:1027B00080930C0280930D0280930E021092EC0322
:1027C0001092EB031092EE031092ED03F8948EEF4B
:1027D0009FE00E94D42690930404809303049C01FC
:1027E00021583C4023303105C0F4109226040E9449
:1027F00038100E941D140E94DD160E94A71A0E9424
:10280000FF020E94B7030E9431110E941E1B0E940A
:1028100063087894DF91CF9108952CE08038920777
:1028200021F481E080932604E2CF2CE084389207E3
:10283000F0F282E080932604DACFEAE7F0E08081CC
:1028400086608083ACE7B0E08C9180648C9380815B
:1028500080628083ABE7B0E08C91887F8C9380812D
:1028600088608083808180688083808180648083A9
:1028700008951F920F920FB60F920BB60F9211246C
:102880002F933F934F935F936F938F939F93EF9308
:10289000FF93809121049091220401969093220449
:1028A000809321042091780030E040917900942FAA
:1028B00080E0282B392B8091BF03823009F4AAC114
:1028C000833008F443C0833009F4C7C1843009F46D
:1028D00066C18091C003823009F44DC1833008F095
:1028E000CBC0882309F022C180912A03869580936A
:1028F00029038091C103882309F0DFC181E080931F
:10290000BF0381E08093C00390912903983008F0C1
:10291000EBC090917B00977F90937B00909129036F
:10292000905C90937C00823009F4EBC0FF91EF91B2
:102930009F918F916F915F914F913F912F910F9048
:102940000BBE0F900FBE0F901F901895882309F0B3
:10295000FEC060912A036E3009F4D0C1462F50E0CA
:10296000FA01EE0FFF1FE15DFC4F3183208340FF32
:1029700077C0FA01EE0FFF1FE35DFC4F808191816C
:10298000FA01EE0FFF1FE15DFC4F40815181262FC0
:10299000269530E0841B950B220F331FF901E9586F
:1029A000FC4F40815181841B950BF901E15AFC4F8A
:1029B0009183808397FDBDC144E08130940724F06A
:1029C00080E094E091838083603148F48C339105FA
:1029D0000CF0B4C129533C4FF9019183808380915D
:1029E0002804882309F475C180916F0390917003C6
:1029F000F1E0843A9F07CCF08091710390917203CB
:102A000021E0843A92078CF08091730390917403D3
:102A100041E0843A94074CF08091750390917603DD
:102A2000E1E0843A9E070CF054C181E080932904D0
:102A30001092EE031092ED031092A9001092A800DC
:102A40001092AB001092AA001092EC031092EB03CC
:102A5000109299001092980010929B0010929A0088
:102A60006F5F60932A03683108F433CF10922A0312
:102A700081E08093C6032DCF833009F4B7C0843042
:102A800009F042CF90912C039093290390912D034C
:102A90009093C1039091C203992309F008C183E088
:102AA0008093BF031092C00360912A036E3009F433
:102AB0001FC1862F90E060FFF1C0603108F40CC1A7
:102AC00020912604222309F0D5C04097959587953B
:102AD00021E030E002C0220F331F8A95E2F72093F5
:102AE00005018091C00310CF90917B009860909376
:102AF0007B0090912903985C90937C00823009F0D0
:102B000015CF20912604222351F0213019F02230D4
:102B100009F00CCF8FEF8093050112B807CF809199
:102B20000501807F8093050112B800CF813009F044
:102B3000EBCE80912B038093290380912E03809309
:102B4000C2031092BF0382E08093C003DDCE8130C8
:102B500009F0BFCE8091D9039091DA03820F931FC1
:102B6000969587959093DA038093D9038091C0035B
:102B7000823009F0B3CE80912C0380932903809199
:102B80002D038093C1038091C203882309F09BC069
:102B900083E08093BF0383E08093C003B5CE809130
:102BA0000A02882309F495CE9091000193FD91CEFD
:102BB0009091000194FD8DCE482F4F5F40930A0203
:102BC000453008F486CE8091E3039091E403820FB0
:102BD000931F9093E4038093E303483009F079CE88
:102BE00010920A0281E08093070273CE80912B033A
:102BF0008093290380912E038093C2038091C103A7
:102C0000882309F04EC081E08093BF0384E0809365
:102C1000C0037ACE80910902882309F45ACE6399C1
:102C200058CE649956CE482F4F5F409309024530E5
:102C300008F44FCE8091E5039091E603820F931F35
:102C40009093E6038093E503483009F042CE10925A
:102C5000090281E0809308023CCE8091D7039091D5
:102C6000D803820F931F969587959093D8038093EE
:102C7000D7032FCE213011F0223081F4409105018D
:102C800040979595879521E030E002C0220F331FD1
:102C90008A95E2F720952423209305018091C003B3
:102CA00033CE8130D1F185E08093BF03AFCF913037
:102CB00009F085E08093BF03F5CE8130B1F185E066
:102CC0008093BF031ECE813061F185E08093BF0306
:102CD00062CF10922904C4CE669581E090E002C0D4
:102CE000880F991F6A95E2F782B98091C0030CCED4
:102CF0008091C5038130A1F180E006CE8091C503AB
:102D0000823009F02BCE3093C4032093C30310927A
:102D1000C50346984EE050E02ACE82E08093BF0380
:102D200075CF84E08093BF0336CF82E08093BF03EA
:102D3000E8CD1182108280E090E046CEAC01445C88
:102D40005F4F55954795483751057CF429533C4FC3
:102D5000CC9795958795CC96F901918380833FCE4A
:102D600082E08093C503469AA4CEAC01445D5E4FD9
:102D70005595479555954795443B510574F429530E
:102D80003C4F845B9040959587959595879588589D
:102D90009F4FF9019183808322CE29533C4F845A5F
:102DA00091409595879595958795959587958C54A0
:102DB0009F4FF9019183808312CEE0E9F0E080819A
:102DC00083688083808183608083A1E9B0E08C91F7
:102DD0008B608C938091EB039091EC03909399001E
:102DE0008093980010929B0010929A00A1E7B0E0A7
:102DF0008C9181608C9380818F7580838EB1877E6A
:102E00008EB9E0EAF0E0808183688083A1EAB0E0D7
:102E10008C918B608C938091ED039091EE03909355
:102E2000A9008093A8001092AB001092AA00A2E71C
:102E3000B0E08C9181608C9380818F758083E2E01B
:102E4000F1E08081877E808308951F920F920FB6F4
:102E50000F9211248F939F9380912904882361F00E
:102E60001092EE031092ED031092A9001092A800A8
:102E70001092AB001092AA001092D8031092D703C0
:102E80008091ED039091EE03009741F58091E1036D
:102E90009091E20397FD69C081E080932E038EE05C
:102EA00080932B0381E080930A028091A0008F75AC
:102EB0008093A00080910201877E8093020180911F
:102EC0007200897F8093720089B3866089BB9F916D
:102ED0008F910F900FBE0F901F901895181619061E
:102EE0002CF510922E038FE080932B038091A0008D
:102EF0008F7D8093A000809172008B7F8093720001
:102F0000809102018F7E809302018091A0008068F1
:102F10008093A000809172008260809372009F91E4
:102F20008F910F900FBE0F901F90189510922E0347
:102F30008EE080932B038091A0008F778093A00078
:102F4000809172008D7F8093720080910201877F53
:102F5000809302018091A00080628093A000809104
:102F60007200846080937200B2CF81E080932E0360
:102F70008FE080932B0396CF1F920F920FB60F9284
:102F800011248F939F9381E080932E039EE0909372
:102F90002B0380930A029F918F910F900FBE0F9089
:102FA0001F9018951F920F920FB60F9211248F93B6
:102FB0009F9381E080932E039FE090932B03809357
:102FC0000A029F918F910F900FBE0F901F9018953E
:102FD0001F920F920FB60F9211248F939F9380919F
:102FE0002904882361F01092EC031092EB031092F5
:102FF00099001092980010929B0010929A001092E3
:10300000DA031092D9038091EB039091EC030097BF
:1030100031F58091DF039091E00397FD5FC081E07F
:1030200080932D038CE080932C0381E08093090230
:10303000809190008F75809390008EB1877E8EB9BD
:1030400080917100897F8093710088B3866088BB0E
:103050009F918F910F900FBE0F901F90189518168B
:1030600019060CF510922D038DE080932C038091AE
:1030700090008F7D80939000809171008B7F809372
:103080007100749880919000806880939000809186
:1030900071008260809371009F918F910F900FBE9D
:1030A0000F901F90189510922D038CE080932C03A5
:1030B000809190008F7780939000809171008D7F38
:1030C000809371007398809190008062809390004B
:1030D00080917100846080937100BACF81E0809309
:1030E0002D038DE080932C03A0CF1F920F920FB67B
:1030F0000F9211248F939F9381E080932D039CE086
:1031000090932C03809309029F918F910F900FBE93
:103110000F901F9018951F920F920FB60F921124C7
:103120008F939F9381E080932D039DE090932C03D8
:10313000809309029F918F910F900FBE0F901F9067
:1031400018952F923F924F925F926F927F928F923B
:103150009F92AF92BF92CF92DF92EF92FF920F9326
:103160001F93DF93CF93CDB7DEB728970FB6F894B0
:10317000DEBF0FBECDBF2C017A836983FC010190B5
:10318000F081E02DFC83EB83FB010190F081E02DC9
:10319000FE83ED836091C7037091C80365307105AC
:1031A00034F41092C8031092C70360E070E04091BD
:1031B000C9035091CA034530510534F41092CA0333
:1031C0001092C90340E050E08091CB039091CC0372
:1031D0008530910524F41092CC031092CB0300911A
:1031E000CD031091CE030530110534F41092CE03B7
:1031F0001092CD0300E010E06090CF037090D003F8
:10320000F5E06F16710434F41092D0031092CF03DE
:10321000662477242091D1033091D20325303105E3
:1032200034F41092D2031092D10320E030E0809168
:10323000D3039091D4038530910524F41092D403E4
:103240001092D3038091D5039091D60385309105D8
:1032500034F41092D6031092D50380E090E0EE246F
:10326000FF24E61AF70A5A01B594A7941595079515
:103270006901D594C7944C01959487940E941B25AD
:1032800093012E5130402E0D3F1D200F311F2C0D6C
:103290003D1D2A193B09281939094CE3242E312CEC
:1032A000B1010E948324280F391F38872F83E090B3
:1032B000C903F090CA03F594E7940091CB031091F1
:1032C000CC031595079515950795C090CD03D09023
:1032D000CE03D594C7948090D1039090D203959457
:1032E00087946090D3037090D40375946794759419
:1032F0006794A090D503B090D603B594A7940E948C
:103300001B259701200F311F2E5130402C0D3D1DE4
:103310002A193B092819390926193709B1010E94D0
:103320008324280F391F4B815C8157FD97C05A01B8
:10333000CC24B7FCC094DC2C8F8198853C01882478
:1033400077FC8094982C79010027F7FC0095102FCA
:10335000C401B3016E197F09800B910BA601950181
:103360000E945024F7E09595879577956795FA9593
:10337000D1F76A0D7B1D8C1D9D1DF2017183608349
:103380002D813E8137FD99C05901CC24B7FCC094F2
:10339000DC2CC801B701660D771D881D991DA6019B
:1033A00095010E94502437E095958795779567950C
:1033B0003A95D1F76A0D7B1D8C1D9D1D9B01E981FE
:1033C000FA8171836083F2E021303F0744F080E0AE
:1033D00092E0E981FA819183808320E032E0F2017A
:1033E00080819181F2E081309F074CF080E092E093
:1033F000F20191838083E981FA8120813181FEEF9E
:1034000020303F074CF480E09EEFE981FA81918300
:103410008083F20180819181FEEF80309F072CF440
:1034200080E09EEFF2019183808328960FB6F89496
:10343000DEBF0FBECDBFCF91DF911F910F91FF90E7
:10344000EF90DF90CF90BF90AF909F908F907F9044
:103450006F905F904F903F902F9008954D815E81C7
:103460005A01CC24B7FCC094DC2C8F8198853C0198
:10347000882477FC8094982C79010027F7FC00952C
:10348000102FC801B701660D771D881D991DA60173
:1034900095010E945024E7E095958795779567956B
:1034A000EA95D1F7261B370B480B590BF2013183F4
:1034B00020832D813E8137FF67CF2B813C815901CD
:1034C000CC24B7FCC094DC2CC401B3016E197F0975
:1034D000800B910BA60195010E94502427E0959541
:1034E0008795779567952A95D1F7A61AB70AC80ADE
:1034F000D90A9501E981FA81B182A08264CF8091D5
:103500006F039091700321E0843A9207D4F0809188
:1035100071039091720321E0843A920794F08091B4
:1035200073039091740321E0843A920774F081E070
:10353000209175033091760391E0243A39071CF409
:10354000089581E0089580E0089581E00895E0E81D
:10355000F0E08081896A8083E1E8F0E08081896021
:10356000808380910C0290E0909389008093880082
:1035700080910D0290E090938B0080938A0080915F
:103580000E0290E090938D0080938C00089581E06E
:1035900090910504891B80930504882339F4809158
:1035A0008000877F809380002F980895809180000D
:1035B0008860809380008FEF90E090938D008093DF
:1035C0008C000895882359F0909180009068909322
:1035D000800090E090938900809388000895809106
:1035E00080008F77809380002D980895882359F06C
:1035F0009091800090629093800090E090938B0077
:1036000080938A000895809180008F7D8093800050
:103610002E980895882359F0909180009860909397
:10362000800090E090938D0080938C0008958091AD
:103630008000877F809380002F9808950E948810D3
:10364000809113020E949010882349F486E10E9421
:103650000B1185E40E940B110E94031108950E9432
:10366000031186EA90E0909314028093130286EA95
:103670000E949010882341F58DE20E940B1188E092
:103680000E940B110E940311809113020E9490105E
:103690008823D1F481E30E940B1180E00E940B117A
:1036A0000E940311809113020E949010882361F4FC
:1036B0008CE20E940B1189E00E940B110E94031101
:1036C00081E080930B0408950E94031182E08093AF
:1036D0000B040895809113020E949010882351F4E6
:1036E00086E10E940B1185E40E940B110E940311D8
:1036F00080E008950E94031181E0089580911302F3
:103700000E949010882331F58DE20E940B1188E011
:103710000E940B110E940311809113020E949010CD
:103720008823C1F481E30E940B1180E00E940B11F9
:103730000E940311809113020E949010882351F47B
:103740008CE20E940B1189E00E940B110E94031170
:1037500080E008950E94031181E00895FF920F9385
:103760001F93DF93CF930F92CDB7DEB780910B04F9
:10377000882391F0813009F488C010920D041092D2
:103780000C0410920F0410920E040F90CF91DF9151
:103790001F910F91FF900895809113020E94901045
:1037A00080E00E940B11809113028F5F0E94DD1058
:1037B0000E941D11082F0E941D11F82E0E941D113C
:1037C000182F0E94271189830E940311909156049B
:1037D0008981992339F14F2D552747FD5095542F55
:1037E0004427602F772767FD7095462B572B509302
:1037F0000D0440930C04282F332727FD3095322FDA
:103800002227812F992787FD9095282B392B3093DC
:103810000F0420930E040F90CF91DF911F910F9111
:10382000FF9008954F2D552747FD5095542F44275D
:10383000602F772767FD7095462B572B60911204F8
:1038400070911304461B570B50930D0440930C04C6
:10385000282F332727FD3095322F2227812F9927B4
:1038600087FD9095282B392B809114049091150495
:10387000281B390B30930F0420930E040F90CF9127
:10388000DF911F910F91FF900895809113020E9484
:10389000901082E386CFDF93CF9300D000D0CDB7D6
:1038A000DEB780910B048823C1F0813009F4ADC0EC
:1038B00010920D0410920C0410920F0410920E043A
:1038C000109211041092100426960FB6F894DEBFE1
:1038D0000FBECDBFCF91DF910895809113020E945A
:1038E000901080E00E940B11809113028F5F0E9464
:1038F000DD100E941D1189830E941D118A830E9480
:103900001D118B830E941D118C830E941D118D83BC
:103910000E9427118E830E940311809156048823F0
:1039200089F18A81992787FD9095982F8827298189
:10393000332727FD3095822B932B90930D04809392
:103940000C048C81992787FD9095982F88272B81CF
:10395000332727FD3095822B932B90930F04809370
:103960000E048E81992787FD9095982F88272D81A9
:10397000332727FD3095822B932B9093110480934E
:103980001004A2CF8A81992787FD9095982F8827C8
:103990002981332727FD3095822B932B2091120408
:1039A00030911304821B930B90930D0480930C04AD
:1039B0008C81992787FD9095982F88272B81332715
:1039C00027FD3095822B932B209114043091150400
:1039D000821B930B90930F0480930E048E81992782
:1039E00087FD9095982F88272D81332727FD3095C7
:1039F000822B932B2091160430911704821B930B7A
:103A000090931104809310045FCF809113020E9461
:103A1000901082E367CFCF93DF9310920C02109245
:103A20000D0210920E0280E00E94E21A80910D02B7
:103A30000E94F61A80910E020E940A1B1092250421
:103A40001092240481E080935604C1E0D0E00E94EB
:103A50004B1C2091240430912504213131050CF4B4
:103A600035C180918F0390919003A0919103B09103
:103A7000920354E0B695A795979587955A95D1F7F7
:103A800090937803809377038091930390919403AC
:103A9000A0919503B091960344E0B695A7959795AC
:103AA00087954A95D1F790937A0380937903809113
:103AB000970390919803A0919903B0919A0334E0F1
:103AC000B695A795979587953A95D1F790937C03EE
:103AD00080937B0380919B0390919C03A0919D0315
:103AE000B0919E0324E0B695A795979587952A9562
:103AF000D1F790937E0380937D0380919F039091F3
:103B0000A003A091A103B091A203F4E0B695A795FC
:103B100097958795FA95D1F79093800380937F03CB
:103B20008091A3039091A403A091A503B091A60353
:103B3000E4E0B695A79597958795EA95D1F7909388
:103B40008203809381038091A7039091A803A091A1
:103B5000A903B091AA0374E0B695A79597958795A8
:103B60007A95D1F790938403809383038091AB037C
:103B70009091AC03A091AD03B091AE0364E0B69513
:103B8000A795979587956A95D1F79093860380932B
:103B900085038091B3039091B403A091B503B091D4
:103BA000B60354E0B695A795979587955A95D1F7A2
:103BB0009C018091B7039091B803A091B903B09193
:103BC000BA0344E0B695A795979587954A95D1F79E
:103BD000BC018091BB039091BC03A091BD03B09147
:103BE000BE03F4E0B695A79597958795FA95D1F71A
:103BF000AC018091AF039091B003A091B103B0915B
:103C0000B203E4E0B695A79597958795EA95D1F725
:103C100080509240909388038093870320503240D5
:103C200030938A03209389036050724070938C0311
:103C300060938B034050524050938E0340938D030A
:103C4000809118049091190495958795959587957D
:103C50009595879595958795909313048093120475
:103C600080911A0490911B04959587959595879559
:103C70009595879595958795909315048093140451
:103C800080911C0490911D04959587959595879535
:103C9000959587959595879590931704809316042D
:103CA000109256048FEF80930C0280930D02809344
:103CB0000E020E94E21A80910D020E94F61A809173
:103CC0000E020E940A1BDF91CF9108958091C603D6
:103CD000882309F486C11092C6032115310509F421
:103CE00086C180915F0390916003AA2797FDA095FC
:103CF000BA2F40918F03509190036091910370917E
:103D00009203840F951FA61FB71F80938F03909374
:103D10009003A0939103B0939203809161039091DB
:103D20006203AA2797FDA095BA2F40919303509163
:103D300094036091950370919603840F951FA61FBD
:103D4000B71F8093930390939403A0939503B0932C
:103D500096038091630390916403AA2797FDA09531
:103D6000BA2F4091970350919803609199037091F5
:103D70009A03840F951FA61FB71F809397039093F4
:103D80009803A0939903B0939A038091650390914F
:103D90006603AA2797FDA095BA2F40919B035091E7
:103DA0009C0360919D0370919E03840F951FA61F35
:103DB000B71F80939B0390939C03A0939D03B093A4
:103DC0009E038091670390916803AA2797FDA095B1
:103DD000BA2F40919F035091A0036091A10370916D
:103DE000A203840F951FA61FB71F80939F03909374
:103DF000A003A093A103B093A203809169039091C3
:103E00006A03AA2797FDA095BA2F4091A30350916A
:103E1000A4036091A5037091A603840F951FA61FAC
:103E2000B71F8093A3039093A403A093A503B0931B
:103E3000A60380916B0390916C03AA2797FDA09530
:103E4000BA2F4091A7035091A8036091A9037091E4
:103E5000AA03840F951FA61FB71F8093A7039093F3
:103E6000A803A093A903B093AA0380916D03909136
:103E70006E03AA2797FDA095BA2F4091AB035091EE
:103E8000AC036091AD037091AE03840F951FA61F24
:103E9000B71F8093AB039093AC03A093AD03B09393
:103EA000AE0380916F0390917003AA2797FDA095B0
:103EB000BA2F4091AF035091B0036091B10370915C
:103EC000B203840F951FA61FB71F8093AF03909373
:103ED000B003A093B103B093B203809171039091AA
:103EE0007203AA2797FDA095BA2F4091B303509172
:103EF000B4036091B5037091B603840F951FA61F9C
:103F0000B71F8093B3039093B403A093B503B0930A
:103F1000B6038091730390917403AA2797FDA0952F
:103F2000BA2F4091B7035091B8036091B9037091D3
:103F3000BA03840F951FA61FB71F8093B7039093F2
:103F4000B803A093B903B093BA038091750390911D
:103F50007603AA2797FDA095BA2F4091BB035091F5
:103F6000BC036091BD037091BE03840F951FA61F13
:103F7000B71F8093BB039093BC03A093BD03B09382
:103F8000BE03809118049091190440910C04509143
:103F90000D04840F951F9093190480931804809149
:103FA0001A0490911B0440910E0450910F04840F49
:103FB000951F90931B0480931A0480911C04909188
:103FC0001D044091100450911104840F951F90938B
:103FD0001D0480931C042F5F3F4F309325042093D2
:103FE000240480915604882309F031CD5BCE1092D1
:103FF0008F031092900310929103109292031092EB
:104000007803109277031092930310929403109206
:1040100095031092960310927A03109279031092EE
:104020009703109298031092990310929A0310929A
:104030007C0310927B0310929B0310929C031092BE
:104040009D0310929E0310927E0310927D031092A6
:104050009F031092A0031092A1031092A20310924A
:10406000800310927F031092A3031092A403109276
:10407000A5031092A603109282031092810310925E
:10408000A7031092A8031092A9031092AA031092FA
:104090008403109283031092AB031092AC0310922E
:1040A000AD031092AE031092860310928503109216
:1040B000AF031092B0031092B1031092B2031092AA
:1040C0008803109287031092B3031092B4031092E6
:1040D000B5031092B60310928A03109289031092CE
:1040E000B7031092B8031092B9031092BA0310925A
:1040F0008C0310928B031092BB031092BC0310929E
:10410000BD031092BE0310928E0310928D03109285
:1041100019041092180410921B0410921A041092A1
:104120001D0410921C04D0932504C0932404809194
:10413000560459CFEF92FF920F931F938091100472
:104140009091110497FD5BC08031910508F042C049
:1041500081E08093150290911402981709F442C0EF
:10416000109220048093140260910C0470910D044D
:10417000882777FD8095982F0E9402227B018C0171
:1041800060910E0470910F04882777FD8095982F19
:104190000E9402229B01AC01C801B7010E943A258E
:1041A00021EE3EE245E652E40E9403210E94602295
:1041B0009B0170931F0460931E0477FF06C028596B
:1041C0003E4F30931F0420931E041F910F91FF90C8
:1041D000EF9008951092150280E0909114029817C4
:1041E00009F0BECF909120049F5F909320049530FA
:1041F00008F4B8CF1092200480931602B3CF9095A4
:1042000081959F4FA1CFA0E2B0E0E9E0F1E20C94EC
:10421000982469837A838B839C832D833E834F8389
:10422000588799E0E92EF12CEC0EFD1EB701CE0166
:1042300001960E94E0238E010F5E1F4FB801CE0150
:1042400005960E94E0239985923088F08989823012
:10425000C0F0943019F4823029F009C0843029F478
:10426000923079F467E172E0C6C0923041F420E008
:104270009A858A89981321E02A87B701BCC08230C9
:1042800041F420E09A858A89981321E02A8BB801AD
:10429000B2C0CD84DE84EF84F8880D891E892F8911
:1042A000388D88249924540140E050E060E070E0AB
:1042B000442455243201E0E0F0E0C60181709070A2
:1042C000892BD9F0800E911EA21EB31EDB01CA01FC
:1042D000840D951DA61DB71D40E050E060E070E024
:1042E00080169106A206B30620F441E050E060E09B
:1042F00070E0480F591F6A1F7B1F440C551C661C39
:10430000771C37FF08C081E090E0A0E0B0E0482AC9
:10431000592A6A2A7B2A3196E032F10549F0000FCA
:10432000111F221F331FF694E794D794C794C5CF6B
:104330008B899C892B853C85820F931F02969C8FCD
:104340008B8F1A8E9A858A89981711F081E08A8F4F
:104350002B8D3C8D17C0CA0181709070892B61F044
:10436000B694A7949794879480E090E0A0E0B0E89A
:10437000882A992AAA2ABB2A769567955795479540
:104380002F5F3F4F77FDE7CFC9010BC0440F551F8B
:10439000661F771FB7FC4160880C991CAA1CBB1CC8
:1043A00001974030A0E05A07A0E06A07A0E47A072E
:1043B00068F39C8F8B8FDB01CA018F779070A070A0
:1043C000B07080349105A105B10561F447FD0AC0C4
:1043D00081149104A104B10429F0405C5F4F6F4F38
:1043E0007F4F40784D8F5E8F6F8F78A383E0898FEA
:1043F000BE01675E7F4FCB010E940023E0E1A096E3
:104400000C94B424A8E0B0E0E8E0F2E20C949F241D
:104410009B01AC0183E08983DA01C9018827B7FDDC
:1044200083959927AA27BB27B82E21153105410569
:10443000510519F482E089833AC08823A9F020301D
:1044400080E0380780E0480780E8580729F460E0FA
:1044500070E080E09FEC30C0EE24FF248701E21A78
:10446000F30A040B150B02C079018A018EE1C82EF4
:10447000D12CDC82CB82ED82FE820F831887C801AB
:10448000B7010E94B32201971816190684F4082E6A
:1044900004C0EE0CFF1C001F111F0A94D2F7ED821E
:1044A000FE820F831887C81AD90ADC82CB82BA82AF
:1044B000CE0101960E940023E9E028960C94BB24CB
:1044C000ACE0B0E0E6E6F2E20C94A62469837A83DD
:1044D0008B839C83BE016B5F7F4FCE0101960E9450
:1044E000E0238D818230A9F1823098F1843021F46B
:1044F0008E81882359F40FC02F81388537FD29C05C
:104500006E812F31310564F0662329F020E030E020
:1045100040E050E822C02FEF3FEF4FEF5FE71DC0B4
:104520008EE190E0821B930B29853A854B855C8553
:1045300004C056954795379527958A95D2F76623F7
:1045400061F050954095309521953F4F4F4F5F4F0B
:1045500004C020E030E040E050E0CA01B901E2E0F0
:104560002C960C94C224EF92FF920F931F939B0101
:10457000AC01203080E0380781E0480780E0580730
:1045800080F42F3F31054105510509F020F4EE2458
:10459000FF24870119C068E0E62EF12C012D112DB2
:1045A00013C0203080E0380780E0480781E05807DA
:1045B00030F490E1E92EF12C012D112D05C088E198
:1045C000E82EF12C012D112D80E290E0A0E0B0E06A
:1045D0008E199F09A00BB10B04C0569547953795CE
:1045E0002795EA94D2F7F901E15EFD4F2081821B05
:1045F0009109A109B1091F910F91FF90EF900895C2
:104600009F92AF92BF92CF92DF92EF92FF920F9361
:104610001F93EE24FF248701FC012481358146810C
:10462000578191808081823010F44061A2C0843033
:1046300009F49BC0823029F420E030E040E050E0F3
:1046400005C0211531054105510519F4E0E0F0E000
:1046500092C0828193816FEF823896070CF05AC026
:1046600062E87FEF681B790B6A3171052CF020E05E
:1046700030E040E050E02AC0AA24BB24650181E07C
:1046800090E0A0E0B0E0062E04C0880F991FAA1F9A
:10469000BB1F0A94D2F70197A109B1098223932382
:1046A000A423B5230097A105B10529F071E0A72E39
:1046B000B12CC12CD12C04C0569547953795279520
:1046C0006A95D2F72A293B294C295D29DA01C901CB
:1046D0008F779070A070B07080349105A105B105FE
:1046E00039F427FF09C0205C3F4F4F4F5F4F04C094
:1046F000215C3F4F4F4F5F4F80E090E0203060E003
:10470000360760E0460760E4560710F081E090E06D
:10471000FC0123C08038910544F5FC01E158FF4FAE
:10472000DA01C9018F779070A070B0708034910564
:10473000A105B10539F427FF09C0205C3F4F4F4F59
:104740005F4F04C0215C3F4F4F4F5F4F57FF05C085
:104750005695479537952795319687E05695479515
:10476000379527958A95D1F706C020E030E040E0E4
:1047700050E0EFEFF0E0E22EF32E942F9F77802FA2
:104780008078892B9E2F9795992797958F77082F5B
:10479000092B9E2F9695812F8078892B97949924A9
:1047A00097948F77182F1929C801B7011F910F917E
:1047B000FF90EF90DF90CF90BF90AF909F900895C3
:1047C000CF93DF93FC01DB01208131819281492F5E
:1047D0004F7750E0991F9927991F8381E82FEE0F9B
:1047E000E92B6E2F70E0881F8827881FED018983D1
:1047F000EE2371F5211531054105510511F482E0D3
:104800002FC06E577040FD017383628367E0220FF3
:10481000331F441F551F6A95D1F783E08C930AC05C
:10482000220F331F441F551FED018A819B81019781
:104830009B838A832030E0E03E07E0E04E07E0E41F
:104840005E0770F3ED012C833D834E835F8325C0AB
:10485000EF3F79F4211531054105510519F484E044
:104860008C931BC044FF03C081E08C9311C01C9249
:104870000FC06F577040ED017B836A8383E08C9398
:1048800087E0220F331F441F551F8A95D1F75064CC
:10489000FD012483358346835783DF91CF910895AB
:1048A000629FD001739FF001829FE00DF11D649F14
:1048B000E00DF11D929FF00D839FF00D749FF00DA0
:1048C000659FF00D9927729FB00DE11DF91F639F41
:1048D000B00DE11DF91FBD01CF0111240895AA1BE0
:1048E000BB1B51E107C0AA1FBB1FA617B70710F0DB
:1048F000A61BB70B881F991F5A95A9F7809590950D
:10490000BC01CD01089597FB092E07260AD077FD3B
:1049100004D0E5DF06D000201AF4709561957F4F32
:104920000895F6F7909581959F4F08952F923F92A5
:104930004F925F926F927F928F929F92AF92BF92AF
:10494000CF92DF92EF92FF920F931F93CF93DF935B
:10495000CDB7DEB7CA1BDB0B0FB6F894DEBF0FBEB8
:10496000CDBF19942A88398848885F846E847D84F5
:104970008C849B84AA84B984C884DF80EE80FD8007
:104980000C811B81AA81B981CE0FD11D0FB6F8947D
:10499000DEBF0FBECDBFED010895AF92BF92CF92A3
:1049A000DF92EF92FF920F931F93CF93DF93EC016F
:1049B000688179818A819B816115710581059105E5
:1049C00021F464E279ED8BE597E02DE133EF41E0EE
:1049D00050E00E94512779018A0127EA31E440E042
:1049E00050E00E9450245B016C01C801B7012CEE1D
:1049F00034EF4FEF5FEF0E9450246A0D7B1D8C1D3A
:104A00009D1D97FF04C061507040804090486883AE
:104A100079838A839B837F77CB01DF91CF911F912D
:104A20000F91FF90EF90DF90CF90BF90AF900895DF
:104A30000E94CD2408958FE193E00E94CD24089533
:104A4000A0E0B0E080931F0390932003A093210384
:104A5000B09322030895F5D058F080E891E009F46E
:104A60009EEFF6D028F040E851E059F45EEF09C01F
:104A7000C0C028C1E92FE07803D168F3092E052AC8
:104A8000C1F3261737074807590738F00E2E07F8E5
:104A9000E02569F0E025E0640AC0EF6307F80094C0
:104AA00007FADB01B9019D01DC01CA01AD01EF93F9
:104AB00041D0D5D00AD05F91552331F02BED3FE0A6
:104AC00049E450FD49EC77C10895DF93DD27B92F04
:104AD000BF7740E85FE31616170648075B0710F438
:104AE000D92FF7D09F938F937F936F935AD1EEE492
:104AF000F1E082D0B4D02F913F914F915F91FAD0E5
:104B0000DD2349F09058A2EA2AED3FE049EC5FE34B
:104B1000D0785D2761D1DF91A2C09AD040F091D0CA
:104B200030F021F45F3F19F05EC05111CCC061C07C
:104B3000A7D098F39923C9F35523B1F3951B550BCF
:104B4000BB27AA2762177307840738F09F5F5F4F60
:104B5000220F331F441FAA1FA9F333D00E2E3AF0A1
:104B6000E0E830D091505040E695001CCAF729D0BB
:104B7000FE2F27D0660F771F881FBB1F261737070A
:104B80004807AB07B0E809F0BB0B802DBF01FF273A
:104B900093585F4F2AF09E3F510568F024C093C0A0
:104BA0005F3FECF3983EDCF3869577956795B79574
:104BB000F7959F5FC9F7880F911D9695879597F98F
:104BC0000895E1E0660F771F881FBB1F6217730708
:104BD0008407BA0720F0621B730B840BBA0BEE1F1D
:104BE00088F7E095089597F99F6780E870E060E0A6
:104BF00008959FEF80EC0895DF93CF931F930F9359
:104C0000FF92EF92DF927B018C01689405C0DA2E4F
:104C1000EF0170D0FE01E894A59125913591459161
:104C20005591AEF3EF01D8D0FE019701A801DA94B7
:104C300079F7DF90EF90FF900F911F91CF91DF9167
:104C4000089500240A9416161706180609060895F2
:104C500000240A9412161306140605060895092E58
:104C60000394000C11F4882352F0BB0F40F4BF2BC7
:104C700011F460FF04C06F5F7F4F8F4F9F4F089507
:104C800057FD9058440F551F59F05F3F71F04795FD
:104C9000880F97FB991F61F09F3F79F087950895E2
:104CA000121613061406551FF2CF4695F1DF08C001
:104CB000161617061806991FF1CF8695710561051E
:104CC00008940895E894BB2766277727CB0197F9C6
:104CD00008959B01AC0160E070E080E89FE3CFC0E5
:104CE000B0DF28F0B5DF18F0952309F07CCF81CF35
:104CF0001124E9CFC5DFA0F3959FD1F3950F50E0C4
:104D0000551F629FF001729FBB27F00DB11D639F7D
:104D1000AA27F00DB11DAA1F649F6627B00DA11D23
:104D2000661F829F2227B00DA11D621F739FB00DC9
:104D3000A11D621F839FA00D611D221F749F332739
:104D4000A00D611D231F849F600D211D822F762FD2
:104D50006A2F11249F5750408AF0E1F088234AF0CF
:104D6000EE0FFF1FBB1F661F771F881F915050401B
:104D7000A9F79E3F510570F036CFA5CF5F3FECF30A
:104D8000983EDCF3869577956795B795F795E79507
:104D90009F5FC1F7FE2B880F911D9695879597F918
:104DA00008959B01AC012FCAA8E1B0E042E050E0B9
:104DB0000C9443275058BB27AA270ED050CF41DF71
:104DC00030F046DF20F031F49F3F11F41EF411CF94
:104DD0000EF4E095E7FB07CFE92F52DF80F3BA1717
:104DE000620773078407950718F071F49EF56ACF80
:104DF0000EF4E0950B2EBA2FA02D0B01B9019001F6
:104E00000C01CA01A0011124FF27591B99F0593F39
:104E100050F4503E68F11A16F040A22F232F342F81
:104E20004427585FF3CF469537952795A795F040CF
:104E30005395C9F77EF41F16BA0B620B730B840BE4
:104E4000BAF09150A1F0FF0FBB1F661F771F881F9C
:104E5000C2F70EC0BA0F621F731F841F48F48795F4
:104E600077956795B795F7959E3F08F0B3CF9395E3
:104E7000880F08F09927EE0F97958795089558DECB
:104E8000EECEDC01CB01FC01F999FECF06C0F2BDEC
:104E9000E1BDF89A319600B40D9241505040B8F7F8
:104EA000089597FB092E05260ED057FD04D014D087
:104EB0000AD0001C38F450954095309521953F4F0D
:104EC0004F4F5F4F0895F6F79095809570956195D7
:104ED0007F4F8F4F9F4F0895A1E21A2EAA1BBB1B35
:104EE000FD010DC0AA1FBB1FEE1FFF1FA217B307B6
:104EF000E407F50720F0A21BB30BE40BF50B661FCC
:104F0000771F881F991F1A9469F76095709580958F
:0E4F100090959B01AC01BD01CF010895FFCF2C
:104F1E0002FFFF190019000101010103FFFFFF0548
:104F2E000101013A01010100000000000000000033
:104F3E00010202030303030404040404040404052D
:104F4E000505050505050505050505050505050602
:104F5E0006060606060606060606060606060606E3
:104F6E0006060606060606060606060606060607D2
:104F7E0007070707070707070707070707070707B3
:104F8E0007070707070707070707070707070707A3
:104F9E000707070707070707070707070707070793
:104FAE000707070707070707070707070707070882
:104FBE000808080808080808080808080808080863
:104FCE000808080808080808080808080808080853
:104FDE000808080808080808080808080808080843
:104FEE000808080808080808080808080808080833
:104FFE000808080808080808080808080808080823
:10500E000808080808080808080808080808080812
:10501E000808080808080808080808080808080802
:10502E0008080808080808080808080808080801F9
:04503E00000000006E
:00000001FF
