:100000000C9472000C9491000C9491000C9491004B
:100010000C9491000C9491000C9491000C9491001C
:100020000C9491000C9491000C94420B0C94910050
:100030000C9491000C94320A0C9491000C94910051
:100040000C9491000C9491000C9491000C949100EC
:100050000C9491000C9491000C9491000C949100DC
:100060000C9491000C94CB020C9491000C94910090
:100070000C9491000C94C5000C9491000C94910088
:100080000C948B020C949D020C9491000C94FF0133
:100090000C9491000C9491000C9491000C9491009C
:1000A0000C9491000C9491000C94DB010C94ED01E4
:1000B0000C9491000C9460010C9491000C949100AC
:1000C0000C9491000C9491000C9491000C9491006C
:1000D0000C9491000C9491000C9491000C9491005C
:1000E0000C94910011241FBECFEFD1E2DEBFCDBF33
:1000F00000E00CBF12E0A0E0B2E0ECECF9E102C0DD
:1001000005900D92A638B107D9F713E0A6E8B2E042
:1001100001C01D92AD30B107E1F70E9417050C94A4
:10012000E50C0C9400008FEF81B912B887EF84B909
:1001300085B1806E85B980EF87B91AB888E18DB92D
:1001400010BA13BA88E5809301018FE0809304010F
:100150001092070188E080930A010895EAE7F0E031
:10016000808186608083ACE7B0E08C9180648C9362
:1001700080818062808380818860808380818068C4
:10018000808380818064808308951F920F920FB6D0
:100190000F9211242F933F934F938F939F9320910E
:1001A00078004091790080918B028130C1F430E079
:1001B000942F80E0282B392B8091E7029091E80260
:1001C000820F931F9093E8028093E7028091DF02F1
:1001D0009091E00201969093E0028093DF029F915C
:1001E0008F914F913F912F910F900FBE0F901F90C5
:1001F0001895E0E8F0E08081896A8083E1E8F0E02A
:1002000080818960808380917A0290E09093890058
:100210008093880080917B0290E090938B00809384
:100220008A0080917C0290E090938D0080938C00F6
:10023000E0E9F0E08081836880838081836080834F
:10024000A1E9B0E08C918B608C938091EB0290914E
:10025000EC02909399008093980010929B0010926A
:100260009A00A1E7B0E08C9181608C9380818F75BA
:1002700080838EB1877E8EB9E0EAF0E0808183686A
:100280008083A1EAB0E08C918B608C938091EF0227
:100290009091F0029093A9008093A8001092AB0077
:1002A0001092AA00A2E7B0E08C9181608C938081CB
:1002B0008F758083E2E0F1E08081877E80830895FE
:1002C0001F920F920FB60F9211248F939F93AF93AB
:1002D000BF9310928C028091D1029091D2029093A0
:1002E000D6028093D5021092D2021092D102809150
:1002F000EF029091F002A091F102B091F20200970A
:10030000A105B10599F48FE0809389028091A00046
:100310008F758093A00080910201877E80930201F7
:1003200080917200897F809372001CC01816190694
:100330001A061B06DCF48FE0809389028091A000EE
:100340008F7D8093A000809172008B7F80937200DC
:10035000809102018F7E809302018091A0008068CD
:100360008093A0008091720082601AC08EE080931A
:1003700089028091A0008F778093A0008091720005
:100380008D7F8093720080910201877F80930201AC
:100390008091A00080628093A000809172008460B0
:1003A00080937200BF91AF919F918F910F900FBE7C
:1003B0000F901F9018951F920F920FB60F92112455
:1003C0008F9381E080938C028EE0809389028F91DD
:1003D0000F900FBE0F901F9018951F920F920FB69F
:1003E0000F9211248F9381E080938C028FE0809391
:1003F00089028F910F900FBE0F901F9018951F923A
:100400000F920FB60F9211248F939F93AF93BF93C8
:1004100010928B028091D3029091D4029093D802D3
:100420008093D7021092D4021092D3028091E702F7
:100430009091E8029093EA028093E9028091DF02B2
:100440009091E0029093E2028093E1021092E80220
:100450001092E7021092E0021092DF0281E0809396
:10046000F3028091EB029091EC02A091ED02B09129
:10047000EE020097A105B10589F48DE080938A0210
:10048000809190008F75809390008EB1877E8EB999
:1004900080917100897F8093710018C01816190629
:1004A0001A061B06BCF48DE080938A0280919000AE
:1004B0008F7D80939000809171008B7F809371007D
:1004C0007498809190008068809390008091710072
:1004D000826016C08CE080938A02809190008F77B2
:1004E00080939000809171008D7F8093710073984C
:1004F0008091900080628093900080917100846070
:1005000080937100BF91AF919F918F910F900FBE1B
:100510000F901F9018951F920F920FB60F921124F3
:100520008F9381E080938B028CE080938A028F917D
:100530000F900FBE0F901F9018951F920F920FB63D
:100540000F9211248F9381E080938B028DE0809332
:100550008A028F910F900FBE0F901F9018951092E6
:10056000C50083E38093C400E0ECF0E080818D7FE0
:100570008083E1ECF0E0808188698083E2ECF0E048
:1005800080818660808308959091C00095FFFCCFA4
:100590008093C60008951F920F920FB60F921124F8
:1005A0002F938F939F93AF93BF938091C6009091A9
:1005B0007902992351F18233C9F0833330F48033C7
:1005C00061F0813309F0C2C10BC0843399F08433E8
:1005D00078F0853309F0BAC10FC01092780203C0D9
:1005E00081E08093780210927902B0C182E0F9CF65
:1005F00083E0F7CF84E0F5CF85E080937802109216
:10060000790281E08093F302A1C190917802923047
:1006100009F474C0933030F4992371F0913009F0EB
:1006200095C13AC0943009F412C1943008F496C0D0
:10063000953009F08BC183C18D3291F48091800097
:1006400080688093800080917A0290E00A968F3FC4
:10065000910519F014F08FEF90E080937A0216C0A4
:100660008B3209F070C180917A0290E00A9797FF6F
:1006700002C080E090E080937A02882339F4809170
:1006800080008F77809380002D9860C190E09093D8
:100690008900809388005AC18D3291F48091800046
:1006A00080628093800080917B0290E00A968F3F69
:1006B000910519F014F08FEF90E080937B0215C044
:1006C0008B32C9F480917B0290E00A9797FF02C0B9
:1006D00080E090E080937B02882339F48091800051
:1006E0008F7D809380002E9831C190E090938B0095
:1006F00080938A002BC19093790228C18D3291F4A6
:100700008091800088608093800080917C0290E0DE
:100710000A968F3F910519F014F08FEF90E08093C7
:100720007C0216C08B3209F00EC180917C0290E0F1
:100730000A9797FF02C080E090E080937C028823B4
:1007400039F480918000877F809380002F98FEC0CD
:1007500090E090938D0080938C00F8C08B3209F567
:100760008091EB029091EC02A091ED02B091EE022B
:100770008C599F4FAF4FBF4F8093EB029093EC0289
:10078000A093ED02B093EE02803024E0920720E0C7
:10079000A20720E0B20784F18FEF93E0A0E0B0E081
:1007A00023C08D3209F03FC08091EB029091EC02A2
:1007B000A091ED02B091EE0284569040A040B0406E
:1007C0008093EB029093EC02A093ED02B093EE02C3
:1007D00081302CEF92072FEFA2072FEFB20764F4BE
:1007E00081E09CEFAFEFBFEF8093EB029093EC02C0
:1007F000A093ED02B093EE028091EB029091EC0297
:10080000A091ED02B091EE02B7FD05C09093990062
:10081000809398009BC0909581959F4F90939B00EB
:1008200080939A0093C0833709F08DC01092EB0239
:100830001092EC021092ED021092EE0210929900CA
:100840001092980010929B0010929A007FC08B32F9
:1008500009F58091EF029091F002A091F102B09120
:10086000F2028C599F4FAF4FBF4F8093EF0290938E
:10087000F002A093F102B093F202803024E09207DC
:1008800020E0A20720E0B20784F18FEF93E0A0E020
:10089000B0E023C08D3209F03FC08091EF0290910B
:1008A000F002A091F102B091F20284569040A04073
:1008B000B0408093EF029093F002A093F102B093C6
:1008C000F20281302CEF92072FEFA2072FEFB20731
:1008D00064F481E09CEFAFEFBFEF8093EF02909361
:1008E000F002A093F102B093F2028091EF02909196
:1008F000F002A091F102B091F202B7FD05C0909311
:10090000A9008093A80022C0909581959F4F909355
:10091000AB008093AA001AC08337A9F41092EF02AB
:100920001092F0021092F1021092F2021092A900BD
:100930001092A8001092AB001092AA0007C0833753
:1009400029F41092F30281E080937902BF91AF9174
:100950009F918F912F910F900FBE0F901F90189520
:100960000895F8940E9493000E94AE000E94F9003E
:100970000E9419080E942C090E94AF0278940895E1
:1009800081E09091F402891B8093F402882361F046
:10099000809180008860809380008FEF90E090933A
:1009A0008D0080938C00089580918000877F8093D4
:1009B00080002F980895882339F4809180008F77E4
:1009C000809380002D980895909180009068909376
:1009D000800090E090938900809388000895882398
:1009E00039F4809180008F7D809380002E98089547
:1009F0009091800090629093800090E090938B00A3
:100A000080938A000895882339F480918000877F3D
:100A1000809380002F980895909180009860909323
:100A2000800090E090938D0080938C0008958F92C9
:100A30009F92AF92BF92DF92EF92FF920F931F931C
:100A4000CF93DF9381E080937902109287020E9416
:100A5000B1048CE0809386020E9455090E94370BF6
:100A600080918602883050F480917B00877F80934C
:100A70007B0090917C00809186020AC080917B006F
:100A8000886080937B0090917C00809186028850E2
:100A9000892B80937C0091E0E92E9CEFF92E9FEF4B
:100AA000092F9FEF192F8FEF882E83E0982EA12C0E
:100AB000B12CC5E0D0E0DD24DA940E94880B80934D
:100AC000F5029091FE02992309F475C21092FE027C
:100AD000843009F433C1853060F4813009F496C163
:100AE000813008F405C2823039F1833009F037C211
:100AF00067C1873009F4D6C1883030F4853059F0A9
:100B0000863009F02CC2D8C0883009F475C089300D
:100B100009F025C2A1C11092EB021092EC021092D2
:100B2000ED021092EE021092EF021092F00210927B
:100B3000F1021092F20213C22091EB023091EC020A
:100B40004091ED025091EE028091EF029091F002FF
:100B5000A091F102B091F20282179307A407B507A2
:100B60004CF42093EF023093F0024093F102509343
:100B7000F20208C08093EB029093EC02A093ED0286
:100B8000B093EE022091EB023091EC024091ED0225
:100B90005091EE022C593F4F4F4F5F4F2093EB0285
:100BA0003093EC024093ED025093EE028091EF02FD
:100BB0009091F002A091F102B091F2028C599F4FF6
:100BC000AF4FBF4F8093EF029093F002A093F102DA
:100BD000B093F202203064E0360760E0460760E040
:100BE00056070CF4A1C08092EB029092EC02A09206
:100BF000ED02B092EE0298C02091EB023091EC022F
:100C00004091ED025091EE028091EF029091F0023E
:100C1000A091F102B091F202281739074A075B0749
:100C20004CF42093EF023093F0024093F102509382
:100C3000F20208C08093EB029093EC02A093ED02C5
:100C4000B093EE022091EB023091EC024091ED0264
:100C50005091EE0224563040404050402093EB0229
:100C60003093EC024093ED025093EE028091EF023C
:100C70009091F002A091F102B091F202845690405E
:100C8000A040B0408093EF029093F002A093F10255
:100C9000B093F20221306CEF36076FEF46076FEF2B
:100CA00056070CF083C0E092EB02F092EC02009346
:100CB000ED021093EE027AC02091EB023091EC022B
:100CC0004091ED025091EE02245630404040504099
:100CD0002093EB023093EC024093ED025093EE022E
:100CE0008091EF029091F002A091F102B091F20296
:100CF0008C599F4FAF4FBF4F8093EF029093F002FC
:100D0000A093F102B093F20221306CEF36076FEF3F
:100D100046076FEF560744F4E092EB02F092EC02C4
:100D20000093ED021093EE02803024E0920720E061
:100D3000A20720E0B2070CF412C15FC02091EB02C1
:100D40003091EC024091ED025091EE022C593F4F50
:100D50004F4F5F4F2093EB023093EC024093ED0234
:100D60005093EE028091EF029091F002A091F10277
:100D7000B091F20284569040A040B0408093EF02C0
:100D80009093F002A093F102B093F202203064E05D
:100D9000360760E0460760E0560744F08092EB02B9
:100DA0009092EC02A092ED02B092EE0281302CEF14
:100DB00092072FEFA2072FEFB2070CF0D0C069C047
:100DC0008091EF029091F002A091F102B091F202B5
:100DD0008C599F4FAF4FBF4F8093EF029093F0021B
:100DE000A093F102B093F202803064E0960760E0D5
:100DF000A60760E0B6070CF4B2C08092EF029092B2
:100E0000F002A092F102B092F202A9C08091EB022E
:100E10009091EC02A091ED02B091EE028C599F4F9F
:100E2000AF4FBF4F8093EB029093EC02A093ED0283
:100E3000B093EE02803024E0920720E0A20720E089
:100E4000B2070CF48CC08092EB029092EC02A0925C
:100E5000ED02B092EE0283C08091EF029091F00219
:100E6000A091F102B091F20284569040A040B040AF
:100E70008093EF029093F002A093F102B093F202FC
:100E800081306CEF96076FEFA6076FEFB6070CF097
:100E900066C0E092EF02F092F0020093F10210932C
:100EA000F2025DC08091EB029091EC02A091ED0204
:100EB000B091EE0284569040A040B0408093EB0287
:100EC0009093EC02A093ED02B093EE0281302CEFF0
:100ED00092072FEFA2072FEFB2070CF040C0E0926D
:100EE000EB02F092EC020093ED021093EE0237C099
:100EF0008091F60290E00196BE010E949F0B8093C4
:100F0000F602882319F410927C0219C0813029F46A
:100F1000D0927C0210927B0214C0823029F4D092CD
:100F20007C02D0927B0206C0833039F410927C029E
:100F300010927B0210927A0206C0D0927C02D0926C
:100F40007B02D0927A0280917A020E94DB04809127
:100F50007B020E94EF0480917C020E940305809135
:100F6000EB029091EC02A091ED02B091EE02B7FD80
:100F700005C0909399008093980007C09095819543
:100F80009F4F90939B0080939A008091EF029091E5
:100F9000F002A091F102B091F202B7FD05C090936A
:100FA000A9008093A80007C0909581959F4F9093CA
:100FB000AB008093AA008091F302882359F110922C
:100FC000F3026091E1027091E2028091E902909156
:100FD000EA020E948B0B7093EA026093E9028AEAAC
:100FE0000E94C4028AEA0E94C4028091E9020E941F
:100FF000C4028091EA020E94C4028091E1029091B1
:10100000E2020E94C4028091E1029091E202892FE3
:101010000E94C4020E94A008882309F04ECD60E718
:101020000E945F0882E093E00E9473080E945908C2
:1010300044CD84B1807F84B984B1876084B980E570
:101040008CBD8DB581608DBD0895262F372FF90198
:10105000282F392FD90180E008C09D919EBD0DB485
:1010600007FEFDCF9EB591938F5F8417B0F308956F
:10107000282F392FF90180E006C091919EBD0DB453
:1010800007FEFDCF8F5F8617C0F308958EBD0DB4A8
:1010900007FEFDCF8EB5089580910803882339F4AB
:1010A00028988FEF0E944608289A8074089580E05F
:1010B0000895289882EE0E944608289A0895DF93A2
:1010C000CF930F92CDB7DEB728988F718062698376
:1010D0000E9446086981862F0E944608289A0F9030
:1010E000CF91DF910895CF93DF93EC01289881E6AB
:1010F0000E944608CE01BE0146E00E942508289ABB
:1011000087E060E40E945F08DF91CF9108950F931C
:101110001F93DF93CF930F92CDB7DEB78B01289843
:101120008F7149830E944608C801B80149810E9415
:101130002508289A0F90CF91DF911F910F91089564
:10114000DF93CF930F92CDB7DEB7198287E1BE014F
:101150006F5F7F4F41E00E948708898181700F9007
:10116000CF91DF9108950F931F93DF93CF930F9249
:10117000CDB7DEB78B0128988F71806249830E94BA
:101180004608C8014981642F0E943808289A0F90A8
:10119000CF91DF911F910F910895BC0180E145E04F
:1011A0000E94B3080895BC012C988AE045E00E9493
:1011B000B3082C9A08950F931F93DF93CF9300D019
:1011C000CDB7DEB780E06DE00E945F0883E061E0AC
:1011D0000E945F088BE089838CEC8A831B8280E10C
:1011E0008E010F5F1F4FB80143E00E94B3088AE0F1
:1011F000B80143E00E94B30881E061E00E945F080B
:1012000082E061E00E945F0884E062E10E945F0882
:1012100085E068E20E945F0881E166E00E945F0865
:10122000289880E50E94460883E70E944608289A8D
:101230008CE161E00E945F088DE166E00E945F083A
:1012400080E06FE00E945F080F900F900F90CF91A9
:10125000DF911F910F9108952C9A289A0E94DB0824
:1012600008951F93CF93DF93EC01162F809108030D
:101270008823E1F72C9881E08093080380E06AE4FA
:101280000E945F08289881EE0E944608289A2898B4
:1012900080EA0E944608CE01612F0E943808289AF1
:1012A0002C9ADF91CF911F910895E0EBF0E08081BF
:1012B00082608083E1EBF0E080818260808384E65D
:1012C0008093B300E0E7F0E080818260808308953E
:1012D000E1EBF0E080818D7F80830895EF92FF92B3
:1012E0000F931F93CF93DF93EC018B01E090F802F3
:1012F000F090F902EE2DFF2D08C0858196818C17A4
:101300009D07F1F00780F085E02D3097B1F789E077
:1013100090E00E94B20BFC01009721F481E090E084
:101320000E94E50C118300831382128281E0848382
:10133000D683C583E782F086F093F902E093F80242
:1013400081E090E0DF91CF911F910F91FF90EF909E
:101350000895E091F802F091F902A0E0B0E01DC01C
:10136000258136812817390799F487819085109750
:1013700029F018969C938E93179704C09093F902C6
:101380008093F802CF010E944C0C21E030E009C0AC
:10139000DF0137812085E32FF22F309709F722E014
:1013A00030E0C9010895E091F802F091F9020DC012
:1013B000258136812817390729F47183608321E05C
:1013C00030E007C00780F085E02D309789F722E0F4
:1013D00030E0C9010895E091F802F091F9020DC0E2
:1013E000258136812817390729F41382128221E0DA
:1013F00030E007C00780F085E02D309789F722E0C4
:1014000030E0C9010895E091F802F091F9020CC0B2
:10141000258136812817390721F4148221E030E034
:1014200007C00780F085E02D309791F722E030E08B
:10143000C9010895E091F802F091F9020DC02581EB
:1014400036812817390729F481E0848321E030E0D0
:1014500007C00780F085E02D309789F722E030E063
:10146000C90108951F920F920FB60F920BB60F92FB
:1014700011242F933F934F935F936F937F938F9399
:101480009F93AF93BF93CF93DF93EF93FF93C0915D
:10149000F802D091F9021AC08C818130A1F4288120
:1014A00039812115310579F08A819B8101969B83D1
:1014B0008A83215030402817390728F4ED81FE81B6
:1014C00019951B821A820F80D885C02D209721F78D
:1014D000FF91EF91DF91CF91BF91AF919F918F914C
:1014E0007F916F915F914F913F912F910F900BBE24
:1014F0000F900FBE0F901F901895CF93DF93C09160
:101500007E02D0917F022FEFCF3FD20741F580912D
:10151000030186FF13C08091680082608093680099
:1015200080916C00806880936C008DE79AE00E9447
:10153000A909D0937F02C0937E0289C08DE79AE00B
:1015400066E070E00E94D3091092FF02109200033F
:101550001092010310927F0210927E0278C0C13077
:10156000D10599F48091030190E08074907046E079
:10157000959587954A95E1F7809301038DE79AE069
:1015800062E170E00E94D30962C0CE01029785300B
:101590009105C8F48091030190E08074907036E06A
:1015A000969587953A95E1F726E030E02C1B3D0BA8
:1015B00002C0880F991F2A95E2F720910003280F97
:1015C0002093000344C0CE01079786309105C8F4EC
:1015D0008091030190E08074907026E09695879545
:1015E0002A95E1F72CE030E02C1B3D0B02C0880F60
:1015F000991F2A95E2F72091FF02280F2093FF02FE
:1016000026C0CD30D10519F58091680082608093A5
:10161000680080916C00806880936C008DE79AE090
:101620000E94A9098FEF9FEF90937F0280937E0223
:101630008091010380937D02809100038093FA02E0
:101640008091FF028093FB0281E08093FE028091F3
:101650007E0290917F022FEF8F3F920729F0019633
:1016600090937F0280937E02DF91CF910895E8E608
:10167000F0E0808182608083ECE6F0E08081806829
:10168000808308951F920F920FB60F920BB60F92A0
:1016900011242F933F934F935F936F937F938F9377
:1016A0009F93AF93BF93EF93FF938091030186FDC8
:1016B00016C0809168008D7F8093680080916C00D7
:1016C0008F7780936C008DE79AE064E170E00E9470
:1016D0006E091092FF021092000310920103FF9115
:1016E000EF91BF91AF919F918F917F916F915F919A
:1016F0004F913F912F910F900BBE0F900FBE0F9007
:101700001F90189580917D0208958091FA020895A6
:101710008091FB020895AA1BBB1B51E107C0AA1FC1
:10172000BB1FA617B70710F0A61BB70B881F991F82
:101730005A95A9F780959095BC01CD01089597FB26
:10174000092E07260AD077FD04D0E5DF06D0002059
:101750001AF4709561957F4F0895F6F790958195ED
:101760009F4F0895CF93DF938230910510F482E06C
:1017700090E0E0910B03F0910C0340E050E020E09A
:1017800030E026C06081718168177907E0F0681742
:10179000790781F4828193812115310531F0D901D6
:1017A00013969C938E9312972BC090930C03809367
:1017B0000B0326C04115510519F06417750718F47D
:1017C000AB01E901DF019F0172816381E72FF62FF1
:1017D0003097C1F64115510501F1481B590B4430B2
:1017E000510580F412968D919C911397209719F0D2
:1017F0009B838A8304C090930C0380930B03FD01A9
:10180000329646C0FD01E40FF51F8193919342503B
:10181000504011965C934E933BC020910903309148
:101820000A032115310541F420918202309183028F
:1018300030930A032093090320918402309185029A
:101840002115310541F42DB73EB7409180025091EA
:101850008102241B350BE0910903F0910A03E21782
:10186000F307A0F42E1B3F0B2817390778F0AC01C3
:101870004E5F5F4F2417350748F04E0F5F1F5093A0
:101880000A03409309038193919302C0E0E0F0E0E2
:10189000CF01DF91CF910895CF93DF93009709F4A3
:1018A00091C0FC0132971382128260910B037091F8
:1018B0000C036115710581F420813181280F391FD6
:1018C0008091090390910A038217930799F5F09389
:1018D0000A03E093090376C0DB0180E090E002C0D8
:1018E000CD01D901AE17BF0748F412962D913C9156
:1018F000139721153105A1F7CD0121C0B383A28330
:10190000EF01499159919E01240F351FA217B3078A
:1019100079F42D913C911197240F351F2E5F3F4F85
:101920003183208312962D913C9113973383228328
:10193000009729F4F0930C03E0930B0343C0DC0100
:101940001396FC93EE9312974D915D91A40FB51FE2
:10195000EA17FB0769F420813181240F351F2E5FC0
:101960003F4FEC0139832883228133813B832A83D3
:10197000E0E0F0E002C0FB01BC01DB0112968D91BA
:101980009C9113970097B9F79B012E5F3F4F8D9164
:101990009C911197820F931F4091090350910A0364
:1019A0004817590779F4309729F410920C031092D4
:1019B0000B0302C0138212822250304030930A037C
:0C19C00020930903DF91CF910895FFCF21
:1019CC00000C0E0D0F000C0E0D0F010C0E0D0F0167
:1019DC000C0E0D0F020C0E0D0F020C0E0D0F030C46
:1019EC000E0D0F030C0E0D0F040C0E0D0F040C0E30
:1019FC000D0F050C0E0D0F050C0E0D0F060C0E0D1C
:101A0C000F060C0E0D0F070C0E0D0F070C0E0D0F05
:101A1C00080C0E0D0F080C0E0D0F090C0E0D0F09F6
:101A2C000C0E0D0F0A0C0E0D0F0A0C0E0D0F0B0CDD
:101A3C000E0D0F0B0C0E0D0F0501FFFFFF02FFFF2C
:061A4C0020000D03000064
:00000001FF
