:100000000C94BE000C94DD000C94DD000C94DD001B
:100010000C94DD000C94DD000C94DD000C94DD00EC
:100020000C94DD000C94DD000C9456190C94DD004A
:100030000C94DD000C9493190C94DD000C940A02CE
:100040000C94DD000C94DD000C94DD000C94DD00BC
:100050000C94DD000C94DD000C94DD000C94DD00AC
:100060000C94DD000C944F200C94DD000C94DD000A
:100070000C94DD000C9492020C94DD000C94DD00D5
:100080000C94AF050C94C5050C94DD000C943C0554
:100090000C94DD000C94DD000C94DD000C94DD006C
:1000A0000C94DD000C94DD000C9410050C942605D6
:1000B0000C94DD000C9493040C94DD000C94DD0092
:1000C0000C94DD000C94DD000C94DD000C94DD003C
:1000D0000C94DD000C94DD000C94DD000C94DD002C
:1000E0000C94DD00A9158D1559154015131506152D
:1000F000DD14B8148B147114C510C510C510C510CB
:10010000C510C51066145B14C510C510C510C51008
:10011000C510C510C510C510C510C510C510C51037
:100120008B14591558144614C510C510C510C510A8
:10013000C510C510C510C510C510C510C510C51017
:100140001315DD14C510C510A91506153414084A79
:10015000D73B3BCE016E84BCBFFDC12F3D6C7431DB
:100160009ABD56833DDA3D00C77F11BED9E4BB4C32
:100170003E916BAAAABE000000803F0011241FBE62
:10018000CFEFD1E2DEBFCDBF00E00CBF13E0A0E0B7
:10019000B2E0E6E9F3E502C005900D92A832B1079E
:1001A000D9F714E0A8E2B3E001C01D92A735B1076A
:1001B000E1F70E94370A0C94CA290C940000222708
:1001C0003327281B390BC9010895F8940E945C1F3E
:1001D00080917A00866080937A0080917C008064B0
:1001E00080937C0080917A00806280937A00809175
:1001F0007B00887F80937B0080917A008860809369
:100200007A0080917A00806880937A0080917A00E9
:10021000806480937A00809190008368809390003E
:1002200080919000836080939000809191008B601A
:10023000809391008091DE039091DF039093990069
:100240008093980010929B0010929A008091710008
:10025000816080937100809190008F7580939000F1
:100260008EB1877E8EB98091A00083688093A000B4
:100270008091A1008B608093A1008091E003909118
:10028000E1039093A9008093A8001092AB00109214
:10029000AA00809172008160809372008091A0001A
:1002A0008F758093A00080910201877E8093020168
:1002B0000E9480170E9436180E942C200E94831FE3
:1002C000809119020E948B1F882361F486E10E94AD
:1002D000062085E40E9406200E94FE1F0E94461907
:1002E000789408950E94FE1F86EA90E090931A0287
:1002F0008093190286EA0E948B1F882341F58DE2C4
:100300000E94062088E00E9406200E94FE1F809125
:1003100019020E948B1F8823D1F481E30E940620DA
:1003200080E00E9406200E94FE1F809119020E9418
:100330008B1F882361F48CE20E94062089E00E94D2
:1003400006200E94FE1F81E080930504C7CF0E9413
:10035000FE1F82E0809305040E9446197894089558
:10036000809168008D7F8093680080916C008F770A
:1003700080936C0010927A0010929000109291007D
:10038000109271001092A0001092A10010927200C1
:1003900010928000109281000E9441200E948C17D0
:1003A0000E947E1F0E945C1F47981BB881E08093CB
:1003B00070008091B0008D7F8093B0008091B1007B
:1003C00087608093B10083B7856083BF88E097E042
:1003D00088950197E9F713BE8091B100887F8093DB
:1003E000B100109270008091B00082608093B000E4
:1003F0008FEF809312028093130280931402109265
:10040000DF031092DE031092E1031092E0030E94DA
:10041000E50008951F920F920FB60F9211240F90CE
:100420000FBE0F901F901895CF93DF939EE1899F89
:10043000E0011124809168008D7F80936800809195
:100440006C008F7780936C0010927A00109290006D
:1004500010929100109271001092A0001092A100D1
:100460001092720010928000109281000E94412030
:100470000E948C170E947E1F0E945C1F47981BB829
:1004800081E0809370008091B0008D7F8093B000F8
:100490008091B10087608093B10083B7856083BF8E
:1004A000209719F088952197E9F713BE8091B10044
:1004B000887F8093B100109270008091B0008260BC
:1004C0008093B0008FEF8093120280931302809389
:1004D00014021092DF031092DE031092E1031092D7
:1004E000E0030E94E500DF91CF910895EAE7F0E094
:1004F000808186608083ACE7B0E08C9180648C93CF
:10050000808180628083ABE7B0E08C91887F8C93A0
:10051000808188608083808180688083808180641E
:10052000808308951F920F920FB60F920BB60F9211
:1005300011242F933F934F938F939F93EF93FF93A8
:100540008091220490912304019690932304809338
:1005500022042091780030E040917900942F80E0CF
:10056000282B392B80919303823009F41AC18330F0
:1005700008F444C0833009F407C1843009F4D1C0C1
:1005800080919403823009F4B8C0833008F052C0DF
:10059000882309F08DC080912E03869580932D03CA
:1005A00080919503882309F03AC181E080939303F9
:1005B00081E08093940390912D03983008F06DC0F2
:1005C00090917B00977F90937B0090912D03905C9E
:1005D00090937C00823021F48FEF8093050112B854
:1005E000FF91EF919F918F914F913F912F910F909C
:1005F0000BBE0F900FBE0F901F901895882309F027
:1006000068C080912E038E3009F41BC1E82FF0E002
:10061000EE0FFF1FED5CFC4F318320838F5F8093D3
:100620002E03883108F4ACCF10922E0381E0809322
:100630009C03A6CF833009F493C0843009F0BBCF6C
:100640009091300390932D039091310390939503F3
:1006500090919603992309F0DCC083E08093930383
:100660001092940320912E032E3009F4E4C0822FBF
:1006700090E020FFC5C0203108F0B2C02E3009F450
:10068000FEC0269581E090E002C0880F991F2A9550
:10069000E2F782B9809194038ECF90917B009860AD
:1006A00090937B0090912D03985C90937C0092CF67
:1006B000813009F080CF80912F0380932D038091AA
:1006C0003203809396031092930382E08093940305
:1006D00072CF813009F054CF8091D0039091D10333
:1006E000820F931F969587959093D1038093D003A3
:1006F00080919403823009F048CF80913003809339
:100700002D03809131038093950380919603882374
:1007100009F08BC083E08093930383E0809394037C
:100720004ACF80911002882309F42ACF482F4F5FC7
:1007300040931002453008F423CF8091D603909166
:10074000D703820F931F9093D7038093D6034C3027
:1007500009F016CF1092100281E08093F20310CFBF
:1007600080912F0380932D03809132038093960311
:1007700080919503882309F046C081E0809393031C
:1007800084E08093940317CF8091CE039091CF03A0
:10079000820F931F969587959093CF038093CE03F6
:1007A000EFCE80910F02882309F4EACE482F4F5FE5
:1007B00040930F02453008F4E3CE8091D803909126
:1007C000D903820F931F9093D9038093D8034C30A1
:1007D00009F0D6CE10920F0281E08093F303D0CEC1
:1007E0004091050140979595879521E030E002C042
:1007F000220F331F8A95E2F72095242320930501C9
:1008000080919403D8CE813069F185E08093930381
:10081000B7CF913009F085E08093930321CF8130E9
:10082000E9F085E080939303C3CE8130F9F085E051
:100830008093930372CF809199038130D9F080E047
:10084000BACE90919903923009F0E0CE309398039C
:1008500020939703109299034698E0CE82E080930C
:100860009303A6CE82E0809393038ACF84E08093A3
:10087000930353CF82E080939903469AF8CE8091F8
:100880009903813009F0FDCE82E080939903469A66
:100890008091940390CEE0E9F0E0808183688083CA
:1008A000808183608083A1E9B0E08C918B608C9320
:1008B0008091DE039091DF039093990080939800DC
:1008C00010929B0010929A00A1E7B0E08C91816099
:1008D0008C9380818F7580838EB1877E8EB9E0EA9C
:1008E000F0E0808183688083A1EAB0E08C918B6026
:1008F0008C938091E0039091E1039093A900809301
:10090000A8001092AB001092AA00A2E7B0E08C9170
:1009100081608C9380818F758083E2E0F1E080813B
:10092000877E808308951F920F920FB60F92112435
:100930008F939F938091E0039091E103009749F199
:10094000181619060CF04DC0109232038FE08093F8
:100950002F038091A0008F7D8093A0008091720072
:100960008B7F80937200809102018F7E80930201C1
:100970008091A00080688093A000809172008260C6
:10098000809372009F918F910F900FBE0F901F90D8
:1009900018951092D7031092D6031092DB03109291
:1009A000DA031092CF031092CE0382E080933203D9
:1009B00081E08093F2038091A0008F758093A00066
:1009C00080910201877E8093020180917200897F6D
:1009D000809372009F918F910F900FBE0F901F9088
:1009E0001895109232038EE080932F038091A0001F
:1009F0008F778093A000809172008D7F809372002A
:100A000080910201877F809302018091A000806223
:100A10008093A00080917200846080937200B2CFB6
:100A20001F920F920FB60F9211248F939F9381E024
:100A3000809332039EE090932F03809310029F9146
:100A40008F910F900FBE0F901F9018951F920F92CD
:100A50000FB60F9211248F939F9381E080933203FE
:100A60009FE090932F03809310029F918F910F909E
:100A70000FBE0F901F9018951F920F920FB60F92F6
:100A800011248F939F938091DE039091DF03009751
:100A900029F1181619060CF047C0109231038DE0A9
:100AA00080933003809190008F7D8093900080919F
:100AB00071008B7F809371007498809190008068A2
:100AC00080939000809171008260809371009F916B
:100AD0008F910F900FBE0F901F9018951092D90311
:100AE0001092D8031092DD031092DC031092D10310
:100AF0001092D00382E08093310381E08093F3036E
:100B0000809190008F75809390008EB1877E8EB912
:100B100080917100897F809371009F918F910F90D8
:100B20000FBE0F901F901895109231038CE08093A8
:100B30003003809190008F778093900080917100B6
:100B40008D7F809371007398809190008062809374
:100B5000900080917100846080937100B8CF1F92E3
:100B60000F920FB60F9211248F939F9381E0809381
:100B700031039CE09093300380930F029F918F91FB
:100B80000F900FBE0F901F9018951F920F920FB6E7
:100B90000F9211248F939F9381E0809331039DE006
:100BA0009093300380930F029F918F910F900FBE0F
:100BB0000F901F901895DF93CF9300D000D0CDB742
:100BC000DEB7809105048823C1F0813009F4ADC0FF
:100BD000109207041092060410920904109208045F
:100BE00010920B0410920A0426960FB6F894DEBFFA
:100BF0000FBECDBFCF91DF910895809119020E9461
:100C00008B1F80E00E940620809119028F5F0E9456
:100C1000D81F0E94182089830E9418208A830E946E
:100C200018208B830E9418208C830E9418208D83AB
:100C30000E9422208E830E94FE1F8091250488231B
:100C400089F18A81992787FD9095982F8827298196
:100C5000332727FD3095822B932B909307048093A5
:100C600006048C81992787FD9095982F88272B81E2
:100C7000332727FD3095822B932B90930904809383
:100C800008048E81992787FD9095982F88272D81BC
:100C9000332727FD3095822B932B90930B04809361
:100CA0000A04A2CF8A81992787FD9095982F8827DB
:100CB0002981332727FD3095822B932B2091120415
:100CC00030911304821B930B9093070480930604C6
:100CD0008C81992787FD9095982F88272B81332722
:100CE00027FD3095822B932B20911404309115040D
:100CF000821B930B90930904809308048E8199279B
:100D000087FD9095982F88272D81332727FD3095D3
:100D1000822B932B2091160430911704821B930B86
:100D200090930B0480930A045FCF809119020E9474
:100D30008B1F82E367CFFF920F931F93DF93CF93B5
:100D40000F92CDB7DEB780910504882391F08130F2
:100D500009F488C010920704109206041092090446
:100D6000109208040F90CF91DF911F910F91FF9087
:100D70000895809119020E948B1F80E00E94062036
:100D8000809119028F5F0E94D81F0E941820082F9F
:100D90000E941820F82E0E941820182F0E9422204E
:100DA00089830E94FE1F909125048981992339F13E
:100DB0004F2D552747FD5095542F4427602F7727F7
:100DC00067FD7095462B572B5093070440930604FC
:100DD000282F332727FD3095322F2227812F99275F
:100DE00087FD9095282B392B309309042093080414
:100DF0000F90CF91DF911F910F91FF9008954F2D8C
:100E0000552747FD5095542F4427602F772767FDBE
:100E10007095462B572B6091120470911304461B5A
:100E2000570B5093070440930604282F332727FDC0
:100E30003095322F2227812F992787FD9095282BD7
:100E4000392B8091140490911504281B390B309391
:100E50000904209308040F90CF91DF911F910F9107
:100E6000FF900895809119020E948B1F82E386CF24
:100E7000809119020E948B1F882351F486E10E9401
:100E8000062085E40E9406200E94FE1F80E008954F
:100E90000E94FE1F81E00895809119020E948B1F1D
:100EA000882331F58DE20E94062088E00E9406200A
:100EB0000E94FE1F809119020E948B1F8823C1F49B
:100EC00081E30E94062080E00E9406200E94FE1F0F
:100ED000809119020E948B1F882351F48CE20E949A
:100EE000062089E00E9406200E94FE1F80E00895EF
:100EF0000E94FE1F81E008950E94831F80911902C5
:100F00000E948B1F882349F486E10E94062085E415
:100F10000E9406200E94FE1F08950E94FE1F86EA7E
:100F200090E090931A028093190286EA0E948B1F28
:100F3000882341F58DE20E94062088E00E94062069
:100F40000E94FE1F809119020E948B1F8823D1F4FA
:100F500081E30E94062080E00E9406200E94FE1F7E
:100F6000809119020E948B1F882361F48CE20E94F9
:100F7000062089E00E9406200E94FE1F81E08093E7
:100F8000050408950E94FE1F82E0809305040895E1
:100F900081E09091FF03891B8093FF03882339F43C
:100FA00080918000877F809380002F9808958091A2
:100FB00080008860809380008FEF90E090938D0098
:100FC00080938C000895882359F090918000906858
:100FD0009093800090E0909389008093880008951A
:100FE000809180008F77809380002D9808958823CA
:100FF00059F09091800090629093800090E09093DF
:101000008B0080938A000895809180008F7D80936B
:1010100080002E980895882359F090918000986060
:101020009093800090E090938D0080938C000895C1
:1010300080918000877F809380002F980895EF92A1
:10104000FF920F931F9380910A0490910B0497FDD8
:101050005BC08031910508F042C081E080931B02A3
:1010600090911A02981709F442C0109220048093BC
:101070001A026091060470910704882777FD809515
:10108000982F0E9413257B018C01609108047091B8
:101090000904882777FD8095982F0E9413259B01CE
:1010A000AC01C801B7010E94CE2721EE3EE245E621
:1010B00052E40E9414240E9471259B01709319042C
:1010C0006093180477FF06C028593E4F30931904E7
:1010D000209318041F910F91FF90EF9008951092A4
:1010E0001B0280E090911A02981709F0BECF9091F0
:1010F00020049F5F90932004953008F4B8CF10929D
:10110000200480931C02B3CF909581959F4FA1CF6F
:1011100081E080932104089586B166B126B146B17D
:1011200030E02870307035952795359527953595A1
:101130002795220F331F70E0647070707595679566
:1011400075956795260F371F220F331F50E04270A9
:10115000507055954795240F351F220F8170820FCF
:101160000895CF92DF92EF92FF920F931F93CF9348
:10117000DF938091E2039091E30397FDC9C06091F2
:10118000FD037091FE038091E4039091E50397FDC8
:10119000D0C04091FB035091FC03E0906503F090B8
:1011A00066039091690380916A03A92FB82FB7FD58
:1011B000CFC0B595A79500916D0310916E039091E6
:1011C000710380917203E92FF82FF7FDCCC0F595DC
:1011D000E795F095E195FF4FEA01C60FD71FD7FDC0
:1011E000B9C0D595C7958E2D9F2D97FDBAC0959501
:1011F00087959D01281B390B80916B0390916C039F
:10120000280F391FC80117FDB6C095958795820F25
:10121000931F8E0F9F1F2091630330916403821BE5
:10122000930B96958795969587958C0F9D1F641BBC
:10123000750B77FD9DC075956795EA0FFB1F209193
:10124000670330916803E20FF31F2E2D3F2D37FD0A
:101250008CC0359527952E0F3F1F402F512F57FDDE
:1012600074C055954795241B350B40916F035091E1
:101270007003241B350B3695279536952795260F39
:10128000371FA901480F591F821B930B880F991F05
:10129000880F991F9093F9038093F8039A01220F06
:1012A000331F220F331F3093F7032093F60341E0DF
:1012B0002433340734F023E331E03093F7032093F1
:1012C000F60341E08433940734F083E391E0909394
:1012D000F9038093F8034EEF2D3C340734F42DECE2
:1012E0003EEF3093F7032093F6032EEF8D3C9207E9
:1012F00034F48DEC9EEF9093F9038093F803DF9123
:10130000CF911F910F91FF90EF90DF90CF900895B4
:101310006091FD037091FE03709561957F4F70930E
:10132000FE036093FD038091E4039091E50397FF32
:1013300030CF4091FB035091FC03509541955F4F96
:101340005093FC034093FB0328CF4F5F5F4F89CF3F
:1013500011962FCF2196D595C7958E2D9F2D97FF4E
:1013600046CF019644CF319632CF2F5F3F4F71CF9A
:101370006F5F7F4F60CF019648CF8091530390916C
:1013800054032091550330915603821B930B6091B7
:101390005703709158032091590330915A03621BEF
:1013A000730B40915B0350915C0320915D0330917E
:1013B0005E03421B530B57FD4EC020915F033091DB
:1013C0006003E0916103F09162032E1B3F0B37FD38
:1013D0004BC097FD46C09093300480932F04E3E008
:1013E000F0E0F0931E02E0931D0277FD37C068170E
:1013F000790758F47093300460932F0482E090E0F2
:1014000090931E0280931D02CB014817590758F490
:101410005093300440932F0481E090E090931E029B
:1014200080931D02CA012817390748F4309330040D
:1014300020932F0410921E0210921D02C9018437BE
:10144000910540F41092F7031092F6031092F903FD
:101450001092F803089540E050E0AFCF60E070E0F4
:10146000C6CF80E090E0B7CF20E030E0B2CF2F923F
:101470003F924F925F926F927F928F929F92AF9224
:10148000BF92CF92DF92EF92FF920F931F93DF9361
:10149000CF93CDB7DEB7A4970FB6F894DEBF0FBEDB
:1014A000CDBFEE24E394E09216020E94E500E092A4
:1014B00025041092270410922604B0E4CB2EDD24DC
:1014C000D39485B18C2585B966B146B186B126B174
:1014D00090E08870907095958795959587959595EE
:1014E0008795880F991F50E0447050705595479527
:1014F00055954795840F951F880F991F30E02270EE
:10150000307035952795820F931F880F6170860F75
:10151000809324040E94DB0580910A0490910B04BF
:1015200097FD50C68031910508F0A0C3D0921B02F0
:1015300081E090911A02981709F4A0C31092200438
:1015400080931A026091060470910704882777FD42
:101550008095982F0E9413257B018C0160910804CF
:1015600070910904882777FD8095982F0E94132594
:101570009B01AC01C801B7010E94CE2721EE3EE2DB
:1015800045E652E40E9414240E9471259B01709349
:1015900019046093180477FF06C028593E4F309312
:1015A00019042093180480919C03882309F4DFC058
:1015B00010929C0380912504882309F47AC38091BA
:1015C0003303909134032091350330913603821B0D
:1015D000930B909364038093630397FF02C00C9472
:1015E000C9138091370390913803209139033091CA
:1015F0003A03821B930B909366038093650397FFD6
:1016000002C00C94741380913B0390913C03209191
:101610003D0330913E03821B930B909368038093AC
:10162000670397FF02C00C946E1380913F03909163
:1016300040032091410330914203821B930B90930E
:101640006A038093690397FF02C00C948C13809106
:101650004303909144032091450330914603821B3C
:10166000930B90936C0380936B0397FF02C00C94D1
:10167000861380914703909148032091490330914C
:101680004A03821B930B90936E0380936D0397FF25
:1016900002C00C94801380914B0390914C032091D5
:1016A0004D0330914E03821B930B909370038093F4
:1016B0006F0397FF02C00C947A1380914F039091AF
:1016C00050032091510330915203821B930B90934E
:1016D00072038093710397FF02C00C94E113809111
:1016E0005303909154032091550330915603821B6C
:1016F000930B909374038093730397FF02C00C9431
:10170000DB13809157039091580320915903309136
:101710005A03821B930B909376038093750397FF74
:1017200002C00C94D51380915B0390915C032091CF
:101730005D0330915E03821B930B9093780380933B
:10174000770397FF02C00C94CF1380915F039091B1
:1017500060032091610330916203821B930B90938D
:101760007A038093790397FDACC3D092CD03809127
:101770002204909123042EE48032920708F094C250
:1017800080912504882309F4DDC1609126047091BD
:101790002704603171050CF0D9C18091CD038823F5
:1017A00009F48FCE1092CD036115710511F40C94DC
:1017B000E71340911A0450911B045CA34BA32090A3
:1017C0001C0430901D0480911E0490911F049A8384
:1017D000898320919D0330919E0340919F035091F6
:1017E000A003E090A103F090A2030091A303109145
:1017F000A4038090A5039090A603A090A703B090A7
:10180000A8034090A9035090AA036090AB03709086
:10181000AC038091AD039091AE03A091AF03B09162
:10182000B0038B839C83AD83BE838091B103909181
:10183000B203A091B303B091B4038F839887A987B3
:10184000BA878091B5039091B603A091B703B09188
:10185000B8038B879C87AD87BE878091B903909131
:10186000BA03A091BB03B091BC038F87988BA98B5F
:10187000BA8B8091BD039091BE03A091BF03B0913C
:10188000C0038B8B9C8BAD8BBE8B8091C1039091E1
:10189000C203A091C303B091C4038F8B988FA98F0B
:1018A000BA8F8091C5039091C603A091C703B091F0
:1018B000C8038B8F9C8FAD8FBE8F8091C903909191
:1018C000CA03A091CB03B091CC038F8F98A3A9A397
:1018D000BAA38091630390916403AA2797FDA09512
:1018E000BA2F820F931FA41FB51F80939D0390935F
:1018F0009E03A0939F03B093A003809165039091F2
:101900006603AA2797FDA095BA2F8E0D9F1DA01FD5
:10191000B11F8093A1039093A203A093A303B0935C
:10192000A4038091670390916803AA2797FDA0956F
:10193000BA2F880D991DAA1DBB1D8093A5039093F6
:10194000A603A093A703B093A80380916903909185
:101950006A03AA2797FDA095BA2F840D951DA61D91
:10196000B71D8093A9039093AA03A093AB03B093F0
:10197000AC0380916B0390916C03AA2797FDA0950F
:10198000BA2F2B813C814D815E81820F931FA41F52
:10199000B51F8093AD039093AE03A093AF03B093B4
:1019A000B00380916D0390916E03AA2797FDA095D7
:1019B000BA2F2F81388549855A85820F931FA41F1E
:1019C000B51F8093B1039093B203A093B303B09378
:1019D000B40380916F0390917003AA2797FDA0959F
:1019E000BA2F2B853C854D855E85820F931FA41FE2
:1019F000B51F8093B5039093B603A093B703B0933C
:101A0000B8038091710390917203AA2797FDA09566
:101A1000BA2F2F85388949895A89820F931FA41FAD
:101A2000B51F8093B9039093BA03A093BB03B093FF
:101A3000BC038091730390917403AA2797FDA0952E
:101A4000BA2F2B893C894D895E89820F931FA41F71
:101A5000B51F8093BD039093BE03A093BF03B093C3
:101A6000C0038091750390917603AA2797FDA095F6
:101A7000BA2F2F89388D498D5A8D820F931FA41F3D
:101A8000B51F8093C1039093C203A093C303B09387
:101A9000C4038091770390917803AA2797FDA095BE
:101AA000BA2F2B8D3C8D4D8D5E8D820F931FA41F01
:101AB000B51F8093C5039093C603A093C703B0934B
:101AC000C8038091790390917A03AA2797FDA09586
:101AD000BA2F2F8D38A149A15AA1820F931FA41F9D
:101AE000B51F8093C9039093CA03A093CB03B0930F
:101AF000CC0380910604909107044BA15CA1840F54
:101B0000951F90931B0480931A0480910804909170
:101B10000904820D931D90931D0480931C048091F1
:101B20000A0490910B04A981BA818A0F9B1F90939C
:101B30001F0480931E046F5F7F4F70932704609390
:101B40002604BFCC60912604709127046031710592
:101B500009F43CC380911702882309F005C38091E2
:101B6000220490912304AEE480329A0720F0109270
:101B70002304109222040E945B18882309F0A6C156
:101B800080912404882309F086C08091F203882381
:101B9000B1F08091D6039091D7039695879596954D
:101BA0008795969587959093DB038093DA03D0927F
:101BB000F4031092F2031092D7031092D60380918F
:101BC000F3038823B1F08091D8039091D9039695BF
:101BD000879596958795969587959093DD03809345
:101BE000DC03D092F5031092F3031092D903109204
:101BF000D8038091E2039091E3039093F7038093DD
:101C0000F6038091E4039091E5039093F9038093A8
:101C1000F80380912904882309F09EC480912E0442
:101C2000882309F026C42091F8033091F9038091AC
:101C3000F6039091F7031092FA033093E103209397
:101C4000E0039093DF038093DE0397FDCEC490936F
:101C50009900809398008091E0039091E10397FDB3
:101C6000BBC49093A9008093A8002BCC10921B02B8
:101C700080E090911A02981709F060CC90912004AE
:101C80009F5F90932004953008F45ACC1092200462
:101C900080931C0255CC823009F461C48091FA0310
:101CA000882309F40ECCBFCFD09299030E94B001D3
:101CB00067CD8091330390913403209135033091A7
:101CC0003603821B930B20917B0330917C03821B94
:101CD000930B909364038093630397FD55C58091A4
:101CE0003703909138032091390330913A03821BD6
:101CF000930B20917D0330917E03821B930B909375
:101D000066038093650397FD3AC580913B039091EC
:101D10003C0320913D0330913E03821B930B2091A5
:101D20007F0330918003821B930B90936803809311
:101D3000670397FD1FC580913F0390914003209159
:101D4000410330914203821B930B20918103309118
:101D50008203821B930B90936A038093690397FD20
:101D600004C5809143039091440320914503309131
:101D70004603821B930B2091830330918403821BC3
:101D8000930B90936C0380936B0397FDE9C4809150
:101D90004703909148032091490330914A03821BE5
:101DA000930B2091850330918603821B930B9093B4
:101DB0006E0380936D0397FDCEC480914B03909189
:101DC0004C0320914D0330914E03821B930B2091C5
:101DD000870330918803821B930B90937003809349
:101DE0006F0397FDB3C480914F03909150032091EE
:101DF000510330915203821B930B20918903309140
:101E00008A03821B930B909372038093710397FD57
:101E100098C48091530390915403209155033091BD
:101E20005603821B930B20918B0330918C03821BF2
:101E3000930B909374038093730397FD7DC48091FB
:101E40005703909158032091590330915A03821BF4
:101E5000930B20918D0330918E03821B930B9093F3
:101E600076038093750397FD62C480915B03909124
:101E70005C0320915D0330915E03821B930B2091E4
:101E80008F0330919003821B930B90937803809380
:101E9000770397FD47C480915F0390916003209181
:101EA000610330916203821B930B20919103309167
:101EB0009203821B930B90937A038093790397FF8D
:101EC00054CC10927A03109279034FCC87E060E7EC
:101ED0000E949E188FE494E00E9486180E94801849
:101EE00030914F04332309F4B8C2709153046091C8
:101EF000540420915004E0915104472F50E04F7753
:101F000050705093FE034093FD03862F90E08F772F
:101F100090709093FC038093FB0377FD94C4440F6F
:101F2000551F440F551F509541955F4F5093E30344
:101F30004093E20367FD7EC4880F991F880F991FA5
:101F4000909581959F4F9093E5038093E403B1E0D2
:101F500044335B0734F043E351E05093E303409391
:101F6000E20361E08433960734F083E391E09093D9
:101F7000E5038093E403AEEF4D3C5A0734F44DEC97
:101F80005EEF5093E3034093E2035EEF8D3C9507D1
:101F900034F48DEC9EEF9093E5038093E403432F9C
:101FA00050E0509348044093470430E030934A0493
:101FB00020934904F0E0F0934C04E0934B04942FF9
:101FC0008827841B950B64E670E00E946127462FEA
:101FD000409540931202922F8827821B930B64E650
:101FE00070E00E9461276095609314029E2F8827FD
:101FF0008E1B9F0B64E670E00E94612760956093E2
:102000001302442309F40BC38091800080688093FD
:102010008000642F70E07093890060938800809145
:102020001302882309F4E9C2909180009062909392
:10203000800090E090938B0080938A00809114023E
:10204000882309F4E5C29091800098609093800005
:1020500090E090938D0080938C008091520480FFDB
:10206000FAC1449881FFF5C14598982F82FFC9C1F4
:10207000D092170294FDC9C196FFE8C1D0922904FD
:10208000880F880B8D2180932E04809111028093FC
:102090003704843009F40CC6853008F0C7C2833099
:1020A00009F05CC0909163038091640390933804BD
:1020B00080933904909165038091660390933A046C
:1020C00080933B04909167038091680390933C0454
:1020D00080933D049091690380916A0390933E043C
:1020E00080933F0490916D0380916E039093400420
:1020F0008093410490916F03809170039093420408
:1021000080934304909171038091720390934404EF
:1021100080934504209103018091030190E0807237
:1021200090709595879595958795959587959595B3
:10213000879595958795880F991F30E020713070AD
:102140003595279535952795359527953595279577
:10215000822B8093460494E09093110287E394E0ED
:1021600060E10E9413190CCD0E9490198093010424
:1021700090910204992309F4F2CC10920204E82F02
:10218000F0E0E533F10508F467C32091E2033091F4
:10219000E3038091E4039091E50337FD83C3359514
:1021A0002795359527953093FE032093FD0397FDE2
:1021B00000C495958795959587959093FC0380939A
:1021C000FB03CDCC909581959F4FACC980919D0329
:1021D00090919E03A0919F03B091A00344E0B69517
:1021E000A795979587954A95D1F790937C0380930F
:1021F0007B038091A1039091A203A091A303B091CE
:10220000A40334E0B695A795979587953A95D1F7AD
:1022100090937E0380937D038091A5039091A60304
:10222000A091A703B091A80324E0B695A795979530
:1022300087952A95D1F79093800380937F038091AF
:10224000A9039091AA03A091AB03B091AC0304E061
:10225000B695A795979587950A95D1F790938203A0
:10226000809381038091AD039091AE03A091AF0361
:10227000B091B00314E0B695A795979587951A95F8
:10228000D1F790938403809383038091B10390915D
:10229000B203A091B303B091B403F4E0B695A7954F
:1022A00097958795FA95D1F7909386038093850348
:1022B0008091B5039091B603A091B703B091B80394
:1022C000E4E0B695A79597958795EA95D1F7909311
:1022D0008803809387038091B9039091BA03A091FA
:1022E000BB03B091BC0374E0B695A795979587950D
:1022F0007A95D1F790938A03809389038091BD03E7
:102300009091BE03A091BF03B091C00364E0B69565
:10231000A795979587956A95D1F790938C038093AD
:102320008B038091C1039091C203A091C303B0912C
:10233000C40354E0B695A795979587955A95D1F71C
:1023400090938E0380938D038091C5039091C60373
:10235000A091C703B091C80344E0B695A79597959F
:1023600087954A95D1F79093900380938F0380913E
:10237000C9039091CA03A091CB03B091CC0334E080
:10238000B695A795979587953A95D1F7909392032F
:102390008093910380911A0490911B0495958795E1
:1023A0009595879595958795959587959093130421
:1023B0008093120480911C0490911D04959587953B
:1023C00095958795959587959595879590931504FF
:1023D0008093140480911E0490911F049595879515
:1023E00095958795959587959595879590931704DD
:1023F000809316041092250410922704109226044C
:10240000A9CB1092170294FF37CED09225041092D8
:1024100027041092260410921202109213021092B6
:102420001402909180009F77909380002D98909156
:1024300080009F7D909380002E9890918000977FE0
:10244000909380002F98982F96FD18CE1092290413
:1024500017CE459A0ACE449A05CE209150042223E5
:1024600009F4BFC37091530460915404E091510486
:1024700044CD8091530390915403209155033091A2
:102480005603821B930B6091570370915803209160
:10249000590330915A03621B730B40915B035091B7
:1024A0005C0320915D0330915E03421B530B57FD8B
:1024B00086C420915F0330916003E0916103F09145
:1024C00062032E1B3F0B37FD77C497FD72C49093B8
:1024D000300480932F04A3E0B0E0B0931E02A093D9
:1024E0001D0277FD63C46817790758F470933004B0
:1024F00060932F04E2E0F0E0F0931E02E0931D02EF
:10250000CB014817590758F45093300440932F04D7
:1025100081E090E090931E0280931D02CA0128176B
:10252000390748F43093300420932F0410921E0290
:1025300010921D02C9018437910508F074CB1092E6
:10254000F7031092F6031092F9031092F80380E05B
:1025500090E020E030E06FCB0E94B1085FCB80912B
:10256000F203882309F0E4C38091F303882309F47C
:1025700095CB8091D8039091D903969587959695A0
:102580008795969587959093DD038093DC03D09291
:10259000F5031092F3031092D9031092D80380919F
:1025A000E2039091E3039093F7038093F6032D9851
:1025B00086EF93E00E94911D2D9A8091F6039091F1
:1025C000F7039093DF038093DE0397FD08C4909395
:1025D00099008093980062CB909581959F4F90933E
:1025E000AB008093AA000C94610A909581959F4F4F
:1025F00090939B0080939A002ECB809180008F7DDA
:10260000809380002E9880911402882309F01BCDBE
:1026100080918000877F809380002F981ECD8091CD
:1026200080008F77809380002D98F9CC853009F455
:10263000E3C2863009F092CD809143039091440328
:10264000809338048091430390914403909339041C
:10265000809153039091540380933A0480915303E3
:102660009091540390933B048091570390915803A9
:1026700080933C04809157039091580390933D04BC
:1026800080915B0390915C0380933E0480915B0397
:1026900090915C0390933F0480915F03909160035D
:1026A0008093400480915F03909160039093410474
:1026B00090910A0480910B04909342048093430408
:1026C00090919703809198039093440480934504DC
:1026D00010924604E3E0E093110240CD10926803AB
:1026E000109267030C94150B109266031092650309
:1026F0000C94030B1092700310926F030C945D0BFB
:1027000010926E0310926D030C944B0B10926C039D
:1027100010926B030C94390B10926A0310926903A8
:102720000C94270B1092780310927703B4CB10927D
:1027300076031092750399CB109274031092730371
:102740007ECB109272031092710363CB10927003D0
:1027500010926F0348CB10926E0310926D032DCB35
:1027600010926C0310926B0312CB10926A031092BA
:102770006903F7CA1092680310926703DCCA1092CB
:10278000660310926503C1CA10926403109263033A
:10279000A6CA10926403109263030C94F10A10927B
:1027A0007803109277030C94A50B10927603109285
:1027B00075030C94930B10927403109273030C9492
:1027C000810B10927203109271030C946F0B1F8E89
:1027D00018A219A21AA21B8E1C8E1D8E1E8E1F8A75
:1027E000188E198E1A8E1B8A1C8A1D8A1E8A1F86B5
:1027F000188A198A1A8A1B861C861D861E861F82C5
:10280000188619861A861B821C821D821E82442409
:1028100055243201882499245401EE24FF24870191
:1028200020E030E0A9011A821982222433241CA25C
:102830001BA24FC8880F991F880F991F9093E5031B
:102840008093E40384CB440F551F440F551F5093CE
:10285000E3034093E2036ECBEE58FF4FEE0FFF1FF2
:102860000590F491E02D19948091040490E0019674
:1028700083709070809304048230C1F0833009F437
:10288000A1C2813009F403C31092290410922E04CE
:102890002091E2033091E3038091E4039091E503FA
:1028A00037FF7DCC309521953F4F79CC109229048C
:1028B000D0922E046ACC109229042091E203309128
:1028C000E3038091E4039091E50367CCD09229045F
:1028D0002091E2033091E3038091E4039091E503BA
:1028E0005CCC8091E4039091E5034E979093E503CF
:1028F0008093E403BDEF8A399B07ACF5EAE9FDEF6D
:10290000F093E503E093E4032091E2033091E303C5
:102910008AE99DEF42CC2091E2033091E30380915C
:10292000E0039091E1032817390724F02091E40394
:102930003091E5032E5130403093E3032093E203BE
:10294000C9013093E5032093E4034DEF2A3934079E
:1029500034F4AAE9BDEFB093E303A093E203BDEF23
:102960002A393B075CF22091E2033091E30315CC56
:102970002091E2033091E3032E5130403093E30382
:102980002093E203FDEF2A393F070CF023C22AE926
:102990003DEF3093E3032093E2038091E4039091B1
:1029A000E50329E930E03093FE032093FD0397FF10
:1029B00000CC909581959F4FFCCB2091E203309104
:1029C000E3032E5130403093E3032093E2038091E0
:1029D000E4039091E5034E969093E5038093E4031E
:1029E000FDEF2A393F0734F42AE93DEF3093E30342
:1029F0002093E20342E0873694070CF4CECB86E6C0
:102A000092E09093E5038093E403C7CB1092E30335
:102A10001092E2031092E5031092E40380E090E04C
:102A200020E030E0BCCB2091E2033091E303225E52
:102A30003F4F3093E3032093E2038091E4039091AE
:102A4000E5034E979093E5038093E403A2E02736D5
:102A50003A0744F0E6E6F2E0F093E303E093E203A2
:102A600026E632E0FDEF8A399F070CF096CB4AE963
:102A70005DEF5093E5034093E4038AE99DEF8DCB2E
:102A80008091E4039091E5034E969093E503809343
:102A9000E40352E0873695070CF465CF86E692E0B2
:102AA0009093E5038093E4032091E2033091E303E4
:102AB00074CB2091E2033091E3038091E403909181
:102AC000E503821793070CF4BAC19C01225E3F4FC5
:102AD0003093E3032093E2034E969093E5038093B3
:102AE000E403B2E027363B0734F0E6E6F2E0F09389
:102AF000E303E093E203F2E087369F070CF433CF61
:102B000026E632E03093E5032093E4032091E203CC
:102B10003091E30386E692E040CB2091E2033091CE
:102B2000E303225E3F4F3093E3032093E20392E0FE
:102B3000273639070CF44EC1A6E6B2E0B093E303A2
:102B4000A093E2038091E4039091E50329E930E04A
:102B50002ACB8091030490E0019665E070E00E942A
:102B6000752780930304882309F06BC1449A459A22
:102B7000109214023FEF30931302309312028091AF
:102B800080008068809380008FEF90E090938900B0
:102B90008093880080911302882309F471C1909179
:102BA000800090629093800090E090938B008093DF
:102BB0008A0080911402882309F453C19091800007
:102BC00098609093800090E090938D0080938C00AB
:102BD0002091E2033091E3038091E4039091E503B7
:102BE000DCCAE0915104EE2309F4D5C0709153047E
:102BF00060915404322F81C9809133039091340342
:102C00008093380480913303909134039093390476
:102C1000809137039091380380933A048091370371
:102C20009091380390933B0480913B0390913C0337
:102C300080933C0480913B0390913C0390933D042E
:102C400080913F039091400380933E0480913F0325
:102C50009091400390933F048091470390914803E3
:102C600080934004809147039091480390934104DE
:102C700080914B0390914C038093420480914B03CD
:102C800090914C039093430480914F039091500393
:102C90008093440480914F03909150039093450496
:102CA0008091240480934604B6E0B093110256CA82
:102CB00090916B0380916C03909338048093390456
:102CC000909173038091740390933A0480933B0432
:102CD000909175038091760390933C0480933D041A
:102CE000909177038091780390933E0480933F0402
:102CF0009091790380917A039093400480934104EA
:102D000090910604809107049093420480934304B9
:102D100090910804809109049093440480934504A1
:102D20008091010480934604A5E0A093110216CA85
:102D30008091D6039091D703969587959695879520
:102D4000969587959093DB038093DA03D092F403F2
:102D50001092F2031092D7031092D6038091E403ED
:102D60009091E5039093F9038093F8032D9888EFF1
:102D700093E00E94771E2D9A8091F8039091F903B9
:102D80009093E1038093E00397FD32C09093A900F4
:102D90008093A800E9CB80915204883089F170912A
:102DA0005304609154042E2F3E2FA7C860E070E0BA
:102DB0009ACB80E090E08BCB20E030E086CB40E007
:102DC00050E077CBD0922904D0922E042091E203D8
:102DD0003091E3038091E4039091E503DEC990957F
:102DE00081959F4F90939B0080939A000C944E0E78
:102DF000909581959F4F9093AB008093AA00B4CBA0
:102E000070915304772329F0609154042E2F3E2FA4
:102E100074C860915404662309F446C01092FE03FE
:102E20001092FD03862F90E08F7790709093FC03B3
:102E30008093FB03E22F322F40E050E070C8C901BD
:102E400045CE813009F44DC08230D9F1833009F488
:102E500050C06FEF609314026093130260931202EC
:102E60008ECE80918000877F809380002F98209164
:102E7000E2033091E3038091E4039091E5038DC96F
:102E8000809180008F7D809380002E9892CE8093D9
:102E9000290410922E042091E2033091E3038091E3
:102EA000E4039091E50379C90E94B0017091530445
:102EB0006091540430914F0420915004E0915104EA
:102EC0001CC8449845985FEF509314025093130226
:102ED00010921202809180008F77809380002D984D
:102EE00059CE4FEF409314021092130240931202F6
:102EF00046CE109214021092130210921202EACFE0
:102F000084B1807F84B984B1876084B980E58CBD49
:102F10008DB581608DBD08951CBC1DBC08954423F2
:102F200079F0A82FB92FE62FF72F80E09D919EBD55
:102F30000DB407FEFDCF9EB591938F5F8417B0F35C
:102F40000895662359F0E82FF92F80E091919EBDF6
:102F50000DB407FEFDCF8F5F8617C0F308958EBDB9
:102F60000DB407FEFDCF8EB508950F931F93DF9329
:102F7000CF9300D0CDB7DEB7289880E20E94AF177C
:102F80008DE00E94AF17289A289883E20E94AF171D
:102F900081E00E94AF17289A8CE0898380E88A83B9
:102FA0001B82289880E30E94AF178E010F5F1F4F8E
:102FB000C80163E00E94A117289A28988AE20E941B
:102FC000AF17C80163E00E94A117289A289881E2F0
:102FD0000E94AF1781E00E94AF17289A289882E2DA
:102FE0000E94AF1781E00E94AF17289A289884E2C8
:102FF0000E94AF1782E10E94AF17289A289885E2B5
:103000000E94AF1788E20E94AF17289A289881E3A0
:103010000E94AF1786E00E94AF17289A289880E593
:103020000E94AF1783E70E94AF17289A28988CE375
:103030000E94AF1781E00E94AF17289A28988DE36D
:103040000E94AF1786E00E94AF17289A289880E266
:103050000E94AF178FE00E94AF17289A0F900F9031
:103060000F90CF91DF911F910F9108952C9A289A7C
:103070000E94B5170895CF93DF93EC012C98289800
:103080008AE20E94AF17CE0165E00E94A117289A3C
:103090002C9ADF91CF910895CF93DF93EC0128987C
:1030A00080E30E94AF17CE0165E00E94A117289A25
:1030B000DF91CF91089580913204882311F080E050
:1030C000089528988FEF0E94AF17289A807408956A
:1030D000DF93CF930F92CDB7DEB71982289887E19F
:1030E0000E94AF17BE016F5F7F4FCB0141E00E948E
:1030F0008F17289A898181700F90CF91DF91089561
:10310000289882EE0E94AF17289A0895CF93DF93F4
:10311000EC01289881E60E94AF17CE01BE0146E07F
:103120000E948F17289A289887E20E94AF1780E4A0
:103130000E94AF17289ADF91CF910895DF93CF9324
:103140000F92CDB7DEB728988F71806269830E9495
:10315000AF176981862F0E94AF17289A0F90CF91E1
:10316000DF9108950F931F93DF93CF930F92CDB705
:10317000DEB78B0128988F7149830E94AF17C80171
:10318000B80149810E948F17289A0F90CF91DF9143
:103190001F910F9108950F931F93DF93CF930F9279
:1031A000CDB7DEB78B0128988F71806249830E946A
:1031B000AF17C8014981642F0E94A117289A0F9068
:1031C000CF91DF911F910F9108950F931F93DF937C
:1031D000CF930F92CDB7DEB78C0180913204882354
:1031E000E1F72C9881E080933204289880E269838B
:1031F0000E94AF178AE40E94AF17289A289881EEA0
:103200000E94AF17289A289880EA0E94AF17C80139
:1032100069810E94A117289A2C9A0F90CF91DF9173
:103220001F910F910895EF92FF920F931F93DF93D9
:10323000CF930F92CDB7DEB7182F062F289881EEC7
:1032400099830E94AF17289A289888EA0E94AF179E
:103250009981002361F0612F792F7B01F701819122
:103260007F010E94AF178E2D811B8017B8F3289A1B
:103270000F90CF91DF911F910F91FF90EF900895E4
:10328000289881EE0E94AF17289A0895E8E6F0E0AA
:10329000808182608083ECE6F0E0808180688083BA
:1032A000E0EBF0E080818260808308951F920F92AE
:1032B0000FB60F9211248F9380911702882321F16A
:1032C0008091030186FD20C0809168008D7F8093EE
:1032D000680080916C008F7780936C0081E0809310
:1032E00018028DE08093B3008091B10086608093D6
:1032F000B1008091700082608093700010922A0368
:1033000010922B0310922C038F910F900FBE0F90F1
:103310001F901895809100020895809128030895C8
:103320008091290308951F920F920FB60F921124D6
:103330002F933F934F935F938F939F938091B1000F
:10334000887F8093B100809118028823A9F0809132
:10335000030186FF65C080916800826080936800E9
:1033600080916C00806880936C008FEF9FEF90934A
:1033700002028093010249C08091010290910202F1
:103380002FEF8F3F920709F463C08130910509F454
:1033900098C09C01225030402530310508F467C0A8
:1033A0009C01275030402630310508F0BDC026E38F
:1033B0002093B3002091B10026602093B1002091AA
:1033C00070002260209370002091030130E020748F
:1033D00030700024220F331F001C220F331F001CEB
:1033E000232F302D4CE050E0481B590B02C0220F18
:1033F000331F4A95E2F740912A03420F40932A0374
:10340000019690930202809301029F918F915F91A8
:103410004F913F912F910F900FBE0F901F901895D5
:103420001092180283E38093B3008091B10086600C
:103430008093B100809170008260809370008091D1
:103440000102909102022FEF8F3F9207C9F6DDCF64
:103450002091030126FF52C0209168002260209332
:10346000680020916C00206820936C00CECF26E38A
:103470002093B3002091B10026602093B1002091E9
:1034800070002260209370002091030130E02074CE
:1034900030700024220F331F001C220F331F001C2A
:1034A000232F302D46E050E0481B590B02C0220F5D
:1034B000331F4A95E2F740912B03420F40932B03B1
:1034C0009FCF2091030130E020743070022E232F13
:1034D000000C221F330B000C221F331F20932C03E0
:1034E00026E32093B3002091B10026602093B10021
:1034F0002091700022602093700082CF8CE1809335
:10350000B3008091B10086608093B100809170001B
:1035100082608093700010922A0310922B03109205
:103520002C0381E090E06DCF8D30910509F068CFDC
:103530001092700080916800826080936800809192
:103540006C00806880936C008FEF9FEF9093020275
:103550008093010280912C038093000280912B03C1
:103560008093280380912A038093290381E080932C
:1035700002044BCF08950F931F93CF93DF93EC0179
:1035800088819981009709F4DAC02091180430915C
:10359000190441E02E3034070CF4A0C018161906A7
:1035A0000CF044C168E671E0621B730B882777FD5D
:1035B0008095982F0E94132520E030E040EC5FE3D7
:1035C0000E9414249B01AC0160E070E086E193E46A
:1035D0000E94B6230E94712570930C0260930B0227
:1035E000409133045091340450934E0440934D0461
:1035F0008881998197FDF7C02091DA033091DB0330
:10360000BC01621B730B9B01709334046093330401
:103610008091EE039091EF03820F931F9093EF033D
:103620008093EE0373E0813297070CF499C080E237
:1036300093E09093EF038093EE0360E679E0C90195
:10364000880F991FF901EE0FFF1FEE0FFF1FEE0FFE
:10365000FF1F8E0F9F1F08811981A0910B02B0914F
:103660000C020A9FF0010B9FF00D1A9FF00D112420
:103670008E0F9F1F421B530B440F551F840F951F26
:10368000860F971F9093E9038093E80397FD84C00A
:10369000181619060CF08AC02881398137FDAEC092
:1036A0007DE5813C97070CF481C080EC9DE590930B
:1036B000E9038093E8038CED95E04E969983888327
:1036C00041E0843394070CF480C083E391E0998354
:1036D0008883DF91CF911F910F910895243B31058D
:1036E0006CF42A35310554F4181619060CF0A7C0ED
:1036F000B901882777FD8095982F0CC018161906F8
:103700000CF041C064EB70E0621B730B882777FDFF
:103710008095982F0E94132520E030E040EC5FE375
:103720000E94142420E030E046E153E40E94E723A5
:103730000E94712570930C0260930B0251CF10927E
:10374000F1031092F0031092560410925504109257
:10375000360410923504DF91CF911F910F91089597
:103760006CEF803E96074CF480EE9CEF9093EF0355
:103770008093EE0360EA76EF62CFBC01660F771F9D
:10378000680F791F5CCF64EB70E0621B730B8827B6
:1037900077FD8095982F0ECF2881398137FD06C09F
:1037A0001092E9031092E80380E090E022EA80346E
:1037B000920754F580E492EA9093E9038093E8033A
:1037C00084E29AEF4E97998388836EEF8D3C96073B
:1037D0000CF07FCF8DEC9EEF99838883DF91CF91A2
:1037E0001F910F9108952091DA033091DB03280F88
:1037F000391F30933404209333040ACF1092E90325
:103800001092E80380E090E09595879595958795CF
:1038100095958795959587959983888318161906A8
:103820000CF44BCF009709F454CFCCCF68E671E08D
:10383000621B730B882777FD8095982F6BCFB9019A
:10384000882777FD8095982FB5CE0F931F93CF9340
:10385000DF93EC0188819981009709F4DFC0209102
:1038600018043091190441E02E3034070CF4A5C03F
:10387000181619060CF046C168E671E0621B730B5E
:10388000882777FD8095982F0E94132520E030E04F
:1038900040EC5FE30E9414249B01AC0160E070E007
:1038A00086E193E40E94B6230E94712570930E0274
:1038B00060930D0240915504509156045093360484
:1038C000409335048881998197FDFAC02091DC03EB
:1038D0003091DD03BC01621B730B9B017093560496
:1038E000609355048091F0039091F103820F931F30
:1038F0009093F1038093F00373E0813297070CF407
:10390000ACC080E293E09093F1038093F00360E613
:1039100079E0C901880F991FF901EE0FFF1FEE0F23
:10392000FF1FEE0FFF1F8E0F9F1F08811981A091AF
:103930000D02B0910E020A9FF0010B9FF00D1A9F2D
:10394000F00D11248E0F9F1F421B530B440F551F68
:10395000840F951F860F971F9093E7038093E603CC
:1039600097FD97C0181619060CF09DC02881398163
:1039700037FDB1C07DE5813C97070CF494C080EC25
:103980009DE59093E7038093E6038CED95E09983A2
:103990008883209709F4AEC04E969983888341E0CE
:1039A000843394070CF44BC083E391E099838883BC
:1039B000DF91CF911F910F910895243B31056CF455
:1039C0002A35310554F4181619060CF0A4C0B901B3
:1039D000882777FD8095982F0CC0181619060CF0D3
:1039E0004FC064EB70E0621B730B882777FD8095F6
:1039F000982F0E94132520E030E040EC5FE30E9406
:103A0000142420E030E046E153E40E94E7230E94C2
:103A1000712570930E0260930D024CCF1092F1034A
:103A20001092F0031092560410925504109236042E
:103A300010923504DF91CF911F910F9108956EEF91
:103A40008D3C96070CF0B4CF8DEC9EEF9983888364
:103A5000DF91CF911F910F9108956CEF803E9607F3
:103A60004CF480EE9CEF9093F1038093F00360EAB6
:103A700076EF4FCFBC01660F771F680F791F49CFD4
:103A800064EB70E0621B730B882777FD8095982F9D
:103A9000FBCE2881398137FD06C01092E7031092D2
:103AA000E60380E090E022EA80349207D4F480E4D8
:103AB00092EA9093E7038093E60384E29AEF67CF5C
:103AC0002091DC033091DD03280F391F3093560419
:103AD0002093550407CF1092E7031092E60380E08D
:103AE00090E095958795959587959595879595956A
:103AF00087954DCF97FF53CF4E97909301008093BA
:103B000000004DCF68E671E0621B730B882777FDDC
:103B10008095982F6ECFB901882777FD8095982FD3
:103B2000B3CEFC0180819181009709F47FC0A09100
:103B30005504B0915604B0933604A0933504208107
:103B4000318137FD96C08091DC039091DD03A9019E
:103B5000481B590BCA0150935604409355042091B9
:103B6000F0033091F103280F391F3093F1032093B4
:103B7000F00353E0213235070CF46EC020E233E04D
:103B80003093F1032093F00360E476E09C01220F70
:103B9000331F280F391F220F331F220F331F220F0D
:103BA000331F280F391F40815181440F551F440F87
:103BB000551F440F551F240F351FAD01481B590BCE
:103BC000CA01880F991F840F951F280F391F260FD0
:103BD000371F3093E7032093E60337FD59C01216D1
:103BE00013060CF05FC08081918197FD68C05DE590
:103BF000213C35070CF456C080EC9DE59093E7031B
:103C00008093E6032CED35E031832083309709F46F
:103C100065C0225E3F4F3183208341E02433340767
:103C200094F083E391E09183808308951092F103EF
:103C30001092F0031092560410925504109236041C
:103C40001092350408955EEF2D3C350724F48DEC79
:103C50009EEF9183808308954CEF203E3407A4F4B7
:103C600020EE3CEF3093F1032093F00360EC79EF0A
:103C70008DCF8091DC039091DD03820F931F909391
:103C80005604809355046BCFB901660F771F7ECF22
:103C90008081918197FD06C01092E7031092E603A0
:103CA00020E030E082EA203438077CF480E492EAB5
:103CB0009093E7038093E60324E23AEFA5CF1092B6
:103CC000E7031092E60320E030E03595279535951F
:103CD0002795359527953595279596CF37FF9DCF15
:103CE0002E513040309301002093000096CFFC010C
:103CF00080819181009709F47BC0A0913304B09139
:103D00003404B0934E04A0934D042081318137FDDB
:103D100089C08091DA039091DB03A901481B590BFC
:103D2000CA0150933404409333042091EE03309140
:103D3000EF03280F391F3093EF032093EE0353E076
:103D4000213235070CF461C020E233E03093EF03F9
:103D50002093EE0360E476E09C01220F331F280FCE
:103D6000391F220F331F220F331F220F331F280F3B
:103D7000391F40815181440F551F440F551F440F77
:103D8000551F240F351FAD01481B590BCA01880F61
:103D9000991F840F951F280F391F260F371F309347
:103DA000E9032093E80337FD4CC0121613060CF00C
:103DB00052C08081918197FD67C05DE5213C350748
:103DC0000CF449C080EC9DE59093E9038093E803EF
:103DD0002CED35E0225E3F4F3183208341E02433D8
:103DE00034070CF448C083E391E091838083089505
:103DF0001092EF031092EE031092340410923304E9
:103E000010924E0410924D0408954CEF203E34075A
:103E1000A4F420EE3CEF3093EF032093EE0360EC2C
:103E200079EF9ACF8091DA039091DB03820F931F91
:103E3000909334048093330478CFB901660F771FD1
:103E40008BCF8081918197FD06C01092E90310927B
:103E5000E80320E030E082EA20343807DCF480E434
:103E600092EA9093E9038093E80324E23AEF2E511B
:103E70003040318320835EEF2D3C350724F48DECF8
:103E80009EEF9183808308951092E9031092E803D6
:103E900020E030E035952795359527953595279580
:103EA0003595279531832083121613060CF492CF93
:103EB00021153105E1F608958FEF81B912B897EF1A
:103EC00094B990EE95B990EF97B990EB98B99CEFB3
:103ED0009AB993E09BB98DB91EB810BA83BB14BAD6
:103EE00080930101109202019FE8909304011092C7
:103EF000070180930A0110920B0108951092B800F7
:103F00001092BC000895589A599A1092B90080E214
:103F10008093B800089594EA9093BC009091BC00FF
:103F200097FFFCCF9091B900987F983021F09031A5
:103F300011F081E008958093BB0084E88093BC0079
:103F40008091BC0087FFFCCF9091B900987F983199
:103F500021F081E0903419F0089580E0089580E028
:103F6000089524EA34E844E92093BC009091BC0011
:103F700097FFFCCF9091B900987F983011F0903165
:103F800099F78093BB003093BC009091BC0097FFE1
:103F9000FCCF9091B900987F903219F0983509F0D4
:103FA00008954093BC009091BC0094FDFCCFDCCF01
:103FB00094EA9093BC009091BC0097FFFCCF909145
:103FC000B900987F983021F0903111F081E0089588
:103FD0008093BB0084E88093BC008091BC0087FF85
:103FE000FCCF9091B900987F983121F081E0903416
:103FF00019F0089580E0089580E0089584E98093A1
:10400000BC008091BC0084FDFCCF08958093BB0070
:1040100084E88093BC008091BC0087FFFCCF909126
:10402000B900987F81E0983209F0089580E0089502
:1040300084EC8093BC008091BC0087FFFCCF809112
:10404000BB00089584E88093BC008091BC0087FF8A
:10405000FCCF8091BB0008951092C50080E1809351
:10406000C400E0ECF0E0808182608083E1ECF0E06D
:10407000808188698083E2ECF0E0808186608083C3
:1040800008951092C0001092C1001092C2000895CD
:104090009091C00095FFFCCF8093C60008951F92B9
:1040A0000F920FB60F9211242F938F939F93AF937C
:1040B000BF938091C600909116029923C9F0823374
:1040C00009F456C0833358F5803309F479C081333D
:1040D00029F481E08093150210921602BF91AF91EE
:1040E0009F918F912F910F900FBE0F901F90189559
:1040F00090911502923009F441C0933008F1943048
:1041000009F489C0943008F46CC0953039F78337CE
:1041100029F71092000481E080931602DFCF8433E8
:1041200009F459C0843308F450C08533B9F685E0EA
:10413000809315021092160281E080930004CECF86
:10414000992391F58D3209F405C18B3221F78091C5
:10415000120290E00A9797FD9CC180931202882377
:1041600009F499C190E09093890080938800B6CFBC
:1041700082E08093150210921602B0CF8D3209F4BE
:104180002FC18B3241F68091140290E00A9797FD7F
:1041900092C180931402882309F48FC190E0909318
:1041A0008D0080938C009ACF913009F097CF8D329B
:1041B00009F4B9C08B3209F447C0909316028ECF30
:1041C000109215021092160289CF83E08093150297
:1041D0001092160283CF84E080931502109216028B
:1041E0007DCF8B3209F413C18D3209F46DC0833752
:1041F00009F091CF1092DE031092DF031092E003DA
:104200001092E103109299001092980010929B0076
:1042100010929A0063CF8B3209F4B3C08D3229F12A
:10422000833709F078CF1092E0031092E1031092E7
:10423000E2031092E3031092A9001092A8001092DA
:10424000AB001092AA004ACF8091130290E00A9727
:1042500097FD28C180931302882309F425C190E0BB
:1042600090938B0080938A0039CF8091E0039091E6
:10427000E103A091E203B091E3034E97A109B109D4
:104280008093E0039093E103A093E203B093E303F0
:104290008A392DEF92072FEFA2072FEFB2070CF00C
:1042A00013C18AE99DEFAFEFBFEF8093E0039093D6
:1042B000E103A093E203B093E30386E692E09093D8
:1042C000AB008093AA000ACF8091DE039091DF03B8
:1042D000A091E003B091E1034E97A109B109809349
:1042E000DE039093DF03A093E003B093E1038A39E8
:1042F0002DEF92072FEFA2072FEFB2070CF0EAC0C5
:104300008AE99DEFAFEFBFEF8093DE039093DF0369
:10431000A093E003B093E10386E692E090939B00C4
:1043200080939A00DBCE8091800080628093800031
:104330008091130290E00A968F3F910519F014F0D6
:104340008FEF90E08093130290E090938B00809326
:104350008A00C4CE80918000806880938000809124
:10436000120290E00A968F3F910519F014F08FEF3A
:1043700090E08093120290E09093890080938800EF
:10438000ADCE8091E0039091E103A091E203B09162
:10439000E3034E96A11DB11D8093E0039093E103CA
:1043A000A093E203B093E303873622E0920720E074
:1043B000A20720E0B2070CF458C086E692E0A0E025
:1043C000B0E08093E0039093E103A093E203B09305
:1043D000E30386E692E09093A9008093A8007ECE46
:1043E000809180008860809380008091140290E02A
:1043F0000A968F3F910519F014F08FEF90E08093AB
:10440000140290E090938D0080938C0067CE809191
:10441000DE039091DF03A091E003B091E1034E969B
:10442000A11DB11D8093DE039093DF03A093E003F1
:10443000B093E103873622E0920720E0A20720E054
:10444000B207ECF086E692E0A0E0B0E08093DE03F5
:104450009093DF03A093E003B093E10386E692E03C
:10446000909399008093980039CEB7FFB4CF909580
:1044700081959F4F9093AB008093AA002FCEB7FFFA
:10448000EFCF909581959F4F90939B0080939A00DA
:1044900025CE10921202809180008F778093800049
:1044A0002D981CCE10921302809180008F7D8093F6
:1044B00080002E9813CE1092140280918000877F86
:1044C000809380002F980ACEB7FF85CF9095819575
:1044D0009F4FF5CEB7FFC4CF909581959F4F1ECFCC
:1044E000A0E0B0E0E6E7F2E20C948A272C015B0141
:1044F000FA01DC019C91923008F432C1EB01888111
:10450000823008F42CC1943071F4843009F028C151
:10451000F20191818981981709F422C11FE1412E8E
:1045200012E0512E1DC1843009F419C18230A9F462
:10453000923009F015C1CA01A20128E0DA010D90FC
:10454000AD01EC010992CE012150C1F7E50189814D
:10455000E20199818923818300C1923009F4FFC06F
:10456000E201CA80DB80EB018A819B81E2012C8120
:104570003D814E815F81EB01EC80FD800E811F81CA
:10458000B601681B790BDB0177FF03C0709561955D
:104590007F4F603271050CF05DC01A161B065CF58A
:1045A00066247724430181E090E0A0E0B0E0062E8D
:1045B00004C0880F991FAA1FBB1F0A94D2F7019746
:1045C000A109B1098E219F21A023B1230097A10544
:1045D000B10529F0B1E06B2E712C812C912C04C017
:1045E00016950795F794E7946A95D2F7E628F72889
:1045F000082919293BC0AB2BC9F1C60ED71E66246A
:104600007724430181E090E0A0E0B0E0062E04C0F2
:10461000880F991FAA1FBB1F0A94D2F70197A109FF
:10462000B10982239323A423B5230097A105B105E3
:1046300029F0A1E06A2E712C812C912C04C0569592
:104640004795379527956A95D2F72629372948291E
:1046500059290CC08C159D0534F06C0120E030E028
:1046600040E050E003C0EE24FF248701E20199817D
:10467000E5018981981709F443C0992339F0E21ABA
:10468000F30A040B150BA801970104C02E193F096A
:10469000400B510B57FD08C01182D382C282248384
:1046A0003583468357831DC081E08183D382C282D4
:1046B00088279927DC01821B930BA40BB50B8483FD
:1046C0009583A683B7830DC0220F331F441F551F48
:1046D0002483358346835783828193810197938313
:1046E00082832481358146815781DA01C90101978E
:1046F000A109B1098F5F9F4FAF4FBF4328F30BC094
:104700009183D382C2822E0D3F1D401F511F2483EF
:1047100035834683578383E08083248135814681B6
:1047200057815523D4F4C901AA2797FDA095BA2F24
:1047300081709070A070B070569547953795279509
:10474000822B932BA42BB52B84839583A683B783CD
:10475000828193810196938382832F0101C0250179
:10476000C201E0E1CDB7DEB70C94A627A0E2B0E02D
:10477000ECEBF3E20C94942769837A838B839C831C
:104780002D833E834F83588709E0E02EF12CEC0EF9
:10479000FD1EB701CE0101960E94F1268E010F5E2B
:1047A0001F4FB801CE0105960E94F1268A8991E03B
:1047B00089278A8BAE01475E5F4FB801C7010E940F
:1047C00070220E941126E6E0A0960C94B027A0E289
:1047D000B0E0EDEEF3E20C94942769837A838B8347
:1047E0009C832D833E834F83588789E0E82EF12CEC
:1047F000EC0EFD1EB701CE0101960E94F1268E013E
:104800000F5E1F4FB801CE0105960E94F126AE0142
:10481000475E5F4FB801C7010E9470220E941126B7
:10482000E6E0A0960C94B027A0E2B0E0EAE1F4E262
:104830000C948A2769837A838B839C832D833E83A0
:104840004F83588799E0E92EF12CEC0EFD1EB7013D
:10485000CE0101960E94F1268E010F5E1F4FB80116
:10486000CE0105960E94F1269985923088F08989BB
:104870008230C0F0943019F4823029F009C08430BD
:1048800029F4923079F46FE172E0C6C0923041F4BD
:1048900020E09A858A89981321E02A87B701BCC055
:1048A000823041F420E09A858A89981321E02A8B8E
:1048B000B801B2C0CD84DE84EF84F8880D891E89EA
:1048C0002F89388D88249924540140E050E060E01D
:1048D00070E0442455243201E0E0F0E0C60181702C
:1048E0009070892BD9F0800E911EA21EB31EDB01A1
:1048F000CA01840D951DA61DB71D40E050E060E083
:1049000070E080169106A206B30620F441E050E064
:1049100060E070E0480F591F6A1F7B1F440C551C54
:10492000661C771C37FF08C081E090E0A0E0B0E093
:10493000482A592A6A2A7B2A3196E032F10549F041
:10494000000F111F221F331FF694E794D794C794CA
:10495000C5CF8B899C892B853C85820F931F02963E
:104960009C8F8B8F1A8E9A858A89981711F081E017
:104970008A8F2B8D3C8D17C0CA0181709070892B56
:1049800061F0B694A7949794879480E090E0A0E0BB
:10499000B0E8882A992AAA2ABB2A7695679557955E
:1049A00047952F5F3F4F77FDE7CFC9010BC0440FFD
:1049B000551F661F771FB7FC4160880C991CAA1C05
:1049C000BB1C01974030A0E05A07A0E06A07A0E4B2
:1049D0007A0768F39C8F8B8FDB01CA018F77907009
:1049E000A070B07080349105A105B10561F447FD58
:1049F0000AC081149104A104B10429F0405C5F4F06
:104A00006F4F7F4F40784D8F5E8F6F8F78A383E01D
:104A1000898FBE01675E7F4FCB010E941126E0E1C6
:104A2000A0960C94A627A8E0B0E0E9E1F5E20C948A
:104A300091279B01AC0183E08983DA01C9018827B2
:104A4000B7FD83959927AA27BB27B82E21153105D5
:104A50004105510519F482E089833AC08823A9F001
:104A6000203080E0380780E0480780E8580729F4C4
:104A700060E070E080E09FEC30C0EE24FF2487010E
:104A8000E21AF30A040B150B02C079018A018EE1C8
:104A9000C82ED12CDC82CB82ED82FE820F83188758
:104AA000C801B7010E94C42501971816190684F49D
:104AB000082E04C0EE0CFF1C001F111F0A94D2F731
:104AC000ED82FE820F831887C81AD90ADC82CB8256
:104AD000BA82CE0101960E941126E9E028960C9434
:104AE000AD27ACE0B0E0E7E7F5E20C9498276983E6
:104AF0007A838B839C83BE016B5F7F4FCE010196CF
:104B00000E94F1268D818230A9F1823098F18430A3
:104B100021F48E81882359F40FC02F81388537FD09
:104B200029C06E812F31310564F0662329F020E021
:104B300030E040E050E822C02FEF3FEF4FEF5FE75B
:104B40001DC08EE190E0821B930B29853A854B8531
:104B50005C8504C056954795379527958A95D2F779
:104B6000662361F050954095309521953F4F4F4F0A
:104B70005F4F04C020E030E040E050E0CA01B901DE
:104B8000E2E02C960C94B427EF92FF920F931F93C0
:104B90009B01AC01203080E0380781E0480780E0CD
:104BA000580780F42F3F31054105510509F020F4E5
:104BB000EE24FF24870119C068E0E62EF12C012DB8
:104BC000112D13C0203080E0380780E0480781E0D5
:104BD000580730F490E1E92EF12C012D112D05C07C
:104BE00088E1E82EF12C012D112D80E290E0A0E06B
:104BF000B0E08E199F09A00BB10B04C056954795E4
:104C000037952795EA94D2F7F901E95DFD4F2081A8
:104C1000821B9109A109B1091F910F91FF90EF909B
:104C200008959F92AF92BF92CF92DF92EF92FF9240
:104C30000F931F93EE24FF248701FC01248135810B
:104C40004681578191808081823010F44061A2C0FA
:104C5000843009F49BC0823029F420E030E040E049
:104C600050E005C0211531054105510519F4E0E07A
:104C7000F0E092C0828193816FEF823896070CF04A
:104C80005AC062E87FEF681B790B6A3171052CF01E
:104C900020E030E040E050E02AC0AA24BB246501B7
:104CA00081E090E0A0E0B0E0062E04C0880F991FDC
:104CB000AA1FBB1F0A94D2F70197A109B109822349
:104CC0009323A423B5230097A105B10529F071E032
:104CD000A72EB12CC12CD12C04C0569547953795E1
:104CE00027956A95D2F72A293B294C295D29DA01B3
:104CF000C9018F779070A070B07080349105A105C4
:104D0000B10539F427FF09C0205C3F4F4F4F5F4F7B
:104D100004C0215C3F4F4F4F5F4F80E090E0203058
:104D200060E0360760E0460760E4560710F081E077
:104D300090E0FC0123C08038910544F5FC01E15866
:104D4000FF4FDA01C9018F779070A070B070803486
:104D50009105A105B10539F427FF09C0205C3F4F3B
:104D60004F4F5F4F04C0215C3F4F4F4F5F4F57FF86
:104D700005C05695479537952795319687E0569506
:104D80004795379527958A95D1F706C020E030E002
:104D900040E050E0EFEFF0E0E22EF32E942F9F770B
:104DA000802F8078892B9E2F9795992797958F77BD
:104DB000082F092B9E2F9695812F8078892B979409
:104DC000992497948F77182F1929C801B7011F913B
:104DD0000F91FF90EF90DF90CF90BF90AF909F909A
:104DE0000895CF93DF93FC01DB0120813181928113
:104DF000492F4F7750E0991F9927991F8381E82FFA
:104E0000EE0FE92B6E2F70E0881F8827881FED01B9
:104E10008983EE2371F5211531054105510511F402
:104E200082E02FC06E577040FD017383628367E09C
:104E3000220F331F441F551F6A95D1F783E08C93CF
:104E40000AC0220F331F441F551FED018A819B8129
:104E500001979B838A832030E0E03E07E0E04E0725
:104E6000E0E45E0770F3ED012C833D834E835F83A6
:104E700025C0EF3F79F4211531054105510519F49D
:104E800084E08C931BC044FF03C081E08C9311C06D
:104E90001C920FC06F577040ED017B836A8383E0E3
:104EA0008C9387E0220F331F441F551F8A95D1F73B
:104EB0005064FD012483358346835783DF91CF916E
:104EC0000895AA1BBB1B51E107C0AA1FBB1FA61751
:104ED000B70710F0A61BB70B881F991F5A95A9F7A3
:104EE00080959095BC01CD01089597FB092E07266A
:104EF0000AD077FD04D0E5DF06D000201AF47095C3
:104F000061957F4F0895F6F7909581959F4F08958D
:104F10002F923F924F925F926F927F928F929F92C9
:104F2000AF92BF92CF92DF92EF92FF920F931F93B7
:104F3000CF93DF93CDB7DEB7CA1BDB0B0FB6F89468
:104F4000DEBF0FBECDBF19942A88398848885F8498
:104F50006E847D848C849B84AA84B984C884DF8019
:104F6000EE80FD800C811B81AA81B981CE0FD11DFD
:104F70000FB6F894DEBF0FBECDBFED010895F5D09A
:104F800058F080E891E009F49EEFF6D028F040E870
:104F900051E059F45EEF09C0C0C028C1E92FE078A4
:104FA00003D168F3092E052AC1F3261737074807EE
:104FB000590738F00E2E07F8E02569F0E025E06487
:104FC0000AC0EF6307F8009407FADB01B9019D01FD
:104FD000DC01CA01AD01EF9341D0D5D00AD05F9179
:104FE000552331F02BED3FE049E450FD49ECEFCB88
:104FF0000895DF93DD27B92FBF7740E85FE31616EA
:10500000170648075B0710F4D92FF7D09F938F93AB
:105010007F936F935AD1EEE4F1E082D0B4D02F9118
:105020003F914F915F91FAD0DD2349F09058A2EA69
:105030002AED3FE049EC5FE3D0785D2756D1DF9160
:10504000A2C09AD040F091D030F021F45F3F19F027
:105050005EC05111CCC061C0A7D098F39923C9F3A9
:105060005523B1F3951B550BBB27AA27621773076E
:10507000840738F09F5F5F4F220F331F441FAA1F22
:10508000A9F333D00E2E3AF0E0E830D091505040E2
:10509000E695001CCAF729D0FE2F27D0660F771F90
:1050A000881FBB1F261737074807AB07B0E809F072
:1050B000BB0B802DBF01FF2793585F4F2AF09E3F07
:1050C000510568F024C093C05F3FECF3983EDCF3D9
:1050D000869577956795B795F7959F5FC9F7880F80
:1050E000911D9695879597F90895E1E0660F771FD2
:1050F000881FBB1F621773078407BA0720F0621B63
:10510000730B840BBA0BEE1F88F7E095089597F99F
:105110009F6780E870E060E008959FEF80EC08955D
:10512000DF93CF931F930F93FF92EF92DF927B0158
:105130008C01689405C0DA2EEF0170D0FE01E8946E
:10514000A5912591359145915591AEF3EF01CDD0C3
:10515000FE019701A801DA9479F7DF90EF90FF90B4
:105160000F911F91CF91DF91089500240A94161694
:10517000170618060906089500240A941216130645
:10518000140605060895092E0394000C11F48823D3
:1051900052F0BB0F40F4BF2B11F460FF04C06F5FEF
:1051A0007F4F8F4F9F4F089557FD9058440F551FC5
:1051B00059F05F3F71F04795880F97FB991F61F099
:1051C0009F3F79F087950895121613061406551F10
:1051D000F2CF4695F1DF08C0161617061806991F7C
:1051E000F1CF86957105610508940895E894BB2771
:1051F00066277727CB0197F908959B01AC0160E002
:1052000070E080E89FE3C4C0B0DF28F0B5DF18F09D
:10521000952309F07CCF81CF1124E9CFC5DFA0F31E
:10522000959FD1F3950F50E0551F629FF001729F3B
:10523000BB27F00DB11D639FAA27F00DB11DAA1F5A
:10524000649F6627B00DA11D661F829F2227B00DA7
:10525000A11D621F739FB00DA11D621F839FA00D32
:10526000611D221F749F3327A00D611D231F849F82
:10527000600D211D822F762F6A2F11249F575040D9
:105280008AF0E1F088234AF0EE0FFF1FBB1F661F74
:10529000771F881F91505040A9F79E3F510570F02D
:1052A00036CFA5CF5F3FECF3983EDCF3869577953C
:1052B0006795B795F795E7959F5FC1F7FE2B880F28
:1052C000911D9695879597F908959B01AC01ACCAFD
:1052D0004CDF30F051DF20F031F49F3F11F41EF429
:1052E0001CCF0EF4E095E7FB12CFE92F5DDF80F3D2
:1052F000BA17620773078407950718F071F49EF5D3
:1053000075CF0EF4E0950B2EBA2FA02D0B01B9012D
:1053100090010C01CA01A0011124FF27591B99F02B
:10532000593F50F4503E68F11A16F040A22F232F37
:10533000342F4427585FF3CF469537952795A79587
:10534000F0405395C9F77EF41F16BA0B620B730B2E
:10535000840BBAF09150A1F0FF0FBB1F661F771F9F
:10536000881FC2F70EC0BA0F621F731F841F48F454
:10537000879577956795B795F7959E3F08F0B3CFDA
:105380009395880F08F09927EE0F979587950895C4
:0653900063DEF9CEFFCF41
:1053960002FFFF660200006602000096009600010A
:1053A6000103FFFFFF050101013A010101030000AE
:1053B60000000000000000000102020303030304D2
:1053C600040404040404040505050505050505058E
:1053D600050505050505050606060606060606066E
:1053E6000606060606060606060606060606060657
:1053F600060606060606060707070707070707073E
:105406000707070707070707070707070707070726
:105416000707070707070707070707070707070716
:105426000707070707070707070707070707070706
:1054360007070707070707080808080808080808ED
:1054460008080808080808080808080808080808D6
:1054560008080808080808080808080808080808C6
:1054660008080808080808080808080808080808B6
:1054760008080808080808080808080808080808A6
:105486000808080808080808080808080808080896
:105496000808080808080808080808080808080886
:1054A6000808080808080808080808080808080876
:0854B6000808080808080800B6
:00000001FF
